{
	"backend/contracts/ONGDonaciones.sol": {
		"ONGDonaciones": {
			"abi": [
				{
					"inputs": [],
					"stateMutability": "nonpayable",
					"type": "constructor"
				},
				{
					"anonymous": false,
					"inputs": [
						{
							"indexed": true,
							"internalType": "address",
							"name": "donante",
							"type": "address"
						},
						{
							"indexed": false,
							"internalType": "string",
							"name": "proyectoId",
							"type": "string"
						},
						{
							"indexed": false,
							"internalType": "uint256",
							"name": "cantidad",
							"type": "uint256"
						}
					],
					"name": "DonacionRealizada",
					"type": "event"
				},
				{
					"anonymous": false,
					"inputs": [
						{
							"indexed": true,
							"internalType": "address",
							"name": "direccion",
							"type": "address"
						},
						{
							"indexed": false,
							"internalType": "string",
							"name": "nombre",
							"type": "string"
						}
					],
					"name": "DonanteRegistrado",
					"type": "event"
				},
				{
					"anonymous": false,
					"inputs": [
						{
							"indexed": false,
							"internalType": "string",
							"name": "id",
							"type": "string"
						},
						{
							"indexed": false,
							"internalType": "string",
							"name": "descripcion",
							"type": "string"
						}
					],
					"name": "ProyectoCreado",
					"type": "event"
				},
				{
					"anonymous": false,
					"inputs": [
						{
							"indexed": true,
							"internalType": "address",
							"name": "donante",
							"type": "address"
						},
						{
							"indexed": false,
							"internalType": "string",
							"name": "proyectoId",
							"type": "string"
						},
						{
							"indexed": false,
							"internalType": "uint256",
							"name": "cantidad_votos",
							"type": "uint256"
						}
					],
					"name": "VotacionRealizada",
					"type": "event"
				},
				{
					"inputs": [
						{
							"internalType": "string",
							"name": "_proyectoId",
							"type": "string"
						},
						{
							"internalType": "enum ONGDonaciones.EstadoProyecto",
							"name": "_nuevoEstado",
							"type": "uint8"
						}
					],
					"name": "cambiarEstadoProyecto",
					"outputs": [],
					"stateMutability": "nonpayable",
					"type": "function"
				},
				{
					"inputs": [
						{
							"internalType": "string",
							"name": "_id",
							"type": "string"
						},
						{
							"internalType": "string",
							"name": "_descripcion",
							"type": "string"
						},
						{
							"internalType": "address",
							"name": "_responsable",
							"type": "address"
						}
					],
					"name": "crearProyecto",
					"outputs": [],
					"stateMutability": "nonpayable",
					"type": "function"
				},
				{
					"inputs": [
						{
							"internalType": "string",
							"name": "",
							"type": "string"
						}
					],
					"name": "donaciones",
					"outputs": [
						{
							"internalType": "string",
							"name": "id",
							"type": "string"
						},
						{
							"internalType": "address",
							"name": "donante",
							"type": "address"
						},
						{
							"internalType": "string",
							"name": "proyectoId",
							"type": "string"
						},
						{
							"internalType": "uint256",
							"name": "cantidad",
							"type": "uint256"
						},
						{
							"internalType": "uint256",
							"name": "fecha",
							"type": "uint256"
						}
					],
					"stateMutability": "view",
					"type": "function"
				},
				{
					"inputs": [
						{
							"internalType": "address",
							"name": "",
							"type": "address"
						}
					],
					"name": "donantes",
					"outputs": [
						{
							"internalType": "address",
							"name": "direccion",
							"type": "address"
						},
						{
							"internalType": "string",
							"name": "nombre",
							"type": "string"
						},
						{
							"internalType": "enum ONGDonaciones.TipoDonante",
							"name": "tipoDonante",
							"type": "uint8"
						},
						{
							"internalType": "uint256",
							"name": "totalDonado",
							"type": "uint256"
						},
						{
							"internalType": "uint256",
							"name": "tokensGobernanza",
							"type": "uint256"
						}
					],
					"stateMutability": "view",
					"type": "function"
				},
				{
					"inputs": [
						{
							"internalType": "string",
							"name": "_proyectoId",
							"type": "string"
						}
					],
					"name": "donar",
					"outputs": [],
					"stateMutability": "payable",
					"type": "function"
				},
				{
					"inputs": [
						{
							"internalType": "uint256",
							"name": "",
							"type": "uint256"
						}
					],
					"name": "listaDonaciones",
					"outputs": [
						{
							"internalType": "string",
							"name": "",
							"type": "string"
						}
					],
					"stateMutability": "view",
					"type": "function"
				},
				{
					"inputs": [
						{
							"internalType": "uint256",
							"name": "",
							"type": "uint256"
						}
					],
					"name": "listaDonantes",
					"outputs": [
						{
							"internalType": "address",
							"name": "",
							"type": "address"
						}
					],
					"stateMutability": "view",
					"type": "function"
				},
				{
					"inputs": [
						{
							"internalType": "uint256",
							"name": "",
							"type": "uint256"
						}
					],
					"name": "listaProyectos",
					"outputs": [
						{
							"internalType": "string",
							"name": "",
							"type": "string"
						}
					],
					"stateMutability": "view",
					"type": "function"
				},
				{
					"inputs": [],
					"name": "obtenerBalance",
					"outputs": [
						{
							"internalType": "uint256",
							"name": "",
							"type": "uint256"
						}
					],
					"stateMutability": "view",
					"type": "function"
				},
				{
					"inputs": [
						{
							"internalType": "string",
							"name": "_id",
							"type": "string"
						}
					],
					"name": "obtenerDonacion",
					"outputs": [
						{
							"components": [
								{
									"internalType": "string",
									"name": "id",
									"type": "string"
								},
								{
									"internalType": "address",
									"name": "donante",
									"type": "address"
								},
								{
									"internalType": "string",
									"name": "proyectoId",
									"type": "string"
								},
								{
									"internalType": "uint256",
									"name": "cantidad",
									"type": "uint256"
								},
								{
									"internalType": "uint256",
									"name": "fecha",
									"type": "uint256"
								}
							],
							"internalType": "struct ONGDonaciones.Donacion",
							"name": "",
							"type": "tuple"
						}
					],
					"stateMutability": "view",
					"type": "function"
				},
				{
					"inputs": [
						{
							"internalType": "address",
							"name": "_direccion",
							"type": "address"
						}
					],
					"name": "obtenerDonante",
					"outputs": [
						{
							"components": [
								{
									"internalType": "address",
									"name": "direccion",
									"type": "address"
								},
								{
									"internalType": "string",
									"name": "nombre",
									"type": "string"
								},
								{
									"internalType": "enum ONGDonaciones.TipoDonante",
									"name": "tipoDonante",
									"type": "uint8"
								},
								{
									"internalType": "uint256",
									"name": "totalDonado",
									"type": "uint256"
								},
								{
									"internalType": "uint256",
									"name": "tokensGobernanza",
									"type": "uint256"
								}
							],
							"internalType": "struct ONGDonaciones.Donante",
							"name": "",
							"type": "tuple"
						}
					],
					"stateMutability": "view",
					"type": "function"
				},
				{
					"inputs": [
						{
							"internalType": "string",
							"name": "_id",
							"type": "string"
						}
					],
					"name": "obtenerProyecto",
					"outputs": [
						{
							"components": [
								{
									"internalType": "string",
									"name": "id",
									"type": "string"
								},
								{
									"internalType": "string",
									"name": "descripcion",
									"type": "string"
								},
								{
									"internalType": "address",
									"name": "responsable",
									"type": "address"
								},
								{
									"internalType": "uint256",
									"name": "cantidadRecaudada",
									"type": "uint256"
								},
								{
									"internalType": "uint256",
									"name": "cantidadValidada",
									"type": "uint256"
								},
								{
									"internalType": "enum ONGDonaciones.EstadoProyecto",
									"name": "estado",
									"type": "uint8"
								},
								{
									"internalType": "uint256",
									"name": "votos",
									"type": "uint256"
								}
							],
							"internalType": "struct ONGDonaciones.Proyecto",
							"name": "",
							"type": "tuple"
						}
					],
					"stateMutability": "view",
					"type": "function"
				},
				{
					"inputs": [],
					"name": "obtenerTotalDonaciones",
					"outputs": [
						{
							"internalType": "uint256",
							"name": "",
							"type": "uint256"
						}
					],
					"stateMutability": "view",
					"type": "function"
				},
				{
					"inputs": [],
					"name": "obtenerTotalDonantes",
					"outputs": [
						{
							"internalType": "uint256",
							"name": "",
							"type": "uint256"
						}
					],
					"stateMutability": "view",
					"type": "function"
				},
				{
					"inputs": [],
					"name": "obtenerTotalProyectos",
					"outputs": [
						{
							"internalType": "uint256",
							"name": "",
							"type": "uint256"
						}
					],
					"stateMutability": "view",
					"type": "function"
				},
				{
					"inputs": [],
					"name": "owner",
					"outputs": [
						{
							"internalType": "address",
							"name": "",
							"type": "address"
						}
					],
					"stateMutability": "view",
					"type": "function"
				},
				{
					"inputs": [
						{
							"internalType": "string",
							"name": "",
							"type": "string"
						}
					],
					"name": "proyectos",
					"outputs": [
						{
							"internalType": "string",
							"name": "id",
							"type": "string"
						},
						{
							"internalType": "string",
							"name": "descripcion",
							"type": "string"
						},
						{
							"internalType": "address",
							"name": "responsable",
							"type": "address"
						},
						{
							"internalType": "uint256",
							"name": "cantidadRecaudada",
							"type": "uint256"
						},
						{
							"internalType": "uint256",
							"name": "cantidadValidada",
							"type": "uint256"
						},
						{
							"internalType": "enum ONGDonaciones.EstadoProyecto",
							"name": "estado",
							"type": "uint8"
						},
						{
							"internalType": "uint256",
							"name": "votos",
							"type": "uint256"
						}
					],
					"stateMutability": "view",
					"type": "function"
				},
				{
					"inputs": [
						{
							"internalType": "string",
							"name": "_nombre",
							"type": "string"
						},
						{
							"internalType": "enum ONGDonaciones.TipoDonante",
							"name": "_tipo",
							"type": "uint8"
						}
					],
					"name": "registrarDonante",
					"outputs": [],
					"stateMutability": "nonpayable",
					"type": "function"
				},
				{
					"inputs": [],
					"name": "retirarFondos",
					"outputs": [],
					"stateMutability": "nonpayable",
					"type": "function"
				},
				{
					"inputs": [
						{
							"internalType": "string",
							"name": "_proyectoId",
							"type": "string"
						},
						{
							"internalType": "uint256",
							"name": "_cantidad",
							"type": "uint256"
						}
					],
					"name": "validarFondosProyecto",
					"outputs": [],
					"stateMutability": "nonpayable",
					"type": "function"
				},
				{
					"inputs": [
						{
							"internalType": "string",
							"name": "_proyectoId",
							"type": "string"
						},
						{
							"internalType": "uint256",
							"name": "_cantidadVotos",
							"type": "uint256"
						}
					],
					"name": "votarProyecto",
					"outputs": [],
					"stateMutability": "nonpayable",
					"type": "function"
				}
			],
			"devdoc": {
				"kind": "dev",
				"methods": {},
				"version": 1
			},
			"evm": {
				"assembly": "    /* \"backend/contracts/ONGDonaciones.sol\":57:8721  contract ONGDonaciones {... */\n  mstore(0x40, 0x80)\n    /* \"backend/contracts/ONGDonaciones.sol\":1357:1358  0 */\n  0x00\n    /* \"backend/contracts/ONGDonaciones.sol\":1320:1358  uint256 private contadorDonaciones = 0 */\n  0x06\n  sstore\n    /* \"backend/contracts/ONGDonaciones.sol\":2083:2175  constructor() {... */\n  callvalue\n  dup1\n  iszero\n  tag_1\n  jumpi\n  revert(0x00, 0x00)\ntag_1:\n  pop\n    /* \"backend/contracts/ONGDonaciones.sol\":2115:2125  msg.sender */\n  caller\n    /* \"backend/contracts/ONGDonaciones.sol\":2107:2112  owner */\n  0x07\n  0x00\n    /* \"backend/contracts/ONGDonaciones.sol\":2107:2125  owner = msg.sender */\n  0x0100\n  exp\n  dup2\n  sload\n  dup2\n  0xffffffffffffffffffffffffffffffffffffffff\n  mul\n  not\n  and\n  swap1\n  dup4\n  0xffffffffffffffffffffffffffffffffffffffff\n  and\n  mul\n  or\n  swap1\n  sstore\n  pop\n    /* \"backend/contracts/ONGDonaciones.sol\":57:8721  contract ONGDonaciones {... */\n  dataSize(sub_0)\n  dup1\n  dataOffset(sub_0)\n  0x00\n  codecopy\n  0x00\n  return\nstop\n\nsub_0: assembly {\n        /* \"backend/contracts/ONGDonaciones.sol\":57:8721  contract ONGDonaciones {... */\n      mstore(0x40, 0x80)\n      jumpi(tag_1, lt(calldatasize, 0x04))\n      shr(0xe0, calldataload(0x00))\n      dup1\n      0x6db33b4a\n      gt\n      tag_23\n      jumpi\n      dup1\n      0x8e5a67ad\n      gt\n      tag_24\n      jumpi\n      dup1\n      0x8e5a67ad\n      eq\n      tag_17\n      jumpi\n      dup1\n      0x9fb7aafc\n      eq\n      tag_18\n      jumpi\n      dup1\n      0xb7bf159c\n      eq\n      tag_19\n      jumpi\n      dup1\n      0xdcd82bb8\n      eq\n      tag_20\n      jumpi\n      dup1\n      0xe61ef234\n      eq\n      tag_21\n      jumpi\n      dup1\n      0xe63cfcd5\n      eq\n      tag_22\n      jumpi\n      jump(tag_1)\n    tag_24:\n      dup1\n      0x6db33b4a\n      eq\n      tag_12\n      jumpi\n      dup1\n      0x81b662c8\n      eq\n      tag_13\n      jumpi\n      dup1\n      0x8af01880\n      eq\n      tag_14\n      jumpi\n      dup1\n      0x8cb813ce\n      eq\n      tag_15\n      jumpi\n      dup1\n      0x8da5cb5b\n      eq\n      tag_16\n      jumpi\n      jump(tag_1)\n    tag_23:\n      dup1\n      0x2fe70653\n      gt\n      tag_25\n      jumpi\n      dup1\n      0x2fe70653\n      eq\n      tag_7\n      jumpi\n      dup1\n      0x3e08ec0b\n      eq\n      tag_8\n      jumpi\n      dup1\n      0x460be06b\n      eq\n      tag_9\n      jumpi\n      dup1\n      0x4c47d69f\n      eq\n      tag_10\n      jumpi\n      dup1\n      0x687b5810\n      eq\n      tag_11\n      jumpi\n      jump(tag_1)\n    tag_25:\n      dup1\n      0x020be41f\n      eq\n      tag_2\n      jumpi\n      dup1\n      0x1815a0f7\n      eq\n      tag_3\n      jumpi\n      dup1\n      0x1feac110\n      eq\n      tag_4\n      jumpi\n      dup1\n      0x22d9a1ee\n      eq\n      tag_5\n      jumpi\n      dup1\n      0x29211437\n      eq\n      tag_6\n      jumpi\n    tag_1:\n      revert(0x00, 0x00)\n        /* \"backend/contracts/ONGDonaciones.sol\":1235:1266  string[] public listaDonaciones */\n    tag_2:\n      callvalue\n      dup1\n      iszero\n      tag_26\n      jumpi\n      revert(0x00, 0x00)\n    tag_26:\n      pop\n      tag_27\n      0x04\n      dup1\n      calldatasize\n      sub\n      dup2\n      add\n      swap1\n      tag_28\n      swap2\n      swap1\n      tag_29\n      jump\t// in\n    tag_28:\n      tag_30\n      jump\t// in\n    tag_27:\n      mload(0x40)\n      tag_31\n      swap2\n      swap1\n      tag_32\n      jump\t// in\n    tag_31:\n      mload(0x40)\n      dup1\n      swap2\n      sub\n      swap1\n      return\n        /* \"backend/contracts/ONGDonaciones.sol\":7427:7533  function obtenerTotalDonantes() public view returns (uint256) {... */\n    tag_3:\n      callvalue\n      dup1\n      iszero\n      tag_33\n      jumpi\n      revert(0x00, 0x00)\n    tag_33:\n      pop\n      tag_34\n      tag_35\n      jump\t// in\n    tag_34:\n      mload(0x40)\n      tag_36\n      swap2\n      swap1\n      tag_37\n      jump\t// in\n    tag_36:\n      mload(0x40)\n      dup1\n      swap2\n      sub\n      swap1\n      return\n        /* \"backend/contracts/ONGDonaciones.sol\":6612:6861  function cambiarEstadoProyecto(string memory _proyectoId, EstadoProyecto _nuevoEstado) public soloOwner {... */\n    tag_4:\n      callvalue\n      dup1\n      iszero\n      tag_38\n      jumpi\n      revert(0x00, 0x00)\n    tag_38:\n      pop\n      tag_39\n      0x04\n      dup1\n      calldatasize\n      sub\n      dup2\n      add\n      swap1\n      tag_40\n      swap2\n      swap1\n      tag_41\n      jump\t// in\n    tag_40:\n      tag_42\n      jump\t// in\n    tag_39:\n      stop\n        /* \"backend/contracts/ONGDonaciones.sol\":8618:8719  function obtenerBalance() public view returns (uint256) {... */\n    tag_5:\n      callvalue\n      dup1\n      iszero\n      tag_43\n      jumpi\n      revert(0x00, 0x00)\n    tag_43:\n      pop\n      tag_44\n      tag_45\n      jump\t// in\n    tag_44:\n      mload(0x40)\n      tag_46\n      swap2\n      swap1\n      tag_37\n      jump\t// in\n    tag_46:\n      mload(0x40)\n      dup1\n      swap2\n      sub\n      swap1\n      return\n        /* \"backend/contracts/ONGDonaciones.sol\":1163:1193  address[] public listaDonantes */\n    tag_6:\n      callvalue\n      dup1\n      iszero\n      tag_47\n      jumpi\n      revert(0x00, 0x00)\n    tag_47:\n      pop\n      tag_48\n      0x04\n      dup1\n      calldatasize\n      sub\n      dup2\n      add\n      swap1\n      tag_49\n      swap2\n      swap1\n      tag_29\n      jump\t// in\n    tag_49:\n      tag_50\n      jump\t// in\n    tag_48:\n      mload(0x40)\n      tag_51\n      swap2\n      swap1\n      tag_52\n      jump\t// in\n    tag_51:\n      mload(0x40)\n      dup1\n      swap2\n      sub\n      swap1\n      return\n        /* \"backend/contracts/ONGDonaciones.sol\":3878:5432  function donar(string memory _proyectoId) public payable {... */\n    tag_7:\n      tag_53\n      0x04\n      dup1\n      calldatasize\n      sub\n      dup2\n      add\n      swap1\n      tag_54\n      swap2\n      swap1\n      tag_55\n      jump\t// in\n    tag_54:\n      tag_56\n      jump\t// in\n    tag_53:\n      stop\n        /* \"backend/contracts/ONGDonaciones.sol\":7031:7156  function obtenerDonante(address _direccion) public view returns (Donante memory) {... */\n    tag_8:\n      callvalue\n      dup1\n      iszero\n      tag_57\n      jumpi\n      revert(0x00, 0x00)\n    tag_57:\n      pop\n      tag_58\n      0x04\n      dup1\n      calldatasize\n      sub\n      dup2\n      add\n      swap1\n      tag_59\n      swap2\n      swap1\n      tag_60\n      jump\t// in\n    tag_59:\n      tag_61\n      jump\t// in\n    tag_58:\n      mload(0x40)\n      tag_62\n      swap2\n      swap1\n      tag_63\n      jump\t// in\n    tag_62:\n      mload(0x40)\n      dup1\n      swap2\n      sub\n      swap1\n      return\n        /* \"backend/contracts/ONGDonaciones.sol\":1002:1046  mapping(string => Proyecto) public proyectos */\n    tag_9:\n      callvalue\n      dup1\n      iszero\n      tag_64\n      jumpi\n      revert(0x00, 0x00)\n    tag_64:\n      pop\n      tag_65\n      0x04\n      dup1\n      calldatasize\n      sub\n      dup2\n      add\n      swap1\n      tag_66\n      swap2\n      swap1\n      tag_55\n      jump\t// in\n    tag_66:\n      tag_67\n      jump\t// in\n    tag_65:\n      mload(0x40)\n      tag_68\n      swap8\n      swap7\n      swap6\n      swap5\n      swap4\n      swap3\n      swap2\n      swap1\n      tag_69\n      jump\t// in\n    tag_68:\n      mload(0x40)\n      dup1\n      swap2\n      sub\n      swap1\n      return\n        /* \"backend/contracts/ONGDonaciones.sol\":7296:7417  function obtenerDonacion(string memory _id) public view returns (Donacion memory) {... */\n    tag_10:\n      callvalue\n      dup1\n      iszero\n      tag_70\n      jumpi\n      revert(0x00, 0x00)\n    tag_70:\n      pop\n      tag_71\n      0x04\n      dup1\n      calldatasize\n      sub\n      dup2\n      add\n      swap1\n      tag_72\n      swap2\n      swap1\n      tag_55\n      jump\t// in\n    tag_72:\n      tag_73\n      jump\t// in\n    tag_71:\n      mload(0x40)\n      tag_74\n      swap2\n      swap1\n      tag_75\n      jump\t// in\n    tag_74:\n      mload(0x40)\n      dup1\n      swap2\n      sub\n      swap1\n      return\n        /* \"backend/contracts/ONGDonaciones.sol\":7543:7651  function obtenerTotalProyectos() public view returns (uint256) {... */\n    tag_11:\n      callvalue\n      dup1\n      iszero\n      tag_76\n      jumpi\n      revert(0x00, 0x00)\n    tag_76:\n      pop\n      tag_77\n      tag_78\n      jump\t// in\n    tag_77:\n      mload(0x40)\n      tag_79\n      swap2\n      swap1\n      tag_37\n      jump\t// in\n    tag_79:\n      mload(0x40)\n      dup1\n      swap2\n      sub\n      swap1\n      return\n        /* \"backend/contracts/ONGDonaciones.sol\":953:996  mapping(address => Donante) public donantes */\n    tag_12:\n      callvalue\n      dup1\n      iszero\n      tag_80\n      jumpi\n      revert(0x00, 0x00)\n    tag_80:\n      pop\n      tag_81\n      0x04\n      dup1\n      calldatasize\n      sub\n      dup2\n      add\n      swap1\n      tag_82\n      swap2\n      swap1\n      tag_60\n      jump\t// in\n    tag_82:\n      tag_83\n      jump\t// in\n    tag_81:\n      mload(0x40)\n      tag_84\n      swap6\n      swap5\n      swap4\n      swap3\n      swap2\n      swap1\n      tag_85\n      jump\t// in\n    tag_84:\n      mload(0x40)\n      dup1\n      swap2\n      sub\n      swap1\n      return\n        /* \"backend/contracts/ONGDonaciones.sol\":7166:7286  function obtenerProyecto(string memory _id) public view returns (Proyecto memory) {... */\n    tag_13:\n      callvalue\n      dup1\n      iszero\n      tag_86\n      jumpi\n      revert(0x00, 0x00)\n    tag_86:\n      pop\n      tag_87\n      0x04\n      dup1\n      calldatasize\n      sub\n      dup2\n      add\n      swap1\n      tag_88\n      swap2\n      swap1\n      tag_55\n      jump\t// in\n    tag_88:\n      tag_89\n      jump\t// in\n    tag_87:\n      mload(0x40)\n      tag_90\n      swap2\n      swap1\n      tag_91\n      jump\t// in\n    tag_90:\n      mload(0x40)\n      dup1\n      swap2\n      sub\n      swap1\n      return\n        /* \"backend/contracts/ONGDonaciones.sol\":8467:8572  function retirarFondos() public soloOwner {... */\n    tag_14:\n      callvalue\n      dup1\n      iszero\n      tag_92\n      jumpi\n      revert(0x00, 0x00)\n    tag_92:\n      pop\n      tag_93\n      tag_94\n      jump\t// in\n    tag_93:\n      stop\n        /* \"backend/contracts/ONGDonaciones.sol\":7661:7771  function obtenerTotalDonaciones() public view returns (uint256) {... */\n    tag_15:\n      callvalue\n      dup1\n      iszero\n      tag_95\n      jumpi\n      revert(0x00, 0x00)\n    tag_95:\n      pop\n      tag_96\n      tag_97\n      jump\t// in\n    tag_96:\n      mload(0x40)\n      tag_98\n      swap2\n      swap1\n      tag_37\n      jump\t// in\n    tag_98:\n      mload(0x40)\n      dup1\n      swap2\n      sub\n      swap1\n      return\n        /* \"backend/contracts/ONGDonaciones.sol\":1414:1434  address public owner */\n    tag_16:\n      callvalue\n      dup1\n      iszero\n      tag_99\n      jumpi\n      revert(0x00, 0x00)\n    tag_99:\n      pop\n      tag_100\n      tag_101\n      jump\t// in\n    tag_100:\n      mload(0x40)\n      tag_102\n      swap2\n      swap1\n      tag_52\n      jump\t// in\n    tag_102:\n      mload(0x40)\n      dup1\n      swap2\n      sub\n      swap1\n      return\n        /* \"backend/contracts/ONGDonaciones.sol\":1052:1097  mapping(string => Donacion) public donaciones */\n    tag_17:\n      callvalue\n      dup1\n      iszero\n      tag_103\n      jumpi\n      revert(0x00, 0x00)\n    tag_103:\n      pop\n      tag_104\n      0x04\n      dup1\n      calldatasize\n      sub\n      dup2\n      add\n      swap1\n      tag_105\n      swap2\n      swap1\n      tag_55\n      jump\t// in\n    tag_105:\n      tag_106\n      jump\t// in\n    tag_104:\n      mload(0x40)\n      tag_107\n      swap6\n      swap5\n      swap4\n      swap3\n      swap2\n      swap1\n      tag_108\n      jump\t// in\n    tag_107:\n      mload(0x40)\n      dup1\n      swap2\n      sub\n      swap1\n      return\n        /* \"backend/contracts/ONGDonaciones.sol\":1199:1229  string[] public listaProyectos */\n    tag_18:\n      callvalue\n      dup1\n      iszero\n      tag_109\n      jumpi\n      revert(0x00, 0x00)\n    tag_109:\n      pop\n      tag_110\n      0x04\n      dup1\n      calldatasize\n      sub\n      dup2\n      add\n      swap1\n      tag_111\n      swap2\n      swap1\n      tag_29\n      jump\t// in\n    tag_111:\n      tag_112\n      jump\t// in\n    tag_110:\n      mload(0x40)\n      tag_113\n      swap2\n      swap1\n      tag_32\n      jump\t// in\n    tag_113:\n      mload(0x40)\n      dup1\n      swap2\n      sub\n      swap1\n      return\n        /* \"backend/contracts/ONGDonaciones.sol\":6192:6549  function validarFondosProyecto(string memory _proyectoId, uint256 _cantidad) public soloOwner {... */\n    tag_19:\n      callvalue\n      dup1\n      iszero\n      tag_114\n      jumpi\n      revert(0x00, 0x00)\n    tag_114:\n      pop\n      tag_115\n      0x04\n      dup1\n      calldatasize\n      sub\n      dup2\n      add\n      swap1\n      tag_116\n      swap2\n      swap1\n      tag_117\n      jump\t// in\n    tag_116:\n      tag_118\n      jump\t// in\n    tag_115:\n      stop\n        /* \"backend/contracts/ONGDonaciones.sol\":2645:3135  function registrarDonante(string memory _nombre, TipoDonante _tipo) public {... */\n    tag_20:\n      callvalue\n      dup1\n      iszero\n      tag_119\n      jumpi\n      revert(0x00, 0x00)\n    tag_119:\n      pop\n      tag_120\n      0x04\n      dup1\n      calldatasize\n      sub\n      dup2\n      add\n      swap1\n      tag_121\n      swap2\n      swap1\n      tag_122\n      jump\t// in\n    tag_121:\n      tag_123\n      jump\t// in\n    tag_120:\n      stop\n        /* \"backend/contracts/ONGDonaciones.sol\":3205:3807  function crearProyecto(... */\n    tag_21:\n      callvalue\n      dup1\n      iszero\n      tag_124\n      jumpi\n      revert(0x00, 0x00)\n    tag_124:\n      pop\n      tag_125\n      0x04\n      dup1\n      calldatasize\n      sub\n      dup2\n      add\n      swap1\n      tag_126\n      swap2\n      swap1\n      tag_127\n      jump\t// in\n    tag_126:\n      tag_128\n      jump\t// in\n    tag_125:\n      stop\n        /* \"backend/contracts/ONGDonaciones.sol\":5480:6099  function votarProyecto(string memory _proyectoId, uint256 _cantidadVotos) public { // No es payable porque usamos token interno, no ETH... */\n    tag_22:\n      callvalue\n      dup1\n      iszero\n      tag_129\n      jumpi\n      revert(0x00, 0x00)\n    tag_129:\n      pop\n      tag_130\n      0x04\n      dup1\n      calldatasize\n      sub\n      dup2\n      add\n      swap1\n      tag_131\n      swap2\n      swap1\n      tag_117\n      jump\t// in\n    tag_131:\n      tag_132\n      jump\t// in\n    tag_130:\n      stop\n        /* \"backend/contracts/ONGDonaciones.sol\":1235:1266  string[] public listaDonaciones */\n    tag_30:\n      0x05\n      dup2\n      dup2\n      sload\n      dup2\n      lt\n      tag_133\n      jumpi\n      0x00\n      dup1\n      revert\n    tag_133:\n      swap1\n      0x00\n      mstore\n      keccak256(0x00, 0x20)\n      add\n      0x00\n      swap2\n      pop\n      swap1\n      pop\n      dup1\n      sload\n      tag_135\n      swap1\n      tag_136\n      jump\t// in\n    tag_135:\n      dup1\n      0x1f\n      add\n      0x20\n      dup1\n      swap2\n      div\n      mul\n      0x20\n      add\n      mload(0x40)\n      swap1\n      dup2\n      add\n      0x40\n      mstore\n      dup1\n      swap3\n      swap2\n      swap1\n      dup2\n      dup2\n      mstore\n      0x20\n      add\n      dup3\n      dup1\n      sload\n      tag_137\n      swap1\n      tag_136\n      jump\t// in\n    tag_137:\n      dup1\n      iszero\n      tag_138\n      jumpi\n      dup1\n      0x1f\n      lt\n      tag_139\n      jumpi\n      0x0100\n      dup1\n      dup4\n      sload\n      div\n      mul\n      dup4\n      mstore\n      swap2\n      0x20\n      add\n      swap2\n      jump(tag_138)\n    tag_139:\n      dup3\n      add\n      swap2\n      swap1\n      0x00\n      mstore\n      keccak256(0x00, 0x20)\n      swap1\n    tag_140:\n      dup2\n      sload\n      dup2\n      mstore\n      swap1\n      0x01\n      add\n      swap1\n      0x20\n      add\n      dup1\n      dup4\n      gt\n      tag_140\n      jumpi\n      dup3\n      swap1\n      sub\n      0x1f\n      and\n      dup3\n      add\n      swap2\n    tag_138:\n      pop\n      pop\n      pop\n      pop\n      pop\n      dup2\n      jump\t// out\n        /* \"backend/contracts/ONGDonaciones.sol\":7427:7533  function obtenerTotalDonantes() public view returns (uint256) {... */\n    tag_35:\n        /* \"backend/contracts/ONGDonaciones.sol\":7480:7487  uint256 */\n      0x00\n        /* \"backend/contracts/ONGDonaciones.sol\":7506:7519  listaDonantes */\n      0x03\n        /* \"backend/contracts/ONGDonaciones.sol\":7506:7526  listaDonantes.length */\n      dup1\n      sload\n      swap1\n      pop\n        /* \"backend/contracts/ONGDonaciones.sol\":7499:7526  return listaDonantes.length */\n      swap1\n      pop\n        /* \"backend/contracts/ONGDonaciones.sol\":7427:7533  function obtenerTotalDonantes() public view returns (uint256) {... */\n      swap1\n      jump\t// out\n        /* \"backend/contracts/ONGDonaciones.sol\":6612:6861  function cambiarEstadoProyecto(string memory _proyectoId, EstadoProyecto _nuevoEstado) public soloOwner {... */\n    tag_42:\n        /* \"backend/contracts/ONGDonaciones.sol\":2386:2391  owner */\n      0x07\n      0x00\n      swap1\n      sload\n      swap1\n      0x0100\n      exp\n      swap1\n      div\n      0xffffffffffffffffffffffffffffffffffffffff\n      and\n        /* \"backend/contracts/ONGDonaciones.sol\":2372:2391  msg.sender == owner */\n      0xffffffffffffffffffffffffffffffffffffffff\n      and\n        /* \"backend/contracts/ONGDonaciones.sol\":2372:2382  msg.sender */\n      caller\n        /* \"backend/contracts/ONGDonaciones.sol\":2372:2391  msg.sender == owner */\n      0xffffffffffffffffffffffffffffffffffffffff\n      and\n      eq\n        /* \"backend/contracts/ONGDonaciones.sol\":2364:2429  require(msg.sender == owner, \"Solo el owner puede ejecutar esto\") */\n      tag_143\n      jumpi\n      mload(0x40)\n      0x08c379a000000000000000000000000000000000000000000000000000000000\n      dup2\n      mstore\n      0x04\n      add\n      tag_144\n      swap1\n      tag_145\n      jump\t// in\n    tag_144:\n      mload(0x40)\n      dup1\n      swap2\n      sub\n      swap1\n      revert\n    tag_143:\n        /* \"backend/contracts/ONGDonaciones.sol\":6776:6777  0 */\n      0x00\n        /* \"backend/contracts/ONGDonaciones.sol\":6740:6749  proyectos */\n      0x01\n        /* \"backend/contracts/ONGDonaciones.sol\":6750:6761  _proyectoId */\n      dup4\n        /* \"backend/contracts/ONGDonaciones.sol\":6740:6762  proyectos[_proyectoId] */\n      mload(0x40)\n      tag_147\n      swap2\n      swap1\n      tag_148\n      jump\t// in\n    tag_147:\n      swap1\n      dup2\n      mstore\n      0x20\n      add\n      mload(0x40)\n      dup1\n      swap2\n      sub\n      swap1\n      keccak256\n        /* \"backend/contracts/ONGDonaciones.sol\":6740:6765  proyectos[_proyectoId].id */\n      0x00\n      add\n        /* \"backend/contracts/ONGDonaciones.sol\":6734:6773  bytes(proyectos[_proyectoId].id).length */\n      dup1\n      sload\n      tag_149\n      swap1\n      tag_136\n      jump\t// in\n    tag_149:\n      swap1\n      pop\n        /* \"backend/contracts/ONGDonaciones.sol\":6734:6777  bytes(proyectos[_proyectoId].id).length > 0 */\n      gt\n        /* \"backend/contracts/ONGDonaciones.sol\":6726:6800  require(bytes(proyectos[_proyectoId].id).length > 0, \"Proyecto no existe\") */\n      tag_150\n      jumpi\n      mload(0x40)\n      0x08c379a000000000000000000000000000000000000000000000000000000000\n      dup2\n      mstore\n      0x04\n      add\n      tag_151\n      swap1\n      tag_152\n      jump\t// in\n    tag_151:\n      mload(0x40)\n      dup1\n      swap2\n      sub\n      swap1\n      revert\n    tag_150:\n        /* \"backend/contracts/ONGDonaciones.sol\":6842:6854  _nuevoEstado */\n      dup1\n        /* \"backend/contracts/ONGDonaciones.sol\":6810:6819  proyectos */\n      0x01\n        /* \"backend/contracts/ONGDonaciones.sol\":6820:6831  _proyectoId */\n      dup4\n        /* \"backend/contracts/ONGDonaciones.sol\":6810:6832  proyectos[_proyectoId] */\n      mload(0x40)\n      tag_153\n      swap2\n      swap1\n      tag_148\n      jump\t// in\n    tag_153:\n      swap1\n      dup2\n      mstore\n      0x20\n      add\n      mload(0x40)\n      dup1\n      swap2\n      sub\n      swap1\n      keccak256\n        /* \"backend/contracts/ONGDonaciones.sol\":6810:6839  proyectos[_proyectoId].estado */\n      0x05\n      add\n      0x00\n        /* \"backend/contracts/ONGDonaciones.sol\":6810:6854  proyectos[_proyectoId].estado = _nuevoEstado */\n      0x0100\n      exp\n      dup2\n      sload\n      dup2\n      0xff\n      mul\n      not\n      and\n      swap1\n      dup4\n      0x01\n      dup2\n      gt\n      iszero\n      tag_154\n      jumpi\n      tag_155\n      tag_156\n      jump\t// in\n    tag_155:\n    tag_154:\n      mul\n      or\n      swap1\n      sstore\n      pop\n        /* \"backend/contracts/ONGDonaciones.sol\":6612:6861  function cambiarEstadoProyecto(string memory _proyectoId, EstadoProyecto _nuevoEstado) public soloOwner {... */\n      pop\n      pop\n      jump\t// out\n        /* \"backend/contracts/ONGDonaciones.sol\":8618:8719  function obtenerBalance() public view returns (uint256) {... */\n    tag_45:\n        /* \"backend/contracts/ONGDonaciones.sol\":8665:8672  uint256 */\n      0x00\n        /* \"backend/contracts/ONGDonaciones.sol\":8691:8712  address(this).balance */\n      selfbalance\n        /* \"backend/contracts/ONGDonaciones.sol\":8684:8712  return address(this).balance */\n      swap1\n      pop\n        /* \"backend/contracts/ONGDonaciones.sol\":8618:8719  function obtenerBalance() public view returns (uint256) {... */\n      swap1\n      jump\t// out\n        /* \"backend/contracts/ONGDonaciones.sol\":1163:1193  address[] public listaDonantes */\n    tag_50:\n      0x03\n      dup2\n      dup2\n      sload\n      dup2\n      lt\n      tag_158\n      jumpi\n      0x00\n      dup1\n      revert\n    tag_158:\n      swap1\n      0x00\n      mstore\n      keccak256(0x00, 0x20)\n      add\n      0x00\n      swap2\n      pop\n      sload\n      swap1\n      0x0100\n      exp\n      swap1\n      div\n      0xffffffffffffffffffffffffffffffffffffffff\n      and\n      dup2\n      jump\t// out\n        /* \"backend/contracts/ONGDonaciones.sol\":3878:5432  function donar(string memory _proyectoId) public payable {... */\n    tag_56:\n        /* \"backend/contracts/ONGDonaciones.sol\":3965:3966  0 */\n      0x00\n        /* \"backend/contracts/ONGDonaciones.sol\":3953:3962  msg.value */\n      callvalue\n        /* \"backend/contracts/ONGDonaciones.sol\":3953:3966  msg.value > 0 */\n      gt\n        /* \"backend/contracts/ONGDonaciones.sol\":3945:4001  require(msg.value > 0, \"La donacion debe ser mayor a 0\") */\n      tag_161\n      jumpi\n      mload(0x40)\n      0x08c379a000000000000000000000000000000000000000000000000000000000\n      dup2\n      mstore\n      0x04\n      add\n      tag_162\n      swap1\n      tag_163\n      jump\t// in\n    tag_162:\n      mload(0x40)\n      dup1\n      swap2\n      sub\n      swap1\n      revert\n    tag_161:\n        /* \"backend/contracts/ONGDonaciones.sol\":4061:4062  0 */\n      0x00\n        /* \"backend/contracts/ONGDonaciones.sol\":4025:4034  proyectos */\n      0x01\n        /* \"backend/contracts/ONGDonaciones.sol\":4035:4046  _proyectoId */\n      dup3\n        /* \"backend/contracts/ONGDonaciones.sol\":4025:4047  proyectos[_proyectoId] */\n      mload(0x40)\n      tag_164\n      swap2\n      swap1\n      tag_148\n      jump\t// in\n    tag_164:\n      swap1\n      dup2\n      mstore\n      0x20\n      add\n      mload(0x40)\n      dup1\n      swap2\n      sub\n      swap1\n      keccak256\n        /* \"backend/contracts/ONGDonaciones.sol\":4025:4050  proyectos[_proyectoId].id */\n      0x00\n      add\n        /* \"backend/contracts/ONGDonaciones.sol\":4019:4058  bytes(proyectos[_proyectoId].id).length */\n      dup1\n      sload\n      tag_165\n      swap1\n      tag_136\n      jump\t// in\n    tag_165:\n      swap1\n      pop\n        /* \"backend/contracts/ONGDonaciones.sol\":4019:4062  bytes(proyectos[_proyectoId].id).length > 0 */\n      gt\n        /* \"backend/contracts/ONGDonaciones.sol\":4011:4085  require(bytes(proyectos[_proyectoId].id).length > 0, \"Proyecto no existe\") */\n      tag_166\n      jumpi\n      mload(0x40)\n      0x08c379a000000000000000000000000000000000000000000000000000000000\n      dup2\n      mstore\n      0x04\n      add\n      tag_167\n      swap1\n      tag_152\n      jump\t// in\n    tag_167:\n      mload(0x40)\n      dup1\n      swap2\n      sub\n      swap1\n      revert\n    tag_166:\n        /* \"backend/contracts/ONGDonaciones.sol\":4136:4157  EstadoProyecto.Activo */\n      0x00\n        /* \"backend/contracts/ONGDonaciones.sol\":4103:4157  proyectos[_proyectoId].estado == EstadoProyecto.Activo */\n      0x01\n      dup2\n      gt\n      iszero\n      tag_168\n      jumpi\n      tag_169\n      tag_156\n      jump\t// in\n    tag_169:\n    tag_168:\n        /* \"backend/contracts/ONGDonaciones.sol\":4103:4112  proyectos */\n      0x01\n        /* \"backend/contracts/ONGDonaciones.sol\":4113:4124  _proyectoId */\n      dup3\n        /* \"backend/contracts/ONGDonaciones.sol\":4103:4125  proyectos[_proyectoId] */\n      mload(0x40)\n      tag_170\n      swap2\n      swap1\n      tag_148\n      jump\t// in\n    tag_170:\n      swap1\n      dup2\n      mstore\n      0x20\n      add\n      mload(0x40)\n      dup1\n      swap2\n      sub\n      swap1\n      keccak256\n        /* \"backend/contracts/ONGDonaciones.sol\":4103:4132  proyectos[_proyectoId].estado */\n      0x05\n      add\n      0x00\n      swap1\n      sload\n      swap1\n      0x0100\n      exp\n      swap1\n      div\n      0xff\n      and\n        /* \"backend/contracts/ONGDonaciones.sol\":4103:4157  proyectos[_proyectoId].estado == EstadoProyecto.Activo */\n      0x01\n      dup2\n      gt\n      iszero\n      tag_171\n      jumpi\n      tag_172\n      tag_156\n      jump\t// in\n    tag_172:\n    tag_171:\n      eq\n        /* \"backend/contracts/ONGDonaciones.sol\":4095:4180  require(proyectos[_proyectoId].estado == EstadoProyecto.Activo, \"Proyecto no activo\") */\n      tag_173\n      jumpi\n      mload(0x40)\n      0x08c379a000000000000000000000000000000000000000000000000000000000\n      dup2\n      mstore\n      0x04\n      add\n      tag_174\n      swap1\n      tag_175\n      jump\t// in\n    tag_174:\n      mload(0x40)\n      dup1\n      swap2\n      sub\n      swap1\n      revert\n    tag_173:\n        /* \"backend/contracts/ONGDonaciones.sol\":4318:4319  0 */\n      0x00\n        /* \"backend/contracts/ONGDonaciones.sol\":4276:4320  donantes[msg.sender].direccion == address(0) */\n      0xffffffffffffffffffffffffffffffffffffffff\n      and\n        /* \"backend/contracts/ONGDonaciones.sol\":4276:4284  donantes */\n      0x00\n        /* \"backend/contracts/ONGDonaciones.sol\":4276:4296  donantes[msg.sender] */\n      0x00\n        /* \"backend/contracts/ONGDonaciones.sol\":4285:4295  msg.sender */\n      caller\n        /* \"backend/contracts/ONGDonaciones.sol\":4276:4296  donantes[msg.sender] */\n      0xffffffffffffffffffffffffffffffffffffffff\n      and\n      0xffffffffffffffffffffffffffffffffffffffff\n      and\n      dup2\n      mstore\n      0x20\n      add\n      swap1\n      dup2\n      mstore\n      0x20\n      add\n      0x00\n      keccak256\n        /* \"backend/contracts/ONGDonaciones.sol\":4276:4306  donantes[msg.sender].direccion */\n      0x00\n      add\n      0x00\n      swap1\n      sload\n      swap1\n      0x0100\n      exp\n      swap1\n      div\n      0xffffffffffffffffffffffffffffffffffffffff\n      and\n        /* \"backend/contracts/ONGDonaciones.sol\":4276:4320  donantes[msg.sender].direccion == address(0) */\n      0xffffffffffffffffffffffffffffffffffffffff\n      and\n      sub\n        /* \"backend/contracts/ONGDonaciones.sol\":4272:4635  if (donantes[msg.sender].direccion == address(0)) {... */\n      tag_176\n      jumpi\n        /* \"backend/contracts/ONGDonaciones.sol\":4359:4580  Donante({... */\n      mload(0x40)\n      dup1\n      0xa0\n      add\n      0x40\n      mstore\n      dup1\n        /* \"backend/contracts/ONGDonaciones.sol\":4396:4406  msg.sender */\n      caller\n        /* \"backend/contracts/ONGDonaciones.sol\":4359:4580  Donante({... */\n      0xffffffffffffffffffffffffffffffffffffffff\n      and\n      dup2\n      mstore\n      0x20\n      add\n      mload(0x40)\n      dup1\n      0x40\n      add\n      0x40\n      mstore\n      dup1\n      0x09\n      dup2\n      mstore\n      0x20\n      add\n      0x496e6469766964756f0000000000000000000000000000000000000000000000\n      dup2\n      mstore\n      pop\n      dup2\n      mstore\n      0x20\n      add\n        /* \"backend/contracts/ONGDonaciones.sol\":4474:4496  TipoDonante.Individual */\n      0x00\n        /* \"backend/contracts/ONGDonaciones.sol\":4359:4580  Donante({... */\n      0x01\n      dup2\n      gt\n      iszero\n      tag_177\n      jumpi\n      tag_178\n      tag_156\n      jump\t// in\n    tag_178:\n    tag_177:\n      dup2\n      mstore\n      0x20\n      add\n        /* \"backend/contracts/ONGDonaciones.sol\":4527:4528  0 */\n      0x00\n        /* \"backend/contracts/ONGDonaciones.sol\":4359:4580  Donante({... */\n      dup2\n      mstore\n      0x20\n      add\n        /* \"backend/contracts/ONGDonaciones.sol\":4564:4565  0 */\n      0x00\n        /* \"backend/contracts/ONGDonaciones.sol\":4359:4580  Donante({... */\n      dup2\n      mstore\n      pop\n        /* \"backend/contracts/ONGDonaciones.sol\":4336:4344  donantes */\n      0x00\n        /* \"backend/contracts/ONGDonaciones.sol\":4336:4356  donantes[msg.sender] */\n      0x00\n        /* \"backend/contracts/ONGDonaciones.sol\":4345:4355  msg.sender */\n      caller\n        /* \"backend/contracts/ONGDonaciones.sol\":4336:4356  donantes[msg.sender] */\n      0xffffffffffffffffffffffffffffffffffffffff\n      and\n      0xffffffffffffffffffffffffffffffffffffffff\n      and\n      dup2\n      mstore\n      0x20\n      add\n      swap1\n      dup2\n      mstore\n      0x20\n      add\n      0x00\n      keccak256\n        /* \"backend/contracts/ONGDonaciones.sol\":4336:4580  donantes[msg.sender] = Donante({... */\n      0x00\n      dup3\n      add\n      mload\n      dup2\n      0x00\n      add\n      exp(0x0100, 0x00)\n      dup2\n      sload\n      dup2\n      0xffffffffffffffffffffffffffffffffffffffff\n      mul\n      not\n      and\n      swap1\n      dup4\n      0xffffffffffffffffffffffffffffffffffffffff\n      and\n      mul\n      or\n      swap1\n      sstore\n      pop\n      0x20\n      dup3\n      add\n      mload\n      dup2\n      0x01\n      add\n      swap1\n      dup2\n      tag_179\n      swap2\n      swap1\n      tag_180\n      jump\t// in\n    tag_179:\n      pop\n      0x40\n      dup3\n      add\n      mload\n      dup2\n      0x02\n      add\n      exp(0x0100, 0x00)\n      dup2\n      sload\n      dup2\n      0xff\n      mul\n      not\n      and\n      swap1\n      dup4\n      0x01\n      dup2\n      gt\n      iszero\n      tag_181\n      jumpi\n      tag_182\n      tag_156\n      jump\t// in\n    tag_182:\n    tag_181:\n      mul\n      or\n      swap1\n      sstore\n      pop\n      0x60\n      dup3\n      add\n      mload\n      dup2\n      0x03\n      add\n      sstore\n      0x80\n      dup3\n      add\n      mload\n      dup2\n      0x04\n      add\n      sstore\n      swap1\n      pop\n      pop\n        /* \"backend/contracts/ONGDonaciones.sol\":4594:4607  listaDonantes */\n      0x03\n        /* \"backend/contracts/ONGDonaciones.sol\":4613:4623  msg.sender */\n      caller\n        /* \"backend/contracts/ONGDonaciones.sol\":4594:4624  listaDonantes.push(msg.sender) */\n      swap1\n      dup1\n      0x01\n      dup2\n      sload\n      add\n      dup1\n      dup3\n      sstore\n      dup1\n      swap2\n      pop\n      pop\n      0x01\n      swap1\n      sub\n      swap1\n      0x00\n      mstore\n      keccak256(0x00, 0x20)\n      add\n      0x00\n      swap1\n      swap2\n      swap1\n      swap2\n      swap1\n      swap2\n      0x0100\n      exp\n      dup2\n      sload\n      dup2\n      0xffffffffffffffffffffffffffffffffffffffff\n      mul\n      not\n      and\n      swap1\n      dup4\n      0xffffffffffffffffffffffffffffffffffffffff\n      and\n      mul\n      or\n      swap1\n      sstore\n      pop\n        /* \"backend/contracts/ONGDonaciones.sol\":4272:4635  if (donantes[msg.sender].direccion == address(0)) {... */\n    tag_176:\n        /* \"backend/contracts/ONGDonaciones.sol\":4692:4710  contadorDonaciones */\n      0x06\n      0x00\n        /* \"backend/contracts/ONGDonaciones.sol\":4692:4712  contadorDonaciones++ */\n      dup2\n      sload\n      dup1\n      swap3\n      swap2\n      swap1\n      tag_184\n      swap1\n      tag_185\n      jump\t// in\n    tag_184:\n      swap2\n      swap1\n      pop\n      sstore\n      pop\n        /* \"backend/contracts/ONGDonaciones.sol\":4722:4746  string memory donacionId */\n      0x00\n        /* \"backend/contracts/ONGDonaciones.sol\":4780:4812  uintToString(contadorDonaciones) */\n      tag_186\n        /* \"backend/contracts/ONGDonaciones.sol\":4793:4811  contadorDonaciones */\n      sload(0x06)\n        /* \"backend/contracts/ONGDonaciones.sol\":4780:4792  uintToString */\n      tag_187\n        /* \"backend/contracts/ONGDonaciones.sol\":4780:4812  uintToString(contadorDonaciones) */\n      jump\t// in\n    tag_186:\n        /* \"backend/contracts/ONGDonaciones.sol\":4756:4813  abi.encodePacked(\"DON\", uintToString(contadorDonaciones)) */\n      add(0x20, mload(0x40))\n      tag_188\n      swap2\n      swap1\n      tag_189\n      jump\t// in\n    tag_188:\n      mload(0x40)\n      0x20\n      dup2\n      dup4\n      sub\n      sub\n      dup2\n      mstore\n      swap1\n      0x40\n      mstore\n        /* \"backend/contracts/ONGDonaciones.sol\":4722:4814  string memory donacionId = string(abi.encodePacked(\"DON\", uintToString(contadorDonaciones))) */\n      swap1\n      pop\n        /* \"backend/contracts/ONGDonaciones.sol\":4858:5045  Donacion({... */\n      mload(0x40)\n      dup1\n      0xa0\n      add\n      0x40\n      mstore\n      dup1\n        /* \"backend/contracts/ONGDonaciones.sol\":4885:4895  donacionId */\n      dup3\n        /* \"backend/contracts/ONGDonaciones.sol\":4858:5045  Donacion({... */\n      dup2\n      mstore\n      0x20\n      add\n        /* \"backend/contracts/ONGDonaciones.sol\":4918:4928  msg.sender */\n      caller\n        /* \"backend/contracts/ONGDonaciones.sol\":4858:5045  Donacion({... */\n      0xffffffffffffffffffffffffffffffffffffffff\n      and\n      dup2\n      mstore\n      0x20\n      add\n        /* \"backend/contracts/ONGDonaciones.sol\":4954:4965  _proyectoId */\n      dup4\n        /* \"backend/contracts/ONGDonaciones.sol\":4858:5045  Donacion({... */\n      dup2\n      mstore\n      0x20\n      add\n        /* \"backend/contracts/ONGDonaciones.sol\":4989:4998  msg.value */\n      callvalue\n        /* \"backend/contracts/ONGDonaciones.sol\":4858:5045  Donacion({... */\n      dup2\n      mstore\n      0x20\n      add\n        /* \"backend/contracts/ONGDonaciones.sol\":5019:5034  block.timestamp */\n      timestamp\n        /* \"backend/contracts/ONGDonaciones.sol\":4858:5045  Donacion({... */\n      dup2\n      mstore\n      pop\n        /* \"backend/contracts/ONGDonaciones.sol\":4833:4843  donaciones */\n      0x02\n        /* \"backend/contracts/ONGDonaciones.sol\":4844:4854  donacionId */\n      dup3\n        /* \"backend/contracts/ONGDonaciones.sol\":4833:4855  donaciones[donacionId] */\n      mload(0x40)\n      tag_190\n      swap2\n      swap1\n      tag_148\n      jump\t// in\n    tag_190:\n      swap1\n      dup2\n      mstore\n      0x20\n      add\n      mload(0x40)\n      dup1\n      swap2\n      sub\n      swap1\n      keccak256\n        /* \"backend/contracts/ONGDonaciones.sol\":4833:5045  donaciones[donacionId] = Donacion({... */\n      0x00\n      dup3\n      add\n      mload\n      dup2\n      0x00\n      add\n      swap1\n      dup2\n      tag_191\n      swap2\n      swap1\n      tag_180\n      jump\t// in\n    tag_191:\n      pop\n      0x20\n      dup3\n      add\n      mload\n      dup2\n      0x01\n      add\n      exp(0x0100, 0x00)\n      dup2\n      sload\n      dup2\n      0xffffffffffffffffffffffffffffffffffffffff\n      mul\n      not\n      and\n      swap1\n      dup4\n      0xffffffffffffffffffffffffffffffffffffffff\n      and\n      mul\n      or\n      swap1\n      sstore\n      pop\n      0x40\n      dup3\n      add\n      mload\n      dup2\n      0x02\n      add\n      swap1\n      dup2\n      tag_192\n      swap2\n      swap1\n      tag_180\n      jump\t// in\n    tag_192:\n      pop\n      0x60\n      dup3\n      add\n      mload\n      dup2\n      0x03\n      add\n      sstore\n      0x80\n      dup3\n      add\n      mload\n      dup2\n      0x04\n      add\n      sstore\n      swap1\n      pop\n      pop\n        /* \"backend/contracts/ONGDonaciones.sol\":5064:5079  listaDonaciones */\n      0x05\n        /* \"backend/contracts/ONGDonaciones.sol\":5085:5095  donacionId */\n      dup2\n        /* \"backend/contracts/ONGDonaciones.sol\":5064:5096  listaDonaciones.push(donacionId) */\n      swap1\n      dup1\n      0x01\n      dup2\n      sload\n      add\n      dup1\n      dup3\n      sstore\n      dup1\n      swap2\n      pop\n      pop\n      0x01\n      swap1\n      sub\n      swap1\n      0x00\n      mstore\n      keccak256(0x00, 0x20)\n      add\n      0x00\n      swap1\n      swap2\n      swap1\n      swap2\n      swap1\n      swap2\n      pop\n      swap1\n      dup2\n      tag_194\n      swap2\n      swap1\n      tag_180\n      jump\t// in\n    tag_194:\n      pop\n        /* \"backend/contracts/ONGDonaciones.sol\":5181:5190  msg.value */\n      callvalue\n        /* \"backend/contracts/ONGDonaciones.sol\":5145:5153  donantes */\n      0x00\n        /* \"backend/contracts/ONGDonaciones.sol\":5145:5165  donantes[msg.sender] */\n      0x00\n        /* \"backend/contracts/ONGDonaciones.sol\":5154:5164  msg.sender */\n      caller\n        /* \"backend/contracts/ONGDonaciones.sol\":5145:5165  donantes[msg.sender] */\n      0xffffffffffffffffffffffffffffffffffffffff\n      and\n      0xffffffffffffffffffffffffffffffffffffffff\n      and\n      dup2\n      mstore\n      0x20\n      add\n      swap1\n      dup2\n      mstore\n      0x20\n      add\n      0x00\n      keccak256\n        /* \"backend/contracts/ONGDonaciones.sol\":5145:5177  donantes[msg.sender].totalDonado */\n      0x03\n      add\n      0x00\n        /* \"backend/contracts/ONGDonaciones.sol\":5145:5190  donantes[msg.sender].totalDonado += msg.value */\n      dup3\n      dup3\n      sload\n      tag_195\n      swap2\n      swap1\n      tag_196\n      jump\t// in\n    tag_195:\n      swap3\n      pop\n      pop\n      dup2\n      swap1\n      sstore\n      pop\n        /* \"backend/contracts/ONGDonaciones.sol\":5253:5260  1 ether */\n      0x0de0b6b3a7640000\n        /* \"backend/contracts/ONGDonaciones.sol\":5241:5250  msg.value */\n      callvalue\n        /* \"backend/contracts/ONGDonaciones.sol\":5241:5260  msg.value / 1 ether */\n      tag_197\n      swap2\n      swap1\n      tag_198\n      jump\t// in\n    tag_197:\n        /* \"backend/contracts/ONGDonaciones.sol\":5200:5208  donantes */\n      0x00\n        /* \"backend/contracts/ONGDonaciones.sol\":5200:5220  donantes[msg.sender] */\n      0x00\n        /* \"backend/contracts/ONGDonaciones.sol\":5209:5219  msg.sender */\n      caller\n        /* \"backend/contracts/ONGDonaciones.sol\":5200:5220  donantes[msg.sender] */\n      0xffffffffffffffffffffffffffffffffffffffff\n      and\n      0xffffffffffffffffffffffffffffffffffffffff\n      and\n      dup2\n      mstore\n      0x20\n      add\n      swap1\n      dup2\n      mstore\n      0x20\n      add\n      0x00\n      keccak256\n        /* \"backend/contracts/ONGDonaciones.sol\":5200:5237  donantes[msg.sender].tokensGobernanza */\n      0x04\n      add\n      0x00\n        /* \"backend/contracts/ONGDonaciones.sol\":5200:5260  donantes[msg.sender].tokensGobernanza += msg.value / 1 ether */\n      dup3\n      dup3\n      sload\n      tag_199\n      swap2\n      swap1\n      tag_196\n      jump\t// in\n    tag_199:\n      swap3\n      pop\n      pop\n      dup2\n      swap1\n      sstore\n      pop\n        /* \"backend/contracts/ONGDonaciones.sol\":5338:5347  msg.value */\n      callvalue\n        /* \"backend/contracts/ONGDonaciones.sol\":5294:5303  proyectos */\n      0x01\n        /* \"backend/contracts/ONGDonaciones.sol\":5304:5315  _proyectoId */\n      dup4\n        /* \"backend/contracts/ONGDonaciones.sol\":5294:5316  proyectos[_proyectoId] */\n      mload(0x40)\n      tag_200\n      swap2\n      swap1\n      tag_148\n      jump\t// in\n    tag_200:\n      swap1\n      dup2\n      mstore\n      0x20\n      add\n      mload(0x40)\n      dup1\n      swap2\n      sub\n      swap1\n      keccak256\n        /* \"backend/contracts/ONGDonaciones.sol\":5294:5334  proyectos[_proyectoId].cantidadRecaudada */\n      0x03\n      add\n      0x00\n        /* \"backend/contracts/ONGDonaciones.sol\":5294:5347  proyectos[_proyectoId].cantidadRecaudada += msg.value */\n      dup3\n      dup3\n      sload\n      tag_201\n      swap2\n      swap1\n      tag_196\n      jump\t// in\n    tag_201:\n      swap3\n      pop\n      pop\n      dup2\n      swap1\n      sstore\n      pop\n        /* \"backend/contracts/ONGDonaciones.sol\":5389:5399  msg.sender */\n      caller\n        /* \"backend/contracts/ONGDonaciones.sol\":5371:5424  DonacionRealizada(msg.sender, _proyectoId, msg.value) */\n      0xffffffffffffffffffffffffffffffffffffffff\n      and\n      0xcfb07aeb1a68df533b5f56594c910129b452a7002d5741ca117913f1887c7ced\n        /* \"backend/contracts/ONGDonaciones.sol\":5401:5412  _proyectoId */\n      dup4\n        /* \"backend/contracts/ONGDonaciones.sol\":5414:5423  msg.value */\n      callvalue\n        /* \"backend/contracts/ONGDonaciones.sol\":5371:5424  DonacionRealizada(msg.sender, _proyectoId, msg.value) */\n      mload(0x40)\n      tag_202\n      swap3\n      swap2\n      swap1\n      tag_203\n      jump\t// in\n    tag_202:\n      mload(0x40)\n      dup1\n      swap2\n      sub\n      swap1\n      log2\n        /* \"backend/contracts/ONGDonaciones.sol\":3935:5432  {... */\n      pop\n        /* \"backend/contracts/ONGDonaciones.sol\":3878:5432  function donar(string memory _proyectoId) public payable {... */\n      pop\n      jump\t// out\n        /* \"backend/contracts/ONGDonaciones.sol\":7031:7156  function obtenerDonante(address _direccion) public view returns (Donante memory) {... */\n    tag_61:\n        /* \"backend/contracts/ONGDonaciones.sol\":7096:7110  Donante memory */\n      tag_204\n      tag_205\n      jump\t// in\n    tag_204:\n        /* \"backend/contracts/ONGDonaciones.sol\":7129:7137  donantes */\n      0x00\n        /* \"backend/contracts/ONGDonaciones.sol\":7129:7149  donantes[_direccion] */\n      0x00\n        /* \"backend/contracts/ONGDonaciones.sol\":7138:7148  _direccion */\n      dup4\n        /* \"backend/contracts/ONGDonaciones.sol\":7129:7149  donantes[_direccion] */\n      0xffffffffffffffffffffffffffffffffffffffff\n      and\n      0xffffffffffffffffffffffffffffffffffffffff\n      and\n      dup2\n      mstore\n      0x20\n      add\n      swap1\n      dup2\n      mstore\n      0x20\n      add\n      0x00\n      keccak256\n        /* \"backend/contracts/ONGDonaciones.sol\":7122:7149  return donantes[_direccion] */\n      mload(0x40)\n      dup1\n      0xa0\n      add\n      0x40\n      mstore\n      swap1\n      dup2\n      0x00\n      dup3\n      add\n      0x00\n      swap1\n      sload\n      swap1\n      0x0100\n      exp\n      swap1\n      div\n      0xffffffffffffffffffffffffffffffffffffffff\n      and\n      0xffffffffffffffffffffffffffffffffffffffff\n      and\n      0xffffffffffffffffffffffffffffffffffffffff\n      and\n      dup2\n      mstore\n      0x20\n      add\n      0x01\n      dup3\n      add\n      dup1\n      sload\n      tag_207\n      swap1\n      tag_136\n      jump\t// in\n    tag_207:\n      dup1\n      0x1f\n      add\n      0x20\n      dup1\n      swap2\n      div\n      mul\n      0x20\n      add\n      mload(0x40)\n      swap1\n      dup2\n      add\n      0x40\n      mstore\n      dup1\n      swap3\n      swap2\n      swap1\n      dup2\n      dup2\n      mstore\n      0x20\n      add\n      dup3\n      dup1\n      sload\n      tag_208\n      swap1\n      tag_136\n      jump\t// in\n    tag_208:\n      dup1\n      iszero\n      tag_209\n      jumpi\n      dup1\n      0x1f\n      lt\n      tag_210\n      jumpi\n      0x0100\n      dup1\n      dup4\n      sload\n      div\n      mul\n      dup4\n      mstore\n      swap2\n      0x20\n      add\n      swap2\n      jump(tag_209)\n    tag_210:\n      dup3\n      add\n      swap2\n      swap1\n      0x00\n      mstore\n      keccak256(0x00, 0x20)\n      swap1\n    tag_211:\n      dup2\n      sload\n      dup2\n      mstore\n      swap1\n      0x01\n      add\n      swap1\n      0x20\n      add\n      dup1\n      dup4\n      gt\n      tag_211\n      jumpi\n      dup3\n      swap1\n      sub\n      0x1f\n      and\n      dup3\n      add\n      swap2\n    tag_209:\n      pop\n      pop\n      pop\n      pop\n      pop\n      dup2\n      mstore\n      0x20\n      add\n      0x02\n      dup3\n      add\n      0x00\n      swap1\n      sload\n      swap1\n      0x0100\n      exp\n      swap1\n      div\n      0xff\n      and\n      0x01\n      dup2\n      gt\n      iszero\n      tag_212\n      jumpi\n      tag_213\n      tag_156\n      jump\t// in\n    tag_213:\n    tag_212:\n      0x01\n      dup2\n      gt\n      iszero\n      tag_214\n      jumpi\n      tag_215\n      tag_156\n      jump\t// in\n    tag_215:\n    tag_214:\n      dup2\n      mstore\n      0x20\n      add\n      0x03\n      dup3\n      add\n      sload\n      dup2\n      mstore\n      0x20\n      add\n      0x04\n      dup3\n      add\n      sload\n      dup2\n      mstore\n      pop\n      pop\n      swap1\n      pop\n        /* \"backend/contracts/ONGDonaciones.sol\":7031:7156  function obtenerDonante(address _direccion) public view returns (Donante memory) {... */\n      swap2\n      swap1\n      pop\n      jump\t// out\n        /* \"backend/contracts/ONGDonaciones.sol\":1002:1046  mapping(string => Proyecto) public proyectos */\n    tag_67:\n      0x01\n      dup2\n      dup1\n      mload\n      0x20\n      dup2\n      add\n      dup3\n      add\n      dup1\n      mload\n      dup5\n      dup3\n      mstore\n      0x20\n      dup4\n      add\n      0x20\n      dup6\n      add\n      keccak256\n      dup2\n      dup4\n      mstore\n      dup1\n      swap6\n      pop\n      pop\n      pop\n      pop\n      pop\n      pop\n      0x00\n      swap2\n      pop\n      swap1\n      pop\n      dup1\n      0x00\n      add\n      dup1\n      sload\n      tag_216\n      swap1\n      tag_136\n      jump\t// in\n    tag_216:\n      dup1\n      0x1f\n      add\n      0x20\n      dup1\n      swap2\n      div\n      mul\n      0x20\n      add\n      mload(0x40)\n      swap1\n      dup2\n      add\n      0x40\n      mstore\n      dup1\n      swap3\n      swap2\n      swap1\n      dup2\n      dup2\n      mstore\n      0x20\n      add\n      dup3\n      dup1\n      sload\n      tag_217\n      swap1\n      tag_136\n      jump\t// in\n    tag_217:\n      dup1\n      iszero\n      tag_218\n      jumpi\n      dup1\n      0x1f\n      lt\n      tag_219\n      jumpi\n      0x0100\n      dup1\n      dup4\n      sload\n      div\n      mul\n      dup4\n      mstore\n      swap2\n      0x20\n      add\n      swap2\n      jump(tag_218)\n    tag_219:\n      dup3\n      add\n      swap2\n      swap1\n      0x00\n      mstore\n      keccak256(0x00, 0x20)\n      swap1\n    tag_220:\n      dup2\n      sload\n      dup2\n      mstore\n      swap1\n      0x01\n      add\n      swap1\n      0x20\n      add\n      dup1\n      dup4\n      gt\n      tag_220\n      jumpi\n      dup3\n      swap1\n      sub\n      0x1f\n      and\n      dup3\n      add\n      swap2\n    tag_218:\n      pop\n      pop\n      pop\n      pop\n      pop\n      swap1\n      dup1\n      0x01\n      add\n      dup1\n      sload\n      tag_221\n      swap1\n      tag_136\n      jump\t// in\n    tag_221:\n      dup1\n      0x1f\n      add\n      0x20\n      dup1\n      swap2\n      div\n      mul\n      0x20\n      add\n      mload(0x40)\n      swap1\n      dup2\n      add\n      0x40\n      mstore\n      dup1\n      swap3\n      swap2\n      swap1\n      dup2\n      dup2\n      mstore\n      0x20\n      add\n      dup3\n      dup1\n      sload\n      tag_222\n      swap1\n      tag_136\n      jump\t// in\n    tag_222:\n      dup1\n      iszero\n      tag_223\n      jumpi\n      dup1\n      0x1f\n      lt\n      tag_224\n      jumpi\n      0x0100\n      dup1\n      dup4\n      sload\n      div\n      mul\n      dup4\n      mstore\n      swap2\n      0x20\n      add\n      swap2\n      jump(tag_223)\n    tag_224:\n      dup3\n      add\n      swap2\n      swap1\n      0x00\n      mstore\n      keccak256(0x00, 0x20)\n      swap1\n    tag_225:\n      dup2\n      sload\n      dup2\n      mstore\n      swap1\n      0x01\n      add\n      swap1\n      0x20\n      add\n      dup1\n      dup4\n      gt\n      tag_225\n      jumpi\n      dup3\n      swap1\n      sub\n      0x1f\n      and\n      dup3\n      add\n      swap2\n    tag_223:\n      pop\n      pop\n      pop\n      pop\n      pop\n      swap1\n      dup1\n      0x02\n      add\n      0x00\n      swap1\n      sload\n      swap1\n      0x0100\n      exp\n      swap1\n      div\n      0xffffffffffffffffffffffffffffffffffffffff\n      and\n      swap1\n      dup1\n      0x03\n      add\n      sload\n      swap1\n      dup1\n      0x04\n      add\n      sload\n      swap1\n      dup1\n      0x05\n      add\n      0x00\n      swap1\n      sload\n      swap1\n      0x0100\n      exp\n      swap1\n      div\n      0xff\n      and\n      swap1\n      dup1\n      0x06\n      add\n      sload\n      swap1\n      pop\n      dup8\n      jump\t// out\n        /* \"backend/contracts/ONGDonaciones.sol\":7296:7417  function obtenerDonacion(string memory _id) public view returns (Donacion memory) {... */\n    tag_73:\n        /* \"backend/contracts/ONGDonaciones.sol\":7361:7376  Donacion memory */\n      tag_226\n      tag_227\n      jump\t// in\n    tag_226:\n        /* \"backend/contracts/ONGDonaciones.sol\":7395:7405  donaciones */\n      0x02\n        /* \"backend/contracts/ONGDonaciones.sol\":7406:7409  _id */\n      dup3\n        /* \"backend/contracts/ONGDonaciones.sol\":7395:7410  donaciones[_id] */\n      mload(0x40)\n      tag_229\n      swap2\n      swap1\n      tag_148\n      jump\t// in\n    tag_229:\n      swap1\n      dup2\n      mstore\n      0x20\n      add\n      mload(0x40)\n      dup1\n      swap2\n      sub\n      swap1\n      keccak256\n        /* \"backend/contracts/ONGDonaciones.sol\":7388:7410  return donaciones[_id] */\n      mload(0x40)\n      dup1\n      0xa0\n      add\n      0x40\n      mstore\n      swap1\n      dup2\n      0x00\n      dup3\n      add\n      dup1\n      sload\n      tag_230\n      swap1\n      tag_136\n      jump\t// in\n    tag_230:\n      dup1\n      0x1f\n      add\n      0x20\n      dup1\n      swap2\n      div\n      mul\n      0x20\n      add\n      mload(0x40)\n      swap1\n      dup2\n      add\n      0x40\n      mstore\n      dup1\n      swap3\n      swap2\n      swap1\n      dup2\n      dup2\n      mstore\n      0x20\n      add\n      dup3\n      dup1\n      sload\n      tag_231\n      swap1\n      tag_136\n      jump\t// in\n    tag_231:\n      dup1\n      iszero\n      tag_232\n      jumpi\n      dup1\n      0x1f\n      lt\n      tag_233\n      jumpi\n      0x0100\n      dup1\n      dup4\n      sload\n      div\n      mul\n      dup4\n      mstore\n      swap2\n      0x20\n      add\n      swap2\n      jump(tag_232)\n    tag_233:\n      dup3\n      add\n      swap2\n      swap1\n      0x00\n      mstore\n      keccak256(0x00, 0x20)\n      swap1\n    tag_234:\n      dup2\n      sload\n      dup2\n      mstore\n      swap1\n      0x01\n      add\n      swap1\n      0x20\n      add\n      dup1\n      dup4\n      gt\n      tag_234\n      jumpi\n      dup3\n      swap1\n      sub\n      0x1f\n      and\n      dup3\n      add\n      swap2\n    tag_232:\n      pop\n      pop\n      pop\n      pop\n      pop\n      dup2\n      mstore\n      0x20\n      add\n      0x01\n      dup3\n      add\n      0x00\n      swap1\n      sload\n      swap1\n      0x0100\n      exp\n      swap1\n      div\n      0xffffffffffffffffffffffffffffffffffffffff\n      and\n      0xffffffffffffffffffffffffffffffffffffffff\n      and\n      0xffffffffffffffffffffffffffffffffffffffff\n      and\n      dup2\n      mstore\n      0x20\n      add\n      0x02\n      dup3\n      add\n      dup1\n      sload\n      tag_235\n      swap1\n      tag_136\n      jump\t// in\n    tag_235:\n      dup1\n      0x1f\n      add\n      0x20\n      dup1\n      swap2\n      div\n      mul\n      0x20\n      add\n      mload(0x40)\n      swap1\n      dup2\n      add\n      0x40\n      mstore\n      dup1\n      swap3\n      swap2\n      swap1\n      dup2\n      dup2\n      mstore\n      0x20\n      add\n      dup3\n      dup1\n      sload\n      tag_236\n      swap1\n      tag_136\n      jump\t// in\n    tag_236:\n      dup1\n      iszero\n      tag_237\n      jumpi\n      dup1\n      0x1f\n      lt\n      tag_238\n      jumpi\n      0x0100\n      dup1\n      dup4\n      sload\n      div\n      mul\n      dup4\n      mstore\n      swap2\n      0x20\n      add\n      swap2\n      jump(tag_237)\n    tag_238:\n      dup3\n      add\n      swap2\n      swap1\n      0x00\n      mstore\n      keccak256(0x00, 0x20)\n      swap1\n    tag_239:\n      dup2\n      sload\n      dup2\n      mstore\n      swap1\n      0x01\n      add\n      swap1\n      0x20\n      add\n      dup1\n      dup4\n      gt\n      tag_239\n      jumpi\n      dup3\n      swap1\n      sub\n      0x1f\n      and\n      dup3\n      add\n      swap2\n    tag_237:\n      pop\n      pop\n      pop\n      pop\n      pop\n      dup2\n      mstore\n      0x20\n      add\n      0x03\n      dup3\n      add\n      sload\n      dup2\n      mstore\n      0x20\n      add\n      0x04\n      dup3\n      add\n      sload\n      dup2\n      mstore\n      pop\n      pop\n      swap1\n      pop\n        /* \"backend/contracts/ONGDonaciones.sol\":7296:7417  function obtenerDonacion(string memory _id) public view returns (Donacion memory) {... */\n      swap2\n      swap1\n      pop\n      jump\t// out\n        /* \"backend/contracts/ONGDonaciones.sol\":7543:7651  function obtenerTotalProyectos() public view returns (uint256) {... */\n    tag_78:\n        /* \"backend/contracts/ONGDonaciones.sol\":7597:7604  uint256 */\n      0x00\n        /* \"backend/contracts/ONGDonaciones.sol\":7623:7637  listaProyectos */\n      0x04\n        /* \"backend/contracts/ONGDonaciones.sol\":7623:7644  listaProyectos.length */\n      dup1\n      sload\n      swap1\n      pop\n        /* \"backend/contracts/ONGDonaciones.sol\":7616:7644  return listaProyectos.length */\n      swap1\n      pop\n        /* \"backend/contracts/ONGDonaciones.sol\":7543:7651  function obtenerTotalProyectos() public view returns (uint256) {... */\n      swap1\n      jump\t// out\n        /* \"backend/contracts/ONGDonaciones.sol\":953:996  mapping(address => Donante) public donantes */\n    tag_83:\n      mstore(0x20, 0x00)\n      dup1\n      0x00\n      mstore\n      keccak256(0x00, 0x40)\n      0x00\n      swap2\n      pop\n      swap1\n      pop\n      dup1\n      0x00\n      add\n      0x00\n      swap1\n      sload\n      swap1\n      0x0100\n      exp\n      swap1\n      div\n      0xffffffffffffffffffffffffffffffffffffffff\n      and\n      swap1\n      dup1\n      0x01\n      add\n      dup1\n      sload\n      tag_241\n      swap1\n      tag_136\n      jump\t// in\n    tag_241:\n      dup1\n      0x1f\n      add\n      0x20\n      dup1\n      swap2\n      div\n      mul\n      0x20\n      add\n      mload(0x40)\n      swap1\n      dup2\n      add\n      0x40\n      mstore\n      dup1\n      swap3\n      swap2\n      swap1\n      dup2\n      dup2\n      mstore\n      0x20\n      add\n      dup3\n      dup1\n      sload\n      tag_242\n      swap1\n      tag_136\n      jump\t// in\n    tag_242:\n      dup1\n      iszero\n      tag_243\n      jumpi\n      dup1\n      0x1f\n      lt\n      tag_244\n      jumpi\n      0x0100\n      dup1\n      dup4\n      sload\n      div\n      mul\n      dup4\n      mstore\n      swap2\n      0x20\n      add\n      swap2\n      jump(tag_243)\n    tag_244:\n      dup3\n      add\n      swap2\n      swap1\n      0x00\n      mstore\n      keccak256(0x00, 0x20)\n      swap1\n    tag_245:\n      dup2\n      sload\n      dup2\n      mstore\n      swap1\n      0x01\n      add\n      swap1\n      0x20\n      add\n      dup1\n      dup4\n      gt\n      tag_245\n      jumpi\n      dup3\n      swap1\n      sub\n      0x1f\n      and\n      dup3\n      add\n      swap2\n    tag_243:\n      pop\n      pop\n      pop\n      pop\n      pop\n      swap1\n      dup1\n      0x02\n      add\n      0x00\n      swap1\n      sload\n      swap1\n      0x0100\n      exp\n      swap1\n      div\n      0xff\n      and\n      swap1\n      dup1\n      0x03\n      add\n      sload\n      swap1\n      dup1\n      0x04\n      add\n      sload\n      swap1\n      pop\n      dup6\n      jump\t// out\n        /* \"backend/contracts/ONGDonaciones.sol\":7166:7286  function obtenerProyecto(string memory _id) public view returns (Proyecto memory) {... */\n    tag_89:\n        /* \"backend/contracts/ONGDonaciones.sol\":7231:7246  Proyecto memory */\n      tag_246\n      tag_247\n      jump\t// in\n    tag_246:\n        /* \"backend/contracts/ONGDonaciones.sol\":7265:7274  proyectos */\n      0x01\n        /* \"backend/contracts/ONGDonaciones.sol\":7275:7278  _id */\n      dup3\n        /* \"backend/contracts/ONGDonaciones.sol\":7265:7279  proyectos[_id] */\n      mload(0x40)\n      tag_249\n      swap2\n      swap1\n      tag_148\n      jump\t// in\n    tag_249:\n      swap1\n      dup2\n      mstore\n      0x20\n      add\n      mload(0x40)\n      dup1\n      swap2\n      sub\n      swap1\n      keccak256\n        /* \"backend/contracts/ONGDonaciones.sol\":7258:7279  return proyectos[_id] */\n      mload(0x40)\n      dup1\n      0xe0\n      add\n      0x40\n      mstore\n      swap1\n      dup2\n      0x00\n      dup3\n      add\n      dup1\n      sload\n      tag_250\n      swap1\n      tag_136\n      jump\t// in\n    tag_250:\n      dup1\n      0x1f\n      add\n      0x20\n      dup1\n      swap2\n      div\n      mul\n      0x20\n      add\n      mload(0x40)\n      swap1\n      dup2\n      add\n      0x40\n      mstore\n      dup1\n      swap3\n      swap2\n      swap1\n      dup2\n      dup2\n      mstore\n      0x20\n      add\n      dup3\n      dup1\n      sload\n      tag_251\n      swap1\n      tag_136\n      jump\t// in\n    tag_251:\n      dup1\n      iszero\n      tag_252\n      jumpi\n      dup1\n      0x1f\n      lt\n      tag_253\n      jumpi\n      0x0100\n      dup1\n      dup4\n      sload\n      div\n      mul\n      dup4\n      mstore\n      swap2\n      0x20\n      add\n      swap2\n      jump(tag_252)\n    tag_253:\n      dup3\n      add\n      swap2\n      swap1\n      0x00\n      mstore\n      keccak256(0x00, 0x20)\n      swap1\n    tag_254:\n      dup2\n      sload\n      dup2\n      mstore\n      swap1\n      0x01\n      add\n      swap1\n      0x20\n      add\n      dup1\n      dup4\n      gt\n      tag_254\n      jumpi\n      dup3\n      swap1\n      sub\n      0x1f\n      and\n      dup3\n      add\n      swap2\n    tag_252:\n      pop\n      pop\n      pop\n      pop\n      pop\n      dup2\n      mstore\n      0x20\n      add\n      0x01\n      dup3\n      add\n      dup1\n      sload\n      tag_255\n      swap1\n      tag_136\n      jump\t// in\n    tag_255:\n      dup1\n      0x1f\n      add\n      0x20\n      dup1\n      swap2\n      div\n      mul\n      0x20\n      add\n      mload(0x40)\n      swap1\n      dup2\n      add\n      0x40\n      mstore\n      dup1\n      swap3\n      swap2\n      swap1\n      dup2\n      dup2\n      mstore\n      0x20\n      add\n      dup3\n      dup1\n      sload\n      tag_256\n      swap1\n      tag_136\n      jump\t// in\n    tag_256:\n      dup1\n      iszero\n      tag_257\n      jumpi\n      dup1\n      0x1f\n      lt\n      tag_258\n      jumpi\n      0x0100\n      dup1\n      dup4\n      sload\n      div\n      mul\n      dup4\n      mstore\n      swap2\n      0x20\n      add\n      swap2\n      jump(tag_257)\n    tag_258:\n      dup3\n      add\n      swap2\n      swap1\n      0x00\n      mstore\n      keccak256(0x00, 0x20)\n      swap1\n    tag_259:\n      dup2\n      sload\n      dup2\n      mstore\n      swap1\n      0x01\n      add\n      swap1\n      0x20\n      add\n      dup1\n      dup4\n      gt\n      tag_259\n      jumpi\n      dup3\n      swap1\n      sub\n      0x1f\n      and\n      dup3\n      add\n      swap2\n    tag_257:\n      pop\n      pop\n      pop\n      pop\n      pop\n      dup2\n      mstore\n      0x20\n      add\n      0x02\n      dup3\n      add\n      0x00\n      swap1\n      sload\n      swap1\n      0x0100\n      exp\n      swap1\n      div\n      0xffffffffffffffffffffffffffffffffffffffff\n      and\n      0xffffffffffffffffffffffffffffffffffffffff\n      and\n      0xffffffffffffffffffffffffffffffffffffffff\n      and\n      dup2\n      mstore\n      0x20\n      add\n      0x03\n      dup3\n      add\n      sload\n      dup2\n      mstore\n      0x20\n      add\n      0x04\n      dup3\n      add\n      sload\n      dup2\n      mstore\n      0x20\n      add\n      0x05\n      dup3\n      add\n      0x00\n      swap1\n      sload\n      swap1\n      0x0100\n      exp\n      swap1\n      div\n      0xff\n      and\n      0x01\n      dup2\n      gt\n      iszero\n      tag_260\n      jumpi\n      tag_261\n      tag_156\n      jump\t// in\n    tag_261:\n    tag_260:\n      0x01\n      dup2\n      gt\n      iszero\n      tag_262\n      jumpi\n      tag_263\n      tag_156\n      jump\t// in\n    tag_263:\n    tag_262:\n      dup2\n      mstore\n      0x20\n      add\n      0x06\n      dup3\n      add\n      sload\n      dup2\n      mstore\n      pop\n      pop\n      swap1\n      pop\n        /* \"backend/contracts/ONGDonaciones.sol\":7166:7286  function obtenerProyecto(string memory _id) public view returns (Proyecto memory) {... */\n      swap2\n      swap1\n      pop\n      jump\t// out\n        /* \"backend/contracts/ONGDonaciones.sol\":8467:8572  function retirarFondos() public soloOwner {... */\n    tag_94:\n        /* \"backend/contracts/ONGDonaciones.sol\":2386:2391  owner */\n      0x07\n      0x00\n      swap1\n      sload\n      swap1\n      0x0100\n      exp\n      swap1\n      div\n      0xffffffffffffffffffffffffffffffffffffffff\n      and\n        /* \"backend/contracts/ONGDonaciones.sol\":2372:2391  msg.sender == owner */\n      0xffffffffffffffffffffffffffffffffffffffff\n      and\n        /* \"backend/contracts/ONGDonaciones.sol\":2372:2382  msg.sender */\n      caller\n        /* \"backend/contracts/ONGDonaciones.sol\":2372:2391  msg.sender == owner */\n      0xffffffffffffffffffffffffffffffffffffffff\n      and\n      eq\n        /* \"backend/contracts/ONGDonaciones.sol\":2364:2429  require(msg.sender == owner, \"Solo el owner puede ejecutar esto\") */\n      tag_265\n      jumpi\n      mload(0x40)\n      0x08c379a000000000000000000000000000000000000000000000000000000000\n      dup2\n      mstore\n      0x04\n      add\n      tag_266\n      swap1\n      tag_145\n      jump\t// in\n    tag_266:\n      mload(0x40)\n      dup1\n      swap2\n      sub\n      swap1\n      revert\n    tag_265:\n        /* \"backend/contracts/ONGDonaciones.sol\":8527:8532  owner */\n      0x07\n      0x00\n      swap1\n      sload\n      swap1\n      0x0100\n      exp\n      swap1\n      div\n      0xffffffffffffffffffffffffffffffffffffffff\n      and\n        /* \"backend/contracts/ONGDonaciones.sol\":8519:8542  payable(owner).transfer */\n      0xffffffffffffffffffffffffffffffffffffffff\n      and\n        /* \"backend/contracts/ONGDonaciones.sol\":8519:8565  payable(owner).transfer(address(this).balance) */\n      0x08fc\n        /* \"backend/contracts/ONGDonaciones.sol\":8543:8564  address(this).balance */\n      selfbalance\n        /* \"backend/contracts/ONGDonaciones.sol\":8519:8565  payable(owner).transfer(address(this).balance) */\n      swap1\n      dup2\n      iszero\n      mul\n      swap1\n      mload(0x40)\n      0x00\n      mload(0x40)\n      dup1\n      dup4\n      sub\n      dup2\n      dup6\n      dup9\n      dup9\n      call\n      swap4\n      pop\n      pop\n      pop\n      pop\n      iszero\n      dup1\n      iszero\n      tag_269\n      jumpi\n      returndatacopy(0x00, 0x00, returndatasize)\n      revert(0x00, returndatasize)\n    tag_269:\n      pop\n        /* \"backend/contracts/ONGDonaciones.sol\":8467:8572  function retirarFondos() public soloOwner {... */\n      jump\t// out\n        /* \"backend/contracts/ONGDonaciones.sol\":7661:7771  function obtenerTotalDonaciones() public view returns (uint256) {... */\n    tag_97:\n        /* \"backend/contracts/ONGDonaciones.sol\":7716:7723  uint256 */\n      0x00\n        /* \"backend/contracts/ONGDonaciones.sol\":7742:7757  listaDonaciones */\n      0x05\n        /* \"backend/contracts/ONGDonaciones.sol\":7742:7764  listaDonaciones.length */\n      dup1\n      sload\n      swap1\n      pop\n        /* \"backend/contracts/ONGDonaciones.sol\":7735:7764  return listaDonaciones.length */\n      swap1\n      pop\n        /* \"backend/contracts/ONGDonaciones.sol\":7661:7771  function obtenerTotalDonaciones() public view returns (uint256) {... */\n      swap1\n      jump\t// out\n        /* \"backend/contracts/ONGDonaciones.sol\":1414:1434  address public owner */\n    tag_101:\n      0x07\n      0x00\n      swap1\n      sload\n      swap1\n      0x0100\n      exp\n      swap1\n      div\n      0xffffffffffffffffffffffffffffffffffffffff\n      and\n      dup2\n      jump\t// out\n        /* \"backend/contracts/ONGDonaciones.sol\":1052:1097  mapping(string => Donacion) public donaciones */\n    tag_106:\n      0x02\n      dup2\n      dup1\n      mload\n      0x20\n      dup2\n      add\n      dup3\n      add\n      dup1\n      mload\n      dup5\n      dup3\n      mstore\n      0x20\n      dup4\n      add\n      0x20\n      dup6\n      add\n      keccak256\n      dup2\n      dup4\n      mstore\n      dup1\n      swap6\n      pop\n      pop\n      pop\n      pop\n      pop\n      pop\n      0x00\n      swap2\n      pop\n      swap1\n      pop\n      dup1\n      0x00\n      add\n      dup1\n      sload\n      tag_271\n      swap1\n      tag_136\n      jump\t// in\n    tag_271:\n      dup1\n      0x1f\n      add\n      0x20\n      dup1\n      swap2\n      div\n      mul\n      0x20\n      add\n      mload(0x40)\n      swap1\n      dup2\n      add\n      0x40\n      mstore\n      dup1\n      swap3\n      swap2\n      swap1\n      dup2\n      dup2\n      mstore\n      0x20\n      add\n      dup3\n      dup1\n      sload\n      tag_272\n      swap1\n      tag_136\n      jump\t// in\n    tag_272:\n      dup1\n      iszero\n      tag_273\n      jumpi\n      dup1\n      0x1f\n      lt\n      tag_274\n      jumpi\n      0x0100\n      dup1\n      dup4\n      sload\n      div\n      mul\n      dup4\n      mstore\n      swap2\n      0x20\n      add\n      swap2\n      jump(tag_273)\n    tag_274:\n      dup3\n      add\n      swap2\n      swap1\n      0x00\n      mstore\n      keccak256(0x00, 0x20)\n      swap1\n    tag_275:\n      dup2\n      sload\n      dup2\n      mstore\n      swap1\n      0x01\n      add\n      swap1\n      0x20\n      add\n      dup1\n      dup4\n      gt\n      tag_275\n      jumpi\n      dup3\n      swap1\n      sub\n      0x1f\n      and\n      dup3\n      add\n      swap2\n    tag_273:\n      pop\n      pop\n      pop\n      pop\n      pop\n      swap1\n      dup1\n      0x01\n      add\n      0x00\n      swap1\n      sload\n      swap1\n      0x0100\n      exp\n      swap1\n      div\n      0xffffffffffffffffffffffffffffffffffffffff\n      and\n      swap1\n      dup1\n      0x02\n      add\n      dup1\n      sload\n      tag_276\n      swap1\n      tag_136\n      jump\t// in\n    tag_276:\n      dup1\n      0x1f\n      add\n      0x20\n      dup1\n      swap2\n      div\n      mul\n      0x20\n      add\n      mload(0x40)\n      swap1\n      dup2\n      add\n      0x40\n      mstore\n      dup1\n      swap3\n      swap2\n      swap1\n      dup2\n      dup2\n      mstore\n      0x20\n      add\n      dup3\n      dup1\n      sload\n      tag_277\n      swap1\n      tag_136\n      jump\t// in\n    tag_277:\n      dup1\n      iszero\n      tag_278\n      jumpi\n      dup1\n      0x1f\n      lt\n      tag_279\n      jumpi\n      0x0100\n      dup1\n      dup4\n      sload\n      div\n      mul\n      dup4\n      mstore\n      swap2\n      0x20\n      add\n      swap2\n      jump(tag_278)\n    tag_279:\n      dup3\n      add\n      swap2\n      swap1\n      0x00\n      mstore\n      keccak256(0x00, 0x20)\n      swap1\n    tag_280:\n      dup2\n      sload\n      dup2\n      mstore\n      swap1\n      0x01\n      add\n      swap1\n      0x20\n      add\n      dup1\n      dup4\n      gt\n      tag_280\n      jumpi\n      dup3\n      swap1\n      sub\n      0x1f\n      and\n      dup3\n      add\n      swap2\n    tag_278:\n      pop\n      pop\n      pop\n      pop\n      pop\n      swap1\n      dup1\n      0x03\n      add\n      sload\n      swap1\n      dup1\n      0x04\n      add\n      sload\n      swap1\n      pop\n      dup6\n      jump\t// out\n        /* \"backend/contracts/ONGDonaciones.sol\":1199:1229  string[] public listaProyectos */\n    tag_112:\n      0x04\n      dup2\n      dup2\n      sload\n      dup2\n      lt\n      tag_281\n      jumpi\n      0x00\n      dup1\n      revert\n    tag_281:\n      swap1\n      0x00\n      mstore\n      keccak256(0x00, 0x20)\n      add\n      0x00\n      swap2\n      pop\n      swap1\n      pop\n      dup1\n      sload\n      tag_283\n      swap1\n      tag_136\n      jump\t// in\n    tag_283:\n      dup1\n      0x1f\n      add\n      0x20\n      dup1\n      swap2\n      div\n      mul\n      0x20\n      add\n      mload(0x40)\n      swap1\n      dup2\n      add\n      0x40\n      mstore\n      dup1\n      swap3\n      swap2\n      swap1\n      dup2\n      dup2\n      mstore\n      0x20\n      add\n      dup3\n      dup1\n      sload\n      tag_284\n      swap1\n      tag_136\n      jump\t// in\n    tag_284:\n      dup1\n      iszero\n      tag_285\n      jumpi\n      dup1\n      0x1f\n      lt\n      tag_286\n      jumpi\n      0x0100\n      dup1\n      dup4\n      sload\n      div\n      mul\n      dup4\n      mstore\n      swap2\n      0x20\n      add\n      swap2\n      jump(tag_285)\n    tag_286:\n      dup3\n      add\n      swap2\n      swap1\n      0x00\n      mstore\n      keccak256(0x00, 0x20)\n      swap1\n    tag_287:\n      dup2\n      sload\n      dup2\n      mstore\n      swap1\n      0x01\n      add\n      swap1\n      0x20\n      add\n      dup1\n      dup4\n      gt\n      tag_287\n      jumpi\n      dup3\n      swap1\n      sub\n      0x1f\n      and\n      dup3\n      add\n      swap2\n    tag_285:\n      pop\n      pop\n      pop\n      pop\n      pop\n      dup2\n      jump\t// out\n        /* \"backend/contracts/ONGDonaciones.sol\":6192:6549  function validarFondosProyecto(string memory _proyectoId, uint256 _cantidad) public soloOwner {... */\n    tag_118:\n        /* \"backend/contracts/ONGDonaciones.sol\":2386:2391  owner */\n      0x07\n      0x00\n      swap1\n      sload\n      swap1\n      0x0100\n      exp\n      swap1\n      div\n      0xffffffffffffffffffffffffffffffffffffffff\n      and\n        /* \"backend/contracts/ONGDonaciones.sol\":2372:2391  msg.sender == owner */\n      0xffffffffffffffffffffffffffffffffffffffff\n      and\n        /* \"backend/contracts/ONGDonaciones.sol\":2372:2382  msg.sender */\n      caller\n        /* \"backend/contracts/ONGDonaciones.sol\":2372:2391  msg.sender == owner */\n      0xffffffffffffffffffffffffffffffffffffffff\n      and\n      eq\n        /* \"backend/contracts/ONGDonaciones.sol\":2364:2429  require(msg.sender == owner, \"Solo el owner puede ejecutar esto\") */\n      tag_289\n      jumpi\n      mload(0x40)\n      0x08c379a000000000000000000000000000000000000000000000000000000000\n      dup2\n      mstore\n      0x04\n      add\n      tag_290\n      swap1\n      tag_145\n      jump\t// in\n    tag_290:\n      mload(0x40)\n      dup1\n      swap2\n      sub\n      swap1\n      revert\n    tag_289:\n        /* \"backend/contracts/ONGDonaciones.sol\":6346:6347  0 */\n      0x00\n        /* \"backend/contracts/ONGDonaciones.sol\":6310:6319  proyectos */\n      0x01\n        /* \"backend/contracts/ONGDonaciones.sol\":6320:6331  _proyectoId */\n      dup4\n        /* \"backend/contracts/ONGDonaciones.sol\":6310:6332  proyectos[_proyectoId] */\n      mload(0x40)\n      tag_292\n      swap2\n      swap1\n      tag_148\n      jump\t// in\n    tag_292:\n      swap1\n      dup2\n      mstore\n      0x20\n      add\n      mload(0x40)\n      dup1\n      swap2\n      sub\n      swap1\n      keccak256\n        /* \"backend/contracts/ONGDonaciones.sol\":6310:6335  proyectos[_proyectoId].id */\n      0x00\n      add\n        /* \"backend/contracts/ONGDonaciones.sol\":6304:6343  bytes(proyectos[_proyectoId].id).length */\n      dup1\n      sload\n      tag_293\n      swap1\n      tag_136\n      jump\t// in\n    tag_293:\n      swap1\n      pop\n        /* \"backend/contracts/ONGDonaciones.sol\":6304:6347  bytes(proyectos[_proyectoId].id).length > 0 */\n      gt\n        /* \"backend/contracts/ONGDonaciones.sol\":6296:6370  require(bytes(proyectos[_proyectoId].id).length > 0, \"Proyecto no existe\") */\n      tag_294\n      jumpi\n      mload(0x40)\n      0x08c379a000000000000000000000000000000000000000000000000000000000\n      dup2\n      mstore\n      0x04\n      add\n      tag_295\n      swap1\n      tag_152\n      jump\t// in\n    tag_295:\n      mload(0x40)\n      dup1\n      swap2\n      sub\n      swap1\n      revert\n    tag_294:\n        /* \"backend/contracts/ONGDonaciones.sol\":6401:6410  proyectos */\n      0x01\n        /* \"backend/contracts/ONGDonaciones.sol\":6411:6422  _proyectoId */\n      dup3\n        /* \"backend/contracts/ONGDonaciones.sol\":6401:6423  proyectos[_proyectoId] */\n      mload(0x40)\n      tag_296\n      swap2\n      swap1\n      tag_148\n      jump\t// in\n    tag_296:\n      swap1\n      dup2\n      mstore\n      0x20\n      add\n      mload(0x40)\n      dup1\n      swap2\n      sub\n      swap1\n      keccak256\n        /* \"backend/contracts/ONGDonaciones.sol\":6401:6441  proyectos[_proyectoId].cantidadRecaudada */\n      0x03\n      add\n      sload\n        /* \"backend/contracts/ONGDonaciones.sol\":6388:6397  _cantidad */\n      dup2\n        /* \"backend/contracts/ONGDonaciones.sol\":6388:6441  _cantidad <= proyectos[_proyectoId].cantidadRecaudada */\n      gt\n      iszero\n        /* \"backend/contracts/ONGDonaciones.sol\":6380:6471  require(_cantidad <= proyectos[_proyectoId].cantidadRecaudada, \"Cantidad excede recaudado\") */\n      tag_297\n      jumpi\n      mload(0x40)\n      0x08c379a000000000000000000000000000000000000000000000000000000000\n      dup2\n      mstore\n      0x04\n      add\n      tag_298\n      swap1\n      tag_299\n      jump\t// in\n    tag_298:\n      mload(0x40)\n      dup1\n      swap2\n      sub\n      swap1\n      revert\n    tag_297:\n        /* \"backend/contracts/ONGDonaciones.sol\":6533:6542  _cantidad */\n      dup1\n        /* \"backend/contracts/ONGDonaciones.sol\":6490:6499  proyectos */\n      0x01\n        /* \"backend/contracts/ONGDonaciones.sol\":6500:6511  _proyectoId */\n      dup4\n        /* \"backend/contracts/ONGDonaciones.sol\":6490:6512  proyectos[_proyectoId] */\n      mload(0x40)\n      tag_300\n      swap2\n      swap1\n      tag_148\n      jump\t// in\n    tag_300:\n      swap1\n      dup2\n      mstore\n      0x20\n      add\n      mload(0x40)\n      dup1\n      swap2\n      sub\n      swap1\n      keccak256\n        /* \"backend/contracts/ONGDonaciones.sol\":6490:6529  proyectos[_proyectoId].cantidadValidada */\n      0x04\n      add\n      0x00\n        /* \"backend/contracts/ONGDonaciones.sol\":6490:6542  proyectos[_proyectoId].cantidadValidada += _cantidad */\n      dup3\n      dup3\n      sload\n      tag_301\n      swap2\n      swap1\n      tag_196\n      jump\t// in\n    tag_301:\n      swap3\n      pop\n      pop\n      dup2\n      swap1\n      sstore\n      pop\n        /* \"backend/contracts/ONGDonaciones.sol\":6192:6549  function validarFondosProyecto(string memory _proyectoId, uint256 _cantidad) public soloOwner {... */\n      pop\n      pop\n      jump\t// out\n        /* \"backend/contracts/ONGDonaciones.sol\":2645:3135  function registrarDonante(string memory _nombre, TipoDonante _tipo) public {... */\n    tag_123:\n        /* \"backend/contracts/ONGDonaciones.sol\":2780:2781  0 */\n      0x00\n        /* \"backend/contracts/ONGDonaciones.sol\":2738:2782  donantes[msg.sender].direccion == address(0) */\n      0xffffffffffffffffffffffffffffffffffffffff\n      and\n        /* \"backend/contracts/ONGDonaciones.sol\":2738:2746  donantes */\n      0x00\n        /* \"backend/contracts/ONGDonaciones.sol\":2738:2758  donantes[msg.sender] */\n      0x00\n        /* \"backend/contracts/ONGDonaciones.sol\":2747:2757  msg.sender */\n      caller\n        /* \"backend/contracts/ONGDonaciones.sol\":2738:2758  donantes[msg.sender] */\n      0xffffffffffffffffffffffffffffffffffffffff\n      and\n      0xffffffffffffffffffffffffffffffffffffffff\n      and\n      dup2\n      mstore\n      0x20\n      add\n      swap1\n      dup2\n      mstore\n      0x20\n      add\n      0x00\n      keccak256\n        /* \"backend/contracts/ONGDonaciones.sol\":2738:2768  donantes[msg.sender].direccion */\n      0x00\n      add\n      0x00\n      swap1\n      sload\n      swap1\n      0x0100\n      exp\n      swap1\n      div\n      0xffffffffffffffffffffffffffffffffffffffff\n      and\n        /* \"backend/contracts/ONGDonaciones.sol\":2738:2782  donantes[msg.sender].direccion == address(0) */\n      0xffffffffffffffffffffffffffffffffffffffff\n      and\n      eq\n        /* \"backend/contracts/ONGDonaciones.sol\":2730:2808  require(donantes[msg.sender].direccion == address(0), \"Donante ya registrado\") */\n      tag_303\n      jumpi\n      mload(0x40)\n      0x08c379a000000000000000000000000000000000000000000000000000000000\n      dup2\n      mstore\n      0x04\n      add\n      tag_304\n      swap1\n      tag_305\n      jump\t// in\n    tag_304:\n      mload(0x40)\n      dup1\n      swap2\n      sub\n      swap1\n      revert\n    tag_303:\n        /* \"backend/contracts/ONGDonaciones.sol\":2850:3026  Donante({... */\n      mload(0x40)\n      dup1\n      0xa0\n      add\n      0x40\n      mstore\n      dup1\n        /* \"backend/contracts/ONGDonaciones.sol\":2883:2893  msg.sender */\n      caller\n        /* \"backend/contracts/ONGDonaciones.sol\":2850:3026  Donante({... */\n      0xffffffffffffffffffffffffffffffffffffffff\n      and\n      dup2\n      mstore\n      0x20\n      add\n        /* \"backend/contracts/ONGDonaciones.sol\":2915:2922  _nombre */\n      dup4\n        /* \"backend/contracts/ONGDonaciones.sol\":2850:3026  Donante({... */\n      dup2\n      mstore\n      0x20\n      add\n        /* \"backend/contracts/ONGDonaciones.sol\":2949:2954  _tipo */\n      dup3\n        /* \"backend/contracts/ONGDonaciones.sol\":2850:3026  Donante({... */\n      0x01\n      dup2\n      gt\n      iszero\n      tag_306\n      jumpi\n      tag_307\n      tag_156\n      jump\t// in\n    tag_307:\n    tag_306:\n      dup2\n      mstore\n      0x20\n      add\n        /* \"backend/contracts/ONGDonaciones.sol\":2981:2982  0 */\n      0x00\n        /* \"backend/contracts/ONGDonaciones.sol\":2850:3026  Donante({... */\n      dup2\n      mstore\n      0x20\n      add\n        /* \"backend/contracts/ONGDonaciones.sol\":3014:3015  0 */\n      0x00\n        /* \"backend/contracts/ONGDonaciones.sol\":2850:3026  Donante({... */\n      dup2\n      mstore\n      pop\n        /* \"backend/contracts/ONGDonaciones.sol\":2827:2835  donantes */\n      0x00\n        /* \"backend/contracts/ONGDonaciones.sol\":2827:2847  donantes[msg.sender] */\n      0x00\n        /* \"backend/contracts/ONGDonaciones.sol\":2836:2846  msg.sender */\n      caller\n        /* \"backend/contracts/ONGDonaciones.sol\":2827:2847  donantes[msg.sender] */\n      0xffffffffffffffffffffffffffffffffffffffff\n      and\n      0xffffffffffffffffffffffffffffffffffffffff\n      and\n      dup2\n      mstore\n      0x20\n      add\n      swap1\n      dup2\n      mstore\n      0x20\n      add\n      0x00\n      keccak256\n        /* \"backend/contracts/ONGDonaciones.sol\":2827:3026  donantes[msg.sender] = Donante({... */\n      0x00\n      dup3\n      add\n      mload\n      dup2\n      0x00\n      add\n      exp(0x0100, 0x00)\n      dup2\n      sload\n      dup2\n      0xffffffffffffffffffffffffffffffffffffffff\n      mul\n      not\n      and\n      swap1\n      dup4\n      0xffffffffffffffffffffffffffffffffffffffff\n      and\n      mul\n      or\n      swap1\n      sstore\n      pop\n      0x20\n      dup3\n      add\n      mload\n      dup2\n      0x01\n      add\n      swap1\n      dup2\n      tag_308\n      swap2\n      swap1\n      tag_180\n      jump\t// in\n    tag_308:\n      pop\n      0x40\n      dup3\n      add\n      mload\n      dup2\n      0x02\n      add\n      exp(0x0100, 0x00)\n      dup2\n      sload\n      dup2\n      0xff\n      mul\n      not\n      and\n      swap1\n      dup4\n      0x01\n      dup2\n      gt\n      iszero\n      tag_309\n      jumpi\n      tag_310\n      tag_156\n      jump\t// in\n    tag_310:\n    tag_309:\n      mul\n      or\n      swap1\n      sstore\n      pop\n      0x60\n      dup3\n      add\n      mload\n      dup2\n      0x03\n      add\n      sstore\n      0x80\n      dup3\n      add\n      mload\n      dup2\n      0x04\n      add\n      sstore\n      swap1\n      pop\n      pop\n        /* \"backend/contracts/ONGDonaciones.sol\":3045:3058  listaDonantes */\n      0x03\n        /* \"backend/contracts/ONGDonaciones.sol\":3064:3074  msg.sender */\n      caller\n        /* \"backend/contracts/ONGDonaciones.sol\":3045:3075  listaDonantes.push(msg.sender) */\n      swap1\n      dup1\n      0x01\n      dup2\n      sload\n      add\n      dup1\n      dup3\n      sstore\n      dup1\n      swap2\n      pop\n      pop\n      0x01\n      swap1\n      sub\n      swap1\n      0x00\n      mstore\n      keccak256(0x00, 0x20)\n      add\n      0x00\n      swap1\n      swap2\n      swap1\n      swap2\n      swap1\n      swap2\n      0x0100\n      exp\n      dup2\n      sload\n      dup2\n      0xffffffffffffffffffffffffffffffffffffffff\n      mul\n      not\n      and\n      swap1\n      dup4\n      0xffffffffffffffffffffffffffffffffffffffff\n      and\n      mul\n      or\n      swap1\n      sstore\n      pop\n        /* \"backend/contracts/ONGDonaciones.sol\":3108:3118  msg.sender */\n      caller\n        /* \"backend/contracts/ONGDonaciones.sol\":3090:3128  DonanteRegistrado(msg.sender, _nombre) */\n      0xffffffffffffffffffffffffffffffffffffffff\n      and\n      0xbd0aa66e3f9bb3059d63a43b52e561b9d290792bb97b3ca81fafc608a3a026e8\n        /* \"backend/contracts/ONGDonaciones.sol\":3120:3127  _nombre */\n      dup4\n        /* \"backend/contracts/ONGDonaciones.sol\":3090:3128  DonanteRegistrado(msg.sender, _nombre) */\n      mload(0x40)\n      tag_312\n      swap2\n      swap1\n      tag_32\n      jump\t// in\n    tag_312:\n      mload(0x40)\n      dup1\n      swap2\n      sub\n      swap1\n      log2\n        /* \"backend/contracts/ONGDonaciones.sol\":2645:3135  function registrarDonante(string memory _nombre, TipoDonante _tipo) public {... */\n      pop\n      pop\n      jump\t// out\n        /* \"backend/contracts/ONGDonaciones.sol\":3205:3807  function crearProyecto(... */\n    tag_128:\n        /* \"backend/contracts/ONGDonaciones.sol\":2386:2391  owner */\n      0x07\n      0x00\n      swap1\n      sload\n      swap1\n      0x0100\n      exp\n      swap1\n      div\n      0xffffffffffffffffffffffffffffffffffffffff\n      and\n        /* \"backend/contracts/ONGDonaciones.sol\":2372:2391  msg.sender == owner */\n      0xffffffffffffffffffffffffffffffffffffffff\n      and\n        /* \"backend/contracts/ONGDonaciones.sol\":2372:2382  msg.sender */\n      caller\n        /* \"backend/contracts/ONGDonaciones.sol\":2372:2391  msg.sender == owner */\n      0xffffffffffffffffffffffffffffffffffffffff\n      and\n      eq\n        /* \"backend/contracts/ONGDonaciones.sol\":2364:2429  require(msg.sender == owner, \"Solo el owner puede ejecutar esto\") */\n      tag_314\n      jumpi\n      mload(0x40)\n      0x08c379a000000000000000000000000000000000000000000000000000000000\n      dup2\n      mstore\n      0x04\n      add\n      tag_315\n      swap1\n      tag_145\n      jump\t// in\n    tag_315:\n      mload(0x40)\n      dup1\n      swap2\n      sub\n      swap1\n      revert\n    tag_314:\n        /* \"backend/contracts/ONGDonaciones.sol\":3398:3399  0 */\n      0x00\n        /* \"backend/contracts/ONGDonaciones.sol\":3369:3378  proyectos */\n      0x01\n        /* \"backend/contracts/ONGDonaciones.sol\":3379:3382  _id */\n      dup5\n        /* \"backend/contracts/ONGDonaciones.sol\":3369:3383  proyectos[_id] */\n      mload(0x40)\n      tag_317\n      swap2\n      swap1\n      tag_148\n      jump\t// in\n    tag_317:\n      swap1\n      dup2\n      mstore\n      0x20\n      add\n      mload(0x40)\n      dup1\n      swap2\n      sub\n      swap1\n      keccak256\n        /* \"backend/contracts/ONGDonaciones.sol\":3369:3386  proyectos[_id].id */\n      0x00\n      add\n        /* \"backend/contracts/ONGDonaciones.sol\":3363:3394  bytes(proyectos[_id].id).length */\n      dup1\n      sload\n      tag_318\n      swap1\n      tag_136\n      jump\t// in\n    tag_318:\n      swap1\n      pop\n        /* \"backend/contracts/ONGDonaciones.sol\":3363:3399  bytes(proyectos[_id].id).length == 0 */\n      eq\n        /* \"backend/contracts/ONGDonaciones.sol\":3355:3422  require(bytes(proyectos[_id].id).length == 0, \"Proyecto ya existe\") */\n      tag_319\n      jumpi\n      mload(0x40)\n      0x08c379a000000000000000000000000000000000000000000000000000000000\n      dup2\n      mstore\n      0x04\n      add\n      tag_320\n      swap1\n      tag_321\n      jump\t// in\n    tag_320:\n      mload(0x40)\n      dup1\n      swap2\n      sub\n      swap1\n      revert\n    tag_319:\n        /* \"backend/contracts/ONGDonaciones.sol\":3458:3709  Proyecto({... */\n      mload(0x40)\n      dup1\n      0xe0\n      add\n      0x40\n      mstore\n      dup1\n        /* \"backend/contracts/ONGDonaciones.sol\":3485:3488  _id */\n      dup5\n        /* \"backend/contracts/ONGDonaciones.sol\":3458:3709  Proyecto({... */\n      dup2\n      mstore\n      0x20\n      add\n        /* \"backend/contracts/ONGDonaciones.sol\":3515:3527  _descripcion */\n      dup4\n        /* \"backend/contracts/ONGDonaciones.sol\":3458:3709  Proyecto({... */\n      dup2\n      mstore\n      0x20\n      add\n        /* \"backend/contracts/ONGDonaciones.sol\":3554:3566  _responsable */\n      dup3\n        /* \"backend/contracts/ONGDonaciones.sol\":3458:3709  Proyecto({... */\n      0xffffffffffffffffffffffffffffffffffffffff\n      and\n      dup2\n      mstore\n      0x20\n      add\n        /* \"backend/contracts/ONGDonaciones.sol\":3599:3600  0 */\n      0x00\n        /* \"backend/contracts/ONGDonaciones.sol\":3458:3709  Proyecto({... */\n      dup2\n      mstore\n      0x20\n      add\n        /* \"backend/contracts/ONGDonaciones.sol\":3632:3633  0 */\n      0x00\n        /* \"backend/contracts/ONGDonaciones.sol\":3458:3709  Proyecto({... */\n      dup2\n      mstore\n      0x20\n      add\n        /* \"backend/contracts/ONGDonaciones.sol\":3655:3676  EstadoProyecto.Activo */\n      0x00\n        /* \"backend/contracts/ONGDonaciones.sol\":3458:3709  Proyecto({... */\n      0x01\n      dup2\n      gt\n      iszero\n      tag_322\n      jumpi\n      tag_323\n      tag_156\n      jump\t// in\n    tag_323:\n    tag_322:\n      dup2\n      mstore\n      0x20\n      add\n        /* \"backend/contracts/ONGDonaciones.sol\":3697:3698  0 */\n      0x00\n        /* \"backend/contracts/ONGDonaciones.sol\":3458:3709  Proyecto({... */\n      dup2\n      mstore\n      pop\n        /* \"backend/contracts/ONGDonaciones.sol\":3441:3450  proyectos */\n      0x01\n        /* \"backend/contracts/ONGDonaciones.sol\":3451:3454  _id */\n      dup5\n        /* \"backend/contracts/ONGDonaciones.sol\":3441:3455  proyectos[_id] */\n      mload(0x40)\n      tag_324\n      swap2\n      swap1\n      tag_148\n      jump\t// in\n    tag_324:\n      swap1\n      dup2\n      mstore\n      0x20\n      add\n      mload(0x40)\n      dup1\n      swap2\n      sub\n      swap1\n      keccak256\n        /* \"backend/contracts/ONGDonaciones.sol\":3441:3709  proyectos[_id] = Proyecto({... */\n      0x00\n      dup3\n      add\n      mload\n      dup2\n      0x00\n      add\n      swap1\n      dup2\n      tag_325\n      swap2\n      swap1\n      tag_180\n      jump\t// in\n    tag_325:\n      pop\n      0x20\n      dup3\n      add\n      mload\n      dup2\n      0x01\n      add\n      swap1\n      dup2\n      tag_326\n      swap2\n      swap1\n      tag_180\n      jump\t// in\n    tag_326:\n      pop\n      0x40\n      dup3\n      add\n      mload\n      dup2\n      0x02\n      add\n      exp(0x0100, 0x00)\n      dup2\n      sload\n      dup2\n      0xffffffffffffffffffffffffffffffffffffffff\n      mul\n      not\n      and\n      swap1\n      dup4\n      0xffffffffffffffffffffffffffffffffffffffff\n      and\n      mul\n      or\n      swap1\n      sstore\n      pop\n      0x60\n      dup3\n      add\n      mload\n      dup2\n      0x03\n      add\n      sstore\n      0x80\n      dup3\n      add\n      mload\n      dup2\n      0x04\n      add\n      sstore\n      0xa0\n      dup3\n      add\n      mload\n      dup2\n      0x05\n      add\n      exp(0x0100, 0x00)\n      dup2\n      sload\n      dup2\n      0xff\n      mul\n      not\n      and\n      swap1\n      dup4\n      0x01\n      dup2\n      gt\n      iszero\n      tag_327\n      jumpi\n      tag_328\n      tag_156\n      jump\t// in\n    tag_328:\n    tag_327:\n      mul\n      or\n      swap1\n      sstore\n      pop\n      0xc0\n      dup3\n      add\n      mload\n      dup2\n      0x06\n      add\n      sstore\n      swap1\n      pop\n      pop\n        /* \"backend/contracts/ONGDonaciones.sol\":3728:3742  listaProyectos */\n      0x04\n        /* \"backend/contracts/ONGDonaciones.sol\":3748:3751  _id */\n      dup4\n        /* \"backend/contracts/ONGDonaciones.sol\":3728:3752  listaProyectos.push(_id) */\n      swap1\n      dup1\n      0x01\n      dup2\n      sload\n      add\n      dup1\n      dup3\n      sstore\n      dup1\n      swap2\n      pop\n      pop\n      0x01\n      swap1\n      sub\n      swap1\n      0x00\n      mstore\n      keccak256(0x00, 0x20)\n      add\n      0x00\n      swap1\n      swap2\n      swap1\n      swap2\n      swap1\n      swap2\n      pop\n      swap1\n      dup2\n      tag_330\n      swap2\n      swap1\n      tag_180\n      jump\t// in\n    tag_330:\n      pop\n        /* \"backend/contracts/ONGDonaciones.sol\":3767:3800  ProyectoCreado(_id, _descripcion) */\n      0x9be706a9f3913e31e847d7fa4c6f64709e9391228ae7f008d72beabe0b95750f\n        /* \"backend/contracts/ONGDonaciones.sol\":3782:3785  _id */\n      dup4\n        /* \"backend/contracts/ONGDonaciones.sol\":3787:3799  _descripcion */\n      dup4\n        /* \"backend/contracts/ONGDonaciones.sol\":3767:3800  ProyectoCreado(_id, _descripcion) */\n      mload(0x40)\n      tag_331\n      swap3\n      swap2\n      swap1\n      tag_332\n      jump\t// in\n    tag_331:\n      mload(0x40)\n      dup1\n      swap2\n      sub\n      swap1\n      log1\n        /* \"backend/contracts/ONGDonaciones.sol\":3205:3807  function crearProyecto(... */\n      pop\n      pop\n      pop\n      jump\t// out\n        /* \"backend/contracts/ONGDonaciones.sol\":5480:6099  function votarProyecto(string memory _proyectoId, uint256 _cantidadVotos) public { // No es payable porque usamos token interno, no ETH... */\n    tag_132:\n        /* \"backend/contracts/ONGDonaciones.sol\":5674:5675  0 */\n      0x00\n        /* \"backend/contracts/ONGDonaciones.sol\":5632:5676  donantes[msg.sender].direccion != address(0) */\n      0xffffffffffffffffffffffffffffffffffffffff\n      and\n        /* \"backend/contracts/ONGDonaciones.sol\":5632:5640  donantes */\n      0x00\n        /* \"backend/contracts/ONGDonaciones.sol\":5632:5652  donantes[msg.sender] */\n      0x00\n        /* \"backend/contracts/ONGDonaciones.sol\":5641:5651  msg.sender */\n      caller\n        /* \"backend/contracts/ONGDonaciones.sol\":5632:5652  donantes[msg.sender] */\n      0xffffffffffffffffffffffffffffffffffffffff\n      and\n      0xffffffffffffffffffffffffffffffffffffffff\n      and\n      dup2\n      mstore\n      0x20\n      add\n      swap1\n      dup2\n      mstore\n      0x20\n      add\n      0x00\n      keccak256\n        /* \"backend/contracts/ONGDonaciones.sol\":5632:5662  donantes[msg.sender].direccion */\n      0x00\n      add\n      0x00\n      swap1\n      sload\n      swap1\n      0x0100\n      exp\n      swap1\n      div\n      0xffffffffffffffffffffffffffffffffffffffff\n      and\n        /* \"backend/contracts/ONGDonaciones.sol\":5632:5676  donantes[msg.sender].direccion != address(0) */\n      0xffffffffffffffffffffffffffffffffffffffff\n      and\n      sub\n        /* \"backend/contracts/ONGDonaciones.sol\":5624:5694  require(donantes[msg.sender].direccion != address(0), \"No registrado\") */\n      tag_334\n      jumpi\n      mload(0x40)\n      0x08c379a000000000000000000000000000000000000000000000000000000000\n      dup2\n      mstore\n      0x04\n      add\n      tag_335\n      swap1\n      tag_336\n      jump\t// in\n    tag_335:\n      mload(0x40)\n      dup1\n      swap2\n      sub\n      swap1\n      revert\n    tag_334:\n        /* \"backend/contracts/ONGDonaciones.sol\":5745:5766  EstadoProyecto.Activo */\n      0x00\n        /* \"backend/contracts/ONGDonaciones.sol\":5712:5766  proyectos[_proyectoId].estado == EstadoProyecto.Activo */\n      0x01\n      dup2\n      gt\n      iszero\n      tag_337\n      jumpi\n      tag_338\n      tag_156\n      jump\t// in\n    tag_338:\n    tag_337:\n        /* \"backend/contracts/ONGDonaciones.sol\":5712:5721  proyectos */\n      0x01\n        /* \"backend/contracts/ONGDonaciones.sol\":5722:5733  _proyectoId */\n      dup4\n        /* \"backend/contracts/ONGDonaciones.sol\":5712:5734  proyectos[_proyectoId] */\n      mload(0x40)\n      tag_339\n      swap2\n      swap1\n      tag_148\n      jump\t// in\n    tag_339:\n      swap1\n      dup2\n      mstore\n      0x20\n      add\n      mload(0x40)\n      dup1\n      swap2\n      sub\n      swap1\n      keccak256\n        /* \"backend/contracts/ONGDonaciones.sol\":5712:5741  proyectos[_proyectoId].estado */\n      0x05\n      add\n      0x00\n      swap1\n      sload\n      swap1\n      0x0100\n      exp\n      swap1\n      div\n      0xff\n      and\n        /* \"backend/contracts/ONGDonaciones.sol\":5712:5766  proyectos[_proyectoId].estado == EstadoProyecto.Activo */\n      0x01\n      dup2\n      gt\n      iszero\n      tag_340\n      jumpi\n      tag_341\n      tag_156\n      jump\t// in\n    tag_341:\n    tag_340:\n      eq\n        /* \"backend/contracts/ONGDonaciones.sol\":5704:5789  require(proyectos[_proyectoId].estado == EstadoProyecto.Activo, \"Proyecto no activo\") */\n      tag_342\n      jumpi\n      mload(0x40)\n      0x08c379a000000000000000000000000000000000000000000000000000000000\n      dup2\n      mstore\n      0x04\n      add\n      tag_343\n      swap1\n      tag_175\n      jump\t// in\n    tag_343:\n      mload(0x40)\n      dup1\n      swap2\n      sub\n      swap1\n      revert\n    tag_342:\n        /* \"backend/contracts/ONGDonaciones.sol\":5848:5862  _cantidadVotos */\n      dup1\n        /* \"backend/contracts/ONGDonaciones.sol\":5807:5815  donantes */\n      0x00\n        /* \"backend/contracts/ONGDonaciones.sol\":5807:5827  donantes[msg.sender] */\n      0x00\n        /* \"backend/contracts/ONGDonaciones.sol\":5816:5826  msg.sender */\n      caller\n        /* \"backend/contracts/ONGDonaciones.sol\":5807:5827  donantes[msg.sender] */\n      0xffffffffffffffffffffffffffffffffffffffff\n      and\n      0xffffffffffffffffffffffffffffffffffffffff\n      and\n      dup2\n      mstore\n      0x20\n      add\n      swap1\n      dup2\n      mstore\n      0x20\n      add\n      0x00\n      keccak256\n        /* \"backend/contracts/ONGDonaciones.sol\":5807:5844  donantes[msg.sender].tokensGobernanza */\n      0x04\n      add\n      sload\n        /* \"backend/contracts/ONGDonaciones.sol\":5807:5862  donantes[msg.sender].tokensGobernanza >= _cantidadVotos */\n      lt\n      iszero\n        /* \"backend/contracts/ONGDonaciones.sol\":5799:5887  require(donantes[msg.sender].tokensGobernanza >= _cantidadVotos, \"Tokens insuficientes\") */\n      tag_344\n      jumpi\n      mload(0x40)\n      0x08c379a000000000000000000000000000000000000000000000000000000000\n      dup2\n      mstore\n      0x04\n      add\n      tag_345\n      swap1\n      tag_346\n      jump\t// in\n    tag_345:\n      mload(0x40)\n      dup1\n      swap2\n      sub\n      swap1\n      revert\n    tag_344:\n        /* \"backend/contracts/ONGDonaciones.sol\":5948:5962  _cantidadVotos */\n      dup1\n        /* \"backend/contracts/ONGDonaciones.sol\":5907:5915  donantes */\n      0x00\n        /* \"backend/contracts/ONGDonaciones.sol\":5907:5927  donantes[msg.sender] */\n      0x00\n        /* \"backend/contracts/ONGDonaciones.sol\":5916:5926  msg.sender */\n      caller\n        /* \"backend/contracts/ONGDonaciones.sol\":5907:5927  donantes[msg.sender] */\n      0xffffffffffffffffffffffffffffffffffffffff\n      and\n      0xffffffffffffffffffffffffffffffffffffffff\n      and\n      dup2\n      mstore\n      0x20\n      add\n      swap1\n      dup2\n      mstore\n      0x20\n      add\n      0x00\n      keccak256\n        /* \"backend/contracts/ONGDonaciones.sol\":5907:5944  donantes[msg.sender].tokensGobernanza */\n      0x04\n      add\n      0x00\n        /* \"backend/contracts/ONGDonaciones.sol\":5907:5962  donantes[msg.sender].tokensGobernanza -= _cantidadVotos */\n      dup3\n      dup3\n      sload\n      tag_347\n      swap2\n      swap1\n      tag_348\n      jump\t// in\n    tag_347:\n      swap3\n      pop\n      pop\n      dup2\n      swap1\n      sstore\n      pop\n        /* \"backend/contracts/ONGDonaciones.sol\":6004:6018  _cantidadVotos */\n      dup1\n        /* \"backend/contracts/ONGDonaciones.sol\":5972:5981  proyectos */\n      0x01\n        /* \"backend/contracts/ONGDonaciones.sol\":5982:5993  _proyectoId */\n      dup4\n        /* \"backend/contracts/ONGDonaciones.sol\":5972:5994  proyectos[_proyectoId] */\n      mload(0x40)\n      tag_349\n      swap2\n      swap1\n      tag_148\n      jump\t// in\n    tag_349:\n      swap1\n      dup2\n      mstore\n      0x20\n      add\n      mload(0x40)\n      dup1\n      swap2\n      sub\n      swap1\n      keccak256\n        /* \"backend/contracts/ONGDonaciones.sol\":5972:6000  proyectos[_proyectoId].votos */\n      0x06\n      add\n      0x00\n        /* \"backend/contracts/ONGDonaciones.sol\":5972:6018  proyectos[_proyectoId].votos += _cantidadVotos */\n      dup3\n      dup3\n      sload\n      tag_350\n      swap2\n      swap1\n      tag_196\n      jump\t// in\n    tag_350:\n      swap3\n      pop\n      pop\n      dup2\n      swap1\n      sstore\n      pop\n        /* \"backend/contracts/ONGDonaciones.sol\":6052:6062  msg.sender */\n      caller\n        /* \"backend/contracts/ONGDonaciones.sol\":6034:6092  VotacionRealizada(msg.sender, _proyectoId, _cantidadVotos) */\n      0xffffffffffffffffffffffffffffffffffffffff\n      and\n      0x3d62e71a4e89667925b7e27cf64706ba04826bd8e1c791a5d540f7265861057d\n        /* \"backend/contracts/ONGDonaciones.sol\":6064:6075  _proyectoId */\n      dup4\n        /* \"backend/contracts/ONGDonaciones.sol\":6077:6091  _cantidadVotos */\n      dup4\n        /* \"backend/contracts/ONGDonaciones.sol\":6034:6092  VotacionRealizada(msg.sender, _proyectoId, _cantidadVotos) */\n      mload(0x40)\n      tag_351\n      swap3\n      swap2\n      swap1\n      tag_203\n      jump\t// in\n    tag_351:\n      mload(0x40)\n      dup1\n      swap2\n      sub\n      swap1\n      log2\n        /* \"backend/contracts/ONGDonaciones.sol\":5480:6099  function votarProyecto(string memory _proyectoId, uint256 _cantidadVotos) public { // No es payable porque usamos token interno, no ETH... */\n      pop\n      pop\n      jump\t// out\n        /* \"backend/contracts/ONGDonaciones.sol\":7918:8408  function uintToString(uint256 _i) internal pure returns (string memory) {... */\n    tag_187:\n        /* \"backend/contracts/ONGDonaciones.sol\":7975:7988  string memory */\n      0x60\n        /* \"backend/contracts/ONGDonaciones.sol\":8010:8011  0 */\n      0x00\n        /* \"backend/contracts/ONGDonaciones.sol\":8004:8006  _i */\n      dup3\n        /* \"backend/contracts/ONGDonaciones.sol\":8004:8011  _i == 0 */\n      sub\n        /* \"backend/contracts/ONGDonaciones.sol\":8000:8048  if (_i == 0) {... */\n      tag_353\n      jumpi\n        /* \"backend/contracts/ONGDonaciones.sol\":8027:8037  return \"0\" */\n      mload(0x40)\n      dup1\n      0x40\n      add\n      0x40\n      mstore\n      dup1\n      0x01\n      dup2\n      mstore\n      0x20\n      add\n      0x3000000000000000000000000000000000000000000000000000000000000000\n      dup2\n      mstore\n      pop\n      swap1\n      pop\n      jump(tag_352)\n        /* \"backend/contracts/ONGDonaciones.sol\":8000:8048  if (_i == 0) {... */\n    tag_353:\n        /* \"backend/contracts/ONGDonaciones.sol\":8057:8066  uint256 j */\n      0x00\n        /* \"backend/contracts/ONGDonaciones.sol\":8069:8071  _i */\n      dup3\n        /* \"backend/contracts/ONGDonaciones.sol\":8057:8071  uint256 j = _i */\n      swap1\n      pop\n        /* \"backend/contracts/ONGDonaciones.sol\":8081:8095  uint256 length */\n      0x00\n        /* \"backend/contracts/ONGDonaciones.sol\":8105:8174  while (j != 0) {... */\n    tag_354:\n        /* \"backend/contracts/ONGDonaciones.sol\":8117:8118  0 */\n      0x00\n        /* \"backend/contracts/ONGDonaciones.sol\":8112:8113  j */\n      dup3\n        /* \"backend/contracts/ONGDonaciones.sol\":8112:8118  j != 0 */\n      eq\n        /* \"backend/contracts/ONGDonaciones.sol\":8105:8174  while (j != 0) {... */\n      tag_355\n      jumpi\n        /* \"backend/contracts/ONGDonaciones.sol\":8134:8142  length++ */\n      dup1\n      dup1\n      tag_356\n      swap1\n      tag_185\n      jump\t// in\n    tag_356:\n      swap2\n      pop\n      pop\n        /* \"backend/contracts/ONGDonaciones.sol\":8161:8163  10 */\n      0x0a\n        /* \"backend/contracts/ONGDonaciones.sol\":8156:8163  j /= 10 */\n      dup3\n      tag_357\n      swap2\n      swap1\n      tag_198\n      jump\t// in\n    tag_357:\n      swap2\n      pop\n        /* \"backend/contracts/ONGDonaciones.sol\":8105:8174  while (j != 0) {... */\n      jump(tag_354)\n    tag_355:\n        /* \"backend/contracts/ONGDonaciones.sol\":8183:8200  bytes memory bstr */\n      0x00\n        /* \"backend/contracts/ONGDonaciones.sol\":8213:8219  length */\n      dup2\n        /* \"backend/contracts/ONGDonaciones.sol\":8203:8220  new bytes(length) */\n      0xffffffffffffffff\n      dup2\n      gt\n      iszero\n      tag_358\n      jumpi\n      tag_359\n      tag_360\n      jump\t// in\n    tag_359:\n    tag_358:\n      mload(0x40)\n      swap1\n      dup1\n      dup3\n      mstore\n      dup1\n      0x1f\n      add\n      not(0x1f)\n      and\n      0x20\n      add\n      dup3\n      add\n      0x40\n      mstore\n      dup1\n      iszero\n      tag_361\n      jumpi\n      dup2\n      0x20\n      add\n      0x01\n      dup3\n      mul\n      dup1\n      calldatasize\n      dup4\n      calldatacopy\n      dup1\n      dup3\n      add\n      swap2\n      pop\n      pop\n      swap1\n      pop\n    tag_361:\n      pop\n        /* \"backend/contracts/ONGDonaciones.sol\":8183:8220  bytes memory bstr = new bytes(length) */\n      swap1\n      pop\n        /* \"backend/contracts/ONGDonaciones.sol\":8230:8239  uint256 k */\n      0x00\n        /* \"backend/contracts/ONGDonaciones.sol\":8242:8248  length */\n      dup3\n        /* \"backend/contracts/ONGDonaciones.sol\":8230:8248  uint256 k = length */\n      swap1\n      pop\n        /* \"backend/contracts/ONGDonaciones.sol\":8262:8264  _i */\n      dup6\n        /* \"backend/contracts/ONGDonaciones.sol\":8258:8264  j = _i */\n      swap4\n      pop\n        /* \"backend/contracts/ONGDonaciones.sol\":8274:8373  while (j != 0) {... */\n    tag_362:\n        /* \"backend/contracts/ONGDonaciones.sol\":8286:8287  0 */\n      0x00\n        /* \"backend/contracts/ONGDonaciones.sol\":8281:8282  j */\n      dup5\n        /* \"backend/contracts/ONGDonaciones.sol\":8281:8287  j != 0 */\n      eq\n        /* \"backend/contracts/ONGDonaciones.sol\":8274:8373  while (j != 0) {... */\n      tag_363\n      jumpi\n        /* \"backend/contracts/ONGDonaciones.sol\":8337:8339  10 */\n      0x0a\n        /* \"backend/contracts/ONGDonaciones.sol\":8333:8334  j */\n      dup5\n        /* \"backend/contracts/ONGDonaciones.sol\":8333:8339  j % 10 */\n      tag_364\n      swap2\n      swap1\n      tag_365\n      jump\t// in\n    tag_364:\n        /* \"backend/contracts/ONGDonaciones.sol\":8328:8330  48 */\n      0x30\n        /* \"backend/contracts/ONGDonaciones.sol\":8328:8339  48 + j % 10 */\n      tag_366\n      swap2\n      swap1\n      tag_196\n      jump\t// in\n    tag_366:\n        /* \"backend/contracts/ONGDonaciones.sol\":8315:8341  bytes1(uint8(48 + j % 10)) */\n      0xf8\n      shl\n        /* \"backend/contracts/ONGDonaciones.sol\":8303:8307  bstr */\n      dup3\n        /* \"backend/contracts/ONGDonaciones.sol\":8308:8311  --k */\n      dup3\n      tag_367\n      swap1\n      tag_368\n      jump\t// in\n    tag_367:\n      swap3\n      pop\n      dup3\n        /* \"backend/contracts/ONGDonaciones.sol\":8303:8312  bstr[--k] */\n      dup2\n      mload\n      dup2\n      lt\n      tag_369\n      jumpi\n      tag_370\n      tag_371\n      jump\t// in\n    tag_370:\n    tag_369:\n      0x20\n      add\n      add\n        /* \"backend/contracts/ONGDonaciones.sol\":8303:8341  bstr[--k] = bytes1(uint8(48 + j % 10)) */\n      swap1\n      not(0xffffffffffffffffffffffffffffffffffffffffffffffffffffffffffffff)\n      and\n      swap1\n      dup2\n      0x00\n      byte\n      swap1\n      mstore8\n      pop\n        /* \"backend/contracts/ONGDonaciones.sol\":8360:8362  10 */\n      0x0a\n        /* \"backend/contracts/ONGDonaciones.sol\":8355:8362  j /= 10 */\n      dup5\n      tag_372\n      swap2\n      swap1\n      tag_198\n      jump\t// in\n    tag_372:\n      swap4\n      pop\n        /* \"backend/contracts/ONGDonaciones.sol\":8274:8373  while (j != 0) {... */\n      jump(tag_362)\n    tag_363:\n        /* \"backend/contracts/ONGDonaciones.sol\":8396:8400  bstr */\n      dup2\n        /* \"backend/contracts/ONGDonaciones.sol\":8382:8401  return string(bstr) */\n      swap5\n      pop\n      pop\n      pop\n      pop\n      pop\n        /* \"backend/contracts/ONGDonaciones.sol\":7918:8408  function uintToString(uint256 _i) internal pure returns (string memory) {... */\n    tag_352:\n      swap2\n      swap1\n      pop\n      jump\t// out\n    tag_205:\n      mload(0x40)\n      dup1\n      0xa0\n      add\n      0x40\n      mstore\n      dup1\n      and(0xffffffffffffffffffffffffffffffffffffffff, 0x00)\n      dup2\n      mstore\n      0x20\n      add\n      0x60\n      dup2\n      mstore\n      0x20\n      add\n      0x00\n      0x01\n      dup2\n      gt\n      iszero\n      tag_373\n      jumpi\n      tag_374\n      tag_156\n      jump\t// in\n    tag_374:\n    tag_373:\n      dup2\n      mstore\n      0x20\n      add\n      0x00\n      dup2\n      mstore\n      0x20\n      add\n      0x00\n      dup2\n      mstore\n      pop\n      swap1\n      jump\t// out\n    tag_227:\n      mload(0x40)\n      dup1\n      0xa0\n      add\n      0x40\n      mstore\n      dup1\n      0x60\n      dup2\n      mstore\n      0x20\n      add\n      and(0xffffffffffffffffffffffffffffffffffffffff, 0x00)\n      dup2\n      mstore\n      0x20\n      add\n      0x60\n      dup2\n      mstore\n      0x20\n      add\n      0x00\n      dup2\n      mstore\n      0x20\n      add\n      0x00\n      dup2\n      mstore\n      pop\n      swap1\n      jump\t// out\n    tag_247:\n      mload(0x40)\n      dup1\n      0xe0\n      add\n      0x40\n      mstore\n      dup1\n      0x60\n      dup2\n      mstore\n      0x20\n      add\n      0x60\n      dup2\n      mstore\n      0x20\n      add\n      and(0xffffffffffffffffffffffffffffffffffffffff, 0x00)\n      dup2\n      mstore\n      0x20\n      add\n      0x00\n      dup2\n      mstore\n      0x20\n      add\n      0x00\n      dup2\n      mstore\n      0x20\n      add\n      0x00\n      0x01\n      dup2\n      gt\n      iszero\n      tag_375\n      jumpi\n      tag_376\n      tag_156\n      jump\t// in\n    tag_376:\n    tag_375:\n      dup2\n      mstore\n      0x20\n      add\n      0x00\n      dup2\n      mstore\n      pop\n      swap1\n      jump\t// out\n        /* \"#utility.yul\":7:82   */\n    tag_377:\n        /* \"#utility.yul\":40:46   */\n      0x00\n        /* \"#utility.yul\":73:75   */\n      0x40\n        /* \"#utility.yul\":67:76   */\n      mload\n        /* \"#utility.yul\":57:76   */\n      swap1\n      pop\n        /* \"#utility.yul\":7:82   */\n      swap1\n      jump\t// out\n        /* \"#utility.yul\":88:205   */\n    tag_378:\n        /* \"#utility.yul\":197:198   */\n      0x00\n        /* \"#utility.yul\":194:195   */\n      0x00\n        /* \"#utility.yul\":187:199   */\n      revert\n        /* \"#utility.yul\":211:328   */\n    tag_379:\n        /* \"#utility.yul\":320:321   */\n      0x00\n        /* \"#utility.yul\":317:318   */\n      0x00\n        /* \"#utility.yul\":310:322   */\n      revert\n        /* \"#utility.yul\":334:411   */\n    tag_380:\n        /* \"#utility.yul\":371:378   */\n      0x00\n        /* \"#utility.yul\":400:405   */\n      dup2\n        /* \"#utility.yul\":389:405   */\n      swap1\n      pop\n        /* \"#utility.yul\":334:411   */\n      swap2\n      swap1\n      pop\n      jump\t// out\n        /* \"#utility.yul\":417:539   */\n    tag_381:\n        /* \"#utility.yul\":490:514   */\n      tag_469\n        /* \"#utility.yul\":508:513   */\n      dup2\n        /* \"#utility.yul\":490:514   */\n      tag_380\n      jump\t// in\n    tag_469:\n        /* \"#utility.yul\":483:488   */\n      dup2\n        /* \"#utility.yul\":480:515   */\n      eq\n        /* \"#utility.yul\":470:533   */\n      tag_470\n      jumpi\n        /* \"#utility.yul\":529:530   */\n      0x00\n        /* \"#utility.yul\":526:527   */\n      0x00\n        /* \"#utility.yul\":519:531   */\n      revert\n        /* \"#utility.yul\":470:533   */\n    tag_470:\n        /* \"#utility.yul\":417:539   */\n      pop\n      jump\t// out\n        /* \"#utility.yul\":545:684   */\n    tag_382:\n        /* \"#utility.yul\":591:596   */\n      0x00\n        /* \"#utility.yul\":629:635   */\n      dup2\n        /* \"#utility.yul\":616:636   */\n      calldataload\n        /* \"#utility.yul\":607:636   */\n      swap1\n      pop\n        /* \"#utility.yul\":645:678   */\n      tag_472\n        /* \"#utility.yul\":672:677   */\n      dup2\n        /* \"#utility.yul\":645:678   */\n      tag_381\n      jump\t// in\n    tag_472:\n        /* \"#utility.yul\":545:684   */\n      swap3\n      swap2\n      pop\n      pop\n      jump\t// out\n        /* \"#utility.yul\":690:1019   */\n    tag_29:\n        /* \"#utility.yul\":749:755   */\n      0x00\n        /* \"#utility.yul\":798:800   */\n      0x20\n        /* \"#utility.yul\":786:795   */\n      dup3\n        /* \"#utility.yul\":777:784   */\n      dup5\n        /* \"#utility.yul\":773:796   */\n      sub\n        /* \"#utility.yul\":769:801   */\n      slt\n        /* \"#utility.yul\":766:885   */\n      iszero\n      tag_474\n      jumpi\n        /* \"#utility.yul\":804:883   */\n      tag_475\n      tag_378\n      jump\t// in\n    tag_475:\n        /* \"#utility.yul\":766:885   */\n    tag_474:\n        /* \"#utility.yul\":924:925   */\n      0x00\n        /* \"#utility.yul\":949:1002   */\n      tag_476\n        /* \"#utility.yul\":994:1001   */\n      dup5\n        /* \"#utility.yul\":985:991   */\n      dup3\n        /* \"#utility.yul\":974:983   */\n      dup6\n        /* \"#utility.yul\":970:992   */\n      add\n        /* \"#utility.yul\":949:1002   */\n      tag_382\n      jump\t// in\n    tag_476:\n        /* \"#utility.yul\":939:1002   */\n      swap2\n      pop\n        /* \"#utility.yul\":895:1012   */\n      pop\n        /* \"#utility.yul\":690:1019   */\n      swap3\n      swap2\n      pop\n      pop\n      jump\t// out\n        /* \"#utility.yul\":1025:1124   */\n    tag_383:\n        /* \"#utility.yul\":1077:1083   */\n      0x00\n        /* \"#utility.yul\":1111:1116   */\n      dup2\n        /* \"#utility.yul\":1105:1117   */\n      mload\n        /* \"#utility.yul\":1095:1117   */\n      swap1\n      pop\n        /* \"#utility.yul\":1025:1124   */\n      swap2\n      swap1\n      pop\n      jump\t// out\n        /* \"#utility.yul\":1130:1299   */\n    tag_384:\n        /* \"#utility.yul\":1214:1225   */\n      0x00\n        /* \"#utility.yul\":1248:1254   */\n      dup3\n        /* \"#utility.yul\":1243:1246   */\n      dup3\n        /* \"#utility.yul\":1236:1255   */\n      mstore\n        /* \"#utility.yul\":1288:1292   */\n      0x20\n        /* \"#utility.yul\":1283:1286   */\n      dup3\n        /* \"#utility.yul\":1279:1293   */\n      add\n        /* \"#utility.yul\":1264:1293   */\n      swap1\n      pop\n        /* \"#utility.yul\":1130:1299   */\n      swap3\n      swap2\n      pop\n      pop\n      jump\t// out\n        /* \"#utility.yul\":1305:1444   */\n    tag_385:\n        /* \"#utility.yul\":1394:1400   */\n      dup3\n        /* \"#utility.yul\":1389:1392   */\n      dup2\n        /* \"#utility.yul\":1384:1387   */\n      dup4\n        /* \"#utility.yul\":1378:1401   */\n      mcopy\n        /* \"#utility.yul\":1435:1436   */\n      0x00\n        /* \"#utility.yul\":1426:1432   */\n      dup4\n        /* \"#utility.yul\":1421:1424   */\n      dup4\n        /* \"#utility.yul\":1417:1433   */\n      add\n        /* \"#utility.yul\":1410:1437   */\n      mstore\n        /* \"#utility.yul\":1305:1444   */\n      pop\n      pop\n      pop\n      jump\t// out\n        /* \"#utility.yul\":1450:1552   */\n    tag_386:\n        /* \"#utility.yul\":1491:1497   */\n      0x00\n        /* \"#utility.yul\":1542:1544   */\n      0x1f\n        /* \"#utility.yul\":1538:1545   */\n      not\n        /* \"#utility.yul\":1533:1535   */\n      0x1f\n        /* \"#utility.yul\":1526:1531   */\n      dup4\n        /* \"#utility.yul\":1522:1536   */\n      add\n        /* \"#utility.yul\":1518:1546   */\n      and\n        /* \"#utility.yul\":1508:1546   */\n      swap1\n      pop\n        /* \"#utility.yul\":1450:1552   */\n      swap2\n      swap1\n      pop\n      jump\t// out\n        /* \"#utility.yul\":1558:1935   */\n    tag_387:\n        /* \"#utility.yul\":1646:1649   */\n      0x00\n        /* \"#utility.yul\":1674:1713   */\n      tag_482\n        /* \"#utility.yul\":1707:1712   */\n      dup3\n        /* \"#utility.yul\":1674:1713   */\n      tag_383\n      jump\t// in\n    tag_482:\n        /* \"#utility.yul\":1729:1800   */\n      tag_483\n        /* \"#utility.yul\":1793:1799   */\n      dup2\n        /* \"#utility.yul\":1788:1791   */\n      dup6\n        /* \"#utility.yul\":1729:1800   */\n      tag_384\n      jump\t// in\n    tag_483:\n        /* \"#utility.yul\":1722:1800   */\n      swap4\n      pop\n        /* \"#utility.yul\":1809:1874   */\n      tag_484\n        /* \"#utility.yul\":1867:1873   */\n      dup2\n        /* \"#utility.yul\":1862:1865   */\n      dup6\n        /* \"#utility.yul\":1855:1859   */\n      0x20\n        /* \"#utility.yul\":1848:1853   */\n      dup7\n        /* \"#utility.yul\":1844:1860   */\n      add\n        /* \"#utility.yul\":1809:1874   */\n      tag_385\n      jump\t// in\n    tag_484:\n        /* \"#utility.yul\":1899:1928   */\n      tag_485\n        /* \"#utility.yul\":1921:1927   */\n      dup2\n        /* \"#utility.yul\":1899:1928   */\n      tag_386\n      jump\t// in\n    tag_485:\n        /* \"#utility.yul\":1894:1897   */\n      dup5\n        /* \"#utility.yul\":1890:1929   */\n      add\n        /* \"#utility.yul\":1883:1929   */\n      swap2\n      pop\n        /* \"#utility.yul\":1650:1935   */\n      pop\n        /* \"#utility.yul\":1558:1935   */\n      swap3\n      swap2\n      pop\n      pop\n      jump\t// out\n        /* \"#utility.yul\":1941:2254   */\n    tag_32:\n        /* \"#utility.yul\":2054:2058   */\n      0x00\n        /* \"#utility.yul\":2092:2094   */\n      0x20\n        /* \"#utility.yul\":2081:2090   */\n      dup3\n        /* \"#utility.yul\":2077:2095   */\n      add\n        /* \"#utility.yul\":2069:2095   */\n      swap1\n      pop\n        /* \"#utility.yul\":2141:2150   */\n      dup2\n        /* \"#utility.yul\":2135:2139   */\n      dup2\n        /* \"#utility.yul\":2131:2151   */\n      sub\n        /* \"#utility.yul\":2127:2128   */\n      0x00\n        /* \"#utility.yul\":2116:2125   */\n      dup4\n        /* \"#utility.yul\":2112:2129   */\n      add\n        /* \"#utility.yul\":2105:2152   */\n      mstore\n        /* \"#utility.yul\":2169:2247   */\n      tag_487\n        /* \"#utility.yul\":2242:2246   */\n      dup2\n        /* \"#utility.yul\":2233:2239   */\n      dup5\n        /* \"#utility.yul\":2169:2247   */\n      tag_387\n      jump\t// in\n    tag_487:\n        /* \"#utility.yul\":2161:2247   */\n      swap1\n      pop\n        /* \"#utility.yul\":1941:2254   */\n      swap3\n      swap2\n      pop\n      pop\n      jump\t// out\n        /* \"#utility.yul\":2260:2378   */\n    tag_388:\n        /* \"#utility.yul\":2347:2371   */\n      tag_489\n        /* \"#utility.yul\":2365:2370   */\n      dup2\n        /* \"#utility.yul\":2347:2371   */\n      tag_380\n      jump\t// in\n    tag_489:\n        /* \"#utility.yul\":2342:2345   */\n      dup3\n        /* \"#utility.yul\":2335:2372   */\n      mstore\n        /* \"#utility.yul\":2260:2378   */\n      pop\n      pop\n      jump\t// out\n        /* \"#utility.yul\":2384:2606   */\n    tag_37:\n        /* \"#utility.yul\":2477:2481   */\n      0x00\n        /* \"#utility.yul\":2515:2517   */\n      0x20\n        /* \"#utility.yul\":2504:2513   */\n      dup3\n        /* \"#utility.yul\":2500:2518   */\n      add\n        /* \"#utility.yul\":2492:2518   */\n      swap1\n      pop\n        /* \"#utility.yul\":2528:2599   */\n      tag_491\n        /* \"#utility.yul\":2596:2597   */\n      0x00\n        /* \"#utility.yul\":2585:2594   */\n      dup4\n        /* \"#utility.yul\":2581:2598   */\n      add\n        /* \"#utility.yul\":2572:2578   */\n      dup5\n        /* \"#utility.yul\":2528:2599   */\n      tag_388\n      jump\t// in\n    tag_491:\n        /* \"#utility.yul\":2384:2606   */\n      swap3\n      swap2\n      pop\n      pop\n      jump\t// out\n        /* \"#utility.yul\":2612:2729   */\n    tag_389:\n        /* \"#utility.yul\":2721:2722   */\n      0x00\n        /* \"#utility.yul\":2718:2719   */\n      0x00\n        /* \"#utility.yul\":2711:2723   */\n      revert\n        /* \"#utility.yul\":2735:2852   */\n    tag_390:\n        /* \"#utility.yul\":2844:2845   */\n      0x00\n        /* \"#utility.yul\":2841:2842   */\n      0x00\n        /* \"#utility.yul\":2834:2846   */\n      revert\n        /* \"#utility.yul\":2858:3038   */\n    tag_360:\n        /* \"#utility.yul\":2906:2983   */\n      0x4e487b7100000000000000000000000000000000000000000000000000000000\n        /* \"#utility.yul\":2903:2904   */\n      0x00\n        /* \"#utility.yul\":2896:2984   */\n      mstore\n        /* \"#utility.yul\":3003:3007   */\n      0x41\n        /* \"#utility.yul\":3000:3001   */\n      0x04\n        /* \"#utility.yul\":2993:3008   */\n      mstore\n        /* \"#utility.yul\":3027:3031   */\n      0x24\n        /* \"#utility.yul\":3024:3025   */\n      0x00\n        /* \"#utility.yul\":3017:3032   */\n      revert\n        /* \"#utility.yul\":3044:3325   */\n    tag_391:\n        /* \"#utility.yul\":3127:3154   */\n      tag_496\n        /* \"#utility.yul\":3149:3153   */\n      dup3\n        /* \"#utility.yul\":3127:3154   */\n      tag_386\n      jump\t// in\n    tag_496:\n        /* \"#utility.yul\":3119:3125   */\n      dup2\n        /* \"#utility.yul\":3115:3155   */\n      add\n        /* \"#utility.yul\":3257:3263   */\n      dup2\n        /* \"#utility.yul\":3245:3255   */\n      dup2\n        /* \"#utility.yul\":3242:3264   */\n      lt\n        /* \"#utility.yul\":3221:3239   */\n      0xffffffffffffffff\n        /* \"#utility.yul\":3209:3219   */\n      dup3\n        /* \"#utility.yul\":3206:3240   */\n      gt\n        /* \"#utility.yul\":3203:3265   */\n      or\n        /* \"#utility.yul\":3200:3288   */\n      iszero\n      tag_497\n      jumpi\n        /* \"#utility.yul\":3268:3286   */\n      tag_498\n      tag_360\n      jump\t// in\n    tag_498:\n        /* \"#utility.yul\":3200:3288   */\n    tag_497:\n        /* \"#utility.yul\":3308:3318   */\n      dup1\n        /* \"#utility.yul\":3304:3306   */\n      0x40\n        /* \"#utility.yul\":3297:3319   */\n      mstore\n        /* \"#utility.yul\":3087:3325   */\n      pop\n        /* \"#utility.yul\":3044:3325   */\n      pop\n      pop\n      jump\t// out\n        /* \"#utility.yul\":3331:3460   */\n    tag_392:\n        /* \"#utility.yul\":3365:3371   */\n      0x00\n        /* \"#utility.yul\":3392:3412   */\n      tag_500\n      tag_377\n      jump\t// in\n    tag_500:\n        /* \"#utility.yul\":3382:3412   */\n      swap1\n      pop\n        /* \"#utility.yul\":3421:3454   */\n      tag_501\n        /* \"#utility.yul\":3449:3453   */\n      dup3\n        /* \"#utility.yul\":3441:3447   */\n      dup3\n        /* \"#utility.yul\":3421:3454   */\n      tag_391\n      jump\t// in\n    tag_501:\n        /* \"#utility.yul\":3331:3460   */\n      swap2\n      swap1\n      pop\n      jump\t// out\n        /* \"#utility.yul\":3466:3774   */\n    tag_393:\n        /* \"#utility.yul\":3528:3532   */\n      0x00\n        /* \"#utility.yul\":3618:3636   */\n      0xffffffffffffffff\n        /* \"#utility.yul\":3610:3616   */\n      dup3\n        /* \"#utility.yul\":3607:3637   */\n      gt\n        /* \"#utility.yul\":3604:3660   */\n      iszero\n      tag_503\n      jumpi\n        /* \"#utility.yul\":3640:3658   */\n      tag_504\n      tag_360\n      jump\t// in\n    tag_504:\n        /* \"#utility.yul\":3604:3660   */\n    tag_503:\n        /* \"#utility.yul\":3678:3707   */\n      tag_505\n        /* \"#utility.yul\":3700:3706   */\n      dup3\n        /* \"#utility.yul\":3678:3707   */\n      tag_386\n      jump\t// in\n    tag_505:\n        /* \"#utility.yul\":3670:3707   */\n      swap1\n      pop\n        /* \"#utility.yul\":3762:3766   */\n      0x20\n        /* \"#utility.yul\":3756:3760   */\n      dup2\n        /* \"#utility.yul\":3752:3767   */\n      add\n        /* \"#utility.yul\":3744:3767   */\n      swap1\n      pop\n        /* \"#utility.yul\":3466:3774   */\n      swap2\n      swap1\n      pop\n      jump\t// out\n        /* \"#utility.yul\":3780:3928   */\n    tag_394:\n        /* \"#utility.yul\":3878:3884   */\n      dup3\n        /* \"#utility.yul\":3873:3876   */\n      dup2\n        /* \"#utility.yul\":3868:3871   */\n      dup4\n        /* \"#utility.yul\":3855:3885   */\n      calldatacopy\n        /* \"#utility.yul\":3919:3920   */\n      0x00\n        /* \"#utility.yul\":3910:3916   */\n      dup4\n        /* \"#utility.yul\":3905:3908   */\n      dup4\n        /* \"#utility.yul\":3901:3917   */\n      add\n        /* \"#utility.yul\":3894:3921   */\n      mstore\n        /* \"#utility.yul\":3780:3928   */\n      pop\n      pop\n      pop\n      jump\t// out\n        /* \"#utility.yul\":3934:4359   */\n    tag_395:\n        /* \"#utility.yul\":4012:4017   */\n      0x00\n        /* \"#utility.yul\":4037:4103   */\n      tag_508\n        /* \"#utility.yul\":4053:4102   */\n      tag_509\n        /* \"#utility.yul\":4095:4101   */\n      dup5\n        /* \"#utility.yul\":4053:4102   */\n      tag_393\n      jump\t// in\n    tag_509:\n        /* \"#utility.yul\":4037:4103   */\n      tag_392\n      jump\t// in\n    tag_508:\n        /* \"#utility.yul\":4028:4103   */\n      swap1\n      pop\n        /* \"#utility.yul\":4126:4132   */\n      dup3\n        /* \"#utility.yul\":4119:4124   */\n      dup2\n        /* \"#utility.yul\":4112:4133   */\n      mstore\n        /* \"#utility.yul\":4164:4168   */\n      0x20\n        /* \"#utility.yul\":4157:4162   */\n      dup2\n        /* \"#utility.yul\":4153:4169   */\n      add\n        /* \"#utility.yul\":4202:4205   */\n      dup5\n        /* \"#utility.yul\":4193:4199   */\n      dup5\n        /* \"#utility.yul\":4188:4191   */\n      dup5\n        /* \"#utility.yul\":4184:4200   */\n      add\n        /* \"#utility.yul\":4181:4206   */\n      gt\n        /* \"#utility.yul\":4178:4290   */\n      iszero\n      tag_510\n      jumpi\n        /* \"#utility.yul\":4209:4288   */\n      tag_511\n      tag_390\n      jump\t// in\n    tag_511:\n        /* \"#utility.yul\":4178:4290   */\n    tag_510:\n        /* \"#utility.yul\":4299:4353   */\n      tag_512\n        /* \"#utility.yul\":4346:4352   */\n      dup5\n        /* \"#utility.yul\":4341:4344   */\n      dup3\n        /* \"#utility.yul\":4336:4339   */\n      dup6\n        /* \"#utility.yul\":4299:4353   */\n      tag_394\n      jump\t// in\n    tag_512:\n        /* \"#utility.yul\":4018:4359   */\n      pop\n        /* \"#utility.yul\":3934:4359   */\n      swap4\n      swap3\n      pop\n      pop\n      pop\n      jump\t// out\n        /* \"#utility.yul\":4379:4719   */\n    tag_396:\n        /* \"#utility.yul\":4435:4440   */\n      0x00\n        /* \"#utility.yul\":4484:4487   */\n      dup3\n        /* \"#utility.yul\":4477:4481   */\n      0x1f\n        /* \"#utility.yul\":4469:4475   */\n      dup4\n        /* \"#utility.yul\":4465:4482   */\n      add\n        /* \"#utility.yul\":4461:4488   */\n      slt\n        /* \"#utility.yul\":4451:4573   */\n      tag_514\n      jumpi\n        /* \"#utility.yul\":4492:4571   */\n      tag_515\n      tag_389\n      jump\t// in\n    tag_515:\n        /* \"#utility.yul\":4451:4573   */\n    tag_514:\n        /* \"#utility.yul\":4609:4615   */\n      dup2\n        /* \"#utility.yul\":4596:4616   */\n      calldataload\n        /* \"#utility.yul\":4634:4713   */\n      tag_516\n        /* \"#utility.yul\":4709:4712   */\n      dup5\n        /* \"#utility.yul\":4701:4707   */\n      dup3\n        /* \"#utility.yul\":4694:4698   */\n      0x20\n        /* \"#utility.yul\":4686:4692   */\n      dup7\n        /* \"#utility.yul\":4682:4699   */\n      add\n        /* \"#utility.yul\":4634:4713   */\n      tag_395\n      jump\t// in\n    tag_516:\n        /* \"#utility.yul\":4625:4713   */\n      swap2\n      pop\n        /* \"#utility.yul\":4441:4719   */\n      pop\n        /* \"#utility.yul\":4379:4719   */\n      swap3\n      swap2\n      pop\n      pop\n      jump\t// out\n        /* \"#utility.yul\":4725:4840   */\n    tag_397:\n        /* \"#utility.yul\":4814:4815   */\n      0x02\n        /* \"#utility.yul\":4807:4812   */\n      dup2\n        /* \"#utility.yul\":4804:4816   */\n      lt\n        /* \"#utility.yul\":4794:4834   */\n      tag_518\n      jumpi\n        /* \"#utility.yul\":4830:4831   */\n      0x00\n        /* \"#utility.yul\":4827:4828   */\n      0x00\n        /* \"#utility.yul\":4820:4832   */\n      revert\n        /* \"#utility.yul\":4794:4834   */\n    tag_518:\n        /* \"#utility.yul\":4725:4840   */\n      pop\n      jump\t// out\n        /* \"#utility.yul\":4846:5017   */\n    tag_398:\n        /* \"#utility.yul\":4908:4913   */\n      0x00\n        /* \"#utility.yul\":4946:4952   */\n      dup2\n        /* \"#utility.yul\":4933:4953   */\n      calldataload\n        /* \"#utility.yul\":4924:4953   */\n      swap1\n      pop\n        /* \"#utility.yul\":4962:5011   */\n      tag_520\n        /* \"#utility.yul\":5005:5010   */\n      dup2\n        /* \"#utility.yul\":4962:5011   */\n      tag_397\n      jump\t// in\n    tag_520:\n        /* \"#utility.yul\":4846:5017   */\n      swap3\n      swap2\n      pop\n      pop\n      jump\t// out\n        /* \"#utility.yul\":5023:5709   */\n    tag_41:\n        /* \"#utility.yul\":5117:5123   */\n      0x00\n        /* \"#utility.yul\":5125:5131   */\n      0x00\n        /* \"#utility.yul\":5174:5176   */\n      0x40\n        /* \"#utility.yul\":5162:5171   */\n      dup4\n        /* \"#utility.yul\":5153:5160   */\n      dup6\n        /* \"#utility.yul\":5149:5172   */\n      sub\n        /* \"#utility.yul\":5145:5177   */\n      slt\n        /* \"#utility.yul\":5142:5261   */\n      iszero\n      tag_522\n      jumpi\n        /* \"#utility.yul\":5180:5259   */\n      tag_523\n      tag_378\n      jump\t// in\n    tag_523:\n        /* \"#utility.yul\":5142:5261   */\n    tag_522:\n        /* \"#utility.yul\":5328:5329   */\n      0x00\n        /* \"#utility.yul\":5317:5326   */\n      dup4\n        /* \"#utility.yul\":5313:5330   */\n      add\n        /* \"#utility.yul\":5300:5331   */\n      calldataload\n        /* \"#utility.yul\":5358:5376   */\n      0xffffffffffffffff\n        /* \"#utility.yul\":5350:5356   */\n      dup2\n        /* \"#utility.yul\":5347:5377   */\n      gt\n        /* \"#utility.yul\":5344:5461   */\n      iszero\n      tag_524\n      jumpi\n        /* \"#utility.yul\":5380:5459   */\n      tag_525\n      tag_379\n      jump\t// in\n    tag_525:\n        /* \"#utility.yul\":5344:5461   */\n    tag_524:\n        /* \"#utility.yul\":5485:5548   */\n      tag_526\n        /* \"#utility.yul\":5540:5547   */\n      dup6\n        /* \"#utility.yul\":5531:5537   */\n      dup3\n        /* \"#utility.yul\":5520:5529   */\n      dup7\n        /* \"#utility.yul\":5516:5538   */\n      add\n        /* \"#utility.yul\":5485:5548   */\n      tag_396\n      jump\t// in\n    tag_526:\n        /* \"#utility.yul\":5475:5548   */\n      swap3\n      pop\n        /* \"#utility.yul\":5271:5558   */\n      pop\n        /* \"#utility.yul\":5597:5599   */\n      0x20\n        /* \"#utility.yul\":5623:5692   */\n      tag_527\n        /* \"#utility.yul\":5684:5691   */\n      dup6\n        /* \"#utility.yul\":5675:5681   */\n      dup3\n        /* \"#utility.yul\":5664:5673   */\n      dup7\n        /* \"#utility.yul\":5660:5682   */\n      add\n        /* \"#utility.yul\":5623:5692   */\n      tag_398\n      jump\t// in\n    tag_527:\n        /* \"#utility.yul\":5613:5692   */\n      swap2\n      pop\n        /* \"#utility.yul\":5568:5702   */\n      pop\n        /* \"#utility.yul\":5023:5709   */\n      swap3\n      pop\n      swap3\n      swap1\n      pop\n      jump\t// out\n        /* \"#utility.yul\":5715:5841   */\n    tag_399:\n        /* \"#utility.yul\":5752:5759   */\n      0x00\n        /* \"#utility.yul\":5792:5834   */\n      0xffffffffffffffffffffffffffffffffffffffff\n        /* \"#utility.yul\":5785:5790   */\n      dup3\n        /* \"#utility.yul\":5781:5835   */\n      and\n        /* \"#utility.yul\":5770:5835   */\n      swap1\n      pop\n        /* \"#utility.yul\":5715:5841   */\n      swap2\n      swap1\n      pop\n      jump\t// out\n        /* \"#utility.yul\":5847:5943   */\n    tag_400:\n        /* \"#utility.yul\":5884:5891   */\n      0x00\n        /* \"#utility.yul\":5913:5937   */\n      tag_530\n        /* \"#utility.yul\":5931:5936   */\n      dup3\n        /* \"#utility.yul\":5913:5937   */\n      tag_399\n      jump\t// in\n    tag_530:\n        /* \"#utility.yul\":5902:5937   */\n      swap1\n      pop\n        /* \"#utility.yul\":5847:5943   */\n      swap2\n      swap1\n      pop\n      jump\t// out\n        /* \"#utility.yul\":5949:6067   */\n    tag_401:\n        /* \"#utility.yul\":6036:6060   */\n      tag_532\n        /* \"#utility.yul\":6054:6059   */\n      dup2\n        /* \"#utility.yul\":6036:6060   */\n      tag_400\n      jump\t// in\n    tag_532:\n        /* \"#utility.yul\":6031:6034   */\n      dup3\n        /* \"#utility.yul\":6024:6061   */\n      mstore\n        /* \"#utility.yul\":5949:6067   */\n      pop\n      pop\n      jump\t// out\n        /* \"#utility.yul\":6073:6295   */\n    tag_52:\n        /* \"#utility.yul\":6166:6170   */\n      0x00\n        /* \"#utility.yul\":6204:6206   */\n      0x20\n        /* \"#utility.yul\":6193:6202   */\n      dup3\n        /* \"#utility.yul\":6189:6207   */\n      add\n        /* \"#utility.yul\":6181:6207   */\n      swap1\n      pop\n        /* \"#utility.yul\":6217:6288   */\n      tag_534\n        /* \"#utility.yul\":6285:6286   */\n      0x00\n        /* \"#utility.yul\":6274:6283   */\n      dup4\n        /* \"#utility.yul\":6270:6287   */\n      add\n        /* \"#utility.yul\":6261:6267   */\n      dup5\n        /* \"#utility.yul\":6217:6288   */\n      tag_401\n      jump\t// in\n    tag_534:\n        /* \"#utility.yul\":6073:6295   */\n      swap3\n      swap2\n      pop\n      pop\n      jump\t// out\n        /* \"#utility.yul\":6301:6810   */\n    tag_55:\n        /* \"#utility.yul\":6370:6376   */\n      0x00\n        /* \"#utility.yul\":6419:6421   */\n      0x20\n        /* \"#utility.yul\":6407:6416   */\n      dup3\n        /* \"#utility.yul\":6398:6405   */\n      dup5\n        /* \"#utility.yul\":6394:6417   */\n      sub\n        /* \"#utility.yul\":6390:6422   */\n      slt\n        /* \"#utility.yul\":6387:6506   */\n      iszero\n      tag_536\n      jumpi\n        /* \"#utility.yul\":6425:6504   */\n      tag_537\n      tag_378\n      jump\t// in\n    tag_537:\n        /* \"#utility.yul\":6387:6506   */\n    tag_536:\n        /* \"#utility.yul\":6573:6574   */\n      0x00\n        /* \"#utility.yul\":6562:6571   */\n      dup3\n        /* \"#utility.yul\":6558:6575   */\n      add\n        /* \"#utility.yul\":6545:6576   */\n      calldataload\n        /* \"#utility.yul\":6603:6621   */\n      0xffffffffffffffff\n        /* \"#utility.yul\":6595:6601   */\n      dup2\n        /* \"#utility.yul\":6592:6622   */\n      gt\n        /* \"#utility.yul\":6589:6706   */\n      iszero\n      tag_538\n      jumpi\n        /* \"#utility.yul\":6625:6704   */\n      tag_539\n      tag_379\n      jump\t// in\n    tag_539:\n        /* \"#utility.yul\":6589:6706   */\n    tag_538:\n        /* \"#utility.yul\":6730:6793   */\n      tag_540\n        /* \"#utility.yul\":6785:6792   */\n      dup5\n        /* \"#utility.yul\":6776:6782   */\n      dup3\n        /* \"#utility.yul\":6765:6774   */\n      dup6\n        /* \"#utility.yul\":6761:6783   */\n      add\n        /* \"#utility.yul\":6730:6793   */\n      tag_396\n      jump\t// in\n    tag_540:\n        /* \"#utility.yul\":6720:6793   */\n      swap2\n      pop\n        /* \"#utility.yul\":6516:6803   */\n      pop\n        /* \"#utility.yul\":6301:6810   */\n      swap3\n      swap2\n      pop\n      pop\n      jump\t// out\n        /* \"#utility.yul\":6816:6938   */\n    tag_402:\n        /* \"#utility.yul\":6889:6913   */\n      tag_542\n        /* \"#utility.yul\":6907:6912   */\n      dup2\n        /* \"#utility.yul\":6889:6913   */\n      tag_400\n      jump\t// in\n    tag_542:\n        /* \"#utility.yul\":6882:6887   */\n      dup2\n        /* \"#utility.yul\":6879:6914   */\n      eq\n        /* \"#utility.yul\":6869:6932   */\n      tag_543\n      jumpi\n        /* \"#utility.yul\":6928:6929   */\n      0x00\n        /* \"#utility.yul\":6925:6926   */\n      0x00\n        /* \"#utility.yul\":6918:6930   */\n      revert\n        /* \"#utility.yul\":6869:6932   */\n    tag_543:\n        /* \"#utility.yul\":6816:6938   */\n      pop\n      jump\t// out\n        /* \"#utility.yul\":6944:7083   */\n    tag_403:\n        /* \"#utility.yul\":6990:6995   */\n      0x00\n        /* \"#utility.yul\":7028:7034   */\n      dup2\n        /* \"#utility.yul\":7015:7035   */\n      calldataload\n        /* \"#utility.yul\":7006:7035   */\n      swap1\n      pop\n        /* \"#utility.yul\":7044:7077   */\n      tag_545\n        /* \"#utility.yul\":7071:7076   */\n      dup2\n        /* \"#utility.yul\":7044:7077   */\n      tag_402\n      jump\t// in\n    tag_545:\n        /* \"#utility.yul\":6944:7083   */\n      swap3\n      swap2\n      pop\n      pop\n      jump\t// out\n        /* \"#utility.yul\":7089:7418   */\n    tag_60:\n        /* \"#utility.yul\":7148:7154   */\n      0x00\n        /* \"#utility.yul\":7197:7199   */\n      0x20\n        /* \"#utility.yul\":7185:7194   */\n      dup3\n        /* \"#utility.yul\":7176:7183   */\n      dup5\n        /* \"#utility.yul\":7172:7195   */\n      sub\n        /* \"#utility.yul\":7168:7200   */\n      slt\n        /* \"#utility.yul\":7165:7284   */\n      iszero\n      tag_547\n      jumpi\n        /* \"#utility.yul\":7203:7282   */\n      tag_548\n      tag_378\n      jump\t// in\n    tag_548:\n        /* \"#utility.yul\":7165:7284   */\n    tag_547:\n        /* \"#utility.yul\":7323:7324   */\n      0x00\n        /* \"#utility.yul\":7348:7401   */\n      tag_549\n        /* \"#utility.yul\":7393:7400   */\n      dup5\n        /* \"#utility.yul\":7384:7390   */\n      dup3\n        /* \"#utility.yul\":7373:7382   */\n      dup6\n        /* \"#utility.yul\":7369:7391   */\n      add\n        /* \"#utility.yul\":7348:7401   */\n      tag_403\n      jump\t// in\n    tag_549:\n        /* \"#utility.yul\":7338:7401   */\n      swap2\n      pop\n        /* \"#utility.yul\":7294:7411   */\n      pop\n        /* \"#utility.yul\":7089:7418   */\n      swap3\n      swap2\n      pop\n      pop\n      jump\t// out\n        /* \"#utility.yul\":7424:7532   */\n    tag_404:\n        /* \"#utility.yul\":7501:7525   */\n      tag_551\n        /* \"#utility.yul\":7519:7524   */\n      dup2\n        /* \"#utility.yul\":7501:7525   */\n      tag_400\n      jump\t// in\n    tag_551:\n        /* \"#utility.yul\":7496:7499   */\n      dup3\n        /* \"#utility.yul\":7489:7526   */\n      mstore\n        /* \"#utility.yul\":7424:7532   */\n      pop\n      pop\n      jump\t// out\n        /* \"#utility.yul\":7538:7697   */\n    tag_405:\n        /* \"#utility.yul\":7612:7623   */\n      0x00\n        /* \"#utility.yul\":7646:7652   */\n      dup3\n        /* \"#utility.yul\":7641:7644   */\n      dup3\n        /* \"#utility.yul\":7634:7653   */\n      mstore\n        /* \"#utility.yul\":7686:7690   */\n      0x20\n        /* \"#utility.yul\":7681:7684   */\n      dup3\n        /* \"#utility.yul\":7677:7691   */\n      add\n        /* \"#utility.yul\":7662:7691   */\n      swap1\n      pop\n        /* \"#utility.yul\":7538:7697   */\n      swap3\n      swap2\n      pop\n      pop\n      jump\t// out\n        /* \"#utility.yul\":7703:8060   */\n    tag_406:\n        /* \"#utility.yul\":7781:7784   */\n      0x00\n        /* \"#utility.yul\":7809:7848   */\n      tag_554\n        /* \"#utility.yul\":7842:7847   */\n      dup3\n        /* \"#utility.yul\":7809:7848   */\n      tag_383\n      jump\t// in\n    tag_554:\n        /* \"#utility.yul\":7864:7925   */\n      tag_555\n        /* \"#utility.yul\":7918:7924   */\n      dup2\n        /* \"#utility.yul\":7913:7916   */\n      dup6\n        /* \"#utility.yul\":7864:7925   */\n      tag_405\n      jump\t// in\n    tag_555:\n        /* \"#utility.yul\":7857:7925   */\n      swap4\n      pop\n        /* \"#utility.yul\":7934:7999   */\n      tag_556\n        /* \"#utility.yul\":7992:7998   */\n      dup2\n        /* \"#utility.yul\":7987:7990   */\n      dup6\n        /* \"#utility.yul\":7980:7984   */\n      0x20\n        /* \"#utility.yul\":7973:7978   */\n      dup7\n        /* \"#utility.yul\":7969:7985   */\n      add\n        /* \"#utility.yul\":7934:7999   */\n      tag_385\n      jump\t// in\n    tag_556:\n        /* \"#utility.yul\":8024:8053   */\n      tag_557\n        /* \"#utility.yul\":8046:8052   */\n      dup2\n        /* \"#utility.yul\":8024:8053   */\n      tag_386\n      jump\t// in\n    tag_557:\n        /* \"#utility.yul\":8019:8022   */\n      dup5\n        /* \"#utility.yul\":8015:8054   */\n      add\n        /* \"#utility.yul\":8008:8054   */\n      swap2\n      pop\n        /* \"#utility.yul\":7785:8060   */\n      pop\n        /* \"#utility.yul\":7703:8060   */\n      swap3\n      swap2\n      pop\n      pop\n      jump\t// out\n        /* \"#utility.yul\":8066:8246   */\n    tag_156:\n        /* \"#utility.yul\":8114:8191   */\n      0x4e487b7100000000000000000000000000000000000000000000000000000000\n        /* \"#utility.yul\":8111:8112   */\n      0x00\n        /* \"#utility.yul\":8104:8192   */\n      mstore\n        /* \"#utility.yul\":8211:8215   */\n      0x21\n        /* \"#utility.yul\":8208:8209   */\n      0x04\n        /* \"#utility.yul\":8201:8216   */\n      mstore\n        /* \"#utility.yul\":8235:8239   */\n      0x24\n        /* \"#utility.yul\":8232:8233   */\n      0x00\n        /* \"#utility.yul\":8225:8240   */\n      revert\n        /* \"#utility.yul\":8252:8370   */\n    tag_407:\n        /* \"#utility.yul\":8338:8339   */\n      0x02\n        /* \"#utility.yul\":8331:8336   */\n      dup2\n        /* \"#utility.yul\":8328:8340   */\n      lt\n        /* \"#utility.yul\":8318:8364   */\n      tag_560\n      jumpi\n        /* \"#utility.yul\":8344:8362   */\n      tag_561\n      tag_156\n      jump\t// in\n    tag_561:\n        /* \"#utility.yul\":8318:8364   */\n    tag_560:\n        /* \"#utility.yul\":8252:8370   */\n      pop\n      jump\t// out\n        /* \"#utility.yul\":8376:8513   */\n    tag_408:\n        /* \"#utility.yul\":8426:8433   */\n      0x00\n        /* \"#utility.yul\":8455:8460   */\n      dup2\n        /* \"#utility.yul\":8444:8460   */\n      swap1\n      pop\n        /* \"#utility.yul\":8461:8507   */\n      tag_563\n        /* \"#utility.yul\":8501:8506   */\n      dup3\n        /* \"#utility.yul\":8461:8507   */\n      tag_407\n      jump\t// in\n    tag_563:\n        /* \"#utility.yul\":8376:8513   */\n      swap2\n      swap1\n      pop\n      jump\t// out\n        /* \"#utility.yul\":8519:8656   */\n    tag_409:\n        /* \"#utility.yul\":8580:8589   */\n      0x00\n        /* \"#utility.yul\":8613:8650   */\n      tag_565\n        /* \"#utility.yul\":8644:8649   */\n      dup3\n        /* \"#utility.yul\":8613:8650   */\n      tag_408\n      jump\t// in\n    tag_565:\n        /* \"#utility.yul\":8600:8650   */\n      swap1\n      pop\n        /* \"#utility.yul\":8519:8656   */\n      swap2\n      swap1\n      pop\n      jump\t// out\n        /* \"#utility.yul\":8662:8805   */\n    tag_410:\n        /* \"#utility.yul\":8750:8798   */\n      tag_567\n        /* \"#utility.yul\":8792:8797   */\n      dup2\n        /* \"#utility.yul\":8750:8798   */\n      tag_409\n      jump\t// in\n    tag_567:\n        /* \"#utility.yul\":8745:8748   */\n      dup3\n        /* \"#utility.yul\":8738:8799   */\n      mstore\n        /* \"#utility.yul\":8662:8805   */\n      pop\n      pop\n      jump\t// out\n        /* \"#utility.yul\":8811:8919   */\n    tag_411:\n        /* \"#utility.yul\":8888:8912   */\n      tag_569\n        /* \"#utility.yul\":8906:8911   */\n      dup2\n        /* \"#utility.yul\":8888:8912   */\n      tag_380\n      jump\t// in\n    tag_569:\n        /* \"#utility.yul\":8883:8886   */\n      dup3\n        /* \"#utility.yul\":8876:8913   */\n      mstore\n        /* \"#utility.yul\":8811:8919   */\n      pop\n      pop\n      jump\t// out\n        /* \"#utility.yul\":8993:10161   */\n    tag_412:\n        /* \"#utility.yul\":9108:9111   */\n      0x00\n        /* \"#utility.yul\":9144:9148   */\n      0xa0\n        /* \"#utility.yul\":9139:9142   */\n      dup4\n        /* \"#utility.yul\":9135:9149   */\n      add\n        /* \"#utility.yul\":9236:9240   */\n      0x00\n        /* \"#utility.yul\":9229:9234   */\n      dup4\n        /* \"#utility.yul\":9225:9241   */\n      add\n        /* \"#utility.yul\":9219:9242   */\n      mload\n        /* \"#utility.yul\":9255:9318   */\n      tag_571\n        /* \"#utility.yul\":9312:9316   */\n      0x00\n        /* \"#utility.yul\":9307:9310   */\n      dup7\n        /* \"#utility.yul\":9303:9317   */\n      add\n        /* \"#utility.yul\":9289:9301   */\n      dup3\n        /* \"#utility.yul\":9255:9318   */\n      tag_404\n      jump\t// in\n    tag_571:\n        /* \"#utility.yul\":9159:9328   */\n      pop\n        /* \"#utility.yul\":9412:9416   */\n      0x20\n        /* \"#utility.yul\":9405:9410   */\n      dup4\n        /* \"#utility.yul\":9401:9417   */\n      add\n        /* \"#utility.yul\":9395:9418   */\n      mload\n        /* \"#utility.yul\":9465:9468   */\n      dup5\n        /* \"#utility.yul\":9459:9463   */\n      dup3\n        /* \"#utility.yul\":9455:9469   */\n      sub\n        /* \"#utility.yul\":9448:9452   */\n      0x20\n        /* \"#utility.yul\":9443:9446   */\n      dup7\n        /* \"#utility.yul\":9439:9453   */\n      add\n        /* \"#utility.yul\":9432:9470   */\n      mstore\n        /* \"#utility.yul\":9491:9564   */\n      tag_572\n        /* \"#utility.yul\":9559:9563   */\n      dup3\n        /* \"#utility.yul\":9545:9557   */\n      dup3\n        /* \"#utility.yul\":9491:9564   */\n      tag_406\n      jump\t// in\n    tag_572:\n        /* \"#utility.yul\":9483:9564   */\n      swap2\n      pop\n        /* \"#utility.yul\":9338:9575   */\n      pop\n        /* \"#utility.yul\":9664:9668   */\n      0x40\n        /* \"#utility.yul\":9657:9662   */\n      dup4\n        /* \"#utility.yul\":9653:9669   */\n      add\n        /* \"#utility.yul\":9647:9670   */\n      mload\n        /* \"#utility.yul\":9683:9757   */\n      tag_573\n        /* \"#utility.yul\":9751:9755   */\n      0x40\n        /* \"#utility.yul\":9746:9749   */\n      dup7\n        /* \"#utility.yul\":9742:9756   */\n      add\n        /* \"#utility.yul\":9728:9740   */\n      dup3\n        /* \"#utility.yul\":9683:9757   */\n      tag_410\n      jump\t// in\n    tag_573:\n        /* \"#utility.yul\":9585:9767   */\n      pop\n        /* \"#utility.yul\":9856:9860   */\n      0x60\n        /* \"#utility.yul\":9849:9854   */\n      dup4\n        /* \"#utility.yul\":9845:9861   */\n      add\n        /* \"#utility.yul\":9839:9862   */\n      mload\n        /* \"#utility.yul\":9875:9938   */\n      tag_574\n        /* \"#utility.yul\":9932:9936   */\n      0x60\n        /* \"#utility.yul\":9927:9930   */\n      dup7\n        /* \"#utility.yul\":9923:9937   */\n      add\n        /* \"#utility.yul\":9909:9921   */\n      dup3\n        /* \"#utility.yul\":9875:9938   */\n      tag_411\n      jump\t// in\n    tag_574:\n        /* \"#utility.yul\":9777:9948   */\n      pop\n        /* \"#utility.yul\":10042:10046   */\n      0x80\n        /* \"#utility.yul\":10035:10040   */\n      dup4\n        /* \"#utility.yul\":10031:10047   */\n      add\n        /* \"#utility.yul\":10025:10048   */\n      mload\n        /* \"#utility.yul\":10061:10124   */\n      tag_575\n        /* \"#utility.yul\":10118:10122   */\n      0x80\n        /* \"#utility.yul\":10113:10116   */\n      dup7\n        /* \"#utility.yul\":10109:10123   */\n      add\n        /* \"#utility.yul\":10095:10107   */\n      dup3\n        /* \"#utility.yul\":10061:10124   */\n      tag_411\n      jump\t// in\n    tag_575:\n        /* \"#utility.yul\":9958:10134   */\n      pop\n        /* \"#utility.yul\":10151:10155   */\n      dup1\n        /* \"#utility.yul\":10144:10155   */\n      swap2\n      pop\n        /* \"#utility.yul\":9113:10161   */\n      pop\n        /* \"#utility.yul\":8993:10161   */\n      swap3\n      swap2\n      pop\n      pop\n      jump\t// out\n        /* \"#utility.yul\":10167:10532   */\n    tag_63:\n        /* \"#utility.yul\":10306:10310   */\n      0x00\n        /* \"#utility.yul\":10344:10346   */\n      0x20\n        /* \"#utility.yul\":10333:10342   */\n      dup3\n        /* \"#utility.yul\":10329:10347   */\n      add\n        /* \"#utility.yul\":10321:10347   */\n      swap1\n      pop\n        /* \"#utility.yul\":10393:10402   */\n      dup2\n        /* \"#utility.yul\":10387:10391   */\n      dup2\n        /* \"#utility.yul\":10383:10403   */\n      sub\n        /* \"#utility.yul\":10379:10380   */\n      0x00\n        /* \"#utility.yul\":10368:10377   */\n      dup4\n        /* \"#utility.yul\":10364:10381   */\n      add\n        /* \"#utility.yul\":10357:10404   */\n      mstore\n        /* \"#utility.yul\":10421:10525   */\n      tag_577\n        /* \"#utility.yul\":10520:10524   */\n      dup2\n        /* \"#utility.yul\":10511:10517   */\n      dup5\n        /* \"#utility.yul\":10421:10525   */\n      tag_412\n      jump\t// in\n    tag_577:\n        /* \"#utility.yul\":10413:10525   */\n      swap1\n      pop\n        /* \"#utility.yul\":10167:10532   */\n      swap3\n      swap2\n      pop\n      pop\n      jump\t// out\n        /* \"#utility.yul\":10538:10659   */\n    tag_413:\n        /* \"#utility.yul\":10627:10628   */\n      0x02\n        /* \"#utility.yul\":10620:10625   */\n      dup2\n        /* \"#utility.yul\":10617:10629   */\n      lt\n        /* \"#utility.yul\":10607:10653   */\n      tag_579\n      jumpi\n        /* \"#utility.yul\":10633:10651   */\n      tag_580\n      tag_156\n      jump\t// in\n    tag_580:\n        /* \"#utility.yul\":10607:10653   */\n    tag_579:\n        /* \"#utility.yul\":10538:10659   */\n      pop\n      jump\t// out\n        /* \"#utility.yul\":10665:10808   */\n    tag_414:\n        /* \"#utility.yul\":10718:10725   */\n      0x00\n        /* \"#utility.yul\":10747:10752   */\n      dup2\n        /* \"#utility.yul\":10736:10752   */\n      swap1\n      pop\n        /* \"#utility.yul\":10753:10802   */\n      tag_582\n        /* \"#utility.yul\":10796:10801   */\n      dup3\n        /* \"#utility.yul\":10753:10802   */\n      tag_413\n      jump\t// in\n    tag_582:\n        /* \"#utility.yul\":10665:10808   */\n      swap2\n      swap1\n      pop\n      jump\t// out\n        /* \"#utility.yul\":10814:10957   */\n    tag_415:\n        /* \"#utility.yul\":10878:10887   */\n      0x00\n        /* \"#utility.yul\":10911:10951   */\n      tag_584\n        /* \"#utility.yul\":10945:10950   */\n      dup3\n        /* \"#utility.yul\":10911:10951   */\n      tag_414\n      jump\t// in\n    tag_584:\n        /* \"#utility.yul\":10898:10951   */\n      swap1\n      pop\n        /* \"#utility.yul\":10814:10957   */\n      swap2\n      swap1\n      pop\n      jump\t// out\n        /* \"#utility.yul\":10963:11122   */\n    tag_416:\n        /* \"#utility.yul\":11064:11115   */\n      tag_586\n        /* \"#utility.yul\":11109:11114   */\n      dup2\n        /* \"#utility.yul\":11064:11115   */\n      tag_415\n      jump\t// in\n    tag_586:\n        /* \"#utility.yul\":11059:11062   */\n      dup3\n        /* \"#utility.yul\":11052:11116   */\n      mstore\n        /* \"#utility.yul\":10963:11122   */\n      pop\n      pop\n      jump\t// out\n        /* \"#utility.yul\":11128:12224   */\n    tag_69:\n        /* \"#utility.yul\":11443:11447   */\n      0x00\n        /* \"#utility.yul\":11481:11484   */\n      0xe0\n        /* \"#utility.yul\":11470:11479   */\n      dup3\n        /* \"#utility.yul\":11466:11485   */\n      add\n        /* \"#utility.yul\":11458:11485   */\n      swap1\n      pop\n        /* \"#utility.yul\":11531:11540   */\n      dup2\n        /* \"#utility.yul\":11525:11529   */\n      dup2\n        /* \"#utility.yul\":11521:11541   */\n      sub\n        /* \"#utility.yul\":11517:11518   */\n      0x00\n        /* \"#utility.yul\":11506:11515   */\n      dup4\n        /* \"#utility.yul\":11502:11519   */\n      add\n        /* \"#utility.yul\":11495:11542   */\n      mstore\n        /* \"#utility.yul\":11559:11637   */\n      tag_588\n        /* \"#utility.yul\":11632:11636   */\n      dup2\n        /* \"#utility.yul\":11623:11629   */\n      dup11\n        /* \"#utility.yul\":11559:11637   */\n      tag_387\n      jump\t// in\n    tag_588:\n        /* \"#utility.yul\":11551:11637   */\n      swap1\n      pop\n        /* \"#utility.yul\":11684:11693   */\n      dup2\n        /* \"#utility.yul\":11678:11682   */\n      dup2\n        /* \"#utility.yul\":11674:11694   */\n      sub\n        /* \"#utility.yul\":11669:11671   */\n      0x20\n        /* \"#utility.yul\":11658:11667   */\n      dup4\n        /* \"#utility.yul\":11654:11672   */\n      add\n        /* \"#utility.yul\":11647:11695   */\n      mstore\n        /* \"#utility.yul\":11712:11790   */\n      tag_589\n        /* \"#utility.yul\":11785:11789   */\n      dup2\n        /* \"#utility.yul\":11776:11782   */\n      dup10\n        /* \"#utility.yul\":11712:11790   */\n      tag_387\n      jump\t// in\n    tag_589:\n        /* \"#utility.yul\":11704:11790   */\n      swap1\n      pop\n        /* \"#utility.yul\":11800:11872   */\n      tag_590\n        /* \"#utility.yul\":11868:11870   */\n      0x40\n        /* \"#utility.yul\":11857:11866   */\n      dup4\n        /* \"#utility.yul\":11853:11871   */\n      add\n        /* \"#utility.yul\":11844:11850   */\n      dup9\n        /* \"#utility.yul\":11800:11872   */\n      tag_401\n      jump\t// in\n    tag_590:\n        /* \"#utility.yul\":11882:11954   */\n      tag_591\n        /* \"#utility.yul\":11950:11952   */\n      0x60\n        /* \"#utility.yul\":11939:11948   */\n      dup4\n        /* \"#utility.yul\":11935:11953   */\n      add\n        /* \"#utility.yul\":11926:11932   */\n      dup8\n        /* \"#utility.yul\":11882:11954   */\n      tag_388\n      jump\t// in\n    tag_591:\n        /* \"#utility.yul\":11964:12037   */\n      tag_592\n        /* \"#utility.yul\":12032:12035   */\n      0x80\n        /* \"#utility.yul\":12021:12030   */\n      dup4\n        /* \"#utility.yul\":12017:12036   */\n      add\n        /* \"#utility.yul\":12008:12014   */\n      dup7\n        /* \"#utility.yul\":11964:12037   */\n      tag_388\n      jump\t// in\n    tag_592:\n        /* \"#utility.yul\":12047:12134   */\n      tag_593\n        /* \"#utility.yul\":12129:12132   */\n      0xa0\n        /* \"#utility.yul\":12118:12127   */\n      dup4\n        /* \"#utility.yul\":12114:12133   */\n      add\n        /* \"#utility.yul\":12105:12111   */\n      dup6\n        /* \"#utility.yul\":12047:12134   */\n      tag_416\n      jump\t// in\n    tag_593:\n        /* \"#utility.yul\":12144:12217   */\n      tag_594\n        /* \"#utility.yul\":12212:12215   */\n      0xc0\n        /* \"#utility.yul\":12201:12210   */\n      dup4\n        /* \"#utility.yul\":12197:12216   */\n      add\n        /* \"#utility.yul\":12188:12194   */\n      dup5\n        /* \"#utility.yul\":12144:12217   */\n      tag_388\n      jump\t// in\n    tag_594:\n        /* \"#utility.yul\":11128:12224   */\n      swap9\n      swap8\n      pop\n      pop\n      pop\n      pop\n      pop\n      pop\n      pop\n      pop\n      jump\t// out\n        /* \"#utility.yul\":12300:13509   */\n    tag_417:\n        /* \"#utility.yul\":12417:12420   */\n      0x00\n        /* \"#utility.yul\":12453:12457   */\n      0xa0\n        /* \"#utility.yul\":12448:12451   */\n      dup4\n        /* \"#utility.yul\":12444:12458   */\n      add\n        /* \"#utility.yul\":12538:12542   */\n      0x00\n        /* \"#utility.yul\":12531:12536   */\n      dup4\n        /* \"#utility.yul\":12527:12543   */\n      add\n        /* \"#utility.yul\":12521:12544   */\n      mload\n        /* \"#utility.yul\":12591:12594   */\n      dup5\n        /* \"#utility.yul\":12585:12589   */\n      dup3\n        /* \"#utility.yul\":12581:12595   */\n      sub\n        /* \"#utility.yul\":12574:12578   */\n      0x00\n        /* \"#utility.yul\":12569:12572   */\n      dup7\n        /* \"#utility.yul\":12565:12579   */\n      add\n        /* \"#utility.yul\":12558:12596   */\n      mstore\n        /* \"#utility.yul\":12617:12690   */\n      tag_596\n        /* \"#utility.yul\":12685:12689   */\n      dup3\n        /* \"#utility.yul\":12671:12683   */\n      dup3\n        /* \"#utility.yul\":12617:12690   */\n      tag_406\n      jump\t// in\n    tag_596:\n        /* \"#utility.yul\":12609:12690   */\n      swap2\n      pop\n        /* \"#utility.yul\":12468:12701   */\n      pop\n        /* \"#utility.yul\":12786:12790   */\n      0x20\n        /* \"#utility.yul\":12779:12784   */\n      dup4\n        /* \"#utility.yul\":12775:12791   */\n      add\n        /* \"#utility.yul\":12769:12792   */\n      mload\n        /* \"#utility.yul\":12805:12868   */\n      tag_597\n        /* \"#utility.yul\":12862:12866   */\n      0x20\n        /* \"#utility.yul\":12857:12860   */\n      dup7\n        /* \"#utility.yul\":12853:12867   */\n      add\n        /* \"#utility.yul\":12839:12851   */\n      dup3\n        /* \"#utility.yul\":12805:12868   */\n      tag_404\n      jump\t// in\n    tag_597:\n        /* \"#utility.yul\":12711:12878   */\n      pop\n        /* \"#utility.yul\":12966:12970   */\n      0x40\n        /* \"#utility.yul\":12959:12964   */\n      dup4\n        /* \"#utility.yul\":12955:12971   */\n      add\n        /* \"#utility.yul\":12949:12972   */\n      mload\n        /* \"#utility.yul\":13019:13022   */\n      dup5\n        /* \"#utility.yul\":13013:13017   */\n      dup3\n        /* \"#utility.yul\":13009:13023   */\n      sub\n        /* \"#utility.yul\":13002:13006   */\n      0x40\n        /* \"#utility.yul\":12997:13000   */\n      dup7\n        /* \"#utility.yul\":12993:13007   */\n      add\n        /* \"#utility.yul\":12986:13024   */\n      mstore\n        /* \"#utility.yul\":13045:13118   */\n      tag_598\n        /* \"#utility.yul\":13113:13117   */\n      dup3\n        /* \"#utility.yul\":13099:13111   */\n      dup3\n        /* \"#utility.yul\":13045:13118   */\n      tag_406\n      jump\t// in\n    tag_598:\n        /* \"#utility.yul\":13037:13118   */\n      swap2\n      pop\n        /* \"#utility.yul\":12888:13129   */\n      pop\n        /* \"#utility.yul\":13215:13219   */\n      0x60\n        /* \"#utility.yul\":13208:13213   */\n      dup4\n        /* \"#utility.yul\":13204:13220   */\n      add\n        /* \"#utility.yul\":13198:13221   */\n      mload\n        /* \"#utility.yul\":13234:13297   */\n      tag_599\n        /* \"#utility.yul\":13291:13295   */\n      0x60\n        /* \"#utility.yul\":13286:13289   */\n      dup7\n        /* \"#utility.yul\":13282:13296   */\n      add\n        /* \"#utility.yul\":13268:13280   */\n      dup3\n        /* \"#utility.yul\":13234:13297   */\n      tag_411\n      jump\t// in\n    tag_599:\n        /* \"#utility.yul\":13139:13307   */\n      pop\n        /* \"#utility.yul\":13390:13394   */\n      0x80\n        /* \"#utility.yul\":13383:13388   */\n      dup4\n        /* \"#utility.yul\":13379:13395   */\n      add\n        /* \"#utility.yul\":13373:13396   */\n      mload\n        /* \"#utility.yul\":13409:13472   */\n      tag_600\n        /* \"#utility.yul\":13466:13470   */\n      0x80\n        /* \"#utility.yul\":13461:13464   */\n      dup7\n        /* \"#utility.yul\":13457:13471   */\n      add\n        /* \"#utility.yul\":13443:13455   */\n      dup3\n        /* \"#utility.yul\":13409:13472   */\n      tag_411\n      jump\t// in\n    tag_600:\n        /* \"#utility.yul\":13317:13482   */\n      pop\n        /* \"#utility.yul\":13499:13503   */\n      dup1\n        /* \"#utility.yul\":13492:13503   */\n      swap2\n      pop\n        /* \"#utility.yul\":12422:13509   */\n      pop\n        /* \"#utility.yul\":12300:13509   */\n      swap3\n      swap2\n      pop\n      pop\n      jump\t// out\n        /* \"#utility.yul\":13515:13884   */\n    tag_75:\n        /* \"#utility.yul\":13656:13660   */\n      0x00\n        /* \"#utility.yul\":13694:13696   */\n      0x20\n        /* \"#utility.yul\":13683:13692   */\n      dup3\n        /* \"#utility.yul\":13679:13697   */\n      add\n        /* \"#utility.yul\":13671:13697   */\n      swap1\n      pop\n        /* \"#utility.yul\":13743:13752   */\n      dup2\n        /* \"#utility.yul\":13737:13741   */\n      dup2\n        /* \"#utility.yul\":13733:13753   */\n      sub\n        /* \"#utility.yul\":13729:13730   */\n      0x00\n        /* \"#utility.yul\":13718:13727   */\n      dup4\n        /* \"#utility.yul\":13714:13731   */\n      add\n        /* \"#utility.yul\":13707:13754   */\n      mstore\n        /* \"#utility.yul\":13771:13877   */\n      tag_602\n        /* \"#utility.yul\":13872:13876   */\n      dup2\n        /* \"#utility.yul\":13863:13869   */\n      dup5\n        /* \"#utility.yul\":13771:13877   */\n      tag_417\n      jump\t// in\n    tag_602:\n        /* \"#utility.yul\":13763:13877   */\n      swap1\n      pop\n        /* \"#utility.yul\":13515:13884   */\n      swap3\n      swap2\n      pop\n      pop\n      jump\t// out\n        /* \"#utility.yul\":13890:14043   */\n    tag_418:\n        /* \"#utility.yul\":13988:14036   */\n      tag_604\n        /* \"#utility.yul\":14030:14035   */\n      dup2\n        /* \"#utility.yul\":13988:14036   */\n      tag_409\n      jump\t// in\n    tag_604:\n        /* \"#utility.yul\":13983:13986   */\n      dup3\n        /* \"#utility.yul\":13976:14037   */\n      mstore\n        /* \"#utility.yul\":13890:14043   */\n      pop\n      pop\n      jump\t// out\n        /* \"#utility.yul\":14049:14826   */\n    tag_85:\n        /* \"#utility.yul\":14285:14289   */\n      0x00\n        /* \"#utility.yul\":14323:14326   */\n      0xa0\n        /* \"#utility.yul\":14312:14321   */\n      dup3\n        /* \"#utility.yul\":14308:14327   */\n      add\n        /* \"#utility.yul\":14300:14327   */\n      swap1\n      pop\n        /* \"#utility.yul\":14337:14408   */\n      tag_606\n        /* \"#utility.yul\":14405:14406   */\n      0x00\n        /* \"#utility.yul\":14394:14403   */\n      dup4\n        /* \"#utility.yul\":14390:14407   */\n      add\n        /* \"#utility.yul\":14381:14387   */\n      dup9\n        /* \"#utility.yul\":14337:14408   */\n      tag_401\n      jump\t// in\n    tag_606:\n        /* \"#utility.yul\":14455:14464   */\n      dup2\n        /* \"#utility.yul\":14449:14453   */\n      dup2\n        /* \"#utility.yul\":14445:14465   */\n      sub\n        /* \"#utility.yul\":14440:14442   */\n      0x20\n        /* \"#utility.yul\":14429:14438   */\n      dup4\n        /* \"#utility.yul\":14425:14443   */\n      add\n        /* \"#utility.yul\":14418:14466   */\n      mstore\n        /* \"#utility.yul\":14483:14561   */\n      tag_607\n        /* \"#utility.yul\":14556:14560   */\n      dup2\n        /* \"#utility.yul\":14547:14553   */\n      dup8\n        /* \"#utility.yul\":14483:14561   */\n      tag_387\n      jump\t// in\n    tag_607:\n        /* \"#utility.yul\":14475:14561   */\n      swap1\n      pop\n        /* \"#utility.yul\":14571:14654   */\n      tag_608\n        /* \"#utility.yul\":14650:14652   */\n      0x40\n        /* \"#utility.yul\":14639:14648   */\n      dup4\n        /* \"#utility.yul\":14635:14653   */\n      add\n        /* \"#utility.yul\":14626:14632   */\n      dup7\n        /* \"#utility.yul\":14571:14654   */\n      tag_418\n      jump\t// in\n    tag_608:\n        /* \"#utility.yul\":14664:14736   */\n      tag_609\n        /* \"#utility.yul\":14732:14734   */\n      0x60\n        /* \"#utility.yul\":14721:14730   */\n      dup4\n        /* \"#utility.yul\":14717:14735   */\n      add\n        /* \"#utility.yul\":14708:14714   */\n      dup6\n        /* \"#utility.yul\":14664:14736   */\n      tag_388\n      jump\t// in\n    tag_609:\n        /* \"#utility.yul\":14746:14819   */\n      tag_610\n        /* \"#utility.yul\":14814:14817   */\n      0x80\n        /* \"#utility.yul\":14803:14812   */\n      dup4\n        /* \"#utility.yul\":14799:14818   */\n      add\n        /* \"#utility.yul\":14790:14796   */\n      dup5\n        /* \"#utility.yul\":14746:14819   */\n      tag_388\n      jump\t// in\n    tag_610:\n        /* \"#utility.yul\":14049:14826   */\n      swap7\n      swap6\n      pop\n      pop\n      pop\n      pop\n      pop\n      pop\n      jump\t// out\n        /* \"#utility.yul\":14832:14981   */\n    tag_419:\n        /* \"#utility.yul\":14923:14974   */\n      tag_612\n        /* \"#utility.yul\":14968:14973   */\n      dup2\n        /* \"#utility.yul\":14923:14974   */\n      tag_415\n      jump\t// in\n    tag_612:\n        /* \"#utility.yul\":14918:14921   */\n      dup3\n        /* \"#utility.yul\":14911:14975   */\n      mstore\n        /* \"#utility.yul\":14832:14981   */\n      pop\n      pop\n      jump\t// out\n        /* \"#utility.yul\":15057:16656   */\n    tag_420:\n        /* \"#utility.yul\":15174:15177   */\n      0x00\n        /* \"#utility.yul\":15210:15214   */\n      0xe0\n        /* \"#utility.yul\":15205:15208   */\n      dup4\n        /* \"#utility.yul\":15201:15215   */\n      add\n        /* \"#utility.yul\":15295:15299   */\n      0x00\n        /* \"#utility.yul\":15288:15293   */\n      dup4\n        /* \"#utility.yul\":15284:15300   */\n      add\n        /* \"#utility.yul\":15278:15301   */\n      mload\n        /* \"#utility.yul\":15348:15351   */\n      dup5\n        /* \"#utility.yul\":15342:15346   */\n      dup3\n        /* \"#utility.yul\":15338:15352   */\n      sub\n        /* \"#utility.yul\":15331:15335   */\n      0x00\n        /* \"#utility.yul\":15326:15329   */\n      dup7\n        /* \"#utility.yul\":15322:15336   */\n      add\n        /* \"#utility.yul\":15315:15353   */\n      mstore\n        /* \"#utility.yul\":15374:15447   */\n      tag_614\n        /* \"#utility.yul\":15442:15446   */\n      dup3\n        /* \"#utility.yul\":15428:15440   */\n      dup3\n        /* \"#utility.yul\":15374:15447   */\n      tag_406\n      jump\t// in\n    tag_614:\n        /* \"#utility.yul\":15366:15447   */\n      swap2\n      pop\n        /* \"#utility.yul\":15225:15458   */\n      pop\n        /* \"#utility.yul\":15547:15551   */\n      0x20\n        /* \"#utility.yul\":15540:15545   */\n      dup4\n        /* \"#utility.yul\":15536:15552   */\n      add\n        /* \"#utility.yul\":15530:15553   */\n      mload\n        /* \"#utility.yul\":15600:15603   */\n      dup5\n        /* \"#utility.yul\":15594:15598   */\n      dup3\n        /* \"#utility.yul\":15590:15604   */\n      sub\n        /* \"#utility.yul\":15583:15587   */\n      0x20\n        /* \"#utility.yul\":15578:15581   */\n      dup7\n        /* \"#utility.yul\":15574:15588   */\n      add\n        /* \"#utility.yul\":15567:15605   */\n      mstore\n        /* \"#utility.yul\":15626:15699   */\n      tag_615\n        /* \"#utility.yul\":15694:15698   */\n      dup3\n        /* \"#utility.yul\":15680:15692   */\n      dup3\n        /* \"#utility.yul\":15626:15699   */\n      tag_406\n      jump\t// in\n    tag_615:\n        /* \"#utility.yul\":15618:15699   */\n      swap2\n      pop\n        /* \"#utility.yul\":15468:15710   */\n      pop\n        /* \"#utility.yul\":15799:15803   */\n      0x40\n        /* \"#utility.yul\":15792:15797   */\n      dup4\n        /* \"#utility.yul\":15788:15804   */\n      add\n        /* \"#utility.yul\":15782:15805   */\n      mload\n        /* \"#utility.yul\":15818:15881   */\n      tag_616\n        /* \"#utility.yul\":15875:15879   */\n      0x40\n        /* \"#utility.yul\":15870:15873   */\n      dup7\n        /* \"#utility.yul\":15866:15880   */\n      add\n        /* \"#utility.yul\":15852:15864   */\n      dup3\n        /* \"#utility.yul\":15818:15881   */\n      tag_404\n      jump\t// in\n    tag_616:\n        /* \"#utility.yul\":15720:15891   */\n      pop\n        /* \"#utility.yul\":15986:15990   */\n      0x60\n        /* \"#utility.yul\":15979:15984   */\n      dup4\n        /* \"#utility.yul\":15975:15991   */\n      add\n        /* \"#utility.yul\":15969:15992   */\n      mload\n        /* \"#utility.yul\":16005:16068   */\n      tag_617\n        /* \"#utility.yul\":16062:16066   */\n      0x60\n        /* \"#utility.yul\":16057:16060   */\n      dup7\n        /* \"#utility.yul\":16053:16067   */\n      add\n        /* \"#utility.yul\":16039:16051   */\n      dup3\n        /* \"#utility.yul\":16005:16068   */\n      tag_411\n      jump\t// in\n    tag_617:\n        /* \"#utility.yul\":15901:16078   */\n      pop\n        /* \"#utility.yul\":16172:16176   */\n      0x80\n        /* \"#utility.yul\":16165:16170   */\n      dup4\n        /* \"#utility.yul\":16161:16177   */\n      add\n        /* \"#utility.yul\":16155:16178   */\n      mload\n        /* \"#utility.yul\":16191:16254   */\n      tag_618\n        /* \"#utility.yul\":16248:16252   */\n      0x80\n        /* \"#utility.yul\":16243:16246   */\n      dup7\n        /* \"#utility.yul\":16239:16253   */\n      add\n        /* \"#utility.yul\":16225:16237   */\n      dup3\n        /* \"#utility.yul\":16191:16254   */\n      tag_411\n      jump\t// in\n    tag_618:\n        /* \"#utility.yul\":16088:16264   */\n      pop\n        /* \"#utility.yul\":16348:16352   */\n      0xa0\n        /* \"#utility.yul\":16341:16346   */\n      dup4\n        /* \"#utility.yul\":16337:16353   */\n      add\n        /* \"#utility.yul\":16331:16354   */\n      mload\n        /* \"#utility.yul\":16367:16444   */\n      tag_619\n        /* \"#utility.yul\":16438:16442   */\n      0xa0\n        /* \"#utility.yul\":16433:16436   */\n      dup7\n        /* \"#utility.yul\":16429:16443   */\n      add\n        /* \"#utility.yul\":16415:16427   */\n      dup3\n        /* \"#utility.yul\":16367:16444   */\n      tag_419\n      jump\t// in\n    tag_619:\n        /* \"#utility.yul\":16274:16454   */\n      pop\n        /* \"#utility.yul\":16537:16541   */\n      0xc0\n        /* \"#utility.yul\":16530:16535   */\n      dup4\n        /* \"#utility.yul\":16526:16542   */\n      add\n        /* \"#utility.yul\":16520:16543   */\n      mload\n        /* \"#utility.yul\":16556:16619   */\n      tag_620\n        /* \"#utility.yul\":16613:16617   */\n      0xc0\n        /* \"#utility.yul\":16608:16611   */\n      dup7\n        /* \"#utility.yul\":16604:16618   */\n      add\n        /* \"#utility.yul\":16590:16602   */\n      dup3\n        /* \"#utility.yul\":16556:16619   */\n      tag_411\n      jump\t// in\n    tag_620:\n        /* \"#utility.yul\":16464:16629   */\n      pop\n        /* \"#utility.yul\":16646:16650   */\n      dup1\n        /* \"#utility.yul\":16639:16650   */\n      swap2\n      pop\n        /* \"#utility.yul\":15179:16656   */\n      pop\n        /* \"#utility.yul\":15057:16656   */\n      swap3\n      swap2\n      pop\n      pop\n      jump\t// out\n        /* \"#utility.yul\":16662:17031   */\n    tag_91:\n        /* \"#utility.yul\":16803:16807   */\n      0x00\n        /* \"#utility.yul\":16841:16843   */\n      0x20\n        /* \"#utility.yul\":16830:16839   */\n      dup3\n        /* \"#utility.yul\":16826:16844   */\n      add\n        /* \"#utility.yul\":16818:16844   */\n      swap1\n      pop\n        /* \"#utility.yul\":16890:16899   */\n      dup2\n        /* \"#utility.yul\":16884:16888   */\n      dup2\n        /* \"#utility.yul\":16880:16900   */\n      sub\n        /* \"#utility.yul\":16876:16877   */\n      0x00\n        /* \"#utility.yul\":16865:16874   */\n      dup4\n        /* \"#utility.yul\":16861:16878   */\n      add\n        /* \"#utility.yul\":16854:16901   */\n      mstore\n        /* \"#utility.yul\":16918:17024   */\n      tag_622\n        /* \"#utility.yul\":17019:17023   */\n      dup2\n        /* \"#utility.yul\":17010:17016   */\n      dup5\n        /* \"#utility.yul\":16918:17024   */\n      tag_420\n      jump\t// in\n    tag_622:\n        /* \"#utility.yul\":16910:17024   */\n      swap1\n      pop\n        /* \"#utility.yul\":16662:17031   */\n      swap3\n      swap2\n      pop\n      pop\n      jump\t// out\n        /* \"#utility.yul\":17037:17883   */\n    tag_108:\n        /* \"#utility.yul\":17282:17286   */\n      0x00\n        /* \"#utility.yul\":17320:17323   */\n      0xa0\n        /* \"#utility.yul\":17309:17318   */\n      dup3\n        /* \"#utility.yul\":17305:17324   */\n      add\n        /* \"#utility.yul\":17297:17324   */\n      swap1\n      pop\n        /* \"#utility.yul\":17370:17379   */\n      dup2\n        /* \"#utility.yul\":17364:17368   */\n      dup2\n        /* \"#utility.yul\":17360:17380   */\n      sub\n        /* \"#utility.yul\":17356:17357   */\n      0x00\n        /* \"#utility.yul\":17345:17354   */\n      dup4\n        /* \"#utility.yul\":17341:17358   */\n      add\n        /* \"#utility.yul\":17334:17381   */\n      mstore\n        /* \"#utility.yul\":17398:17476   */\n      tag_624\n        /* \"#utility.yul\":17471:17475   */\n      dup2\n        /* \"#utility.yul\":17462:17468   */\n      dup9\n        /* \"#utility.yul\":17398:17476   */\n      tag_387\n      jump\t// in\n    tag_624:\n        /* \"#utility.yul\":17390:17476   */\n      swap1\n      pop\n        /* \"#utility.yul\":17486:17558   */\n      tag_625\n        /* \"#utility.yul\":17554:17556   */\n      0x20\n        /* \"#utility.yul\":17543:17552   */\n      dup4\n        /* \"#utility.yul\":17539:17557   */\n      add\n        /* \"#utility.yul\":17530:17536   */\n      dup8\n        /* \"#utility.yul\":17486:17558   */\n      tag_401\n      jump\t// in\n    tag_625:\n        /* \"#utility.yul\":17605:17614   */\n      dup2\n        /* \"#utility.yul\":17599:17603   */\n      dup2\n        /* \"#utility.yul\":17595:17615   */\n      sub\n        /* \"#utility.yul\":17590:17592   */\n      0x40\n        /* \"#utility.yul\":17579:17588   */\n      dup4\n        /* \"#utility.yul\":17575:17593   */\n      add\n        /* \"#utility.yul\":17568:17616   */\n      mstore\n        /* \"#utility.yul\":17633:17711   */\n      tag_626\n        /* \"#utility.yul\":17706:17710   */\n      dup2\n        /* \"#utility.yul\":17697:17703   */\n      dup7\n        /* \"#utility.yul\":17633:17711   */\n      tag_387\n      jump\t// in\n    tag_626:\n        /* \"#utility.yul\":17625:17711   */\n      swap1\n      pop\n        /* \"#utility.yul\":17721:17793   */\n      tag_627\n        /* \"#utility.yul\":17789:17791   */\n      0x60\n        /* \"#utility.yul\":17778:17787   */\n      dup4\n        /* \"#utility.yul\":17774:17792   */\n      add\n        /* \"#utility.yul\":17765:17771   */\n      dup6\n        /* \"#utility.yul\":17721:17793   */\n      tag_388\n      jump\t// in\n    tag_627:\n        /* \"#utility.yul\":17803:17876   */\n      tag_628\n        /* \"#utility.yul\":17871:17874   */\n      0x80\n        /* \"#utility.yul\":17860:17869   */\n      dup4\n        /* \"#utility.yul\":17856:17875   */\n      add\n        /* \"#utility.yul\":17847:17853   */\n      dup5\n        /* \"#utility.yul\":17803:17876   */\n      tag_388\n      jump\t// in\n    tag_628:\n        /* \"#utility.yul\":17037:17883   */\n      swap7\n      swap6\n      pop\n      pop\n      pop\n      pop\n      pop\n      pop\n      jump\t// out\n        /* \"#utility.yul\":17889:18543   */\n    tag_117:\n        /* \"#utility.yul\":17967:17973   */\n      0x00\n        /* \"#utility.yul\":17975:17981   */\n      0x00\n        /* \"#utility.yul\":18024:18026   */\n      0x40\n        /* \"#utility.yul\":18012:18021   */\n      dup4\n        /* \"#utility.yul\":18003:18010   */\n      dup6\n        /* \"#utility.yul\":17999:18022   */\n      sub\n        /* \"#utility.yul\":17995:18027   */\n      slt\n        /* \"#utility.yul\":17992:18111   */\n      iszero\n      tag_630\n      jumpi\n        /* \"#utility.yul\":18030:18109   */\n      tag_631\n      tag_378\n      jump\t// in\n    tag_631:\n        /* \"#utility.yul\":17992:18111   */\n    tag_630:\n        /* \"#utility.yul\":18178:18179   */\n      0x00\n        /* \"#utility.yul\":18167:18176   */\n      dup4\n        /* \"#utility.yul\":18163:18180   */\n      add\n        /* \"#utility.yul\":18150:18181   */\n      calldataload\n        /* \"#utility.yul\":18208:18226   */\n      0xffffffffffffffff\n        /* \"#utility.yul\":18200:18206   */\n      dup2\n        /* \"#utility.yul\":18197:18227   */\n      gt\n        /* \"#utility.yul\":18194:18311   */\n      iszero\n      tag_632\n      jumpi\n        /* \"#utility.yul\":18230:18309   */\n      tag_633\n      tag_379\n      jump\t// in\n    tag_633:\n        /* \"#utility.yul\":18194:18311   */\n    tag_632:\n        /* \"#utility.yul\":18335:18398   */\n      tag_634\n        /* \"#utility.yul\":18390:18397   */\n      dup6\n        /* \"#utility.yul\":18381:18387   */\n      dup3\n        /* \"#utility.yul\":18370:18379   */\n      dup7\n        /* \"#utility.yul\":18366:18388   */\n      add\n        /* \"#utility.yul\":18335:18398   */\n      tag_396\n      jump\t// in\n    tag_634:\n        /* \"#utility.yul\":18325:18398   */\n      swap3\n      pop\n        /* \"#utility.yul\":18121:18408   */\n      pop\n        /* \"#utility.yul\":18447:18449   */\n      0x20\n        /* \"#utility.yul\":18473:18526   */\n      tag_635\n        /* \"#utility.yul\":18518:18525   */\n      dup6\n        /* \"#utility.yul\":18509:18515   */\n      dup3\n        /* \"#utility.yul\":18498:18507   */\n      dup7\n        /* \"#utility.yul\":18494:18516   */\n      add\n        /* \"#utility.yul\":18473:18526   */\n      tag_382\n      jump\t// in\n    tag_635:\n        /* \"#utility.yul\":18463:18526   */\n      swap2\n      pop\n        /* \"#utility.yul\":18418:18536   */\n      pop\n        /* \"#utility.yul\":17889:18543   */\n      swap3\n      pop\n      swap3\n      swap1\n      pop\n      jump\t// out\n        /* \"#utility.yul\":18549:18661   */\n    tag_421:\n        /* \"#utility.yul\":18635:18636   */\n      0x02\n        /* \"#utility.yul\":18628:18633   */\n      dup2\n        /* \"#utility.yul\":18625:18637   */\n      lt\n        /* \"#utility.yul\":18615:18655   */\n      tag_637\n      jumpi\n        /* \"#utility.yul\":18651:18652   */\n      0x00\n        /* \"#utility.yul\":18648:18649   */\n      0x00\n        /* \"#utility.yul\":18641:18653   */\n      revert\n        /* \"#utility.yul\":18615:18655   */\n    tag_637:\n        /* \"#utility.yul\":18549:18661   */\n      pop\n      jump\t// out\n        /* \"#utility.yul\":18667:18832   */\n    tag_422:\n        /* \"#utility.yul\":18726:18731   */\n      0x00\n        /* \"#utility.yul\":18764:18770   */\n      dup2\n        /* \"#utility.yul\":18751:18771   */\n      calldataload\n        /* \"#utility.yul\":18742:18771   */\n      swap1\n      pop\n        /* \"#utility.yul\":18780:18826   */\n      tag_639\n        /* \"#utility.yul\":18820:18825   */\n      dup2\n        /* \"#utility.yul\":18780:18826   */\n      tag_421\n      jump\t// in\n    tag_639:\n        /* \"#utility.yul\":18667:18832   */\n      swap3\n      swap2\n      pop\n      pop\n      jump\t// out\n        /* \"#utility.yul\":18838:19518   */\n    tag_122:\n        /* \"#utility.yul\":18929:18935   */\n      0x00\n        /* \"#utility.yul\":18937:18943   */\n      0x00\n        /* \"#utility.yul\":18986:18988   */\n      0x40\n        /* \"#utility.yul\":18974:18983   */\n      dup4\n        /* \"#utility.yul\":18965:18972   */\n      dup6\n        /* \"#utility.yul\":18961:18984   */\n      sub\n        /* \"#utility.yul\":18957:18989   */\n      slt\n        /* \"#utility.yul\":18954:19073   */\n      iszero\n      tag_641\n      jumpi\n        /* \"#utility.yul\":18992:19071   */\n      tag_642\n      tag_378\n      jump\t// in\n    tag_642:\n        /* \"#utility.yul\":18954:19073   */\n    tag_641:\n        /* \"#utility.yul\":19140:19141   */\n      0x00\n        /* \"#utility.yul\":19129:19138   */\n      dup4\n        /* \"#utility.yul\":19125:19142   */\n      add\n        /* \"#utility.yul\":19112:19143   */\n      calldataload\n        /* \"#utility.yul\":19170:19188   */\n      0xffffffffffffffff\n        /* \"#utility.yul\":19162:19168   */\n      dup2\n        /* \"#utility.yul\":19159:19189   */\n      gt\n        /* \"#utility.yul\":19156:19273   */\n      iszero\n      tag_643\n      jumpi\n        /* \"#utility.yul\":19192:19271   */\n      tag_644\n      tag_379\n      jump\t// in\n    tag_644:\n        /* \"#utility.yul\":19156:19273   */\n    tag_643:\n        /* \"#utility.yul\":19297:19360   */\n      tag_645\n        /* \"#utility.yul\":19352:19359   */\n      dup6\n        /* \"#utility.yul\":19343:19349   */\n      dup3\n        /* \"#utility.yul\":19332:19341   */\n      dup7\n        /* \"#utility.yul\":19328:19350   */\n      add\n        /* \"#utility.yul\":19297:19360   */\n      tag_396\n      jump\t// in\n    tag_645:\n        /* \"#utility.yul\":19287:19360   */\n      swap3\n      pop\n        /* \"#utility.yul\":19083:19370   */\n      pop\n        /* \"#utility.yul\":19409:19411   */\n      0x20\n        /* \"#utility.yul\":19435:19501   */\n      tag_646\n        /* \"#utility.yul\":19493:19500   */\n      dup6\n        /* \"#utility.yul\":19484:19490   */\n      dup3\n        /* \"#utility.yul\":19473:19482   */\n      dup7\n        /* \"#utility.yul\":19469:19491   */\n      add\n        /* \"#utility.yul\":19435:19501   */\n      tag_422\n      jump\t// in\n    tag_646:\n        /* \"#utility.yul\":19425:19501   */\n      swap2\n      pop\n        /* \"#utility.yul\":19380:19511   */\n      pop\n        /* \"#utility.yul\":18838:19518   */\n      swap3\n      pop\n      swap3\n      swap1\n      pop\n      jump\t// out\n        /* \"#utility.yul\":19524:20503   */\n    tag_127:\n        /* \"#utility.yul\":19621:19627   */\n      0x00\n        /* \"#utility.yul\":19629:19635   */\n      0x00\n        /* \"#utility.yul\":19637:19643   */\n      0x00\n        /* \"#utility.yul\":19686:19688   */\n      0x60\n        /* \"#utility.yul\":19674:19683   */\n      dup5\n        /* \"#utility.yul\":19665:19672   */\n      dup7\n        /* \"#utility.yul\":19661:19684   */\n      sub\n        /* \"#utility.yul\":19657:19689   */\n      slt\n        /* \"#utility.yul\":19654:19773   */\n      iszero\n      tag_648\n      jumpi\n        /* \"#utility.yul\":19692:19771   */\n      tag_649\n      tag_378\n      jump\t// in\n    tag_649:\n        /* \"#utility.yul\":19654:19773   */\n    tag_648:\n        /* \"#utility.yul\":19840:19841   */\n      0x00\n        /* \"#utility.yul\":19829:19838   */\n      dup5\n        /* \"#utility.yul\":19825:19842   */\n      add\n        /* \"#utility.yul\":19812:19843   */\n      calldataload\n        /* \"#utility.yul\":19870:19888   */\n      0xffffffffffffffff\n        /* \"#utility.yul\":19862:19868   */\n      dup2\n        /* \"#utility.yul\":19859:19889   */\n      gt\n        /* \"#utility.yul\":19856:19973   */\n      iszero\n      tag_650\n      jumpi\n        /* \"#utility.yul\":19892:19971   */\n      tag_651\n      tag_379\n      jump\t// in\n    tag_651:\n        /* \"#utility.yul\":19856:19973   */\n    tag_650:\n        /* \"#utility.yul\":19997:20060   */\n      tag_652\n        /* \"#utility.yul\":20052:20059   */\n      dup7\n        /* \"#utility.yul\":20043:20049   */\n      dup3\n        /* \"#utility.yul\":20032:20041   */\n      dup8\n        /* \"#utility.yul\":20028:20050   */\n      add\n        /* \"#utility.yul\":19997:20060   */\n      tag_396\n      jump\t// in\n    tag_652:\n        /* \"#utility.yul\":19987:20060   */\n      swap4\n      pop\n        /* \"#utility.yul\":19783:20070   */\n      pop\n        /* \"#utility.yul\":20137:20139   */\n      0x20\n        /* \"#utility.yul\":20126:20135   */\n      dup5\n        /* \"#utility.yul\":20122:20140   */\n      add\n        /* \"#utility.yul\":20109:20141   */\n      calldataload\n        /* \"#utility.yul\":20168:20186   */\n      0xffffffffffffffff\n        /* \"#utility.yul\":20160:20166   */\n      dup2\n        /* \"#utility.yul\":20157:20187   */\n      gt\n        /* \"#utility.yul\":20154:20271   */\n      iszero\n      tag_653\n      jumpi\n        /* \"#utility.yul\":20190:20269   */\n      tag_654\n      tag_379\n      jump\t// in\n    tag_654:\n        /* \"#utility.yul\":20154:20271   */\n    tag_653:\n        /* \"#utility.yul\":20295:20358   */\n      tag_655\n        /* \"#utility.yul\":20350:20357   */\n      dup7\n        /* \"#utility.yul\":20341:20347   */\n      dup3\n        /* \"#utility.yul\":20330:20339   */\n      dup8\n        /* \"#utility.yul\":20326:20348   */\n      add\n        /* \"#utility.yul\":20295:20358   */\n      tag_396\n      jump\t// in\n    tag_655:\n        /* \"#utility.yul\":20285:20358   */\n      swap3\n      pop\n        /* \"#utility.yul\":20080:20368   */\n      pop\n        /* \"#utility.yul\":20407:20409   */\n      0x40\n        /* \"#utility.yul\":20433:20486   */\n      tag_656\n        /* \"#utility.yul\":20478:20485   */\n      dup7\n        /* \"#utility.yul\":20469:20475   */\n      dup3\n        /* \"#utility.yul\":20458:20467   */\n      dup8\n        /* \"#utility.yul\":20454:20476   */\n      add\n        /* \"#utility.yul\":20433:20486   */\n      tag_403\n      jump\t// in\n    tag_656:\n        /* \"#utility.yul\":20423:20486   */\n      swap2\n      pop\n        /* \"#utility.yul\":20378:20496   */\n      pop\n        /* \"#utility.yul\":19524:20503   */\n      swap3\n      pop\n      swap3\n      pop\n      swap3\n      jump\t// out\n        /* \"#utility.yul\":20509:20689   */\n    tag_423:\n        /* \"#utility.yul\":20557:20634   */\n      0x4e487b7100000000000000000000000000000000000000000000000000000000\n        /* \"#utility.yul\":20554:20555   */\n      0x00\n        /* \"#utility.yul\":20547:20635   */\n      mstore\n        /* \"#utility.yul\":20654:20658   */\n      0x22\n        /* \"#utility.yul\":20651:20652   */\n      0x04\n        /* \"#utility.yul\":20644:20659   */\n      mstore\n        /* \"#utility.yul\":20678:20682   */\n      0x24\n        /* \"#utility.yul\":20675:20676   */\n      0x00\n        /* \"#utility.yul\":20668:20683   */\n      revert\n        /* \"#utility.yul\":20695:21015   */\n    tag_136:\n        /* \"#utility.yul\":20739:20745   */\n      0x00\n        /* \"#utility.yul\":20776:20777   */\n      0x02\n        /* \"#utility.yul\":20770:20774   */\n      dup3\n        /* \"#utility.yul\":20766:20778   */\n      div\n        /* \"#utility.yul\":20756:20778   */\n      swap1\n      pop\n        /* \"#utility.yul\":20823:20824   */\n      0x01\n        /* \"#utility.yul\":20817:20821   */\n      dup3\n        /* \"#utility.yul\":20813:20825   */\n      and\n        /* \"#utility.yul\":20844:20862   */\n      dup1\n        /* \"#utility.yul\":20834:20915   */\n      tag_659\n      jumpi\n        /* \"#utility.yul\":20900:20904   */\n      0x7f\n        /* \"#utility.yul\":20892:20898   */\n      dup3\n        /* \"#utility.yul\":20888:20905   */\n      and\n        /* \"#utility.yul\":20878:20905   */\n      swap2\n      pop\n        /* \"#utility.yul\":20834:20915   */\n    tag_659:\n        /* \"#utility.yul\":20962:20964   */\n      0x20\n        /* \"#utility.yul\":20954:20960   */\n      dup3\n        /* \"#utility.yul\":20951:20965   */\n      lt\n        /* \"#utility.yul\":20931:20949   */\n      dup2\n        /* \"#utility.yul\":20928:20966   */\n      sub\n        /* \"#utility.yul\":20925:21009   */\n      tag_660\n      jumpi\n        /* \"#utility.yul\":20981:20999   */\n      tag_661\n      tag_423\n      jump\t// in\n    tag_661:\n        /* \"#utility.yul\":20925:21009   */\n    tag_660:\n        /* \"#utility.yul\":20746:21015   */\n      pop\n        /* \"#utility.yul\":20695:21015   */\n      swap2\n      swap1\n      pop\n      jump\t// out\n        /* \"#utility.yul\":21021:21241   */\n    tag_424:\n        /* \"#utility.yul\":21161:21195   */\n      0x536f6c6f20656c206f776e657220707565646520656a65637574617220657374\n        /* \"#utility.yul\":21157:21158   */\n      0x00\n        /* \"#utility.yul\":21149:21155   */\n      dup3\n        /* \"#utility.yul\":21145:21159   */\n      add\n        /* \"#utility.yul\":21138:21196   */\n      mstore\n        /* \"#utility.yul\":21230:21233   */\n      0x6f00000000000000000000000000000000000000000000000000000000000000\n        /* \"#utility.yul\":21225:21227   */\n      0x20\n        /* \"#utility.yul\":21217:21223   */\n      dup3\n        /* \"#utility.yul\":21213:21228   */\n      add\n        /* \"#utility.yul\":21206:21234   */\n      mstore\n        /* \"#utility.yul\":21021:21241   */\n      pop\n      jump\t// out\n        /* \"#utility.yul\":21247:21613   */\n    tag_425:\n        /* \"#utility.yul\":21389:21392   */\n      0x00\n        /* \"#utility.yul\":21410:21477   */\n      tag_664\n        /* \"#utility.yul\":21474:21476   */\n      0x21\n        /* \"#utility.yul\":21469:21472   */\n      dup4\n        /* \"#utility.yul\":21410:21477   */\n      tag_384\n      jump\t// in\n    tag_664:\n        /* \"#utility.yul\":21403:21477   */\n      swap2\n      pop\n        /* \"#utility.yul\":21486:21579   */\n      tag_665\n        /* \"#utility.yul\":21575:21578   */\n      dup3\n        /* \"#utility.yul\":21486:21579   */\n      tag_424\n      jump\t// in\n    tag_665:\n        /* \"#utility.yul\":21604:21606   */\n      0x40\n        /* \"#utility.yul\":21599:21602   */\n      dup3\n        /* \"#utility.yul\":21595:21607   */\n      add\n        /* \"#utility.yul\":21588:21607   */\n      swap1\n      pop\n        /* \"#utility.yul\":21247:21613   */\n      swap2\n      swap1\n      pop\n      jump\t// out\n        /* \"#utility.yul\":21619:22038   */\n    tag_145:\n        /* \"#utility.yul\":21785:21789   */\n      0x00\n        /* \"#utility.yul\":21823:21825   */\n      0x20\n        /* \"#utility.yul\":21812:21821   */\n      dup3\n        /* \"#utility.yul\":21808:21826   */\n      add\n        /* \"#utility.yul\":21800:21826   */\n      swap1\n      pop\n        /* \"#utility.yul\":21872:21881   */\n      dup2\n        /* \"#utility.yul\":21866:21870   */\n      dup2\n        /* \"#utility.yul\":21862:21882   */\n      sub\n        /* \"#utility.yul\":21858:21859   */\n      0x00\n        /* \"#utility.yul\":21847:21856   */\n      dup4\n        /* \"#utility.yul\":21843:21860   */\n      add\n        /* \"#utility.yul\":21836:21883   */\n      mstore\n        /* \"#utility.yul\":21900:22031   */\n      tag_667\n        /* \"#utility.yul\":22026:22030   */\n      dup2\n        /* \"#utility.yul\":21900:22031   */\n      tag_425\n      jump\t// in\n    tag_667:\n        /* \"#utility.yul\":21892:22031   */\n      swap1\n      pop\n        /* \"#utility.yul\":21619:22038   */\n      swap2\n      swap1\n      pop\n      jump\t// out\n        /* \"#utility.yul\":22044:22192   */\n    tag_426:\n        /* \"#utility.yul\":22146:22157   */\n      0x00\n        /* \"#utility.yul\":22183:22186   */\n      dup2\n        /* \"#utility.yul\":22168:22186   */\n      swap1\n      pop\n        /* \"#utility.yul\":22044:22192   */\n      swap3\n      swap2\n      pop\n      pop\n      jump\t// out\n        /* \"#utility.yul\":22198:22588   */\n    tag_427:\n        /* \"#utility.yul\":22304:22307   */\n      0x00\n        /* \"#utility.yul\":22332:22371   */\n      tag_670\n        /* \"#utility.yul\":22365:22370   */\n      dup3\n        /* \"#utility.yul\":22332:22371   */\n      tag_383\n      jump\t// in\n    tag_670:\n        /* \"#utility.yul\":22387:22476   */\n      tag_671\n        /* \"#utility.yul\":22469:22475   */\n      dup2\n        /* \"#utility.yul\":22464:22467   */\n      dup6\n        /* \"#utility.yul\":22387:22476   */\n      tag_426\n      jump\t// in\n    tag_671:\n        /* \"#utility.yul\":22380:22476   */\n      swap4\n      pop\n        /* \"#utility.yul\":22485:22550   */\n      tag_672\n        /* \"#utility.yul\":22543:22549   */\n      dup2\n        /* \"#utility.yul\":22538:22541   */\n      dup6\n        /* \"#utility.yul\":22531:22535   */\n      0x20\n        /* \"#utility.yul\":22524:22529   */\n      dup7\n        /* \"#utility.yul\":22520:22536   */\n      add\n        /* \"#utility.yul\":22485:22550   */\n      tag_385\n      jump\t// in\n    tag_672:\n        /* \"#utility.yul\":22575:22581   */\n      dup1\n        /* \"#utility.yul\":22570:22573   */\n      dup5\n        /* \"#utility.yul\":22566:22582   */\n      add\n        /* \"#utility.yul\":22559:22582   */\n      swap2\n      pop\n        /* \"#utility.yul\":22308:22588   */\n      pop\n        /* \"#utility.yul\":22198:22588   */\n      swap3\n      swap2\n      pop\n      pop\n      jump\t// out\n        /* \"#utility.yul\":22594:22869   */\n    tag_148:\n        /* \"#utility.yul\":22726:22729   */\n      0x00\n        /* \"#utility.yul\":22748:22843   */\n      tag_674\n        /* \"#utility.yul\":22839:22842   */\n      dup3\n        /* \"#utility.yul\":22830:22836   */\n      dup5\n        /* \"#utility.yul\":22748:22843   */\n      tag_427\n      jump\t// in\n    tag_674:\n        /* \"#utility.yul\":22741:22843   */\n      swap2\n      pop\n        /* \"#utility.yul\":22860:22863   */\n      dup2\n        /* \"#utility.yul\":22853:22863   */\n      swap1\n      pop\n        /* \"#utility.yul\":22594:22869   */\n      swap3\n      swap2\n      pop\n      pop\n      jump\t// out\n        /* \"#utility.yul\":22875:23043   */\n    tag_428:\n        /* \"#utility.yul\":23015:23035   */\n      0x50726f796563746f206e6f206578697374650000000000000000000000000000\n        /* \"#utility.yul\":23011:23012   */\n      0x00\n        /* \"#utility.yul\":23003:23009   */\n      dup3\n        /* \"#utility.yul\":22999:23013   */\n      add\n        /* \"#utility.yul\":22992:23036   */\n      mstore\n        /* \"#utility.yul\":22875:23043   */\n      pop\n      jump\t// out\n        /* \"#utility.yul\":23049:23415   */\n    tag_429:\n        /* \"#utility.yul\":23191:23194   */\n      0x00\n        /* \"#utility.yul\":23212:23279   */\n      tag_677\n        /* \"#utility.yul\":23276:23278   */\n      0x12\n        /* \"#utility.yul\":23271:23274   */\n      dup4\n        /* \"#utility.yul\":23212:23279   */\n      tag_384\n      jump\t// in\n    tag_677:\n        /* \"#utility.yul\":23205:23279   */\n      swap2\n      pop\n        /* \"#utility.yul\":23288:23381   */\n      tag_678\n        /* \"#utility.yul\":23377:23380   */\n      dup3\n        /* \"#utility.yul\":23288:23381   */\n      tag_428\n      jump\t// in\n    tag_678:\n        /* \"#utility.yul\":23406:23408   */\n      0x20\n        /* \"#utility.yul\":23401:23404   */\n      dup3\n        /* \"#utility.yul\":23397:23409   */\n      add\n        /* \"#utility.yul\":23390:23409   */\n      swap1\n      pop\n        /* \"#utility.yul\":23049:23415   */\n      swap2\n      swap1\n      pop\n      jump\t// out\n        /* \"#utility.yul\":23421:23840   */\n    tag_152:\n        /* \"#utility.yul\":23587:23591   */\n      0x00\n        /* \"#utility.yul\":23625:23627   */\n      0x20\n        /* \"#utility.yul\":23614:23623   */\n      dup3\n        /* \"#utility.yul\":23610:23628   */\n      add\n        /* \"#utility.yul\":23602:23628   */\n      swap1\n      pop\n        /* \"#utility.yul\":23674:23683   */\n      dup2\n        /* \"#utility.yul\":23668:23672   */\n      dup2\n        /* \"#utility.yul\":23664:23684   */\n      sub\n        /* \"#utility.yul\":23660:23661   */\n      0x00\n        /* \"#utility.yul\":23649:23658   */\n      dup4\n        /* \"#utility.yul\":23645:23662   */\n      add\n        /* \"#utility.yul\":23638:23685   */\n      mstore\n        /* \"#utility.yul\":23702:23833   */\n      tag_680\n        /* \"#utility.yul\":23828:23832   */\n      dup2\n        /* \"#utility.yul\":23702:23833   */\n      tag_429\n      jump\t// in\n    tag_680:\n        /* \"#utility.yul\":23694:23833   */\n      swap1\n      pop\n        /* \"#utility.yul\":23421:23840   */\n      swap2\n      swap1\n      pop\n      jump\t// out\n        /* \"#utility.yul\":23846:24026   */\n    tag_430:\n        /* \"#utility.yul\":23986:24018   */\n      0x4c6120646f6e6163696f6e206465626520736572206d61796f72206120300000\n        /* \"#utility.yul\":23982:23983   */\n      0x00\n        /* \"#utility.yul\":23974:23980   */\n      dup3\n        /* \"#utility.yul\":23970:23984   */\n      add\n        /* \"#utility.yul\":23963:24019   */\n      mstore\n        /* \"#utility.yul\":23846:24026   */\n      pop\n      jump\t// out\n        /* \"#utility.yul\":24032:24398   */\n    tag_431:\n        /* \"#utility.yul\":24174:24177   */\n      0x00\n        /* \"#utility.yul\":24195:24262   */\n      tag_683\n        /* \"#utility.yul\":24259:24261   */\n      0x1e\n        /* \"#utility.yul\":24254:24257   */\n      dup4\n        /* \"#utility.yul\":24195:24262   */\n      tag_384\n      jump\t// in\n    tag_683:\n        /* \"#utility.yul\":24188:24262   */\n      swap2\n      pop\n        /* \"#utility.yul\":24271:24364   */\n      tag_684\n        /* \"#utility.yul\":24360:24363   */\n      dup3\n        /* \"#utility.yul\":24271:24364   */\n      tag_430\n      jump\t// in\n    tag_684:\n        /* \"#utility.yul\":24389:24391   */\n      0x20\n        /* \"#utility.yul\":24384:24387   */\n      dup3\n        /* \"#utility.yul\":24380:24392   */\n      add\n        /* \"#utility.yul\":24373:24392   */\n      swap1\n      pop\n        /* \"#utility.yul\":24032:24398   */\n      swap2\n      swap1\n      pop\n      jump\t// out\n        /* \"#utility.yul\":24404:24823   */\n    tag_163:\n        /* \"#utility.yul\":24570:24574   */\n      0x00\n        /* \"#utility.yul\":24608:24610   */\n      0x20\n        /* \"#utility.yul\":24597:24606   */\n      dup3\n        /* \"#utility.yul\":24593:24611   */\n      add\n        /* \"#utility.yul\":24585:24611   */\n      swap1\n      pop\n        /* \"#utility.yul\":24657:24666   */\n      dup2\n        /* \"#utility.yul\":24651:24655   */\n      dup2\n        /* \"#utility.yul\":24647:24667   */\n      sub\n        /* \"#utility.yul\":24643:24644   */\n      0x00\n        /* \"#utility.yul\":24632:24641   */\n      dup4\n        /* \"#utility.yul\":24628:24645   */\n      add\n        /* \"#utility.yul\":24621:24668   */\n      mstore\n        /* \"#utility.yul\":24685:24816   */\n      tag_686\n        /* \"#utility.yul\":24811:24815   */\n      dup2\n        /* \"#utility.yul\":24685:24816   */\n      tag_431\n      jump\t// in\n    tag_686:\n        /* \"#utility.yul\":24677:24816   */\n      swap1\n      pop\n        /* \"#utility.yul\":24404:24823   */\n      swap2\n      swap1\n      pop\n      jump\t// out\n        /* \"#utility.yul\":24829:24997   */\n    tag_432:\n        /* \"#utility.yul\":24969:24989   */\n      0x50726f796563746f206e6f2061637469766f0000000000000000000000000000\n        /* \"#utility.yul\":24965:24966   */\n      0x00\n        /* \"#utility.yul\":24957:24963   */\n      dup3\n        /* \"#utility.yul\":24953:24967   */\n      add\n        /* \"#utility.yul\":24946:24990   */\n      mstore\n        /* \"#utility.yul\":24829:24997   */\n      pop\n      jump\t// out\n        /* \"#utility.yul\":25003:25369   */\n    tag_433:\n        /* \"#utility.yul\":25145:25148   */\n      0x00\n        /* \"#utility.yul\":25166:25233   */\n      tag_689\n        /* \"#utility.yul\":25230:25232   */\n      0x12\n        /* \"#utility.yul\":25225:25228   */\n      dup4\n        /* \"#utility.yul\":25166:25233   */\n      tag_384\n      jump\t// in\n    tag_689:\n        /* \"#utility.yul\":25159:25233   */\n      swap2\n      pop\n        /* \"#utility.yul\":25242:25335   */\n      tag_690\n        /* \"#utility.yul\":25331:25334   */\n      dup3\n        /* \"#utility.yul\":25242:25335   */\n      tag_432\n      jump\t// in\n    tag_690:\n        /* \"#utility.yul\":25360:25362   */\n      0x20\n        /* \"#utility.yul\":25355:25358   */\n      dup3\n        /* \"#utility.yul\":25351:25363   */\n      add\n        /* \"#utility.yul\":25344:25363   */\n      swap1\n      pop\n        /* \"#utility.yul\":25003:25369   */\n      swap2\n      swap1\n      pop\n      jump\t// out\n        /* \"#utility.yul\":25375:25794   */\n    tag_175:\n        /* \"#utility.yul\":25541:25545   */\n      0x00\n        /* \"#utility.yul\":25579:25581   */\n      0x20\n        /* \"#utility.yul\":25568:25577   */\n      dup3\n        /* \"#utility.yul\":25564:25582   */\n      add\n        /* \"#utility.yul\":25556:25582   */\n      swap1\n      pop\n        /* \"#utility.yul\":25628:25637   */\n      dup2\n        /* \"#utility.yul\":25622:25626   */\n      dup2\n        /* \"#utility.yul\":25618:25638   */\n      sub\n        /* \"#utility.yul\":25614:25615   */\n      0x00\n        /* \"#utility.yul\":25603:25612   */\n      dup4\n        /* \"#utility.yul\":25599:25616   */\n      add\n        /* \"#utility.yul\":25592:25639   */\n      mstore\n        /* \"#utility.yul\":25656:25787   */\n      tag_692\n        /* \"#utility.yul\":25782:25786   */\n      dup2\n        /* \"#utility.yul\":25656:25787   */\n      tag_433\n      jump\t// in\n    tag_692:\n        /* \"#utility.yul\":25648:25787   */\n      swap1\n      pop\n        /* \"#utility.yul\":25375:25794   */\n      swap2\n      swap1\n      pop\n      jump\t// out\n        /* \"#utility.yul\":25800:25941   */\n    tag_434:\n        /* \"#utility.yul\":25849:25853   */\n      0x00\n        /* \"#utility.yul\":25872:25875   */\n      dup2\n        /* \"#utility.yul\":25864:25875   */\n      swap1\n      pop\n        /* \"#utility.yul\":25895:25898   */\n      dup2\n        /* \"#utility.yul\":25892:25893   */\n      0x00\n        /* \"#utility.yul\":25885:25899   */\n      mstore\n        /* \"#utility.yul\":25929:25933   */\n      0x20\n        /* \"#utility.yul\":25926:25927   */\n      0x00\n        /* \"#utility.yul\":25916:25934   */\n      keccak256\n        /* \"#utility.yul\":25908:25934   */\n      swap1\n      pop\n        /* \"#utility.yul\":25800:25941   */\n      swap2\n      swap1\n      pop\n      jump\t// out\n        /* \"#utility.yul\":25947:26040   */\n    tag_435:\n        /* \"#utility.yul\":25984:25990   */\n      0x00\n        /* \"#utility.yul\":26031:26033   */\n      0x20\n        /* \"#utility.yul\":26026:26028   */\n      0x1f\n        /* \"#utility.yul\":26019:26024   */\n      dup4\n        /* \"#utility.yul\":26015:26029   */\n      add\n        /* \"#utility.yul\":26011:26034   */\n      div\n        /* \"#utility.yul\":26001:26034   */\n      swap1\n      pop\n        /* \"#utility.yul\":25947:26040   */\n      swap2\n      swap1\n      pop\n      jump\t// out\n        /* \"#utility.yul\":26046:26153   */\n    tag_436:\n        /* \"#utility.yul\":26090:26098   */\n      0x00\n        /* \"#utility.yul\":26140:26145   */\n      dup3\n        /* \"#utility.yul\":26134:26138   */\n      dup3\n        /* \"#utility.yul\":26130:26146   */\n      shl\n        /* \"#utility.yul\":26109:26146   */\n      swap1\n      pop\n        /* \"#utility.yul\":26046:26153   */\n      swap3\n      swap2\n      pop\n      pop\n      jump\t// out\n        /* \"#utility.yul\":26159:26552   */\n    tag_437:\n        /* \"#utility.yul\":26228:26234   */\n      0x00\n        /* \"#utility.yul\":26278:26279   */\n      0x08\n        /* \"#utility.yul\":26266:26276   */\n      dup4\n        /* \"#utility.yul\":26262:26280   */\n      mul\n        /* \"#utility.yul\":26301:26398   */\n      tag_697\n        /* \"#utility.yul\":26331:26397   */\n      0xffffffffffffffffffffffffffffffffffffffffffffffffffffffffffffffff\n        /* \"#utility.yul\":26320:26329   */\n      dup3\n        /* \"#utility.yul\":26301:26398   */\n      tag_436\n      jump\t// in\n    tag_697:\n        /* \"#utility.yul\":26419:26458   */\n      tag_698\n        /* \"#utility.yul\":26449:26457   */\n      dup7\n        /* \"#utility.yul\":26438:26447   */\n      dup4\n        /* \"#utility.yul\":26419:26458   */\n      tag_436\n      jump\t// in\n    tag_698:\n        /* \"#utility.yul\":26407:26458   */\n      swap6\n      pop\n        /* \"#utility.yul\":26491:26495   */\n      dup1\n        /* \"#utility.yul\":26487:26496   */\n      not\n        /* \"#utility.yul\":26480:26485   */\n      dup5\n        /* \"#utility.yul\":26476:26497   */\n      and\n        /* \"#utility.yul\":26467:26497   */\n      swap4\n      pop\n        /* \"#utility.yul\":26540:26544   */\n      dup1\n        /* \"#utility.yul\":26530:26538   */\n      dup7\n        /* \"#utility.yul\":26526:26545   */\n      and\n        /* \"#utility.yul\":26519:26524   */\n      dup5\n        /* \"#utility.yul\":26516:26546   */\n      or\n        /* \"#utility.yul\":26506:26546   */\n      swap3\n      pop\n        /* \"#utility.yul\":26235:26552   */\n      pop\n      pop\n        /* \"#utility.yul\":26159:26552   */\n      swap4\n      swap3\n      pop\n      pop\n      pop\n      jump\t// out\n        /* \"#utility.yul\":26558:26618   */\n    tag_438:\n        /* \"#utility.yul\":26586:26589   */\n      0x00\n        /* \"#utility.yul\":26607:26612   */\n      dup2\n        /* \"#utility.yul\":26600:26612   */\n      swap1\n      pop\n        /* \"#utility.yul\":26558:26618   */\n      swap2\n      swap1\n      pop\n      jump\t// out\n        /* \"#utility.yul\":26624:26766   */\n    tag_439:\n        /* \"#utility.yul\":26674:26683   */\n      0x00\n        /* \"#utility.yul\":26707:26760   */\n      tag_701\n        /* \"#utility.yul\":26725:26759   */\n      tag_702\n        /* \"#utility.yul\":26734:26758   */\n      tag_703\n        /* \"#utility.yul\":26752:26757   */\n      dup5\n        /* \"#utility.yul\":26734:26758   */\n      tag_380\n      jump\t// in\n    tag_703:\n        /* \"#utility.yul\":26725:26759   */\n      tag_438\n      jump\t// in\n    tag_702:\n        /* \"#utility.yul\":26707:26760   */\n      tag_380\n      jump\t// in\n    tag_701:\n        /* \"#utility.yul\":26694:26760   */\n      swap1\n      pop\n        /* \"#utility.yul\":26624:26766   */\n      swap2\n      swap1\n      pop\n      jump\t// out\n        /* \"#utility.yul\":26772:26847   */\n    tag_440:\n        /* \"#utility.yul\":26815:26818   */\n      0x00\n        /* \"#utility.yul\":26836:26841   */\n      dup2\n        /* \"#utility.yul\":26829:26841   */\n      swap1\n      pop\n        /* \"#utility.yul\":26772:26847   */\n      swap2\n      swap1\n      pop\n      jump\t// out\n        /* \"#utility.yul\":26853:27122   */\n    tag_441:\n        /* \"#utility.yul\":26963:27002   */\n      tag_706\n        /* \"#utility.yul\":26994:27001   */\n      dup4\n        /* \"#utility.yul\":26963:27002   */\n      tag_439\n      jump\t// in\n    tag_706:\n        /* \"#utility.yul\":27024:27115   */\n      tag_707\n        /* \"#utility.yul\":27073:27114   */\n      tag_708\n        /* \"#utility.yul\":27097:27113   */\n      dup3\n        /* \"#utility.yul\":27073:27114   */\n      tag_440\n      jump\t// in\n    tag_708:\n        /* \"#utility.yul\":27065:27071   */\n      dup5\n        /* \"#utility.yul\":27058:27062   */\n      dup5\n        /* \"#utility.yul\":27052:27063   */\n      sload\n        /* \"#utility.yul\":27024:27115   */\n      tag_437\n      jump\t// in\n    tag_707:\n        /* \"#utility.yul\":27018:27022   */\n      dup3\n        /* \"#utility.yul\":27011:27116   */\n      sstore\n        /* \"#utility.yul\":26929:27122   */\n      pop\n        /* \"#utility.yul\":26853:27122   */\n      pop\n      pop\n      pop\n      jump\t// out\n        /* \"#utility.yul\":27128:27201   */\n    tag_442:\n        /* \"#utility.yul\":27173:27176   */\n      0x00\n        /* \"#utility.yul\":27194:27195   */\n      0x00\n        /* \"#utility.yul\":27187:27195   */\n      swap1\n      pop\n        /* \"#utility.yul\":27128:27201   */\n      swap1\n      jump\t// out\n        /* \"#utility.yul\":27207:27396   */\n    tag_443:\n        /* \"#utility.yul\":27284:27316   */\n      tag_711\n      tag_442\n      jump\t// in\n    tag_711:\n        /* \"#utility.yul\":27325:27390   */\n      tag_712\n        /* \"#utility.yul\":27383:27389   */\n      dup2\n        /* \"#utility.yul\":27375:27381   */\n      dup5\n        /* \"#utility.yul\":27369:27373   */\n      dup5\n        /* \"#utility.yul\":27325:27390   */\n      tag_441\n      jump\t// in\n    tag_712:\n        /* \"#utility.yul\":27260:27396   */\n      pop\n        /* \"#utility.yul\":27207:27396   */\n      pop\n      pop\n      jump\t// out\n        /* \"#utility.yul\":27402:27588   */\n    tag_444:\n        /* \"#utility.yul\":27462:27582   */\n    tag_714:\n        /* \"#utility.yul\":27479:27482   */\n      dup2\n        /* \"#utility.yul\":27472:27477   */\n      dup2\n        /* \"#utility.yul\":27469:27483   */\n      lt\n        /* \"#utility.yul\":27462:27582   */\n      iszero\n      tag_716\n      jumpi\n        /* \"#utility.yul\":27533:27572   */\n      tag_717\n        /* \"#utility.yul\":27570:27571   */\n      0x00\n        /* \"#utility.yul\":27563:27568   */\n      dup3\n        /* \"#utility.yul\":27533:27572   */\n      tag_443\n      jump\t// in\n    tag_717:\n        /* \"#utility.yul\":27506:27507   */\n      0x01\n        /* \"#utility.yul\":27499:27504   */\n      dup2\n        /* \"#utility.yul\":27495:27508   */\n      add\n        /* \"#utility.yul\":27486:27508   */\n      swap1\n      pop\n        /* \"#utility.yul\":27462:27582   */\n      jump(tag_714)\n    tag_716:\n        /* \"#utility.yul\":27402:27588   */\n      pop\n      pop\n      jump\t// out\n        /* \"#utility.yul\":27594:28137   */\n    tag_445:\n        /* \"#utility.yul\":27695:27697   */\n      0x1f\n        /* \"#utility.yul\":27690:27693   */\n      dup3\n        /* \"#utility.yul\":27687:27698   */\n      gt\n        /* \"#utility.yul\":27684:28130   */\n      iszero\n      tag_719\n      jumpi\n        /* \"#utility.yul\":27729:27767   */\n      tag_720\n        /* \"#utility.yul\":27761:27766   */\n      dup2\n        /* \"#utility.yul\":27729:27767   */\n      tag_434\n      jump\t// in\n    tag_720:\n        /* \"#utility.yul\":27813:27842   */\n      tag_721\n        /* \"#utility.yul\":27831:27841   */\n      dup5\n        /* \"#utility.yul\":27813:27842   */\n      tag_435\n      jump\t// in\n    tag_721:\n        /* \"#utility.yul\":27803:27811   */\n      dup2\n        /* \"#utility.yul\":27799:27843   */\n      add\n        /* \"#utility.yul\":27996:27998   */\n      0x20\n        /* \"#utility.yul\":27984:27994   */\n      dup6\n        /* \"#utility.yul\":27981:27999   */\n      lt\n        /* \"#utility.yul\":27978:28027   */\n      iszero\n      tag_722\n      jumpi\n        /* \"#utility.yul\":28017:28025   */\n      dup2\n        /* \"#utility.yul\":28002:28025   */\n      swap1\n      pop\n        /* \"#utility.yul\":27978:28027   */\n    tag_722:\n        /* \"#utility.yul\":28040:28120   */\n      tag_723\n        /* \"#utility.yul\":28096:28118   */\n      tag_724\n        /* \"#utility.yul\":28114:28117   */\n      dup6\n        /* \"#utility.yul\":28096:28118   */\n      tag_435\n      jump\t// in\n    tag_724:\n        /* \"#utility.yul\":28086:28094   */\n      dup4\n        /* \"#utility.yul\":28082:28119   */\n      add\n        /* \"#utility.yul\":28069:28080   */\n      dup3\n        /* \"#utility.yul\":28040:28120   */\n      tag_444\n      jump\t// in\n    tag_723:\n        /* \"#utility.yul\":27699:28130   */\n      pop\n      pop\n        /* \"#utility.yul\":27684:28130   */\n    tag_719:\n        /* \"#utility.yul\":27594:28137   */\n      pop\n      pop\n      pop\n      jump\t// out\n        /* \"#utility.yul\":28143:28260   */\n    tag_446:\n        /* \"#utility.yul\":28197:28205   */\n      0x00\n        /* \"#utility.yul\":28247:28252   */\n      dup3\n        /* \"#utility.yul\":28241:28245   */\n      dup3\n        /* \"#utility.yul\":28237:28253   */\n      shr\n        /* \"#utility.yul\":28216:28253   */\n      swap1\n      pop\n        /* \"#utility.yul\":28143:28260   */\n      swap3\n      swap2\n      pop\n      pop\n      jump\t// out\n        /* \"#utility.yul\":28266:28435   */\n    tag_447:\n        /* \"#utility.yul\":28310:28316   */\n      0x00\n        /* \"#utility.yul\":28343:28394   */\n      tag_727\n        /* \"#utility.yul\":28391:28392   */\n      0x00\n        /* \"#utility.yul\":28387:28393   */\n      not\n        /* \"#utility.yul\":28379:28384   */\n      dup5\n        /* \"#utility.yul\":28376:28377   */\n      0x08\n        /* \"#utility.yul\":28372:28385   */\n      mul\n        /* \"#utility.yul\":28343:28394   */\n      tag_446\n      jump\t// in\n    tag_727:\n        /* \"#utility.yul\":28339:28395   */\n      not\n        /* \"#utility.yul\":28424:28428   */\n      dup1\n        /* \"#utility.yul\":28418:28422   */\n      dup4\n        /* \"#utility.yul\":28414:28429   */\n      and\n        /* \"#utility.yul\":28404:28429   */\n      swap2\n      pop\n        /* \"#utility.yul\":28317:28435   */\n      pop\n        /* \"#utility.yul\":28266:28435   */\n      swap3\n      swap2\n      pop\n      pop\n      jump\t// out\n        /* \"#utility.yul\":28440:28735   */\n    tag_448:\n        /* \"#utility.yul\":28516:28520   */\n      0x00\n        /* \"#utility.yul\":28662:28691   */\n      tag_729\n        /* \"#utility.yul\":28687:28690   */\n      dup4\n        /* \"#utility.yul\":28681:28685   */\n      dup4\n        /* \"#utility.yul\":28662:28691   */\n      tag_447\n      jump\t// in\n    tag_729:\n        /* \"#utility.yul\":28654:28691   */\n      swap2\n      pop\n        /* \"#utility.yul\":28724:28727   */\n      dup3\n        /* \"#utility.yul\":28721:28722   */\n      0x02\n        /* \"#utility.yul\":28717:28728   */\n      mul\n        /* \"#utility.yul\":28711:28715   */\n      dup3\n        /* \"#utility.yul\":28708:28729   */\n      or\n        /* \"#utility.yul\":28700:28729   */\n      swap1\n      pop\n        /* \"#utility.yul\":28440:28735   */\n      swap3\n      swap2\n      pop\n      pop\n      jump\t// out\n        /* \"#utility.yul\":28740:30135   */\n    tag_180:\n        /* \"#utility.yul\":28857:28894   */\n      tag_731\n        /* \"#utility.yul\":28890:28893   */\n      dup3\n        /* \"#utility.yul\":28857:28894   */\n      tag_383\n      jump\t// in\n    tag_731:\n        /* \"#utility.yul\":28959:28977   */\n      0xffffffffffffffff\n        /* \"#utility.yul\":28951:28957   */\n      dup2\n        /* \"#utility.yul\":28948:28978   */\n      gt\n        /* \"#utility.yul\":28945:29001   */\n      iszero\n      tag_732\n      jumpi\n        /* \"#utility.yul\":28981:28999   */\n      tag_733\n      tag_360\n      jump\t// in\n    tag_733:\n        /* \"#utility.yul\":28945:29001   */\n    tag_732:\n        /* \"#utility.yul\":29025:29063   */\n      tag_734\n        /* \"#utility.yul\":29057:29061   */\n      dup3\n        /* \"#utility.yul\":29051:29062   */\n      sload\n        /* \"#utility.yul\":29025:29063   */\n      tag_136\n      jump\t// in\n    tag_734:\n        /* \"#utility.yul\":29110:29177   */\n      tag_735\n        /* \"#utility.yul\":29170:29176   */\n      dup3\n        /* \"#utility.yul\":29162:29168   */\n      dup3\n        /* \"#utility.yul\":29156:29160   */\n      dup6\n        /* \"#utility.yul\":29110:29177   */\n      tag_445\n      jump\t// in\n    tag_735:\n        /* \"#utility.yul\":29204:29205   */\n      0x00\n        /* \"#utility.yul\":29228:29232   */\n      0x20\n        /* \"#utility.yul\":29215:29232   */\n      swap1\n      pop\n        /* \"#utility.yul\":29260:29262   */\n      0x1f\n        /* \"#utility.yul\":29252:29258   */\n      dup4\n        /* \"#utility.yul\":29249:29263   */\n      gt\n        /* \"#utility.yul\":29277:29278   */\n      0x01\n        /* \"#utility.yul\":29272:29890   */\n      dup2\n      eq\n      tag_737\n      jumpi\n        /* \"#utility.yul\":29934:29935   */\n      0x00\n        /* \"#utility.yul\":29951:29957   */\n      dup5\n        /* \"#utility.yul\":29948:30025   */\n      iszero\n      tag_738\n      jumpi\n        /* \"#utility.yul\":30000:30009   */\n      dup3\n        /* \"#utility.yul\":29995:29998   */\n      dup8\n        /* \"#utility.yul\":29991:30010   */\n      add\n        /* \"#utility.yul\":29985:30011   */\n      mload\n        /* \"#utility.yul\":29976:30011   */\n      swap1\n      pop\n        /* \"#utility.yul\":29948:30025   */\n    tag_738:\n        /* \"#utility.yul\":30051:30118   */\n      tag_739\n        /* \"#utility.yul\":30111:30117   */\n      dup6\n        /* \"#utility.yul\":30104:30109   */\n      dup3\n        /* \"#utility.yul\":30051:30118   */\n      tag_448\n      jump\t// in\n    tag_739:\n        /* \"#utility.yul\":30045:30049   */\n      dup7\n        /* \"#utility.yul\":30038:30119   */\n      sstore\n        /* \"#utility.yul\":29907:30129   */\n      pop\n        /* \"#utility.yul\":29242:30129   */\n      jump(tag_736)\n        /* \"#utility.yul\":29272:29890   */\n    tag_737:\n        /* \"#utility.yul\":29324:29328   */\n      0x1f\n        /* \"#utility.yul\":29320:29329   */\n      not\n        /* \"#utility.yul\":29312:29318   */\n      dup5\n        /* \"#utility.yul\":29308:29330   */\n      and\n        /* \"#utility.yul\":29358:29395   */\n      tag_740\n        /* \"#utility.yul\":29390:29394   */\n      dup7\n        /* \"#utility.yul\":29358:29395   */\n      tag_434\n      jump\t// in\n    tag_740:\n        /* \"#utility.yul\":29417:29418   */\n      0x00\n        /* \"#utility.yul\":29431:29639   */\n    tag_741:\n        /* \"#utility.yul\":29445:29452   */\n      dup3\n        /* \"#utility.yul\":29442:29443   */\n      dup2\n        /* \"#utility.yul\":29439:29453   */\n      lt\n        /* \"#utility.yul\":29431:29639   */\n      iszero\n      tag_743\n      jumpi\n        /* \"#utility.yul\":29524:29533   */\n      dup5\n        /* \"#utility.yul\":29519:29522   */\n      dup10\n        /* \"#utility.yul\":29515:29534   */\n      add\n        /* \"#utility.yul\":29509:29535   */\n      mload\n        /* \"#utility.yul\":29501:29507   */\n      dup3\n        /* \"#utility.yul\":29494:29536   */\n      sstore\n        /* \"#utility.yul\":29575:29576   */\n      0x01\n        /* \"#utility.yul\":29567:29573   */\n      dup3\n        /* \"#utility.yul\":29563:29577   */\n      add\n        /* \"#utility.yul\":29553:29577   */\n      swap2\n      pop\n        /* \"#utility.yul\":29622:29624   */\n      0x20\n        /* \"#utility.yul\":29611:29620   */\n      dup6\n        /* \"#utility.yul\":29607:29625   */\n      add\n        /* \"#utility.yul\":29594:29625   */\n      swap5\n      pop\n        /* \"#utility.yul\":29468:29472   */\n      0x20\n        /* \"#utility.yul\":29465:29466   */\n      dup2\n        /* \"#utility.yul\":29461:29473   */\n      add\n        /* \"#utility.yul\":29456:29473   */\n      swap1\n      pop\n        /* \"#utility.yul\":29431:29639   */\n      jump(tag_741)\n    tag_743:\n        /* \"#utility.yul\":29667:29673   */\n      dup7\n        /* \"#utility.yul\":29658:29665   */\n      dup4\n        /* \"#utility.yul\":29655:29674   */\n      lt\n        /* \"#utility.yul\":29652:29831   */\n      iszero\n      tag_744\n      jumpi\n        /* \"#utility.yul\":29725:29734   */\n      dup5\n        /* \"#utility.yul\":29720:29723   */\n      dup10\n        /* \"#utility.yul\":29716:29735   */\n      add\n        /* \"#utility.yul\":29710:29736   */\n      mload\n        /* \"#utility.yul\":29768:29816   */\n      tag_745\n        /* \"#utility.yul\":29810:29814   */\n      0x1f\n        /* \"#utility.yul\":29802:29808   */\n      dup10\n        /* \"#utility.yul\":29798:29815   */\n      and\n        /* \"#utility.yul\":29787:29796   */\n      dup3\n        /* \"#utility.yul\":29768:29816   */\n      tag_447\n      jump\t// in\n    tag_745:\n        /* \"#utility.yul\":29760:29766   */\n      dup4\n        /* \"#utility.yul\":29753:29817   */\n      sstore\n        /* \"#utility.yul\":29675:29831   */\n      pop\n        /* \"#utility.yul\":29652:29831   */\n    tag_744:\n        /* \"#utility.yul\":29877:29878   */\n      0x01\n        /* \"#utility.yul\":29873:29874   */\n      0x02\n        /* \"#utility.yul\":29865:29871   */\n      dup9\n        /* \"#utility.yul\":29861:29875   */\n      mul\n        /* \"#utility.yul\":29857:29879   */\n      add\n        /* \"#utility.yul\":29851:29855   */\n      dup9\n        /* \"#utility.yul\":29844:29880   */\n      sstore\n        /* \"#utility.yul\":29279:29890   */\n      pop\n      pop\n      pop\n        /* \"#utility.yul\":29242:30129   */\n    tag_736:\n      pop\n        /* \"#utility.yul\":28832:30135   */\n      pop\n      pop\n      pop\n        /* \"#utility.yul\":28740:30135   */\n      pop\n      pop\n      jump\t// out\n        /* \"#utility.yul\":30141:30321   */\n    tag_449:\n        /* \"#utility.yul\":30189:30266   */\n      0x4e487b7100000000000000000000000000000000000000000000000000000000\n        /* \"#utility.yul\":30186:30187   */\n      0x00\n        /* \"#utility.yul\":30179:30267   */\n      mstore\n        /* \"#utility.yul\":30286:30290   */\n      0x11\n        /* \"#utility.yul\":30283:30284   */\n      0x04\n        /* \"#utility.yul\":30276:30291   */\n      mstore\n        /* \"#utility.yul\":30310:30314   */\n      0x24\n        /* \"#utility.yul\":30307:30308   */\n      0x00\n        /* \"#utility.yul\":30300:30315   */\n      revert\n        /* \"#utility.yul\":30327:30560   */\n    tag_185:\n        /* \"#utility.yul\":30366:30369   */\n      0x00\n        /* \"#utility.yul\":30389:30413   */\n      tag_748\n        /* \"#utility.yul\":30407:30412   */\n      dup3\n        /* \"#utility.yul\":30389:30413   */\n      tag_380\n      jump\t// in\n    tag_748:\n        /* \"#utility.yul\":30380:30413   */\n      swap2\n      pop\n        /* \"#utility.yul\":30435:30501   */\n      0xffffffffffffffffffffffffffffffffffffffffffffffffffffffffffffffff\n        /* \"#utility.yul\":30428:30433   */\n      dup3\n        /* \"#utility.yul\":30425:30502   */\n      sub\n        /* \"#utility.yul\":30422:30525   */\n      tag_749\n      jumpi\n        /* \"#utility.yul\":30505:30523   */\n      tag_750\n      tag_449\n      jump\t// in\n    tag_750:\n        /* \"#utility.yul\":30422:30525   */\n    tag_749:\n        /* \"#utility.yul\":30552:30553   */\n      0x01\n        /* \"#utility.yul\":30545:30550   */\n      dup3\n        /* \"#utility.yul\":30541:30554   */\n      add\n        /* \"#utility.yul\":30534:30554   */\n      swap1\n      pop\n        /* \"#utility.yul\":30327:30560   */\n      swap2\n      swap1\n      pop\n      jump\t// out\n        /* \"#utility.yul\":30566:30719   */\n    tag_450:\n        /* \"#utility.yul\":30706:30711   */\n      0x444f4e0000000000000000000000000000000000000000000000000000000000\n        /* \"#utility.yul\":30702:30703   */\n      0x00\n        /* \"#utility.yul\":30694:30700   */\n      dup3\n        /* \"#utility.yul\":30690:30704   */\n      add\n        /* \"#utility.yul\":30683:30712   */\n      mstore\n        /* \"#utility.yul\":30566:30719   */\n      pop\n      jump\t// out\n        /* \"#utility.yul\":30725:31125   */\n    tag_451:\n        /* \"#utility.yul\":30885:30888   */\n      0x00\n        /* \"#utility.yul\":30906:30990   */\n      tag_753\n        /* \"#utility.yul\":30988:30989   */\n      0x03\n        /* \"#utility.yul\":30983:30986   */\n      dup4\n        /* \"#utility.yul\":30906:30990   */\n      tag_426\n      jump\t// in\n    tag_753:\n        /* \"#utility.yul\":30899:30990   */\n      swap2\n      pop\n        /* \"#utility.yul\":30999:31092   */\n      tag_754\n        /* \"#utility.yul\":31088:31091   */\n      dup3\n        /* \"#utility.yul\":30999:31092   */\n      tag_450\n      jump\t// in\n    tag_754:\n        /* \"#utility.yul\":31117:31118   */\n      0x03\n        /* \"#utility.yul\":31112:31115   */\n      dup3\n        /* \"#utility.yul\":31108:31119   */\n      add\n        /* \"#utility.yul\":31101:31119   */\n      swap1\n      pop\n        /* \"#utility.yul\":30725:31125   */\n      swap2\n      swap1\n      pop\n      jump\t// out\n        /* \"#utility.yul\":31131:31672   */\n    tag_189:\n        /* \"#utility.yul\":31364:31367   */\n      0x00\n        /* \"#utility.yul\":31386:31534   */\n      tag_756\n        /* \"#utility.yul\":31530:31533   */\n      dup3\n        /* \"#utility.yul\":31386:31534   */\n      tag_451\n      jump\t// in\n    tag_756:\n        /* \"#utility.yul\":31379:31534   */\n      swap2\n      pop\n        /* \"#utility.yul\":31551:31646   */\n      tag_757\n        /* \"#utility.yul\":31642:31645   */\n      dup3\n        /* \"#utility.yul\":31633:31639   */\n      dup5\n        /* \"#utility.yul\":31551:31646   */\n      tag_427\n      jump\t// in\n    tag_757:\n        /* \"#utility.yul\":31544:31646   */\n      swap2\n      pop\n        /* \"#utility.yul\":31663:31666   */\n      dup2\n        /* \"#utility.yul\":31656:31666   */\n      swap1\n      pop\n        /* \"#utility.yul\":31131:31672   */\n      swap3\n      swap2\n      pop\n      pop\n      jump\t// out\n        /* \"#utility.yul\":31678:31869   */\n    tag_196:\n        /* \"#utility.yul\":31718:31721   */\n      0x00\n        /* \"#utility.yul\":31737:31757   */\n      tag_759\n        /* \"#utility.yul\":31755:31756   */\n      dup3\n        /* \"#utility.yul\":31737:31757   */\n      tag_380\n      jump\t// in\n    tag_759:\n        /* \"#utility.yul\":31732:31757   */\n      swap2\n      pop\n        /* \"#utility.yul\":31771:31791   */\n      tag_760\n        /* \"#utility.yul\":31789:31790   */\n      dup4\n        /* \"#utility.yul\":31771:31791   */\n      tag_380\n      jump\t// in\n    tag_760:\n        /* \"#utility.yul\":31766:31791   */\n      swap3\n      pop\n        /* \"#utility.yul\":31814:31815   */\n      dup3\n        /* \"#utility.yul\":31811:31812   */\n      dup3\n        /* \"#utility.yul\":31807:31816   */\n      add\n        /* \"#utility.yul\":31800:31816   */\n      swap1\n      pop\n        /* \"#utility.yul\":31835:31838   */\n      dup1\n        /* \"#utility.yul\":31832:31833   */\n      dup3\n        /* \"#utility.yul\":31829:31839   */\n      gt\n        /* \"#utility.yul\":31826:31862   */\n      iszero\n      tag_761\n      jumpi\n        /* \"#utility.yul\":31842:31860   */\n      tag_762\n      tag_449\n      jump\t// in\n    tag_762:\n        /* \"#utility.yul\":31826:31862   */\n    tag_761:\n        /* \"#utility.yul\":31678:31869   */\n      swap3\n      swap2\n      pop\n      pop\n      jump\t// out\n        /* \"#utility.yul\":31875:32055   */\n    tag_452:\n        /* \"#utility.yul\":31923:32000   */\n      0x4e487b7100000000000000000000000000000000000000000000000000000000\n        /* \"#utility.yul\":31920:31921   */\n      0x00\n        /* \"#utility.yul\":31913:32001   */\n      mstore\n        /* \"#utility.yul\":32020:32024   */\n      0x12\n        /* \"#utility.yul\":32017:32018   */\n      0x04\n        /* \"#utility.yul\":32010:32025   */\n      mstore\n        /* \"#utility.yul\":32044:32048   */\n      0x24\n        /* \"#utility.yul\":32041:32042   */\n      0x00\n        /* \"#utility.yul\":32034:32049   */\n      revert\n        /* \"#utility.yul\":32061:32246   */\n    tag_198:\n        /* \"#utility.yul\":32101:32102   */\n      0x00\n        /* \"#utility.yul\":32118:32138   */\n      tag_765\n        /* \"#utility.yul\":32136:32137   */\n      dup3\n        /* \"#utility.yul\":32118:32138   */\n      tag_380\n      jump\t// in\n    tag_765:\n        /* \"#utility.yul\":32113:32138   */\n      swap2\n      pop\n        /* \"#utility.yul\":32152:32172   */\n      tag_766\n        /* \"#utility.yul\":32170:32171   */\n      dup4\n        /* \"#utility.yul\":32152:32172   */\n      tag_380\n      jump\t// in\n    tag_766:\n        /* \"#utility.yul\":32147:32172   */\n      swap3\n      pop\n        /* \"#utility.yul\":32191:32192   */\n      dup3\n        /* \"#utility.yul\":32181:32216   */\n      tag_767\n      jumpi\n        /* \"#utility.yul\":32196:32214   */\n      tag_768\n      tag_452\n      jump\t// in\n    tag_768:\n        /* \"#utility.yul\":32181:32216   */\n    tag_767:\n        /* \"#utility.yul\":32238:32239   */\n      dup3\n        /* \"#utility.yul\":32235:32236   */\n      dup3\n        /* \"#utility.yul\":32231:32240   */\n      div\n        /* \"#utility.yul\":32226:32240   */\n      swap1\n      pop\n        /* \"#utility.yul\":32061:32246   */\n      swap3\n      swap2\n      pop\n      pop\n      jump\t// out\n        /* \"#utility.yul\":32252:32675   */\n    tag_203:\n        /* \"#utility.yul\":32393:32397   */\n      0x00\n        /* \"#utility.yul\":32431:32433   */\n      0x40\n        /* \"#utility.yul\":32420:32429   */\n      dup3\n        /* \"#utility.yul\":32416:32434   */\n      add\n        /* \"#utility.yul\":32408:32434   */\n      swap1\n      pop\n        /* \"#utility.yul\":32480:32489   */\n      dup2\n        /* \"#utility.yul\":32474:32478   */\n      dup2\n        /* \"#utility.yul\":32470:32490   */\n      sub\n        /* \"#utility.yul\":32466:32467   */\n      0x00\n        /* \"#utility.yul\":32455:32464   */\n      dup4\n        /* \"#utility.yul\":32451:32468   */\n      add\n        /* \"#utility.yul\":32444:32491   */\n      mstore\n        /* \"#utility.yul\":32508:32586   */\n      tag_770\n        /* \"#utility.yul\":32581:32585   */\n      dup2\n        /* \"#utility.yul\":32572:32578   */\n      dup6\n        /* \"#utility.yul\":32508:32586   */\n      tag_387\n      jump\t// in\n    tag_770:\n        /* \"#utility.yul\":32500:32586   */\n      swap1\n      pop\n        /* \"#utility.yul\":32596:32668   */\n      tag_771\n        /* \"#utility.yul\":32664:32666   */\n      0x20\n        /* \"#utility.yul\":32653:32662   */\n      dup4\n        /* \"#utility.yul\":32649:32667   */\n      add\n        /* \"#utility.yul\":32640:32646   */\n      dup5\n        /* \"#utility.yul\":32596:32668   */\n      tag_388\n      jump\t// in\n    tag_771:\n        /* \"#utility.yul\":32252:32675   */\n      swap4\n      swap3\n      pop\n      pop\n      pop\n      jump\t// out\n        /* \"#utility.yul\":32681:32856   */\n    tag_453:\n        /* \"#utility.yul\":32821:32848   */\n      0x43616e7469646164206578636564652072656361756461646f00000000000000\n        /* \"#utility.yul\":32817:32818   */\n      0x00\n        /* \"#utility.yul\":32809:32815   */\n      dup3\n        /* \"#utility.yul\":32805:32819   */\n      add\n        /* \"#utility.yul\":32798:32849   */\n      mstore\n        /* \"#utility.yul\":32681:32856   */\n      pop\n      jump\t// out\n        /* \"#utility.yul\":32862:33228   */\n    tag_454:\n        /* \"#utility.yul\":33004:33007   */\n      0x00\n        /* \"#utility.yul\":33025:33092   */\n      tag_774\n        /* \"#utility.yul\":33089:33091   */\n      0x19\n        /* \"#utility.yul\":33084:33087   */\n      dup4\n        /* \"#utility.yul\":33025:33092   */\n      tag_384\n      jump\t// in\n    tag_774:\n        /* \"#utility.yul\":33018:33092   */\n      swap2\n      pop\n        /* \"#utility.yul\":33101:33194   */\n      tag_775\n        /* \"#utility.yul\":33190:33193   */\n      dup3\n        /* \"#utility.yul\":33101:33194   */\n      tag_453\n      jump\t// in\n    tag_775:\n        /* \"#utility.yul\":33219:33221   */\n      0x20\n        /* \"#utility.yul\":33214:33217   */\n      dup3\n        /* \"#utility.yul\":33210:33222   */\n      add\n        /* \"#utility.yul\":33203:33222   */\n      swap1\n      pop\n        /* \"#utility.yul\":32862:33228   */\n      swap2\n      swap1\n      pop\n      jump\t// out\n        /* \"#utility.yul\":33234:33653   */\n    tag_299:\n        /* \"#utility.yul\":33400:33404   */\n      0x00\n        /* \"#utility.yul\":33438:33440   */\n      0x20\n        /* \"#utility.yul\":33427:33436   */\n      dup3\n        /* \"#utility.yul\":33423:33441   */\n      add\n        /* \"#utility.yul\":33415:33441   */\n      swap1\n      pop\n        /* \"#utility.yul\":33487:33496   */\n      dup2\n        /* \"#utility.yul\":33481:33485   */\n      dup2\n        /* \"#utility.yul\":33477:33497   */\n      sub\n        /* \"#utility.yul\":33473:33474   */\n      0x00\n        /* \"#utility.yul\":33462:33471   */\n      dup4\n        /* \"#utility.yul\":33458:33475   */\n      add\n        /* \"#utility.yul\":33451:33498   */\n      mstore\n        /* \"#utility.yul\":33515:33646   */\n      tag_777\n        /* \"#utility.yul\":33641:33645   */\n      dup2\n        /* \"#utility.yul\":33515:33646   */\n      tag_454\n      jump\t// in\n    tag_777:\n        /* \"#utility.yul\":33507:33646   */\n      swap1\n      pop\n        /* \"#utility.yul\":33234:33653   */\n      swap2\n      swap1\n      pop\n      jump\t// out\n        /* \"#utility.yul\":33659:33830   */\n    tag_455:\n        /* \"#utility.yul\":33799:33822   */\n      0x446f6e616e7465207961207265676973747261646f0000000000000000000000\n        /* \"#utility.yul\":33795:33796   */\n      0x00\n        /* \"#utility.yul\":33787:33793   */\n      dup3\n        /* \"#utility.yul\":33783:33797   */\n      add\n        /* \"#utility.yul\":33776:33823   */\n      mstore\n        /* \"#utility.yul\":33659:33830   */\n      pop\n      jump\t// out\n        /* \"#utility.yul\":33836:34202   */\n    tag_456:\n        /* \"#utility.yul\":33978:33981   */\n      0x00\n        /* \"#utility.yul\":33999:34066   */\n      tag_780\n        /* \"#utility.yul\":34063:34065   */\n      0x15\n        /* \"#utility.yul\":34058:34061   */\n      dup4\n        /* \"#utility.yul\":33999:34066   */\n      tag_384\n      jump\t// in\n    tag_780:\n        /* \"#utility.yul\":33992:34066   */\n      swap2\n      pop\n        /* \"#utility.yul\":34075:34168   */\n      tag_781\n        /* \"#utility.yul\":34164:34167   */\n      dup3\n        /* \"#utility.yul\":34075:34168   */\n      tag_455\n      jump\t// in\n    tag_781:\n        /* \"#utility.yul\":34193:34195   */\n      0x20\n        /* \"#utility.yul\":34188:34191   */\n      dup3\n        /* \"#utility.yul\":34184:34196   */\n      add\n        /* \"#utility.yul\":34177:34196   */\n      swap1\n      pop\n        /* \"#utility.yul\":33836:34202   */\n      swap2\n      swap1\n      pop\n      jump\t// out\n        /* \"#utility.yul\":34208:34627   */\n    tag_305:\n        /* \"#utility.yul\":34374:34378   */\n      0x00\n        /* \"#utility.yul\":34412:34414   */\n      0x20\n        /* \"#utility.yul\":34401:34410   */\n      dup3\n        /* \"#utility.yul\":34397:34415   */\n      add\n        /* \"#utility.yul\":34389:34415   */\n      swap1\n      pop\n        /* \"#utility.yul\":34461:34470   */\n      dup2\n        /* \"#utility.yul\":34455:34459   */\n      dup2\n        /* \"#utility.yul\":34451:34471   */\n      sub\n        /* \"#utility.yul\":34447:34448   */\n      0x00\n        /* \"#utility.yul\":34436:34445   */\n      dup4\n        /* \"#utility.yul\":34432:34449   */\n      add\n        /* \"#utility.yul\":34425:34472   */\n      mstore\n        /* \"#utility.yul\":34489:34620   */\n      tag_783\n        /* \"#utility.yul\":34615:34619   */\n      dup2\n        /* \"#utility.yul\":34489:34620   */\n      tag_456\n      jump\t// in\n    tag_783:\n        /* \"#utility.yul\":34481:34620   */\n      swap1\n      pop\n        /* \"#utility.yul\":34208:34627   */\n      swap2\n      swap1\n      pop\n      jump\t// out\n        /* \"#utility.yul\":34633:34801   */\n    tag_457:\n        /* \"#utility.yul\":34773:34793   */\n      0x50726f796563746f207961206578697374650000000000000000000000000000\n        /* \"#utility.yul\":34769:34770   */\n      0x00\n        /* \"#utility.yul\":34761:34767   */\n      dup3\n        /* \"#utility.yul\":34757:34771   */\n      add\n        /* \"#utility.yul\":34750:34794   */\n      mstore\n        /* \"#utility.yul\":34633:34801   */\n      pop\n      jump\t// out\n        /* \"#utility.yul\":34807:35173   */\n    tag_458:\n        /* \"#utility.yul\":34949:34952   */\n      0x00\n        /* \"#utility.yul\":34970:35037   */\n      tag_786\n        /* \"#utility.yul\":35034:35036   */\n      0x12\n        /* \"#utility.yul\":35029:35032   */\n      dup4\n        /* \"#utility.yul\":34970:35037   */\n      tag_384\n      jump\t// in\n    tag_786:\n        /* \"#utility.yul\":34963:35037   */\n      swap2\n      pop\n        /* \"#utility.yul\":35046:35139   */\n      tag_787\n        /* \"#utility.yul\":35135:35138   */\n      dup3\n        /* \"#utility.yul\":35046:35139   */\n      tag_457\n      jump\t// in\n    tag_787:\n        /* \"#utility.yul\":35164:35166   */\n      0x20\n        /* \"#utility.yul\":35159:35162   */\n      dup3\n        /* \"#utility.yul\":35155:35167   */\n      add\n        /* \"#utility.yul\":35148:35167   */\n      swap1\n      pop\n        /* \"#utility.yul\":34807:35173   */\n      swap2\n      swap1\n      pop\n      jump\t// out\n        /* \"#utility.yul\":35179:35598   */\n    tag_321:\n        /* \"#utility.yul\":35345:35349   */\n      0x00\n        /* \"#utility.yul\":35383:35385   */\n      0x20\n        /* \"#utility.yul\":35372:35381   */\n      dup3\n        /* \"#utility.yul\":35368:35386   */\n      add\n        /* \"#utility.yul\":35360:35386   */\n      swap1\n      pop\n        /* \"#utility.yul\":35432:35441   */\n      dup2\n        /* \"#utility.yul\":35426:35430   */\n      dup2\n        /* \"#utility.yul\":35422:35442   */\n      sub\n        /* \"#utility.yul\":35418:35419   */\n      0x00\n        /* \"#utility.yul\":35407:35416   */\n      dup4\n        /* \"#utility.yul\":35403:35420   */\n      add\n        /* \"#utility.yul\":35396:35443   */\n      mstore\n        /* \"#utility.yul\":35460:35591   */\n      tag_789\n        /* \"#utility.yul\":35586:35590   */\n      dup2\n        /* \"#utility.yul\":35460:35591   */\n      tag_458\n      jump\t// in\n    tag_789:\n        /* \"#utility.yul\":35452:35591   */\n      swap1\n      pop\n        /* \"#utility.yul\":35179:35598   */\n      swap2\n      swap1\n      pop\n      jump\t// out\n        /* \"#utility.yul\":35604:36118   */\n    tag_332:\n        /* \"#utility.yul\":35765:35769   */\n      0x00\n        /* \"#utility.yul\":35803:35805   */\n      0x40\n        /* \"#utility.yul\":35792:35801   */\n      dup3\n        /* \"#utility.yul\":35788:35806   */\n      add\n        /* \"#utility.yul\":35780:35806   */\n      swap1\n      pop\n        /* \"#utility.yul\":35852:35861   */\n      dup2\n        /* \"#utility.yul\":35846:35850   */\n      dup2\n        /* \"#utility.yul\":35842:35862   */\n      sub\n        /* \"#utility.yul\":35838:35839   */\n      0x00\n        /* \"#utility.yul\":35827:35836   */\n      dup4\n        /* \"#utility.yul\":35823:35840   */\n      add\n        /* \"#utility.yul\":35816:35863   */\n      mstore\n        /* \"#utility.yul\":35880:35958   */\n      tag_791\n        /* \"#utility.yul\":35953:35957   */\n      dup2\n        /* \"#utility.yul\":35944:35950   */\n      dup6\n        /* \"#utility.yul\":35880:35958   */\n      tag_387\n      jump\t// in\n    tag_791:\n        /* \"#utility.yul\":35872:35958   */\n      swap1\n      pop\n        /* \"#utility.yul\":36005:36014   */\n      dup2\n        /* \"#utility.yul\":35999:36003   */\n      dup2\n        /* \"#utility.yul\":35995:36015   */\n      sub\n        /* \"#utility.yul\":35990:35992   */\n      0x20\n        /* \"#utility.yul\":35979:35988   */\n      dup4\n        /* \"#utility.yul\":35975:35993   */\n      add\n        /* \"#utility.yul\":35968:36016   */\n      mstore\n        /* \"#utility.yul\":36033:36111   */\n      tag_792\n        /* \"#utility.yul\":36106:36110   */\n      dup2\n        /* \"#utility.yul\":36097:36103   */\n      dup5\n        /* \"#utility.yul\":36033:36111   */\n      tag_387\n      jump\t// in\n    tag_792:\n        /* \"#utility.yul\":36025:36111   */\n      swap1\n      pop\n        /* \"#utility.yul\":35604:36118   */\n      swap4\n      swap3\n      pop\n      pop\n      pop\n      jump\t// out\n        /* \"#utility.yul\":36124:36287   */\n    tag_459:\n        /* \"#utility.yul\":36264:36279   */\n      0x4e6f207265676973747261646f00000000000000000000000000000000000000\n        /* \"#utility.yul\":36260:36261   */\n      0x00\n        /* \"#utility.yul\":36252:36258   */\n      dup3\n        /* \"#utility.yul\":36248:36262   */\n      add\n        /* \"#utility.yul\":36241:36280   */\n      mstore\n        /* \"#utility.yul\":36124:36287   */\n      pop\n      jump\t// out\n        /* \"#utility.yul\":36293:36659   */\n    tag_460:\n        /* \"#utility.yul\":36435:36438   */\n      0x00\n        /* \"#utility.yul\":36456:36523   */\n      tag_795\n        /* \"#utility.yul\":36520:36522   */\n      0x0d\n        /* \"#utility.yul\":36515:36518   */\n      dup4\n        /* \"#utility.yul\":36456:36523   */\n      tag_384\n      jump\t// in\n    tag_795:\n        /* \"#utility.yul\":36449:36523   */\n      swap2\n      pop\n        /* \"#utility.yul\":36532:36625   */\n      tag_796\n        /* \"#utility.yul\":36621:36624   */\n      dup3\n        /* \"#utility.yul\":36532:36625   */\n      tag_459\n      jump\t// in\n    tag_796:\n        /* \"#utility.yul\":36650:36652   */\n      0x20\n        /* \"#utility.yul\":36645:36648   */\n      dup3\n        /* \"#utility.yul\":36641:36653   */\n      add\n        /* \"#utility.yul\":36634:36653   */\n      swap1\n      pop\n        /* \"#utility.yul\":36293:36659   */\n      swap2\n      swap1\n      pop\n      jump\t// out\n        /* \"#utility.yul\":36665:37084   */\n    tag_336:\n        /* \"#utility.yul\":36831:36835   */\n      0x00\n        /* \"#utility.yul\":36869:36871   */\n      0x20\n        /* \"#utility.yul\":36858:36867   */\n      dup3\n        /* \"#utility.yul\":36854:36872   */\n      add\n        /* \"#utility.yul\":36846:36872   */\n      swap1\n      pop\n        /* \"#utility.yul\":36918:36927   */\n      dup2\n        /* \"#utility.yul\":36912:36916   */\n      dup2\n        /* \"#utility.yul\":36908:36928   */\n      sub\n        /* \"#utility.yul\":36904:36905   */\n      0x00\n        /* \"#utility.yul\":36893:36902   */\n      dup4\n        /* \"#utility.yul\":36889:36906   */\n      add\n        /* \"#utility.yul\":36882:36929   */\n      mstore\n        /* \"#utility.yul\":36946:37077   */\n      tag_798\n        /* \"#utility.yul\":37072:37076   */\n      dup2\n        /* \"#utility.yul\":36946:37077   */\n      tag_460\n      jump\t// in\n    tag_798:\n        /* \"#utility.yul\":36938:37077   */\n      swap1\n      pop\n        /* \"#utility.yul\":36665:37084   */\n      swap2\n      swap1\n      pop\n      jump\t// out\n        /* \"#utility.yul\":37090:37260   */\n    tag_461:\n        /* \"#utility.yul\":37230:37252   */\n      0x546f6b656e7320696e737566696369656e746573000000000000000000000000\n        /* \"#utility.yul\":37226:37227   */\n      0x00\n        /* \"#utility.yul\":37218:37224   */\n      dup3\n        /* \"#utility.yul\":37214:37228   */\n      add\n        /* \"#utility.yul\":37207:37253   */\n      mstore\n        /* \"#utility.yul\":37090:37260   */\n      pop\n      jump\t// out\n        /* \"#utility.yul\":37266:37632   */\n    tag_462:\n        /* \"#utility.yul\":37408:37411   */\n      0x00\n        /* \"#utility.yul\":37429:37496   */\n      tag_801\n        /* \"#utility.yul\":37493:37495   */\n      0x14\n        /* \"#utility.yul\":37488:37491   */\n      dup4\n        /* \"#utility.yul\":37429:37496   */\n      tag_384\n      jump\t// in\n    tag_801:\n        /* \"#utility.yul\":37422:37496   */\n      swap2\n      pop\n        /* \"#utility.yul\":37505:37598   */\n      tag_802\n        /* \"#utility.yul\":37594:37597   */\n      dup3\n        /* \"#utility.yul\":37505:37598   */\n      tag_461\n      jump\t// in\n    tag_802:\n        /* \"#utility.yul\":37623:37625   */\n      0x20\n        /* \"#utility.yul\":37618:37621   */\n      dup3\n        /* \"#utility.yul\":37614:37626   */\n      add\n        /* \"#utility.yul\":37607:37626   */\n      swap1\n      pop\n        /* \"#utility.yul\":37266:37632   */\n      swap2\n      swap1\n      pop\n      jump\t// out\n        /* \"#utility.yul\":37638:38057   */\n    tag_346:\n        /* \"#utility.yul\":37804:37808   */\n      0x00\n        /* \"#utility.yul\":37842:37844   */\n      0x20\n        /* \"#utility.yul\":37831:37840   */\n      dup3\n        /* \"#utility.yul\":37827:37845   */\n      add\n        /* \"#utility.yul\":37819:37845   */\n      swap1\n      pop\n        /* \"#utility.yul\":37891:37900   */\n      dup2\n        /* \"#utility.yul\":37885:37889   */\n      dup2\n        /* \"#utility.yul\":37881:37901   */\n      sub\n        /* \"#utility.yul\":37877:37878   */\n      0x00\n        /* \"#utility.yul\":37866:37875   */\n      dup4\n        /* \"#utility.yul\":37862:37879   */\n      add\n        /* \"#utility.yul\":37855:37902   */\n      mstore\n        /* \"#utility.yul\":37919:38050   */\n      tag_804\n        /* \"#utility.yul\":38045:38049   */\n      dup2\n        /* \"#utility.yul\":37919:38050   */\n      tag_462\n      jump\t// in\n    tag_804:\n        /* \"#utility.yul\":37911:38050   */\n      swap1\n      pop\n        /* \"#utility.yul\":37638:38057   */\n      swap2\n      swap1\n      pop\n      jump\t// out\n        /* \"#utility.yul\":38063:38257   */\n    tag_348:\n        /* \"#utility.yul\":38103:38107   */\n      0x00\n        /* \"#utility.yul\":38123:38143   */\n      tag_806\n        /* \"#utility.yul\":38141:38142   */\n      dup3\n        /* \"#utility.yul\":38123:38143   */\n      tag_380\n      jump\t// in\n    tag_806:\n        /* \"#utility.yul\":38118:38143   */\n      swap2\n      pop\n        /* \"#utility.yul\":38157:38177   */\n      tag_807\n        /* \"#utility.yul\":38175:38176   */\n      dup4\n        /* \"#utility.yul\":38157:38177   */\n      tag_380\n      jump\t// in\n    tag_807:\n        /* \"#utility.yul\":38152:38177   */\n      swap3\n      pop\n        /* \"#utility.yul\":38201:38202   */\n      dup3\n        /* \"#utility.yul\":38198:38199   */\n      dup3\n        /* \"#utility.yul\":38194:38203   */\n      sub\n        /* \"#utility.yul\":38186:38203   */\n      swap1\n      pop\n        /* \"#utility.yul\":38225:38226   */\n      dup2\n        /* \"#utility.yul\":38219:38223   */\n      dup2\n        /* \"#utility.yul\":38216:38227   */\n      gt\n        /* \"#utility.yul\":38213:38250   */\n      iszero\n      tag_808\n      jumpi\n        /* \"#utility.yul\":38230:38248   */\n      tag_809\n      tag_449\n      jump\t// in\n    tag_809:\n        /* \"#utility.yul\":38213:38250   */\n    tag_808:\n        /* \"#utility.yul\":38063:38257   */\n      swap3\n      swap2\n      pop\n      pop\n      jump\t// out\n        /* \"#utility.yul\":38263:38439   */\n    tag_365:\n        /* \"#utility.yul\":38295:38296   */\n      0x00\n        /* \"#utility.yul\":38312:38332   */\n      tag_811\n        /* \"#utility.yul\":38330:38331   */\n      dup3\n        /* \"#utility.yul\":38312:38332   */\n      tag_380\n      jump\t// in\n    tag_811:\n        /* \"#utility.yul\":38307:38332   */\n      swap2\n      pop\n        /* \"#utility.yul\":38346:38366   */\n      tag_812\n        /* \"#utility.yul\":38364:38365   */\n      dup4\n        /* \"#utility.yul\":38346:38366   */\n      tag_380\n      jump\t// in\n    tag_812:\n        /* \"#utility.yul\":38341:38366   */\n      swap3\n      pop\n        /* \"#utility.yul\":38385:38386   */\n      dup3\n        /* \"#utility.yul\":38375:38410   */\n      tag_813\n      jumpi\n        /* \"#utility.yul\":38390:38408   */\n      tag_814\n      tag_452\n      jump\t// in\n    tag_814:\n        /* \"#utility.yul\":38375:38410   */\n    tag_813:\n        /* \"#utility.yul\":38431:38432   */\n      dup3\n        /* \"#utility.yul\":38428:38429   */\n      dup3\n        /* \"#utility.yul\":38424:38433   */\n      mod\n        /* \"#utility.yul\":38419:38433   */\n      swap1\n      pop\n        /* \"#utility.yul\":38263:38439   */\n      swap3\n      swap2\n      pop\n      pop\n      jump\t// out\n        /* \"#utility.yul\":38445:38616   */\n    tag_368:\n        /* \"#utility.yul\":38484:38487   */\n      0x00\n        /* \"#utility.yul\":38507:38531   */\n      tag_816\n        /* \"#utility.yul\":38525:38530   */\n      dup3\n        /* \"#utility.yul\":38507:38531   */\n      tag_380\n      jump\t// in\n    tag_816:\n        /* \"#utility.yul\":38498:38531   */\n      swap2\n      pop\n        /* \"#utility.yul\":38553:38557   */\n      0x00\n        /* \"#utility.yul\":38546:38551   */\n      dup3\n        /* \"#utility.yul\":38543:38558   */\n      sub\n        /* \"#utility.yul\":38540:38581   */\n      tag_817\n      jumpi\n        /* \"#utility.yul\":38561:38579   */\n      tag_818\n      tag_449\n      jump\t// in\n    tag_818:\n        /* \"#utility.yul\":38540:38581   */\n    tag_817:\n        /* \"#utility.yul\":38608:38609   */\n      0x01\n        /* \"#utility.yul\":38601:38606   */\n      dup3\n        /* \"#utility.yul\":38597:38610   */\n      sub\n        /* \"#utility.yul\":38590:38610   */\n      swap1\n      pop\n        /* \"#utility.yul\":38445:38616   */\n      swap2\n      swap1\n      pop\n      jump\t// out\n        /* \"#utility.yul\":38622:38802   */\n    tag_371:\n        /* \"#utility.yul\":38670:38747   */\n      0x4e487b7100000000000000000000000000000000000000000000000000000000\n        /* \"#utility.yul\":38667:38668   */\n      0x00\n        /* \"#utility.yul\":38660:38748   */\n      mstore\n        /* \"#utility.yul\":38767:38771   */\n      0x32\n        /* \"#utility.yul\":38764:38765   */\n      0x04\n        /* \"#utility.yul\":38757:38772   */\n      mstore\n        /* \"#utility.yul\":38791:38795   */\n      0x24\n        /* \"#utility.yul\":38788:38789   */\n      0x00\n        /* \"#utility.yul\":38781:38796   */\n      revert\n\n    auxdata: 0xa2646970667358221220e1b7fa089144ec02f860e7535968570f7344345bd0da72c9a7c9e44a9513744264736f6c634300081f0033\n}\n",
				"bytecode": {
					"linkReferences": {},
					"object": "60806040525f6006553480156012575f5ffd5b503360075f6101000a81548173ffffffffffffffffffffffffffffffffffffffff021916908373ffffffffffffffffffffffffffffffffffffffff1602179055506137c2806100605f395ff3fe608060405260043610610129575f3560e01c80636db33b4a116100aa5780638e5a67ad1161006e5780638e5a67ad146104075780639fb7aafc14610447578063b7bf159c14610483578063dcd82bb8146104ab578063e61ef234146104d3578063e63cfcd5146104fb57610129565b80636db33b4a1461032157806381b662c8146103615780638af018801461039d5780638cb813ce146103b35780638da5cb5b146103dd57610129565b80632fe70653116100f15780632fe70653146102215780633e08ec0b1461023d578063460be06b146102795780634c47d69f146102bb578063687b5810146102f757610129565b8063020be41f1461012d5780631815a0f7146101695780631feac1101461019357806322d9a1ee146101bb57806329211437146101e5575b5f5ffd5b348015610138575f5ffd5b50610153600480360381019061014e91906124de565b610523565b6040516101609190612579565b60405180910390f35b348015610174575f5ffd5b5061017d6105c9565b60405161018a91906125a8565b60405180910390f35b34801561019e575f5ffd5b506101b960048036038101906101b49190612710565b6105d5565b005b3480156101c6575f5ffd5b506101cf61071e565b6040516101dc91906125a8565b60405180910390f35b3480156101f0575f5ffd5b5061020b600480360381019061020691906124de565b610725565b60405161021891906127a9565b60405180910390f35b61023b600480360381019061023691906127c2565b610760565b005b348015610248575f5ffd5b50610263600480360381019061025e9190612833565b610d94565b60405161027091906129aa565b60405180910390f35b348015610284575f5ffd5b5061029f600480360381019061029a91906127c2565b610f1c565b6040516102b29796959493929190612a10565b60405180910390f35b3480156102c6575f5ffd5b506102e160048036038101906102dc91906127c2565b6110a9565b6040516102ee9190612b05565b60405180910390f35b348015610302575f5ffd5b5061030b611269565b60405161031891906125a8565b60405180910390f35b34801561032c575f5ffd5b5061034760048036038101906103429190612833565b611275565b604051610358959493929190612b34565b60405180910390f35b34801561036c575f5ffd5b50610387600480360381019061038291906127c2565b611357565b6040516103949190612c3b565b60405180910390f35b3480156103a8575f5ffd5b506103b161155b565b005b3480156103be575f5ffd5b506103c7611651565b6040516103d491906125a8565b60405180910390f35b3480156103e8575f5ffd5b506103f161165d565b6040516103fe91906127a9565b60405180910390f35b348015610412575f5ffd5b5061042d600480360381019061042891906127c2565b611682565b60405161043e959493929190612c5b565b60405180910390f35b348015610452575f5ffd5b5061046d600480360381019061046891906124de565b6117f7565b60405161047a9190612579565b60405180910390f35b34801561048e575f5ffd5b506104a960048036038101906104a49190612cba565b61189d565b005b3480156104b6575f5ffd5b506104d160048036038101906104cc9190612d37565b611a39565b005b3480156104de575f5ffd5b506104f960048036038101906104f49190612d91565b611ce1565b005b348015610506575f5ffd5b50610521600480360381019061051c9190612cba565b611f87565b005b60058181548110610532575f80fd5b905f5260205f20015f91509050805461054a90612e46565b80601f016020809104026020016040519081016040528092919081815260200182805461057690612e46565b80156105c15780601f10610598576101008083540402835291602001916105c1565b820191905f5260205f20905b8154815290600101906020018083116105a457829003601f168201915b505050505081565b5f600380549050905090565b60075f9054906101000a900473ffffffffffffffffffffffffffffffffffffffff1673ffffffffffffffffffffffffffffffffffffffff163373ffffffffffffffffffffffffffffffffffffffff1614610664576040517f08c379a000000000000000000000000000000000000000000000000000000000815260040161065b90612ee6565b60405180910390fd5b5f6001836040516106759190612f3e565b90815260200160405180910390205f01805461069090612e46565b9050116106d2576040517f08c379a00000000000000000000000000000000000000000000000000000000081526004016106c990612f9e565b60405180910390fd5b806001836040516106e39190612f3e565b90815260200160405180910390206005015f6101000a81548160ff02191690836001811115610715576107146128b5565b5b02179055505050565b5f47905090565b60038181548110610734575f80fd5b905f5260205f20015f915054906101000a900473ffffffffffffffffffffffffffffffffffffffff1681565b5f34116107a2576040517f08c379a000000000000000000000000000000000000000000000000000000000815260040161079990613006565b60405180910390fd5b5f6001826040516107b39190612f3e565b90815260200160405180910390205f0180546107ce90612e46565b905011610810576040517f08c379a000000000000000000000000000000000000000000000000000000000815260040161080790612f9e565b60405180910390fd5b5f6001811115610823576108226128b5565b5b6001826040516108339190612f3e565b90815260200160405180910390206005015f9054906101000a900460ff166001811115610863576108626128b5565b5b146108a3576040517f08c379a000000000000000000000000000000000000000000000000000000000815260040161089a9061306e565b60405180910390fd5b5f73ffffffffffffffffffffffffffffffffffffffff165f5f3373ffffffffffffffffffffffffffffffffffffffff1673ffffffffffffffffffffffffffffffffffffffff1681526020019081526020015f205f015f9054906101000a900473ffffffffffffffffffffffffffffffffffffffff1673ffffffffffffffffffffffffffffffffffffffff1603610af4576040518060a001604052803373ffffffffffffffffffffffffffffffffffffffff1681526020016040518060400160405280600981526020017f496e6469766964756f000000000000000000000000000000000000000000000081525081526020015f60018111156109a8576109a76128b5565b5b81526020015f81526020015f8152505f5f3373ffffffffffffffffffffffffffffffffffffffff1673ffffffffffffffffffffffffffffffffffffffff1681526020019081526020015f205f820151815f015f6101000a81548173ffffffffffffffffffffffffffffffffffffffff021916908373ffffffffffffffffffffffffffffffffffffffff1602179055506020820151816001019081610a4c919061322c565b506040820151816002015f6101000a81548160ff02191690836001811115610a7757610a766128b5565b5b02179055506060820151816003015560808201518160040155905050600333908060018154018082558091505060019003905f5260205f20015f9091909190916101000a81548173ffffffffffffffffffffffffffffffffffffffff021916908373ffffffffffffffffffffffffffffffffffffffff1602179055505b60065f815480929190610b0690613328565b91905055505f610b17600654612247565b604051602001610b2791906133b9565b60405160208183030381529060405290506040518060a001604052808281526020013373ffffffffffffffffffffffffffffffffffffffff16815260200183815260200134815260200142815250600282604051610b859190612f3e565b90815260200160405180910390205f820151815f019081610ba6919061322c565b506020820151816001015f6101000a81548173ffffffffffffffffffffffffffffffffffffffff021916908373ffffffffffffffffffffffffffffffffffffffff1602179055506040820151816002019081610c02919061322c565b506060820151816003015560808201518160040155905050600581908060018154018082558091505060019003905f5260205f20015f909190919091509081610c4b919061322c565b50345f5f3373ffffffffffffffffffffffffffffffffffffffff1673ffffffffffffffffffffffffffffffffffffffff1681526020019081526020015f206003015f828254610c9a91906133da565b92505081905550670de0b6b3a764000034610cb5919061343a565b5f5f3373ffffffffffffffffffffffffffffffffffffffff1673ffffffffffffffffffffffffffffffffffffffff1681526020019081526020015f206004015f828254610d0291906133da565b9250508190555034600183604051610d1a9190612f3e565b90815260200160405180910390206003015f828254610d3991906133da565b925050819055503373ffffffffffffffffffffffffffffffffffffffff167fcfb07aeb1a68df533b5f56594c910129b452a7002d5741ca117913f1887c7ced8334604051610d8892919061346a565b60405180910390a25050565b610d9c6123a5565b5f5f8373ffffffffffffffffffffffffffffffffffffffff1673ffffffffffffffffffffffffffffffffffffffff1681526020019081526020015f206040518060a00160405290815f82015f9054906101000a900473ffffffffffffffffffffffffffffffffffffffff1673ffffffffffffffffffffffffffffffffffffffff1673ffffffffffffffffffffffffffffffffffffffff168152602001600182018054610e4790612e46565b80601f0160208091040260200160405190810160405280929190818152602001828054610e7390612e46565b8015610ebe5780601f10610e9557610100808354040283529160200191610ebe565b820191905f5260205f20905b815481529060010190602001808311610ea157829003601f168201915b50505050508152602001600282015f9054906101000a900460ff166001811115610eeb57610eea6128b5565b5b6001811115610efd57610efc6128b5565b5b8152602001600382015481526020016004820154815250509050919050565b6001818051602081018201805184825260208301602085012081835280955050505050505f91509050805f018054610f5390612e46565b80601f0160208091040260200160405190810160405280929190818152602001828054610f7f90612e46565b8015610fca5780601f10610fa157610100808354040283529160200191610fca565b820191905f5260205f20905b815481529060010190602001808311610fad57829003601f168201915b505050505090806001018054610fdf90612e46565b80601f016020809104026020016040519081016040528092919081815260200182805461100b90612e46565b80156110565780601f1061102d57610100808354040283529160200191611056565b820191905f5260205f20905b81548152906001019060200180831161103957829003601f168201915b505050505090806002015f9054906101000a900473ffffffffffffffffffffffffffffffffffffffff1690806003015490806004015490806005015f9054906101000a900460ff16908060060154905087565b6110b16123f8565b6002826040516110c19190612f3e565b90815260200160405180910390206040518060a00160405290815f820180546110e990612e46565b80601f016020809104026020016040519081016040528092919081815260200182805461111590612e46565b80156111605780601f1061113757610100808354040283529160200191611160565b820191905f5260205f20905b81548152906001019060200180831161114357829003601f168201915b50505050508152602001600182015f9054906101000a900473ffffffffffffffffffffffffffffffffffffffff1673ffffffffffffffffffffffffffffffffffffffff1673ffffffffffffffffffffffffffffffffffffffff1681526020016002820180546111ce90612e46565b80601f01602080910402602001604051908101604052809291908181526020018280546111fa90612e46565b80156112455780601f1061121c57610100808354040283529160200191611245565b820191905f5260205f20905b81548152906001019060200180831161122857829003601f168201915b50505050508152602001600382015481526020016004820154815250509050919050565b5f600480549050905090565b5f602052805f5260405f205f91509050805f015f9054906101000a900473ffffffffffffffffffffffffffffffffffffffff16908060010180546112b890612e46565b80601f01602080910402602001604051908101604052809291908181526020018280546112e490612e46565b801561132f5780601f106113065761010080835404028352916020019161132f565b820191905f5260205f20905b81548152906001019060200180831161131257829003601f168201915b505050505090806002015f9054906101000a900460ff16908060030154908060040154905085565b61135f61243a565b60018260405161136f9190612f3e565b90815260200160405180910390206040518060e00160405290815f8201805461139790612e46565b80601f01602080910402602001604051908101604052809291908181526020018280546113c390612e46565b801561140e5780601f106113e55761010080835404028352916020019161140e565b820191905f5260205f20905b8154815290600101906020018083116113f157829003601f168201915b5050505050815260200160018201805461142790612e46565b80601f016020809104026020016040519081016040528092919081815260200182805461145390612e46565b801561149e5780601f106114755761010080835404028352916020019161149e565b820191905f5260205f20905b81548152906001019060200180831161148157829003601f168201915b50505050508152602001600282015f9054906101000a900473ffffffffffffffffffffffffffffffffffffffff1673ffffffffffffffffffffffffffffffffffffffff1673ffffffffffffffffffffffffffffffffffffffff1681526020016003820154815260200160048201548152602001600582015f9054906101000a900460ff166001811115611534576115336128b5565b5b6001811115611546576115456128b5565b5b81526020016006820154815250509050919050565b60075f9054906101000a900473ffffffffffffffffffffffffffffffffffffffff1673ffffffffffffffffffffffffffffffffffffffff163373ffffffffffffffffffffffffffffffffffffffff16146115ea576040517f08c379a00000000000000000000000000000000000000000000000000000000081526004016115e190612ee6565b60405180910390fd5b60075f9054906101000a900473ffffffffffffffffffffffffffffffffffffffff1673ffffffffffffffffffffffffffffffffffffffff166108fc4790811502906040515f60405180830381858888f1935050505015801561164e573d5f5f3e3d5ffd5b50565b5f600580549050905090565b60075f9054906101000a900473ffffffffffffffffffffffffffffffffffffffff1681565b6002818051602081018201805184825260208301602085012081835280955050505050505f91509050805f0180546116b990612e46565b80601f01602080910402602001604051908101604052809291908181526020018280546116e590612e46565b80156117305780601f1061170757610100808354040283529160200191611730565b820191905f5260205f20905b81548152906001019060200180831161171357829003601f168201915b505050505090806001015f9054906101000a900473ffffffffffffffffffffffffffffffffffffffff169080600201805461176a90612e46565b80601f016020809104026020016040519081016040528092919081815260200182805461179690612e46565b80156117e15780601f106117b8576101008083540402835291602001916117e1565b820191905f5260205f20905b8154815290600101906020018083116117c457829003601f168201915b5050505050908060030154908060040154905085565b60048181548110611806575f80fd5b905f5260205f20015f91509050805461181e90612e46565b80601f016020809104026020016040519081016040528092919081815260200182805461184a90612e46565b80156118955780601f1061186c57610100808354040283529160200191611895565b820191905f5260205f20905b81548152906001019060200180831161187857829003601f168201915b505050505081565b60075f9054906101000a900473ffffffffffffffffffffffffffffffffffffffff1673ffffffffffffffffffffffffffffffffffffffff163373ffffffffffffffffffffffffffffffffffffffff161461192c576040517f08c379a000000000000000000000000000000000000000000000000000000000815260040161192390612ee6565b60405180910390fd5b5f60018360405161193d9190612f3e565b90815260200160405180910390205f01805461195890612e46565b90501161199a576040517f08c379a000000000000000000000000000000000000000000000000000000000815260040161199190612f9e565b60405180910390fd5b6001826040516119aa9190612f3e565b9081526020016040518091039020600301548111156119fe576040517f08c379a00000000000000000000000000000000000000000000000000000000081526004016119f5906134e2565b60405180910390fd5b80600183604051611a0f9190612f3e565b90815260200160405180910390206004015f828254611a2e91906133da565b925050819055505050565b5f73ffffffffffffffffffffffffffffffffffffffff165f5f3373ffffffffffffffffffffffffffffffffffffffff1673ffffffffffffffffffffffffffffffffffffffff1681526020019081526020015f205f015f9054906101000a900473ffffffffffffffffffffffffffffffffffffffff1673ffffffffffffffffffffffffffffffffffffffff1614611b04576040517f08c379a0000000000000000000000000000000000000000000000000000000008152600401611afb9061354a565b60405180910390fd5b6040518060a001604052803373ffffffffffffffffffffffffffffffffffffffff168152602001838152602001826001811115611b4457611b436128b5565b5b81526020015f81526020015f8152505f5f3373ffffffffffffffffffffffffffffffffffffffff1673ffffffffffffffffffffffffffffffffffffffff1681526020019081526020015f205f820151815f015f6101000a81548173ffffffffffffffffffffffffffffffffffffffff021916908373ffffffffffffffffffffffffffffffffffffffff1602179055506020820151816001019081611be8919061322c565b506040820151816002015f6101000a81548160ff02191690836001811115611c1357611c126128b5565b5b02179055506060820151816003015560808201518160040155905050600333908060018154018082558091505060019003905f5260205f20015f9091909190916101000a81548173ffffffffffffffffffffffffffffffffffffffff021916908373ffffffffffffffffffffffffffffffffffffffff1602179055503373ffffffffffffffffffffffffffffffffffffffff167fbd0aa66e3f9bb3059d63a43b52e561b9d290792bb97b3ca81fafc608a3a026e883604051611cd59190612579565b60405180910390a25050565b60075f9054906101000a900473ffffffffffffffffffffffffffffffffffffffff1673ffffffffffffffffffffffffffffffffffffffff163373ffffffffffffffffffffffffffffffffffffffff1614611d70576040517f08c379a0000000000000000000000000000000000000000000000000000000008152600401611d6790612ee6565b60405180910390fd5b5f600184604051611d819190612f3e565b90815260200160405180910390205f018054611d9c90612e46565b905014611dde576040517f08c379a0000000000000000000000000000000000000000000000000000000008152600401611dd5906135b2565b60405180910390fd5b6040518060e001604052808481526020018381526020018273ffffffffffffffffffffffffffffffffffffffff1681526020015f81526020015f81526020015f6001811115611e3057611e2f6128b5565b5b81526020015f815250600184604051611e499190612f3e565b90815260200160405180910390205f820151815f019081611e6a919061322c565b506020820151816001019081611e80919061322c565b506040820151816002015f6101000a81548173ffffffffffffffffffffffffffffffffffffffff021916908373ffffffffffffffffffffffffffffffffffffffff160217905550606082015181600301556080820151816004015560a0820151816005015f6101000a81548160ff02191690836001811115611f0557611f046128b5565b5b021790555060c08201518160060155905050600483908060018154018082558091505060019003905f5260205f20015f909190919091509081611f48919061322c565b507f9be706a9f3913e31e847d7fa4c6f64709e9391228ae7f008d72beabe0b95750f8383604051611f7a9291906135d0565b60405180910390a1505050565b5f73ffffffffffffffffffffffffffffffffffffffff165f5f3373ffffffffffffffffffffffffffffffffffffffff1673ffffffffffffffffffffffffffffffffffffffff1681526020019081526020015f205f015f9054906101000a900473ffffffffffffffffffffffffffffffffffffffff1673ffffffffffffffffffffffffffffffffffffffff1603612052576040517f08c379a00000000000000000000000000000000000000000000000000000000081526004016120499061364f565b60405180910390fd5b5f6001811115612065576120646128b5565b5b6001836040516120759190612f3e565b90815260200160405180910390206005015f9054906101000a900460ff1660018111156120a5576120a46128b5565b5b146120e5576040517f08c379a00000000000000000000000000000000000000000000000000000000081526004016120dc9061306e565b60405180910390fd5b805f5f3373ffffffffffffffffffffffffffffffffffffffff1673ffffffffffffffffffffffffffffffffffffffff1681526020019081526020015f20600401541015612167576040517f08c379a000000000000000000000000000000000000000000000000000000000815260040161215e906136b7565b60405180910390fd5b805f5f3373ffffffffffffffffffffffffffffffffffffffff1673ffffffffffffffffffffffffffffffffffffffff1681526020019081526020015f206004015f8282546121b591906136d5565b92505081905550806001836040516121cd9190612f3e565b90815260200160405180910390206006015f8282546121ec91906133da565b925050819055503373ffffffffffffffffffffffffffffffffffffffff167f3d62e71a4e89667925b7e27cf64706ba04826bd8e1c791a5d540f7265861057d838360405161223b92919061346a565b60405180910390a25050565b60605f820361228d576040518060400160405280600181526020017f300000000000000000000000000000000000000000000000000000000000000081525090506123a0565b5f8290505f5b5f82146122bc5780806122a590613328565b915050600a826122b5919061343a565b9150612293565b5f8167ffffffffffffffff8111156122d7576122d66125c9565b5b6040519080825280601f01601f1916602001820160405280156123095781602001600182028036833780820191505090505b5090505f8290508593505b5f841461239857600a846123289190613708565b603061233491906133da565b60f81b828261234290613738565b925082815181106123565761235561375f565b5b60200101907effffffffffffffffffffffffffffffffffffffffffffffffffffffffffffff191690815f1a905350600a84612391919061343a565b9350612314565b819450505050505b919050565b6040518060a001604052805f73ffffffffffffffffffffffffffffffffffffffff168152602001606081526020015f60018111156123e6576123e56128b5565b5b81526020015f81526020015f81525090565b6040518060a00160405280606081526020015f73ffffffffffffffffffffffffffffffffffffffff168152602001606081526020015f81526020015f81525090565b6040518060e0016040528060608152602001606081526020015f73ffffffffffffffffffffffffffffffffffffffff1681526020015f81526020015f81526020015f600181111561248e5761248d6128b5565b5b81526020015f81525090565b5f604051905090565b5f5ffd5b5f5ffd5b5f819050919050565b6124bd816124ab565b81146124c7575f5ffd5b50565b5f813590506124d8816124b4565b92915050565b5f602082840312156124f3576124f26124a3565b5b5f612500848285016124ca565b91505092915050565b5f81519050919050565b5f82825260208201905092915050565b8281835e5f83830152505050565b5f601f19601f8301169050919050565b5f61254b82612509565b6125558185612513565b9350612565818560208601612523565b61256e81612531565b840191505092915050565b5f6020820190508181035f8301526125918184612541565b905092915050565b6125a2816124ab565b82525050565b5f6020820190506125bb5f830184612599565b92915050565b5f5ffd5b5f5ffd5b7f4e487b71000000000000000000000000000000000000000000000000000000005f52604160045260245ffd5b6125ff82612531565b810181811067ffffffffffffffff8211171561261e5761261d6125c9565b5b80604052505050565b5f61263061249a565b905061263c82826125f6565b919050565b5f67ffffffffffffffff82111561265b5761265a6125c9565b5b61266482612531565b9050602081019050919050565b828183375f83830152505050565b5f61269161268c84612641565b612627565b9050828152602081018484840111156126ad576126ac6125c5565b5b6126b8848285612671565b509392505050565b5f82601f8301126126d4576126d36125c1565b5b81356126e484826020860161267f565b91505092915050565b600281106126f9575f5ffd5b50565b5f8135905061270a816126ed565b92915050565b5f5f60408385031215612726576127256124a3565b5b5f83013567ffffffffffffffff811115612743576127426124a7565b5b61274f858286016126c0565b9250506020612760858286016126fc565b9150509250929050565b5f73ffffffffffffffffffffffffffffffffffffffff82169050919050565b5f6127938261276a565b9050919050565b6127a381612789565b82525050565b5f6020820190506127bc5f83018461279a565b92915050565b5f602082840312156127d7576127d66124a3565b5b5f82013567ffffffffffffffff8111156127f4576127f36124a7565b5b612800848285016126c0565b91505092915050565b61281281612789565b811461281c575f5ffd5b50565b5f8135905061282d81612809565b92915050565b5f60208284031215612848576128476124a3565b5b5f6128558482850161281f565b91505092915050565b61286781612789565b82525050565b5f82825260208201905092915050565b5f61288782612509565b612891818561286d565b93506128a1818560208601612523565b6128aa81612531565b840191505092915050565b7f4e487b71000000000000000000000000000000000000000000000000000000005f52602160045260245ffd5b600281106128f3576128f26128b5565b5b50565b5f819050612903826128e2565b919050565b5f612912826128f6565b9050919050565b61292281612908565b82525050565b612931816124ab565b82525050565b5f60a083015f83015161294c5f86018261285e565b5060208301518482036020860152612964828261287d565b91505060408301516129796040860182612919565b50606083015161298c6060860182612928565b50608083015161299f6080860182612928565b508091505092915050565b5f6020820190508181035f8301526129c28184612937565b905092915050565b600281106129db576129da6128b5565b5b50565b5f8190506129eb826129ca565b919050565b5f6129fa826129de565b9050919050565b612a0a816129f0565b82525050565b5f60e0820190508181035f830152612a28818a612541565b90508181036020830152612a3c8189612541565b9050612a4b604083018861279a565b612a586060830187612599565b612a656080830186612599565b612a7260a0830185612a01565b612a7f60c0830184612599565b98975050505050505050565b5f60a083015f8301518482035f860152612aa5828261287d565b9150506020830151612aba602086018261285e565b5060408301518482036040860152612ad2828261287d565b9150506060830151612ae76060860182612928565b506080830151612afa6080860182612928565b508091505092915050565b5f6020820190508181035f830152612b1d8184612a8b565b905092915050565b612b2e81612908565b82525050565b5f60a082019050612b475f83018861279a565b8181036020830152612b598187612541565b9050612b686040830186612b25565b612b756060830185612599565b612b826080830184612599565b9695505050505050565b612b95816129f0565b82525050565b5f60e083015f8301518482035f860152612bb5828261287d565b91505060208301518482036020860152612bcf828261287d565b9150506040830151612be4604086018261285e565b506060830151612bf76060860182612928565b506080830151612c0a6080860182612928565b5060a0830151612c1d60a0860182612b8c565b5060c0830151612c3060c0860182612928565b508091505092915050565b5f6020820190508181035f830152612c538184612b9b565b905092915050565b5f60a0820190508181035f830152612c738188612541565b9050612c82602083018761279a565b8181036040830152612c948186612541565b9050612ca36060830185612599565b612cb06080830184612599565b9695505050505050565b5f5f60408385031215612cd057612ccf6124a3565b5b5f83013567ffffffffffffffff811115612ced57612cec6124a7565b5b612cf9858286016126c0565b9250506020612d0a858286016124ca565b9150509250929050565b60028110612d20575f5ffd5b50565b5f81359050612d3181612d14565b92915050565b5f5f60408385031215612d4d57612d4c6124a3565b5b5f83013567ffffffffffffffff811115612d6a57612d696124a7565b5b612d76858286016126c0565b9250506020612d8785828601612d23565b9150509250929050565b5f5f5f60608486031215612da857612da76124a3565b5b5f84013567ffffffffffffffff811115612dc557612dc46124a7565b5b612dd1868287016126c0565b935050602084013567ffffffffffffffff811115612df257612df16124a7565b5b612dfe868287016126c0565b9250506040612e0f8682870161281f565b9150509250925092565b7f4e487b71000000000000000000000000000000000000000000000000000000005f52602260045260245ffd5b5f6002820490506001821680612e5d57607f821691505b602082108103612e7057612e6f612e19565b5b50919050565b7f536f6c6f20656c206f776e657220707565646520656a656375746172206573745f8201527f6f00000000000000000000000000000000000000000000000000000000000000602082015250565b5f612ed0602183612513565b9150612edb82612e76565b604082019050919050565b5f6020820190508181035f830152612efd81612ec4565b9050919050565b5f81905092915050565b5f612f1882612509565b612f228185612f04565b9350612f32818560208601612523565b80840191505092915050565b5f612f498284612f0e565b915081905092915050565b7f50726f796563746f206e6f2065786973746500000000000000000000000000005f82015250565b5f612f88601283612513565b9150612f9382612f54565b602082019050919050565b5f6020820190508181035f830152612fb581612f7c565b9050919050565b7f4c6120646f6e6163696f6e206465626520736572206d61796f722061203000005f82015250565b5f612ff0601e83612513565b9150612ffb82612fbc565b602082019050919050565b5f6020820190508181035f83015261301d81612fe4565b9050919050565b7f50726f796563746f206e6f2061637469766f00000000000000000000000000005f82015250565b5f613058601283612513565b915061306382613024565b602082019050919050565b5f6020820190508181035f8301526130858161304c565b9050919050565b5f819050815f5260205f209050919050565b5f6020601f8301049050919050565b5f82821b905092915050565b5f600883026130e87fffffffffffffffffffffffffffffffffffffffffffffffffffffffffffffffff826130ad565b6130f286836130ad565b95508019841693508086168417925050509392505050565b5f819050919050565b5f61312d613128613123846124ab565b61310a565b6124ab565b9050919050565b5f819050919050565b61314683613113565b61315a61315282613134565b8484546130b9565b825550505050565b5f5f905090565b613171613162565b61317c81848461313d565b505050565b5b8181101561319f576131945f82613169565b600181019050613182565b5050565b601f8211156131e4576131b58161308c565b6131be8461309e565b810160208510156131cd578190505b6131e16131d98561309e565b830182613181565b50505b505050565b5f82821c905092915050565b5f6132045f19846008026131e9565b1980831691505092915050565b5f61321c83836131f5565b9150826002028217905092915050565b61323582612509565b67ffffffffffffffff81111561324e5761324d6125c9565b5b6132588254612e46565b6132638282856131a3565b5f60209050601f831160018114613294575f8415613282578287015190505b61328c8582613211565b8655506132f3565b601f1984166132a28661308c565b5f5b828110156132c9578489015182556001820191506020850194506020810190506132a4565b868310156132e657848901516132e2601f8916826131f5565b8355505b6001600288020188555050505b505050505050565b7f4e487b71000000000000000000000000000000000000000000000000000000005f52601160045260245ffd5b5f613332826124ab565b91507fffffffffffffffffffffffffffffffffffffffffffffffffffffffffffffffff8203613364576133636132fb565b5b600182019050919050565b7f444f4e00000000000000000000000000000000000000000000000000000000005f82015250565b5f6133a3600383612f04565b91506133ae8261336f565b600382019050919050565b5f6133c382613397565b91506133cf8284612f0e565b915081905092915050565b5f6133e4826124ab565b91506133ef836124ab565b9250828201905080821115613407576134066132fb565b5b92915050565b7f4e487b71000000000000000000000000000000000000000000000000000000005f52601260045260245ffd5b5f613444826124ab565b915061344f836124ab565b92508261345f5761345e61340d565b5b828204905092915050565b5f6040820190508181035f8301526134828185612541565b90506134916020830184612599565b9392505050565b7f43616e7469646164206578636564652072656361756461646f000000000000005f82015250565b5f6134cc601983612513565b91506134d782613498565b602082019050919050565b5f6020820190508181035f8301526134f9816134c0565b9050919050565b7f446f6e616e7465207961207265676973747261646f00000000000000000000005f82015250565b5f613534601583612513565b915061353f82613500565b602082019050919050565b5f6020820190508181035f83015261356181613528565b9050919050565b7f50726f796563746f2079612065786973746500000000000000000000000000005f82015250565b5f61359c601283612513565b91506135a782613568565b602082019050919050565b5f6020820190508181035f8301526135c981613590565b9050919050565b5f6040820190508181035f8301526135e88185612541565b905081810360208301526135fc8184612541565b90509392505050565b7f4e6f207265676973747261646f000000000000000000000000000000000000005f82015250565b5f613639600d83612513565b915061364482613605565b602082019050919050565b5f6020820190508181035f8301526136668161362d565b9050919050565b7f546f6b656e7320696e737566696369656e7465730000000000000000000000005f82015250565b5f6136a1601483612513565b91506136ac8261366d565b602082019050919050565b5f6020820190508181035f8301526136ce81613695565b9050919050565b5f6136df826124ab565b91506136ea836124ab565b9250828203905081811115613702576137016132fb565b5b92915050565b5f613712826124ab565b915061371d836124ab565b92508261372d5761372c61340d565b5b828206905092915050565b5f613742826124ab565b91505f8203613754576137536132fb565b5b600182039050919050565b7f4e487b71000000000000000000000000000000000000000000000000000000005f52603260045260245ffdfea2646970667358221220e1b7fa089144ec02f860e7535968570f7344345bd0da72c9a7c9e44a9513744264736f6c634300081f0033",
					"opcodes": "PUSH1 0x80 PUSH1 0x40 MSTORE PUSH0 PUSH1 0x6 SSTORE CALLVALUE DUP1 ISZERO PUSH1 0x12 JUMPI PUSH0 PUSH0 REVERT JUMPDEST POP CALLER PUSH1 0x7 PUSH0 PUSH2 0x100 EXP DUP2 SLOAD DUP2 PUSH20 0xFFFFFFFFFFFFFFFFFFFFFFFFFFFFFFFFFFFFFFFF MUL NOT AND SWAP1 DUP4 PUSH20 0xFFFFFFFFFFFFFFFFFFFFFFFFFFFFFFFFFFFFFFFF AND MUL OR SWAP1 SSTORE POP PUSH2 0x37C2 DUP1 PUSH2 0x60 PUSH0 CODECOPY PUSH0 RETURN INVALID PUSH1 0x80 PUSH1 0x40 MSTORE PUSH1 0x4 CALLDATASIZE LT PUSH2 0x129 JUMPI PUSH0 CALLDATALOAD PUSH1 0xE0 SHR DUP1 PUSH4 0x6DB33B4A GT PUSH2 0xAA JUMPI DUP1 PUSH4 0x8E5A67AD GT PUSH2 0x6E JUMPI DUP1 PUSH4 0x8E5A67AD EQ PUSH2 0x407 JUMPI DUP1 PUSH4 0x9FB7AAFC EQ PUSH2 0x447 JUMPI DUP1 PUSH4 0xB7BF159C EQ PUSH2 0x483 JUMPI DUP1 PUSH4 0xDCD82BB8 EQ PUSH2 0x4AB JUMPI DUP1 PUSH4 0xE61EF234 EQ PUSH2 0x4D3 JUMPI DUP1 PUSH4 0xE63CFCD5 EQ PUSH2 0x4FB JUMPI PUSH2 0x129 JUMP JUMPDEST DUP1 PUSH4 0x6DB33B4A EQ PUSH2 0x321 JUMPI DUP1 PUSH4 0x81B662C8 EQ PUSH2 0x361 JUMPI DUP1 PUSH4 0x8AF01880 EQ PUSH2 0x39D JUMPI DUP1 PUSH4 0x8CB813CE EQ PUSH2 0x3B3 JUMPI DUP1 PUSH4 0x8DA5CB5B EQ PUSH2 0x3DD JUMPI PUSH2 0x129 JUMP JUMPDEST DUP1 PUSH4 0x2FE70653 GT PUSH2 0xF1 JUMPI DUP1 PUSH4 0x2FE70653 EQ PUSH2 0x221 JUMPI DUP1 PUSH4 0x3E08EC0B EQ PUSH2 0x23D JUMPI DUP1 PUSH4 0x460BE06B EQ PUSH2 0x279 JUMPI DUP1 PUSH4 0x4C47D69F EQ PUSH2 0x2BB JUMPI DUP1 PUSH4 0x687B5810 EQ PUSH2 0x2F7 JUMPI PUSH2 0x129 JUMP JUMPDEST DUP1 PUSH4 0x20BE41F EQ PUSH2 0x12D JUMPI DUP1 PUSH4 0x1815A0F7 EQ PUSH2 0x169 JUMPI DUP1 PUSH4 0x1FEAC110 EQ PUSH2 0x193 JUMPI DUP1 PUSH4 0x22D9A1EE EQ PUSH2 0x1BB JUMPI DUP1 PUSH4 0x29211437 EQ PUSH2 0x1E5 JUMPI JUMPDEST PUSH0 PUSH0 REVERT JUMPDEST CALLVALUE DUP1 ISZERO PUSH2 0x138 JUMPI PUSH0 PUSH0 REVERT JUMPDEST POP PUSH2 0x153 PUSH1 0x4 DUP1 CALLDATASIZE SUB DUP2 ADD SWAP1 PUSH2 0x14E SWAP2 SWAP1 PUSH2 0x24DE JUMP JUMPDEST PUSH2 0x523 JUMP JUMPDEST PUSH1 0x40 MLOAD PUSH2 0x160 SWAP2 SWAP1 PUSH2 0x2579 JUMP JUMPDEST PUSH1 0x40 MLOAD DUP1 SWAP2 SUB SWAP1 RETURN JUMPDEST CALLVALUE DUP1 ISZERO PUSH2 0x174 JUMPI PUSH0 PUSH0 REVERT JUMPDEST POP PUSH2 0x17D PUSH2 0x5C9 JUMP JUMPDEST PUSH1 0x40 MLOAD PUSH2 0x18A SWAP2 SWAP1 PUSH2 0x25A8 JUMP JUMPDEST PUSH1 0x40 MLOAD DUP1 SWAP2 SUB SWAP1 RETURN JUMPDEST CALLVALUE DUP1 ISZERO PUSH2 0x19E JUMPI PUSH0 PUSH0 REVERT JUMPDEST POP PUSH2 0x1B9 PUSH1 0x4 DUP1 CALLDATASIZE SUB DUP2 ADD SWAP1 PUSH2 0x1B4 SWAP2 SWAP1 PUSH2 0x2710 JUMP JUMPDEST PUSH2 0x5D5 JUMP JUMPDEST STOP JUMPDEST CALLVALUE DUP1 ISZERO PUSH2 0x1C6 JUMPI PUSH0 PUSH0 REVERT JUMPDEST POP PUSH2 0x1CF PUSH2 0x71E JUMP JUMPDEST PUSH1 0x40 MLOAD PUSH2 0x1DC SWAP2 SWAP1 PUSH2 0x25A8 JUMP JUMPDEST PUSH1 0x40 MLOAD DUP1 SWAP2 SUB SWAP1 RETURN JUMPDEST CALLVALUE DUP1 ISZERO PUSH2 0x1F0 JUMPI PUSH0 PUSH0 REVERT JUMPDEST POP PUSH2 0x20B PUSH1 0x4 DUP1 CALLDATASIZE SUB DUP2 ADD SWAP1 PUSH2 0x206 SWAP2 SWAP1 PUSH2 0x24DE JUMP JUMPDEST PUSH2 0x725 JUMP JUMPDEST PUSH1 0x40 MLOAD PUSH2 0x218 SWAP2 SWAP1 PUSH2 0x27A9 JUMP JUMPDEST PUSH1 0x40 MLOAD DUP1 SWAP2 SUB SWAP1 RETURN JUMPDEST PUSH2 0x23B PUSH1 0x4 DUP1 CALLDATASIZE SUB DUP2 ADD SWAP1 PUSH2 0x236 SWAP2 SWAP1 PUSH2 0x27C2 JUMP JUMPDEST PUSH2 0x760 JUMP JUMPDEST STOP JUMPDEST CALLVALUE DUP1 ISZERO PUSH2 0x248 JUMPI PUSH0 PUSH0 REVERT JUMPDEST POP PUSH2 0x263 PUSH1 0x4 DUP1 CALLDATASIZE SUB DUP2 ADD SWAP1 PUSH2 0x25E SWAP2 SWAP1 PUSH2 0x2833 JUMP JUMPDEST PUSH2 0xD94 JUMP JUMPDEST PUSH1 0x40 MLOAD PUSH2 0x270 SWAP2 SWAP1 PUSH2 0x29AA JUMP JUMPDEST PUSH1 0x40 MLOAD DUP1 SWAP2 SUB SWAP1 RETURN JUMPDEST CALLVALUE DUP1 ISZERO PUSH2 0x284 JUMPI PUSH0 PUSH0 REVERT JUMPDEST POP PUSH2 0x29F PUSH1 0x4 DUP1 CALLDATASIZE SUB DUP2 ADD SWAP1 PUSH2 0x29A SWAP2 SWAP1 PUSH2 0x27C2 JUMP JUMPDEST PUSH2 0xF1C JUMP JUMPDEST PUSH1 0x40 MLOAD PUSH2 0x2B2 SWAP8 SWAP7 SWAP6 SWAP5 SWAP4 SWAP3 SWAP2 SWAP1 PUSH2 0x2A10 JUMP JUMPDEST PUSH1 0x40 MLOAD DUP1 SWAP2 SUB SWAP1 RETURN JUMPDEST CALLVALUE DUP1 ISZERO PUSH2 0x2C6 JUMPI PUSH0 PUSH0 REVERT JUMPDEST POP PUSH2 0x2E1 PUSH1 0x4 DUP1 CALLDATASIZE SUB DUP2 ADD SWAP1 PUSH2 0x2DC SWAP2 SWAP1 PUSH2 0x27C2 JUMP JUMPDEST PUSH2 0x10A9 JUMP JUMPDEST PUSH1 0x40 MLOAD PUSH2 0x2EE SWAP2 SWAP1 PUSH2 0x2B05 JUMP JUMPDEST PUSH1 0x40 MLOAD DUP1 SWAP2 SUB SWAP1 RETURN JUMPDEST CALLVALUE DUP1 ISZERO PUSH2 0x302 JUMPI PUSH0 PUSH0 REVERT JUMPDEST POP PUSH2 0x30B PUSH2 0x1269 JUMP JUMPDEST PUSH1 0x40 MLOAD PUSH2 0x318 SWAP2 SWAP1 PUSH2 0x25A8 JUMP JUMPDEST PUSH1 0x40 MLOAD DUP1 SWAP2 SUB SWAP1 RETURN JUMPDEST CALLVALUE DUP1 ISZERO PUSH2 0x32C JUMPI PUSH0 PUSH0 REVERT JUMPDEST POP PUSH2 0x347 PUSH1 0x4 DUP1 CALLDATASIZE SUB DUP2 ADD SWAP1 PUSH2 0x342 SWAP2 SWAP1 PUSH2 0x2833 JUMP JUMPDEST PUSH2 0x1275 JUMP JUMPDEST PUSH1 0x40 MLOAD PUSH2 0x358 SWAP6 SWAP5 SWAP4 SWAP3 SWAP2 SWAP1 PUSH2 0x2B34 JUMP JUMPDEST PUSH1 0x40 MLOAD DUP1 SWAP2 SUB SWAP1 RETURN JUMPDEST CALLVALUE DUP1 ISZERO PUSH2 0x36C JUMPI PUSH0 PUSH0 REVERT JUMPDEST POP PUSH2 0x387 PUSH1 0x4 DUP1 CALLDATASIZE SUB DUP2 ADD SWAP1 PUSH2 0x382 SWAP2 SWAP1 PUSH2 0x27C2 JUMP JUMPDEST PUSH2 0x1357 JUMP JUMPDEST PUSH1 0x40 MLOAD PUSH2 0x394 SWAP2 SWAP1 PUSH2 0x2C3B JUMP JUMPDEST PUSH1 0x40 MLOAD DUP1 SWAP2 SUB SWAP1 RETURN JUMPDEST CALLVALUE DUP1 ISZERO PUSH2 0x3A8 JUMPI PUSH0 PUSH0 REVERT JUMPDEST POP PUSH2 0x3B1 PUSH2 0x155B JUMP JUMPDEST STOP JUMPDEST CALLVALUE DUP1 ISZERO PUSH2 0x3BE JUMPI PUSH0 PUSH0 REVERT JUMPDEST POP PUSH2 0x3C7 PUSH2 0x1651 JUMP JUMPDEST PUSH1 0x40 MLOAD PUSH2 0x3D4 SWAP2 SWAP1 PUSH2 0x25A8 JUMP JUMPDEST PUSH1 0x40 MLOAD DUP1 SWAP2 SUB SWAP1 RETURN JUMPDEST CALLVALUE DUP1 ISZERO PUSH2 0x3E8 JUMPI PUSH0 PUSH0 REVERT JUMPDEST POP PUSH2 0x3F1 PUSH2 0x165D JUMP JUMPDEST PUSH1 0x40 MLOAD PUSH2 0x3FE SWAP2 SWAP1 PUSH2 0x27A9 JUMP JUMPDEST PUSH1 0x40 MLOAD DUP1 SWAP2 SUB SWAP1 RETURN JUMPDEST CALLVALUE DUP1 ISZERO PUSH2 0x412 JUMPI PUSH0 PUSH0 REVERT JUMPDEST POP PUSH2 0x42D PUSH1 0x4 DUP1 CALLDATASIZE SUB DUP2 ADD SWAP1 PUSH2 0x428 SWAP2 SWAP1 PUSH2 0x27C2 JUMP JUMPDEST PUSH2 0x1682 JUMP JUMPDEST PUSH1 0x40 MLOAD PUSH2 0x43E SWAP6 SWAP5 SWAP4 SWAP3 SWAP2 SWAP1 PUSH2 0x2C5B JUMP JUMPDEST PUSH1 0x40 MLOAD DUP1 SWAP2 SUB SWAP1 RETURN JUMPDEST CALLVALUE DUP1 ISZERO PUSH2 0x452 JUMPI PUSH0 PUSH0 REVERT JUMPDEST POP PUSH2 0x46D PUSH1 0x4 DUP1 CALLDATASIZE SUB DUP2 ADD SWAP1 PUSH2 0x468 SWAP2 SWAP1 PUSH2 0x24DE JUMP JUMPDEST PUSH2 0x17F7 JUMP JUMPDEST PUSH1 0x40 MLOAD PUSH2 0x47A SWAP2 SWAP1 PUSH2 0x2579 JUMP JUMPDEST PUSH1 0x40 MLOAD DUP1 SWAP2 SUB SWAP1 RETURN JUMPDEST CALLVALUE DUP1 ISZERO PUSH2 0x48E JUMPI PUSH0 PUSH0 REVERT JUMPDEST POP PUSH2 0x4A9 PUSH1 0x4 DUP1 CALLDATASIZE SUB DUP2 ADD SWAP1 PUSH2 0x4A4 SWAP2 SWAP1 PUSH2 0x2CBA JUMP JUMPDEST PUSH2 0x189D JUMP JUMPDEST STOP JUMPDEST CALLVALUE DUP1 ISZERO PUSH2 0x4B6 JUMPI PUSH0 PUSH0 REVERT JUMPDEST POP PUSH2 0x4D1 PUSH1 0x4 DUP1 CALLDATASIZE SUB DUP2 ADD SWAP1 PUSH2 0x4CC SWAP2 SWAP1 PUSH2 0x2D37 JUMP JUMPDEST PUSH2 0x1A39 JUMP JUMPDEST STOP JUMPDEST CALLVALUE DUP1 ISZERO PUSH2 0x4DE JUMPI PUSH0 PUSH0 REVERT JUMPDEST POP PUSH2 0x4F9 PUSH1 0x4 DUP1 CALLDATASIZE SUB DUP2 ADD SWAP1 PUSH2 0x4F4 SWAP2 SWAP1 PUSH2 0x2D91 JUMP JUMPDEST PUSH2 0x1CE1 JUMP JUMPDEST STOP JUMPDEST CALLVALUE DUP1 ISZERO PUSH2 0x506 JUMPI PUSH0 PUSH0 REVERT JUMPDEST POP PUSH2 0x521 PUSH1 0x4 DUP1 CALLDATASIZE SUB DUP2 ADD SWAP1 PUSH2 0x51C SWAP2 SWAP1 PUSH2 0x2CBA JUMP JUMPDEST PUSH2 0x1F87 JUMP JUMPDEST STOP JUMPDEST PUSH1 0x5 DUP2 DUP2 SLOAD DUP2 LT PUSH2 0x532 JUMPI PUSH0 DUP1 REVERT JUMPDEST SWAP1 PUSH0 MSTORE PUSH1 0x20 PUSH0 KECCAK256 ADD PUSH0 SWAP2 POP SWAP1 POP DUP1 SLOAD PUSH2 0x54A SWAP1 PUSH2 0x2E46 JUMP JUMPDEST DUP1 PUSH1 0x1F ADD PUSH1 0x20 DUP1 SWAP2 DIV MUL PUSH1 0x20 ADD PUSH1 0x40 MLOAD SWAP1 DUP2 ADD PUSH1 0x40 MSTORE DUP1 SWAP3 SWAP2 SWAP1 DUP2 DUP2 MSTORE PUSH1 0x20 ADD DUP3 DUP1 SLOAD PUSH2 0x576 SWAP1 PUSH2 0x2E46 JUMP JUMPDEST DUP1 ISZERO PUSH2 0x5C1 JUMPI DUP1 PUSH1 0x1F LT PUSH2 0x598 JUMPI PUSH2 0x100 DUP1 DUP4 SLOAD DIV MUL DUP4 MSTORE SWAP2 PUSH1 0x20 ADD SWAP2 PUSH2 0x5C1 JUMP JUMPDEST DUP3 ADD SWAP2 SWAP1 PUSH0 MSTORE PUSH1 0x20 PUSH0 KECCAK256 SWAP1 JUMPDEST DUP2 SLOAD DUP2 MSTORE SWAP1 PUSH1 0x1 ADD SWAP1 PUSH1 0x20 ADD DUP1 DUP4 GT PUSH2 0x5A4 JUMPI DUP3 SWAP1 SUB PUSH1 0x1F AND DUP3 ADD SWAP2 JUMPDEST POP POP POP POP POP DUP2 JUMP JUMPDEST PUSH0 PUSH1 0x3 DUP1 SLOAD SWAP1 POP SWAP1 POP SWAP1 JUMP JUMPDEST PUSH1 0x7 PUSH0 SWAP1 SLOAD SWAP1 PUSH2 0x100 EXP SWAP1 DIV PUSH20 0xFFFFFFFFFFFFFFFFFFFFFFFFFFFFFFFFFFFFFFFF AND PUSH20 0xFFFFFFFFFFFFFFFFFFFFFFFFFFFFFFFFFFFFFFFF AND CALLER PUSH20 0xFFFFFFFFFFFFFFFFFFFFFFFFFFFFFFFFFFFFFFFF AND EQ PUSH2 0x664 JUMPI PUSH1 0x40 MLOAD PUSH32 0x8C379A000000000000000000000000000000000000000000000000000000000 DUP2 MSTORE PUSH1 0x4 ADD PUSH2 0x65B SWAP1 PUSH2 0x2EE6 JUMP JUMPDEST PUSH1 0x40 MLOAD DUP1 SWAP2 SUB SWAP1 REVERT JUMPDEST PUSH0 PUSH1 0x1 DUP4 PUSH1 0x40 MLOAD PUSH2 0x675 SWAP2 SWAP1 PUSH2 0x2F3E JUMP JUMPDEST SWAP1 DUP2 MSTORE PUSH1 0x20 ADD PUSH1 0x40 MLOAD DUP1 SWAP2 SUB SWAP1 KECCAK256 PUSH0 ADD DUP1 SLOAD PUSH2 0x690 SWAP1 PUSH2 0x2E46 JUMP JUMPDEST SWAP1 POP GT PUSH2 0x6D2 JUMPI PUSH1 0x40 MLOAD PUSH32 0x8C379A000000000000000000000000000000000000000000000000000000000 DUP2 MSTORE PUSH1 0x4 ADD PUSH2 0x6C9 SWAP1 PUSH2 0x2F9E JUMP JUMPDEST PUSH1 0x40 MLOAD DUP1 SWAP2 SUB SWAP1 REVERT JUMPDEST DUP1 PUSH1 0x1 DUP4 PUSH1 0x40 MLOAD PUSH2 0x6E3 SWAP2 SWAP1 PUSH2 0x2F3E JUMP JUMPDEST SWAP1 DUP2 MSTORE PUSH1 0x20 ADD PUSH1 0x40 MLOAD DUP1 SWAP2 SUB SWAP1 KECCAK256 PUSH1 0x5 ADD PUSH0 PUSH2 0x100 EXP DUP2 SLOAD DUP2 PUSH1 0xFF MUL NOT AND SWAP1 DUP4 PUSH1 0x1 DUP2 GT ISZERO PUSH2 0x715 JUMPI PUSH2 0x714 PUSH2 0x28B5 JUMP JUMPDEST JUMPDEST MUL OR SWAP1 SSTORE POP POP POP JUMP JUMPDEST PUSH0 SELFBALANCE SWAP1 POP SWAP1 JUMP JUMPDEST PUSH1 0x3 DUP2 DUP2 SLOAD DUP2 LT PUSH2 0x734 JUMPI PUSH0 DUP1 REVERT JUMPDEST SWAP1 PUSH0 MSTORE PUSH1 0x20 PUSH0 KECCAK256 ADD PUSH0 SWAP2 POP SLOAD SWAP1 PUSH2 0x100 EXP SWAP1 DIV PUSH20 0xFFFFFFFFFFFFFFFFFFFFFFFFFFFFFFFFFFFFFFFF AND DUP2 JUMP JUMPDEST PUSH0 CALLVALUE GT PUSH2 0x7A2 JUMPI PUSH1 0x40 MLOAD PUSH32 0x8C379A000000000000000000000000000000000000000000000000000000000 DUP2 MSTORE PUSH1 0x4 ADD PUSH2 0x799 SWAP1 PUSH2 0x3006 JUMP JUMPDEST PUSH1 0x40 MLOAD DUP1 SWAP2 SUB SWAP1 REVERT JUMPDEST PUSH0 PUSH1 0x1 DUP3 PUSH1 0x40 MLOAD PUSH2 0x7B3 SWAP2 SWAP1 PUSH2 0x2F3E JUMP JUMPDEST SWAP1 DUP2 MSTORE PUSH1 0x20 ADD PUSH1 0x40 MLOAD DUP1 SWAP2 SUB SWAP1 KECCAK256 PUSH0 ADD DUP1 SLOAD PUSH2 0x7CE SWAP1 PUSH2 0x2E46 JUMP JUMPDEST SWAP1 POP GT PUSH2 0x810 JUMPI PUSH1 0x40 MLOAD PUSH32 0x8C379A000000000000000000000000000000000000000000000000000000000 DUP2 MSTORE PUSH1 0x4 ADD PUSH2 0x807 SWAP1 PUSH2 0x2F9E JUMP JUMPDEST PUSH1 0x40 MLOAD DUP1 SWAP2 SUB SWAP1 REVERT JUMPDEST PUSH0 PUSH1 0x1 DUP2 GT ISZERO PUSH2 0x823 JUMPI PUSH2 0x822 PUSH2 0x28B5 JUMP JUMPDEST JUMPDEST PUSH1 0x1 DUP3 PUSH1 0x40 MLOAD PUSH2 0x833 SWAP2 SWAP1 PUSH2 0x2F3E JUMP JUMPDEST SWAP1 DUP2 MSTORE PUSH1 0x20 ADD PUSH1 0x40 MLOAD DUP1 SWAP2 SUB SWAP1 KECCAK256 PUSH1 0x5 ADD PUSH0 SWAP1 SLOAD SWAP1 PUSH2 0x100 EXP SWAP1 DIV PUSH1 0xFF AND PUSH1 0x1 DUP2 GT ISZERO PUSH2 0x863 JUMPI PUSH2 0x862 PUSH2 0x28B5 JUMP JUMPDEST JUMPDEST EQ PUSH2 0x8A3 JUMPI PUSH1 0x40 MLOAD PUSH32 0x8C379A000000000000000000000000000000000000000000000000000000000 DUP2 MSTORE PUSH1 0x4 ADD PUSH2 0x89A SWAP1 PUSH2 0x306E JUMP JUMPDEST PUSH1 0x40 MLOAD DUP1 SWAP2 SUB SWAP1 REVERT JUMPDEST PUSH0 PUSH20 0xFFFFFFFFFFFFFFFFFFFFFFFFFFFFFFFFFFFFFFFF AND PUSH0 PUSH0 CALLER PUSH20 0xFFFFFFFFFFFFFFFFFFFFFFFFFFFFFFFFFFFFFFFF AND PUSH20 0xFFFFFFFFFFFFFFFFFFFFFFFFFFFFFFFFFFFFFFFF AND DUP2 MSTORE PUSH1 0x20 ADD SWAP1 DUP2 MSTORE PUSH1 0x20 ADD PUSH0 KECCAK256 PUSH0 ADD PUSH0 SWAP1 SLOAD SWAP1 PUSH2 0x100 EXP SWAP1 DIV PUSH20 0xFFFFFFFFFFFFFFFFFFFFFFFFFFFFFFFFFFFFFFFF AND PUSH20 0xFFFFFFFFFFFFFFFFFFFFFFFFFFFFFFFFFFFFFFFF AND SUB PUSH2 0xAF4 JUMPI PUSH1 0x40 MLOAD DUP1 PUSH1 0xA0 ADD PUSH1 0x40 MSTORE DUP1 CALLER PUSH20 0xFFFFFFFFFFFFFFFFFFFFFFFFFFFFFFFFFFFFFFFF AND DUP2 MSTORE PUSH1 0x20 ADD PUSH1 0x40 MLOAD DUP1 PUSH1 0x40 ADD PUSH1 0x40 MSTORE DUP1 PUSH1 0x9 DUP2 MSTORE PUSH1 0x20 ADD PUSH32 0x496E6469766964756F0000000000000000000000000000000000000000000000 DUP2 MSTORE POP DUP2 MSTORE PUSH1 0x20 ADD PUSH0 PUSH1 0x1 DUP2 GT ISZERO PUSH2 0x9A8 JUMPI PUSH2 0x9A7 PUSH2 0x28B5 JUMP JUMPDEST JUMPDEST DUP2 MSTORE PUSH1 0x20 ADD PUSH0 DUP2 MSTORE PUSH1 0x20 ADD PUSH0 DUP2 MSTORE POP PUSH0 PUSH0 CALLER PUSH20 0xFFFFFFFFFFFFFFFFFFFFFFFFFFFFFFFFFFFFFFFF AND PUSH20 0xFFFFFFFFFFFFFFFFFFFFFFFFFFFFFFFFFFFFFFFF AND DUP2 MSTORE PUSH1 0x20 ADD SWAP1 DUP2 MSTORE PUSH1 0x20 ADD PUSH0 KECCAK256 PUSH0 DUP3 ADD MLOAD DUP2 PUSH0 ADD PUSH0 PUSH2 0x100 EXP DUP2 SLOAD DUP2 PUSH20 0xFFFFFFFFFFFFFFFFFFFFFFFFFFFFFFFFFFFFFFFF MUL NOT AND SWAP1 DUP4 PUSH20 0xFFFFFFFFFFFFFFFFFFFFFFFFFFFFFFFFFFFFFFFF AND MUL OR SWAP1 SSTORE POP PUSH1 0x20 DUP3 ADD MLOAD DUP2 PUSH1 0x1 ADD SWAP1 DUP2 PUSH2 0xA4C SWAP2 SWAP1 PUSH2 0x322C JUMP JUMPDEST POP PUSH1 0x40 DUP3 ADD MLOAD DUP2 PUSH1 0x2 ADD PUSH0 PUSH2 0x100 EXP DUP2 SLOAD DUP2 PUSH1 0xFF MUL NOT AND SWAP1 DUP4 PUSH1 0x1 DUP2 GT ISZERO PUSH2 0xA77 JUMPI PUSH2 0xA76 PUSH2 0x28B5 JUMP JUMPDEST JUMPDEST MUL OR SWAP1 SSTORE POP PUSH1 0x60 DUP3 ADD MLOAD DUP2 PUSH1 0x3 ADD SSTORE PUSH1 0x80 DUP3 ADD MLOAD DUP2 PUSH1 0x4 ADD SSTORE SWAP1 POP POP PUSH1 0x3 CALLER SWAP1 DUP1 PUSH1 0x1 DUP2 SLOAD ADD DUP1 DUP3 SSTORE DUP1 SWAP2 POP POP PUSH1 0x1 SWAP1 SUB SWAP1 PUSH0 MSTORE PUSH1 0x20 PUSH0 KECCAK256 ADD PUSH0 SWAP1 SWAP2 SWAP1 SWAP2 SWAP1 SWAP2 PUSH2 0x100 EXP DUP2 SLOAD DUP2 PUSH20 0xFFFFFFFFFFFFFFFFFFFFFFFFFFFFFFFFFFFFFFFF MUL NOT AND SWAP1 DUP4 PUSH20 0xFFFFFFFFFFFFFFFFFFFFFFFFFFFFFFFFFFFFFFFF AND MUL OR SWAP1 SSTORE POP JUMPDEST PUSH1 0x6 PUSH0 DUP2 SLOAD DUP1 SWAP3 SWAP2 SWAP1 PUSH2 0xB06 SWAP1 PUSH2 0x3328 JUMP JUMPDEST SWAP2 SWAP1 POP SSTORE POP PUSH0 PUSH2 0xB17 PUSH1 0x6 SLOAD PUSH2 0x2247 JUMP JUMPDEST PUSH1 0x40 MLOAD PUSH1 0x20 ADD PUSH2 0xB27 SWAP2 SWAP1 PUSH2 0x33B9 JUMP JUMPDEST PUSH1 0x40 MLOAD PUSH1 0x20 DUP2 DUP4 SUB SUB DUP2 MSTORE SWAP1 PUSH1 0x40 MSTORE SWAP1 POP PUSH1 0x40 MLOAD DUP1 PUSH1 0xA0 ADD PUSH1 0x40 MSTORE DUP1 DUP3 DUP2 MSTORE PUSH1 0x20 ADD CALLER PUSH20 0xFFFFFFFFFFFFFFFFFFFFFFFFFFFFFFFFFFFFFFFF AND DUP2 MSTORE PUSH1 0x20 ADD DUP4 DUP2 MSTORE PUSH1 0x20 ADD CALLVALUE DUP2 MSTORE PUSH1 0x20 ADD TIMESTAMP DUP2 MSTORE POP PUSH1 0x2 DUP3 PUSH1 0x40 MLOAD PUSH2 0xB85 SWAP2 SWAP1 PUSH2 0x2F3E JUMP JUMPDEST SWAP1 DUP2 MSTORE PUSH1 0x20 ADD PUSH1 0x40 MLOAD DUP1 SWAP2 SUB SWAP1 KECCAK256 PUSH0 DUP3 ADD MLOAD DUP2 PUSH0 ADD SWAP1 DUP2 PUSH2 0xBA6 SWAP2 SWAP1 PUSH2 0x322C JUMP JUMPDEST POP PUSH1 0x20 DUP3 ADD MLOAD DUP2 PUSH1 0x1 ADD PUSH0 PUSH2 0x100 EXP DUP2 SLOAD DUP2 PUSH20 0xFFFFFFFFFFFFFFFFFFFFFFFFFFFFFFFFFFFFFFFF MUL NOT AND SWAP1 DUP4 PUSH20 0xFFFFFFFFFFFFFFFFFFFFFFFFFFFFFFFFFFFFFFFF AND MUL OR SWAP1 SSTORE POP PUSH1 0x40 DUP3 ADD MLOAD DUP2 PUSH1 0x2 ADD SWAP1 DUP2 PUSH2 0xC02 SWAP2 SWAP1 PUSH2 0x322C JUMP JUMPDEST POP PUSH1 0x60 DUP3 ADD MLOAD DUP2 PUSH1 0x3 ADD SSTORE PUSH1 0x80 DUP3 ADD MLOAD DUP2 PUSH1 0x4 ADD SSTORE SWAP1 POP POP PUSH1 0x5 DUP2 SWAP1 DUP1 PUSH1 0x1 DUP2 SLOAD ADD DUP1 DUP3 SSTORE DUP1 SWAP2 POP POP PUSH1 0x1 SWAP1 SUB SWAP1 PUSH0 MSTORE PUSH1 0x20 PUSH0 KECCAK256 ADD PUSH0 SWAP1 SWAP2 SWAP1 SWAP2 SWAP1 SWAP2 POP SWAP1 DUP2 PUSH2 0xC4B SWAP2 SWAP1 PUSH2 0x322C JUMP JUMPDEST POP CALLVALUE PUSH0 PUSH0 CALLER PUSH20 0xFFFFFFFFFFFFFFFFFFFFFFFFFFFFFFFFFFFFFFFF AND PUSH20 0xFFFFFFFFFFFFFFFFFFFFFFFFFFFFFFFFFFFFFFFF AND DUP2 MSTORE PUSH1 0x20 ADD SWAP1 DUP2 MSTORE PUSH1 0x20 ADD PUSH0 KECCAK256 PUSH1 0x3 ADD PUSH0 DUP3 DUP3 SLOAD PUSH2 0xC9A SWAP2 SWAP1 PUSH2 0x33DA JUMP JUMPDEST SWAP3 POP POP DUP2 SWAP1 SSTORE POP PUSH8 0xDE0B6B3A7640000 CALLVALUE PUSH2 0xCB5 SWAP2 SWAP1 PUSH2 0x343A JUMP JUMPDEST PUSH0 PUSH0 CALLER PUSH20 0xFFFFFFFFFFFFFFFFFFFFFFFFFFFFFFFFFFFFFFFF AND PUSH20 0xFFFFFFFFFFFFFFFFFFFFFFFFFFFFFFFFFFFFFFFF AND DUP2 MSTORE PUSH1 0x20 ADD SWAP1 DUP2 MSTORE PUSH1 0x20 ADD PUSH0 KECCAK256 PUSH1 0x4 ADD PUSH0 DUP3 DUP3 SLOAD PUSH2 0xD02 SWAP2 SWAP1 PUSH2 0x33DA JUMP JUMPDEST SWAP3 POP POP DUP2 SWAP1 SSTORE POP CALLVALUE PUSH1 0x1 DUP4 PUSH1 0x40 MLOAD PUSH2 0xD1A SWAP2 SWAP1 PUSH2 0x2F3E JUMP JUMPDEST SWAP1 DUP2 MSTORE PUSH1 0x20 ADD PUSH1 0x40 MLOAD DUP1 SWAP2 SUB SWAP1 KECCAK256 PUSH1 0x3 ADD PUSH0 DUP3 DUP3 SLOAD PUSH2 0xD39 SWAP2 SWAP1 PUSH2 0x33DA JUMP JUMPDEST SWAP3 POP POP DUP2 SWAP1 SSTORE POP CALLER PUSH20 0xFFFFFFFFFFFFFFFFFFFFFFFFFFFFFFFFFFFFFFFF AND PUSH32 0xCFB07AEB1A68DF533B5F56594C910129B452A7002D5741CA117913F1887C7CED DUP4 CALLVALUE PUSH1 0x40 MLOAD PUSH2 0xD88 SWAP3 SWAP2 SWAP1 PUSH2 0x346A JUMP JUMPDEST PUSH1 0x40 MLOAD DUP1 SWAP2 SUB SWAP1 LOG2 POP POP JUMP JUMPDEST PUSH2 0xD9C PUSH2 0x23A5 JUMP JUMPDEST PUSH0 PUSH0 DUP4 PUSH20 0xFFFFFFFFFFFFFFFFFFFFFFFFFFFFFFFFFFFFFFFF AND PUSH20 0xFFFFFFFFFFFFFFFFFFFFFFFFFFFFFFFFFFFFFFFF AND DUP2 MSTORE PUSH1 0x20 ADD SWAP1 DUP2 MSTORE PUSH1 0x20 ADD PUSH0 KECCAK256 PUSH1 0x40 MLOAD DUP1 PUSH1 0xA0 ADD PUSH1 0x40 MSTORE SWAP1 DUP2 PUSH0 DUP3 ADD PUSH0 SWAP1 SLOAD SWAP1 PUSH2 0x100 EXP SWAP1 DIV PUSH20 0xFFFFFFFFFFFFFFFFFFFFFFFFFFFFFFFFFFFFFFFF AND PUSH20 0xFFFFFFFFFFFFFFFFFFFFFFFFFFFFFFFFFFFFFFFF AND PUSH20 0xFFFFFFFFFFFFFFFFFFFFFFFFFFFFFFFFFFFFFFFF AND DUP2 MSTORE PUSH1 0x20 ADD PUSH1 0x1 DUP3 ADD DUP1 SLOAD PUSH2 0xE47 SWAP1 PUSH2 0x2E46 JUMP JUMPDEST DUP1 PUSH1 0x1F ADD PUSH1 0x20 DUP1 SWAP2 DIV MUL PUSH1 0x20 ADD PUSH1 0x40 MLOAD SWAP1 DUP2 ADD PUSH1 0x40 MSTORE DUP1 SWAP3 SWAP2 SWAP1 DUP2 DUP2 MSTORE PUSH1 0x20 ADD DUP3 DUP1 SLOAD PUSH2 0xE73 SWAP1 PUSH2 0x2E46 JUMP JUMPDEST DUP1 ISZERO PUSH2 0xEBE JUMPI DUP1 PUSH1 0x1F LT PUSH2 0xE95 JUMPI PUSH2 0x100 DUP1 DUP4 SLOAD DIV MUL DUP4 MSTORE SWAP2 PUSH1 0x20 ADD SWAP2 PUSH2 0xEBE JUMP JUMPDEST DUP3 ADD SWAP2 SWAP1 PUSH0 MSTORE PUSH1 0x20 PUSH0 KECCAK256 SWAP1 JUMPDEST DUP2 SLOAD DUP2 MSTORE SWAP1 PUSH1 0x1 ADD SWAP1 PUSH1 0x20 ADD DUP1 DUP4 GT PUSH2 0xEA1 JUMPI DUP3 SWAP1 SUB PUSH1 0x1F AND DUP3 ADD SWAP2 JUMPDEST POP POP POP POP POP DUP2 MSTORE PUSH1 0x20 ADD PUSH1 0x2 DUP3 ADD PUSH0 SWAP1 SLOAD SWAP1 PUSH2 0x100 EXP SWAP1 DIV PUSH1 0xFF AND PUSH1 0x1 DUP2 GT ISZERO PUSH2 0xEEB JUMPI PUSH2 0xEEA PUSH2 0x28B5 JUMP JUMPDEST JUMPDEST PUSH1 0x1 DUP2 GT ISZERO PUSH2 0xEFD JUMPI PUSH2 0xEFC PUSH2 0x28B5 JUMP JUMPDEST JUMPDEST DUP2 MSTORE PUSH1 0x20 ADD PUSH1 0x3 DUP3 ADD SLOAD DUP2 MSTORE PUSH1 0x20 ADD PUSH1 0x4 DUP3 ADD SLOAD DUP2 MSTORE POP POP SWAP1 POP SWAP2 SWAP1 POP JUMP JUMPDEST PUSH1 0x1 DUP2 DUP1 MLOAD PUSH1 0x20 DUP2 ADD DUP3 ADD DUP1 MLOAD DUP5 DUP3 MSTORE PUSH1 0x20 DUP4 ADD PUSH1 0x20 DUP6 ADD KECCAK256 DUP2 DUP4 MSTORE DUP1 SWAP6 POP POP POP POP POP POP PUSH0 SWAP2 POP SWAP1 POP DUP1 PUSH0 ADD DUP1 SLOAD PUSH2 0xF53 SWAP1 PUSH2 0x2E46 JUMP JUMPDEST DUP1 PUSH1 0x1F ADD PUSH1 0x20 DUP1 SWAP2 DIV MUL PUSH1 0x20 ADD PUSH1 0x40 MLOAD SWAP1 DUP2 ADD PUSH1 0x40 MSTORE DUP1 SWAP3 SWAP2 SWAP1 DUP2 DUP2 MSTORE PUSH1 0x20 ADD DUP3 DUP1 SLOAD PUSH2 0xF7F SWAP1 PUSH2 0x2E46 JUMP JUMPDEST DUP1 ISZERO PUSH2 0xFCA JUMPI DUP1 PUSH1 0x1F LT PUSH2 0xFA1 JUMPI PUSH2 0x100 DUP1 DUP4 SLOAD DIV MUL DUP4 MSTORE SWAP2 PUSH1 0x20 ADD SWAP2 PUSH2 0xFCA JUMP JUMPDEST DUP3 ADD SWAP2 SWAP1 PUSH0 MSTORE PUSH1 0x20 PUSH0 KECCAK256 SWAP1 JUMPDEST DUP2 SLOAD DUP2 MSTORE SWAP1 PUSH1 0x1 ADD SWAP1 PUSH1 0x20 ADD DUP1 DUP4 GT PUSH2 0xFAD JUMPI DUP3 SWAP1 SUB PUSH1 0x1F AND DUP3 ADD SWAP2 JUMPDEST POP POP POP POP POP SWAP1 DUP1 PUSH1 0x1 ADD DUP1 SLOAD PUSH2 0xFDF SWAP1 PUSH2 0x2E46 JUMP JUMPDEST DUP1 PUSH1 0x1F ADD PUSH1 0x20 DUP1 SWAP2 DIV MUL PUSH1 0x20 ADD PUSH1 0x40 MLOAD SWAP1 DUP2 ADD PUSH1 0x40 MSTORE DUP1 SWAP3 SWAP2 SWAP1 DUP2 DUP2 MSTORE PUSH1 0x20 ADD DUP3 DUP1 SLOAD PUSH2 0x100B SWAP1 PUSH2 0x2E46 JUMP JUMPDEST DUP1 ISZERO PUSH2 0x1056 JUMPI DUP1 PUSH1 0x1F LT PUSH2 0x102D JUMPI PUSH2 0x100 DUP1 DUP4 SLOAD DIV MUL DUP4 MSTORE SWAP2 PUSH1 0x20 ADD SWAP2 PUSH2 0x1056 JUMP JUMPDEST DUP3 ADD SWAP2 SWAP1 PUSH0 MSTORE PUSH1 0x20 PUSH0 KECCAK256 SWAP1 JUMPDEST DUP2 SLOAD DUP2 MSTORE SWAP1 PUSH1 0x1 ADD SWAP1 PUSH1 0x20 ADD DUP1 DUP4 GT PUSH2 0x1039 JUMPI DUP3 SWAP1 SUB PUSH1 0x1F AND DUP3 ADD SWAP2 JUMPDEST POP POP POP POP POP SWAP1 DUP1 PUSH1 0x2 ADD PUSH0 SWAP1 SLOAD SWAP1 PUSH2 0x100 EXP SWAP1 DIV PUSH20 0xFFFFFFFFFFFFFFFFFFFFFFFFFFFFFFFFFFFFFFFF AND SWAP1 DUP1 PUSH1 0x3 ADD SLOAD SWAP1 DUP1 PUSH1 0x4 ADD SLOAD SWAP1 DUP1 PUSH1 0x5 ADD PUSH0 SWAP1 SLOAD SWAP1 PUSH2 0x100 EXP SWAP1 DIV PUSH1 0xFF AND SWAP1 DUP1 PUSH1 0x6 ADD SLOAD SWAP1 POP DUP8 JUMP JUMPDEST PUSH2 0x10B1 PUSH2 0x23F8 JUMP JUMPDEST PUSH1 0x2 DUP3 PUSH1 0x40 MLOAD PUSH2 0x10C1 SWAP2 SWAP1 PUSH2 0x2F3E JUMP JUMPDEST SWAP1 DUP2 MSTORE PUSH1 0x20 ADD PUSH1 0x40 MLOAD DUP1 SWAP2 SUB SWAP1 KECCAK256 PUSH1 0x40 MLOAD DUP1 PUSH1 0xA0 ADD PUSH1 0x40 MSTORE SWAP1 DUP2 PUSH0 DUP3 ADD DUP1 SLOAD PUSH2 0x10E9 SWAP1 PUSH2 0x2E46 JUMP JUMPDEST DUP1 PUSH1 0x1F ADD PUSH1 0x20 DUP1 SWAP2 DIV MUL PUSH1 0x20 ADD PUSH1 0x40 MLOAD SWAP1 DUP2 ADD PUSH1 0x40 MSTORE DUP1 SWAP3 SWAP2 SWAP1 DUP2 DUP2 MSTORE PUSH1 0x20 ADD DUP3 DUP1 SLOAD PUSH2 0x1115 SWAP1 PUSH2 0x2E46 JUMP JUMPDEST DUP1 ISZERO PUSH2 0x1160 JUMPI DUP1 PUSH1 0x1F LT PUSH2 0x1137 JUMPI PUSH2 0x100 DUP1 DUP4 SLOAD DIV MUL DUP4 MSTORE SWAP2 PUSH1 0x20 ADD SWAP2 PUSH2 0x1160 JUMP JUMPDEST DUP3 ADD SWAP2 SWAP1 PUSH0 MSTORE PUSH1 0x20 PUSH0 KECCAK256 SWAP1 JUMPDEST DUP2 SLOAD DUP2 MSTORE SWAP1 PUSH1 0x1 ADD SWAP1 PUSH1 0x20 ADD DUP1 DUP4 GT PUSH2 0x1143 JUMPI DUP3 SWAP1 SUB PUSH1 0x1F AND DUP3 ADD SWAP2 JUMPDEST POP POP POP POP POP DUP2 MSTORE PUSH1 0x20 ADD PUSH1 0x1 DUP3 ADD PUSH0 SWAP1 SLOAD SWAP1 PUSH2 0x100 EXP SWAP1 DIV PUSH20 0xFFFFFFFFFFFFFFFFFFFFFFFFFFFFFFFFFFFFFFFF AND PUSH20 0xFFFFFFFFFFFFFFFFFFFFFFFFFFFFFFFFFFFFFFFF AND PUSH20 0xFFFFFFFFFFFFFFFFFFFFFFFFFFFFFFFFFFFFFFFF AND DUP2 MSTORE PUSH1 0x20 ADD PUSH1 0x2 DUP3 ADD DUP1 SLOAD PUSH2 0x11CE SWAP1 PUSH2 0x2E46 JUMP JUMPDEST DUP1 PUSH1 0x1F ADD PUSH1 0x20 DUP1 SWAP2 DIV MUL PUSH1 0x20 ADD PUSH1 0x40 MLOAD SWAP1 DUP2 ADD PUSH1 0x40 MSTORE DUP1 SWAP3 SWAP2 SWAP1 DUP2 DUP2 MSTORE PUSH1 0x20 ADD DUP3 DUP1 SLOAD PUSH2 0x11FA SWAP1 PUSH2 0x2E46 JUMP JUMPDEST DUP1 ISZERO PUSH2 0x1245 JUMPI DUP1 PUSH1 0x1F LT PUSH2 0x121C JUMPI PUSH2 0x100 DUP1 DUP4 SLOAD DIV MUL DUP4 MSTORE SWAP2 PUSH1 0x20 ADD SWAP2 PUSH2 0x1245 JUMP JUMPDEST DUP3 ADD SWAP2 SWAP1 PUSH0 MSTORE PUSH1 0x20 PUSH0 KECCAK256 SWAP1 JUMPDEST DUP2 SLOAD DUP2 MSTORE SWAP1 PUSH1 0x1 ADD SWAP1 PUSH1 0x20 ADD DUP1 DUP4 GT PUSH2 0x1228 JUMPI DUP3 SWAP1 SUB PUSH1 0x1F AND DUP3 ADD SWAP2 JUMPDEST POP POP POP POP POP DUP2 MSTORE PUSH1 0x20 ADD PUSH1 0x3 DUP3 ADD SLOAD DUP2 MSTORE PUSH1 0x20 ADD PUSH1 0x4 DUP3 ADD SLOAD DUP2 MSTORE POP POP SWAP1 POP SWAP2 SWAP1 POP JUMP JUMPDEST PUSH0 PUSH1 0x4 DUP1 SLOAD SWAP1 POP SWAP1 POP SWAP1 JUMP JUMPDEST PUSH0 PUSH1 0x20 MSTORE DUP1 PUSH0 MSTORE PUSH1 0x40 PUSH0 KECCAK256 PUSH0 SWAP2 POP SWAP1 POP DUP1 PUSH0 ADD PUSH0 SWAP1 SLOAD SWAP1 PUSH2 0x100 EXP SWAP1 DIV PUSH20 0xFFFFFFFFFFFFFFFFFFFFFFFFFFFFFFFFFFFFFFFF AND SWAP1 DUP1 PUSH1 0x1 ADD DUP1 SLOAD PUSH2 0x12B8 SWAP1 PUSH2 0x2E46 JUMP JUMPDEST DUP1 PUSH1 0x1F ADD PUSH1 0x20 DUP1 SWAP2 DIV MUL PUSH1 0x20 ADD PUSH1 0x40 MLOAD SWAP1 DUP2 ADD PUSH1 0x40 MSTORE DUP1 SWAP3 SWAP2 SWAP1 DUP2 DUP2 MSTORE PUSH1 0x20 ADD DUP3 DUP1 SLOAD PUSH2 0x12E4 SWAP1 PUSH2 0x2E46 JUMP JUMPDEST DUP1 ISZERO PUSH2 0x132F JUMPI DUP1 PUSH1 0x1F LT PUSH2 0x1306 JUMPI PUSH2 0x100 DUP1 DUP4 SLOAD DIV MUL DUP4 MSTORE SWAP2 PUSH1 0x20 ADD SWAP2 PUSH2 0x132F JUMP JUMPDEST DUP3 ADD SWAP2 SWAP1 PUSH0 MSTORE PUSH1 0x20 PUSH0 KECCAK256 SWAP1 JUMPDEST DUP2 SLOAD DUP2 MSTORE SWAP1 PUSH1 0x1 ADD SWAP1 PUSH1 0x20 ADD DUP1 DUP4 GT PUSH2 0x1312 JUMPI DUP3 SWAP1 SUB PUSH1 0x1F AND DUP3 ADD SWAP2 JUMPDEST POP POP POP POP POP SWAP1 DUP1 PUSH1 0x2 ADD PUSH0 SWAP1 SLOAD SWAP1 PUSH2 0x100 EXP SWAP1 DIV PUSH1 0xFF AND SWAP1 DUP1 PUSH1 0x3 ADD SLOAD SWAP1 DUP1 PUSH1 0x4 ADD SLOAD SWAP1 POP DUP6 JUMP JUMPDEST PUSH2 0x135F PUSH2 0x243A JUMP JUMPDEST PUSH1 0x1 DUP3 PUSH1 0x40 MLOAD PUSH2 0x136F SWAP2 SWAP1 PUSH2 0x2F3E JUMP JUMPDEST SWAP1 DUP2 MSTORE PUSH1 0x20 ADD PUSH1 0x40 MLOAD DUP1 SWAP2 SUB SWAP1 KECCAK256 PUSH1 0x40 MLOAD DUP1 PUSH1 0xE0 ADD PUSH1 0x40 MSTORE SWAP1 DUP2 PUSH0 DUP3 ADD DUP1 SLOAD PUSH2 0x1397 SWAP1 PUSH2 0x2E46 JUMP JUMPDEST DUP1 PUSH1 0x1F ADD PUSH1 0x20 DUP1 SWAP2 DIV MUL PUSH1 0x20 ADD PUSH1 0x40 MLOAD SWAP1 DUP2 ADD PUSH1 0x40 MSTORE DUP1 SWAP3 SWAP2 SWAP1 DUP2 DUP2 MSTORE PUSH1 0x20 ADD DUP3 DUP1 SLOAD PUSH2 0x13C3 SWAP1 PUSH2 0x2E46 JUMP JUMPDEST DUP1 ISZERO PUSH2 0x140E JUMPI DUP1 PUSH1 0x1F LT PUSH2 0x13E5 JUMPI PUSH2 0x100 DUP1 DUP4 SLOAD DIV MUL DUP4 MSTORE SWAP2 PUSH1 0x20 ADD SWAP2 PUSH2 0x140E JUMP JUMPDEST DUP3 ADD SWAP2 SWAP1 PUSH0 MSTORE PUSH1 0x20 PUSH0 KECCAK256 SWAP1 JUMPDEST DUP2 SLOAD DUP2 MSTORE SWAP1 PUSH1 0x1 ADD SWAP1 PUSH1 0x20 ADD DUP1 DUP4 GT PUSH2 0x13F1 JUMPI DUP3 SWAP1 SUB PUSH1 0x1F AND DUP3 ADD SWAP2 JUMPDEST POP POP POP POP POP DUP2 MSTORE PUSH1 0x20 ADD PUSH1 0x1 DUP3 ADD DUP1 SLOAD PUSH2 0x1427 SWAP1 PUSH2 0x2E46 JUMP JUMPDEST DUP1 PUSH1 0x1F ADD PUSH1 0x20 DUP1 SWAP2 DIV MUL PUSH1 0x20 ADD PUSH1 0x40 MLOAD SWAP1 DUP2 ADD PUSH1 0x40 MSTORE DUP1 SWAP3 SWAP2 SWAP1 DUP2 DUP2 MSTORE PUSH1 0x20 ADD DUP3 DUP1 SLOAD PUSH2 0x1453 SWAP1 PUSH2 0x2E46 JUMP JUMPDEST DUP1 ISZERO PUSH2 0x149E JUMPI DUP1 PUSH1 0x1F LT PUSH2 0x1475 JUMPI PUSH2 0x100 DUP1 DUP4 SLOAD DIV MUL DUP4 MSTORE SWAP2 PUSH1 0x20 ADD SWAP2 PUSH2 0x149E JUMP JUMPDEST DUP3 ADD SWAP2 SWAP1 PUSH0 MSTORE PUSH1 0x20 PUSH0 KECCAK256 SWAP1 JUMPDEST DUP2 SLOAD DUP2 MSTORE SWAP1 PUSH1 0x1 ADD SWAP1 PUSH1 0x20 ADD DUP1 DUP4 GT PUSH2 0x1481 JUMPI DUP3 SWAP1 SUB PUSH1 0x1F AND DUP3 ADD SWAP2 JUMPDEST POP POP POP POP POP DUP2 MSTORE PUSH1 0x20 ADD PUSH1 0x2 DUP3 ADD PUSH0 SWAP1 SLOAD SWAP1 PUSH2 0x100 EXP SWAP1 DIV PUSH20 0xFFFFFFFFFFFFFFFFFFFFFFFFFFFFFFFFFFFFFFFF AND PUSH20 0xFFFFFFFFFFFFFFFFFFFFFFFFFFFFFFFFFFFFFFFF AND PUSH20 0xFFFFFFFFFFFFFFFFFFFFFFFFFFFFFFFFFFFFFFFF AND DUP2 MSTORE PUSH1 0x20 ADD PUSH1 0x3 DUP3 ADD SLOAD DUP2 MSTORE PUSH1 0x20 ADD PUSH1 0x4 DUP3 ADD SLOAD DUP2 MSTORE PUSH1 0x20 ADD PUSH1 0x5 DUP3 ADD PUSH0 SWAP1 SLOAD SWAP1 PUSH2 0x100 EXP SWAP1 DIV PUSH1 0xFF AND PUSH1 0x1 DUP2 GT ISZERO PUSH2 0x1534 JUMPI PUSH2 0x1533 PUSH2 0x28B5 JUMP JUMPDEST JUMPDEST PUSH1 0x1 DUP2 GT ISZERO PUSH2 0x1546 JUMPI PUSH2 0x1545 PUSH2 0x28B5 JUMP JUMPDEST JUMPDEST DUP2 MSTORE PUSH1 0x20 ADD PUSH1 0x6 DUP3 ADD SLOAD DUP2 MSTORE POP POP SWAP1 POP SWAP2 SWAP1 POP JUMP JUMPDEST PUSH1 0x7 PUSH0 SWAP1 SLOAD SWAP1 PUSH2 0x100 EXP SWAP1 DIV PUSH20 0xFFFFFFFFFFFFFFFFFFFFFFFFFFFFFFFFFFFFFFFF AND PUSH20 0xFFFFFFFFFFFFFFFFFFFFFFFFFFFFFFFFFFFFFFFF AND CALLER PUSH20 0xFFFFFFFFFFFFFFFFFFFFFFFFFFFFFFFFFFFFFFFF AND EQ PUSH2 0x15EA JUMPI PUSH1 0x40 MLOAD PUSH32 0x8C379A000000000000000000000000000000000000000000000000000000000 DUP2 MSTORE PUSH1 0x4 ADD PUSH2 0x15E1 SWAP1 PUSH2 0x2EE6 JUMP JUMPDEST PUSH1 0x40 MLOAD DUP1 SWAP2 SUB SWAP1 REVERT JUMPDEST PUSH1 0x7 PUSH0 SWAP1 SLOAD SWAP1 PUSH2 0x100 EXP SWAP1 DIV PUSH20 0xFFFFFFFFFFFFFFFFFFFFFFFFFFFFFFFFFFFFFFFF AND PUSH20 0xFFFFFFFFFFFFFFFFFFFFFFFFFFFFFFFFFFFFFFFF AND PUSH2 0x8FC SELFBALANCE SWAP1 DUP2 ISZERO MUL SWAP1 PUSH1 0x40 MLOAD PUSH0 PUSH1 0x40 MLOAD DUP1 DUP4 SUB DUP2 DUP6 DUP9 DUP9 CALL SWAP4 POP POP POP POP ISZERO DUP1 ISZERO PUSH2 0x164E JUMPI RETURNDATASIZE PUSH0 PUSH0 RETURNDATACOPY RETURNDATASIZE PUSH0 REVERT JUMPDEST POP JUMP JUMPDEST PUSH0 PUSH1 0x5 DUP1 SLOAD SWAP1 POP SWAP1 POP SWAP1 JUMP JUMPDEST PUSH1 0x7 PUSH0 SWAP1 SLOAD SWAP1 PUSH2 0x100 EXP SWAP1 DIV PUSH20 0xFFFFFFFFFFFFFFFFFFFFFFFFFFFFFFFFFFFFFFFF AND DUP2 JUMP JUMPDEST PUSH1 0x2 DUP2 DUP1 MLOAD PUSH1 0x20 DUP2 ADD DUP3 ADD DUP1 MLOAD DUP5 DUP3 MSTORE PUSH1 0x20 DUP4 ADD PUSH1 0x20 DUP6 ADD KECCAK256 DUP2 DUP4 MSTORE DUP1 SWAP6 POP POP POP POP POP POP PUSH0 SWAP2 POP SWAP1 POP DUP1 PUSH0 ADD DUP1 SLOAD PUSH2 0x16B9 SWAP1 PUSH2 0x2E46 JUMP JUMPDEST DUP1 PUSH1 0x1F ADD PUSH1 0x20 DUP1 SWAP2 DIV MUL PUSH1 0x20 ADD PUSH1 0x40 MLOAD SWAP1 DUP2 ADD PUSH1 0x40 MSTORE DUP1 SWAP3 SWAP2 SWAP1 DUP2 DUP2 MSTORE PUSH1 0x20 ADD DUP3 DUP1 SLOAD PUSH2 0x16E5 SWAP1 PUSH2 0x2E46 JUMP JUMPDEST DUP1 ISZERO PUSH2 0x1730 JUMPI DUP1 PUSH1 0x1F LT PUSH2 0x1707 JUMPI PUSH2 0x100 DUP1 DUP4 SLOAD DIV MUL DUP4 MSTORE SWAP2 PUSH1 0x20 ADD SWAP2 PUSH2 0x1730 JUMP JUMPDEST DUP3 ADD SWAP2 SWAP1 PUSH0 MSTORE PUSH1 0x20 PUSH0 KECCAK256 SWAP1 JUMPDEST DUP2 SLOAD DUP2 MSTORE SWAP1 PUSH1 0x1 ADD SWAP1 PUSH1 0x20 ADD DUP1 DUP4 GT PUSH2 0x1713 JUMPI DUP3 SWAP1 SUB PUSH1 0x1F AND DUP3 ADD SWAP2 JUMPDEST POP POP POP POP POP SWAP1 DUP1 PUSH1 0x1 ADD PUSH0 SWAP1 SLOAD SWAP1 PUSH2 0x100 EXP SWAP1 DIV PUSH20 0xFFFFFFFFFFFFFFFFFFFFFFFFFFFFFFFFFFFFFFFF AND SWAP1 DUP1 PUSH1 0x2 ADD DUP1 SLOAD PUSH2 0x176A SWAP1 PUSH2 0x2E46 JUMP JUMPDEST DUP1 PUSH1 0x1F ADD PUSH1 0x20 DUP1 SWAP2 DIV MUL PUSH1 0x20 ADD PUSH1 0x40 MLOAD SWAP1 DUP2 ADD PUSH1 0x40 MSTORE DUP1 SWAP3 SWAP2 SWAP1 DUP2 DUP2 MSTORE PUSH1 0x20 ADD DUP3 DUP1 SLOAD PUSH2 0x1796 SWAP1 PUSH2 0x2E46 JUMP JUMPDEST DUP1 ISZERO PUSH2 0x17E1 JUMPI DUP1 PUSH1 0x1F LT PUSH2 0x17B8 JUMPI PUSH2 0x100 DUP1 DUP4 SLOAD DIV MUL DUP4 MSTORE SWAP2 PUSH1 0x20 ADD SWAP2 PUSH2 0x17E1 JUMP JUMPDEST DUP3 ADD SWAP2 SWAP1 PUSH0 MSTORE PUSH1 0x20 PUSH0 KECCAK256 SWAP1 JUMPDEST DUP2 SLOAD DUP2 MSTORE SWAP1 PUSH1 0x1 ADD SWAP1 PUSH1 0x20 ADD DUP1 DUP4 GT PUSH2 0x17C4 JUMPI DUP3 SWAP1 SUB PUSH1 0x1F AND DUP3 ADD SWAP2 JUMPDEST POP POP POP POP POP SWAP1 DUP1 PUSH1 0x3 ADD SLOAD SWAP1 DUP1 PUSH1 0x4 ADD SLOAD SWAP1 POP DUP6 JUMP JUMPDEST PUSH1 0x4 DUP2 DUP2 SLOAD DUP2 LT PUSH2 0x1806 JUMPI PUSH0 DUP1 REVERT JUMPDEST SWAP1 PUSH0 MSTORE PUSH1 0x20 PUSH0 KECCAK256 ADD PUSH0 SWAP2 POP SWAP1 POP DUP1 SLOAD PUSH2 0x181E SWAP1 PUSH2 0x2E46 JUMP JUMPDEST DUP1 PUSH1 0x1F ADD PUSH1 0x20 DUP1 SWAP2 DIV MUL PUSH1 0x20 ADD PUSH1 0x40 MLOAD SWAP1 DUP2 ADD PUSH1 0x40 MSTORE DUP1 SWAP3 SWAP2 SWAP1 DUP2 DUP2 MSTORE PUSH1 0x20 ADD DUP3 DUP1 SLOAD PUSH2 0x184A SWAP1 PUSH2 0x2E46 JUMP JUMPDEST DUP1 ISZERO PUSH2 0x1895 JUMPI DUP1 PUSH1 0x1F LT PUSH2 0x186C JUMPI PUSH2 0x100 DUP1 DUP4 SLOAD DIV MUL DUP4 MSTORE SWAP2 PUSH1 0x20 ADD SWAP2 PUSH2 0x1895 JUMP JUMPDEST DUP3 ADD SWAP2 SWAP1 PUSH0 MSTORE PUSH1 0x20 PUSH0 KECCAK256 SWAP1 JUMPDEST DUP2 SLOAD DUP2 MSTORE SWAP1 PUSH1 0x1 ADD SWAP1 PUSH1 0x20 ADD DUP1 DUP4 GT PUSH2 0x1878 JUMPI DUP3 SWAP1 SUB PUSH1 0x1F AND DUP3 ADD SWAP2 JUMPDEST POP POP POP POP POP DUP2 JUMP JUMPDEST PUSH1 0x7 PUSH0 SWAP1 SLOAD SWAP1 PUSH2 0x100 EXP SWAP1 DIV PUSH20 0xFFFFFFFFFFFFFFFFFFFFFFFFFFFFFFFFFFFFFFFF AND PUSH20 0xFFFFFFFFFFFFFFFFFFFFFFFFFFFFFFFFFFFFFFFF AND CALLER PUSH20 0xFFFFFFFFFFFFFFFFFFFFFFFFFFFFFFFFFFFFFFFF AND EQ PUSH2 0x192C JUMPI PUSH1 0x40 MLOAD PUSH32 0x8C379A000000000000000000000000000000000000000000000000000000000 DUP2 MSTORE PUSH1 0x4 ADD PUSH2 0x1923 SWAP1 PUSH2 0x2EE6 JUMP JUMPDEST PUSH1 0x40 MLOAD DUP1 SWAP2 SUB SWAP1 REVERT JUMPDEST PUSH0 PUSH1 0x1 DUP4 PUSH1 0x40 MLOAD PUSH2 0x193D SWAP2 SWAP1 PUSH2 0x2F3E JUMP JUMPDEST SWAP1 DUP2 MSTORE PUSH1 0x20 ADD PUSH1 0x40 MLOAD DUP1 SWAP2 SUB SWAP1 KECCAK256 PUSH0 ADD DUP1 SLOAD PUSH2 0x1958 SWAP1 PUSH2 0x2E46 JUMP JUMPDEST SWAP1 POP GT PUSH2 0x199A JUMPI PUSH1 0x40 MLOAD PUSH32 0x8C379A000000000000000000000000000000000000000000000000000000000 DUP2 MSTORE PUSH1 0x4 ADD PUSH2 0x1991 SWAP1 PUSH2 0x2F9E JUMP JUMPDEST PUSH1 0x40 MLOAD DUP1 SWAP2 SUB SWAP1 REVERT JUMPDEST PUSH1 0x1 DUP3 PUSH1 0x40 MLOAD PUSH2 0x19AA SWAP2 SWAP1 PUSH2 0x2F3E JUMP JUMPDEST SWAP1 DUP2 MSTORE PUSH1 0x20 ADD PUSH1 0x40 MLOAD DUP1 SWAP2 SUB SWAP1 KECCAK256 PUSH1 0x3 ADD SLOAD DUP2 GT ISZERO PUSH2 0x19FE JUMPI PUSH1 0x40 MLOAD PUSH32 0x8C379A000000000000000000000000000000000000000000000000000000000 DUP2 MSTORE PUSH1 0x4 ADD PUSH2 0x19F5 SWAP1 PUSH2 0x34E2 JUMP JUMPDEST PUSH1 0x40 MLOAD DUP1 SWAP2 SUB SWAP1 REVERT JUMPDEST DUP1 PUSH1 0x1 DUP4 PUSH1 0x40 MLOAD PUSH2 0x1A0F SWAP2 SWAP1 PUSH2 0x2F3E JUMP JUMPDEST SWAP1 DUP2 MSTORE PUSH1 0x20 ADD PUSH1 0x40 MLOAD DUP1 SWAP2 SUB SWAP1 KECCAK256 PUSH1 0x4 ADD PUSH0 DUP3 DUP3 SLOAD PUSH2 0x1A2E SWAP2 SWAP1 PUSH2 0x33DA JUMP JUMPDEST SWAP3 POP POP DUP2 SWAP1 SSTORE POP POP POP JUMP JUMPDEST PUSH0 PUSH20 0xFFFFFFFFFFFFFFFFFFFFFFFFFFFFFFFFFFFFFFFF AND PUSH0 PUSH0 CALLER PUSH20 0xFFFFFFFFFFFFFFFFFFFFFFFFFFFFFFFFFFFFFFFF AND PUSH20 0xFFFFFFFFFFFFFFFFFFFFFFFFFFFFFFFFFFFFFFFF AND DUP2 MSTORE PUSH1 0x20 ADD SWAP1 DUP2 MSTORE PUSH1 0x20 ADD PUSH0 KECCAK256 PUSH0 ADD PUSH0 SWAP1 SLOAD SWAP1 PUSH2 0x100 EXP SWAP1 DIV PUSH20 0xFFFFFFFFFFFFFFFFFFFFFFFFFFFFFFFFFFFFFFFF AND PUSH20 0xFFFFFFFFFFFFFFFFFFFFFFFFFFFFFFFFFFFFFFFF AND EQ PUSH2 0x1B04 JUMPI PUSH1 0x40 MLOAD PUSH32 0x8C379A000000000000000000000000000000000000000000000000000000000 DUP2 MSTORE PUSH1 0x4 ADD PUSH2 0x1AFB SWAP1 PUSH2 0x354A JUMP JUMPDEST PUSH1 0x40 MLOAD DUP1 SWAP2 SUB SWAP1 REVERT JUMPDEST PUSH1 0x40 MLOAD DUP1 PUSH1 0xA0 ADD PUSH1 0x40 MSTORE DUP1 CALLER PUSH20 0xFFFFFFFFFFFFFFFFFFFFFFFFFFFFFFFFFFFFFFFF AND DUP2 MSTORE PUSH1 0x20 ADD DUP4 DUP2 MSTORE PUSH1 0x20 ADD DUP3 PUSH1 0x1 DUP2 GT ISZERO PUSH2 0x1B44 JUMPI PUSH2 0x1B43 PUSH2 0x28B5 JUMP JUMPDEST JUMPDEST DUP2 MSTORE PUSH1 0x20 ADD PUSH0 DUP2 MSTORE PUSH1 0x20 ADD PUSH0 DUP2 MSTORE POP PUSH0 PUSH0 CALLER PUSH20 0xFFFFFFFFFFFFFFFFFFFFFFFFFFFFFFFFFFFFFFFF AND PUSH20 0xFFFFFFFFFFFFFFFFFFFFFFFFFFFFFFFFFFFFFFFF AND DUP2 MSTORE PUSH1 0x20 ADD SWAP1 DUP2 MSTORE PUSH1 0x20 ADD PUSH0 KECCAK256 PUSH0 DUP3 ADD MLOAD DUP2 PUSH0 ADD PUSH0 PUSH2 0x100 EXP DUP2 SLOAD DUP2 PUSH20 0xFFFFFFFFFFFFFFFFFFFFFFFFFFFFFFFFFFFFFFFF MUL NOT AND SWAP1 DUP4 PUSH20 0xFFFFFFFFFFFFFFFFFFFFFFFFFFFFFFFFFFFFFFFF AND MUL OR SWAP1 SSTORE POP PUSH1 0x20 DUP3 ADD MLOAD DUP2 PUSH1 0x1 ADD SWAP1 DUP2 PUSH2 0x1BE8 SWAP2 SWAP1 PUSH2 0x322C JUMP JUMPDEST POP PUSH1 0x40 DUP3 ADD MLOAD DUP2 PUSH1 0x2 ADD PUSH0 PUSH2 0x100 EXP DUP2 SLOAD DUP2 PUSH1 0xFF MUL NOT AND SWAP1 DUP4 PUSH1 0x1 DUP2 GT ISZERO PUSH2 0x1C13 JUMPI PUSH2 0x1C12 PUSH2 0x28B5 JUMP JUMPDEST JUMPDEST MUL OR SWAP1 SSTORE POP PUSH1 0x60 DUP3 ADD MLOAD DUP2 PUSH1 0x3 ADD SSTORE PUSH1 0x80 DUP3 ADD MLOAD DUP2 PUSH1 0x4 ADD SSTORE SWAP1 POP POP PUSH1 0x3 CALLER SWAP1 DUP1 PUSH1 0x1 DUP2 SLOAD ADD DUP1 DUP3 SSTORE DUP1 SWAP2 POP POP PUSH1 0x1 SWAP1 SUB SWAP1 PUSH0 MSTORE PUSH1 0x20 PUSH0 KECCAK256 ADD PUSH0 SWAP1 SWAP2 SWAP1 SWAP2 SWAP1 SWAP2 PUSH2 0x100 EXP DUP2 SLOAD DUP2 PUSH20 0xFFFFFFFFFFFFFFFFFFFFFFFFFFFFFFFFFFFFFFFF MUL NOT AND SWAP1 DUP4 PUSH20 0xFFFFFFFFFFFFFFFFFFFFFFFFFFFFFFFFFFFFFFFF AND MUL OR SWAP1 SSTORE POP CALLER PUSH20 0xFFFFFFFFFFFFFFFFFFFFFFFFFFFFFFFFFFFFFFFF AND PUSH32 0xBD0AA66E3F9BB3059D63A43B52E561B9D290792BB97B3CA81FAFC608A3A026E8 DUP4 PUSH1 0x40 MLOAD PUSH2 0x1CD5 SWAP2 SWAP1 PUSH2 0x2579 JUMP JUMPDEST PUSH1 0x40 MLOAD DUP1 SWAP2 SUB SWAP1 LOG2 POP POP JUMP JUMPDEST PUSH1 0x7 PUSH0 SWAP1 SLOAD SWAP1 PUSH2 0x100 EXP SWAP1 DIV PUSH20 0xFFFFFFFFFFFFFFFFFFFFFFFFFFFFFFFFFFFFFFFF AND PUSH20 0xFFFFFFFFFFFFFFFFFFFFFFFFFFFFFFFFFFFFFFFF AND CALLER PUSH20 0xFFFFFFFFFFFFFFFFFFFFFFFFFFFFFFFFFFFFFFFF AND EQ PUSH2 0x1D70 JUMPI PUSH1 0x40 MLOAD PUSH32 0x8C379A000000000000000000000000000000000000000000000000000000000 DUP2 MSTORE PUSH1 0x4 ADD PUSH2 0x1D67 SWAP1 PUSH2 0x2EE6 JUMP JUMPDEST PUSH1 0x40 MLOAD DUP1 SWAP2 SUB SWAP1 REVERT JUMPDEST PUSH0 PUSH1 0x1 DUP5 PUSH1 0x40 MLOAD PUSH2 0x1D81 SWAP2 SWAP1 PUSH2 0x2F3E JUMP JUMPDEST SWAP1 DUP2 MSTORE PUSH1 0x20 ADD PUSH1 0x40 MLOAD DUP1 SWAP2 SUB SWAP1 KECCAK256 PUSH0 ADD DUP1 SLOAD PUSH2 0x1D9C SWAP1 PUSH2 0x2E46 JUMP JUMPDEST SWAP1 POP EQ PUSH2 0x1DDE JUMPI PUSH1 0x40 MLOAD PUSH32 0x8C379A000000000000000000000000000000000000000000000000000000000 DUP2 MSTORE PUSH1 0x4 ADD PUSH2 0x1DD5 SWAP1 PUSH2 0x35B2 JUMP JUMPDEST PUSH1 0x40 MLOAD DUP1 SWAP2 SUB SWAP1 REVERT JUMPDEST PUSH1 0x40 MLOAD DUP1 PUSH1 0xE0 ADD PUSH1 0x40 MSTORE DUP1 DUP5 DUP2 MSTORE PUSH1 0x20 ADD DUP4 DUP2 MSTORE PUSH1 0x20 ADD DUP3 PUSH20 0xFFFFFFFFFFFFFFFFFFFFFFFFFFFFFFFFFFFFFFFF AND DUP2 MSTORE PUSH1 0x20 ADD PUSH0 DUP2 MSTORE PUSH1 0x20 ADD PUSH0 DUP2 MSTORE PUSH1 0x20 ADD PUSH0 PUSH1 0x1 DUP2 GT ISZERO PUSH2 0x1E30 JUMPI PUSH2 0x1E2F PUSH2 0x28B5 JUMP JUMPDEST JUMPDEST DUP2 MSTORE PUSH1 0x20 ADD PUSH0 DUP2 MSTORE POP PUSH1 0x1 DUP5 PUSH1 0x40 MLOAD PUSH2 0x1E49 SWAP2 SWAP1 PUSH2 0x2F3E JUMP JUMPDEST SWAP1 DUP2 MSTORE PUSH1 0x20 ADD PUSH1 0x40 MLOAD DUP1 SWAP2 SUB SWAP1 KECCAK256 PUSH0 DUP3 ADD MLOAD DUP2 PUSH0 ADD SWAP1 DUP2 PUSH2 0x1E6A SWAP2 SWAP1 PUSH2 0x322C JUMP JUMPDEST POP PUSH1 0x20 DUP3 ADD MLOAD DUP2 PUSH1 0x1 ADD SWAP1 DUP2 PUSH2 0x1E80 SWAP2 SWAP1 PUSH2 0x322C JUMP JUMPDEST POP PUSH1 0x40 DUP3 ADD MLOAD DUP2 PUSH1 0x2 ADD PUSH0 PUSH2 0x100 EXP DUP2 SLOAD DUP2 PUSH20 0xFFFFFFFFFFFFFFFFFFFFFFFFFFFFFFFFFFFFFFFF MUL NOT AND SWAP1 DUP4 PUSH20 0xFFFFFFFFFFFFFFFFFFFFFFFFFFFFFFFFFFFFFFFF AND MUL OR SWAP1 SSTORE POP PUSH1 0x60 DUP3 ADD MLOAD DUP2 PUSH1 0x3 ADD SSTORE PUSH1 0x80 DUP3 ADD MLOAD DUP2 PUSH1 0x4 ADD SSTORE PUSH1 0xA0 DUP3 ADD MLOAD DUP2 PUSH1 0x5 ADD PUSH0 PUSH2 0x100 EXP DUP2 SLOAD DUP2 PUSH1 0xFF MUL NOT AND SWAP1 DUP4 PUSH1 0x1 DUP2 GT ISZERO PUSH2 0x1F05 JUMPI PUSH2 0x1F04 PUSH2 0x28B5 JUMP JUMPDEST JUMPDEST MUL OR SWAP1 SSTORE POP PUSH1 0xC0 DUP3 ADD MLOAD DUP2 PUSH1 0x6 ADD SSTORE SWAP1 POP POP PUSH1 0x4 DUP4 SWAP1 DUP1 PUSH1 0x1 DUP2 SLOAD ADD DUP1 DUP3 SSTORE DUP1 SWAP2 POP POP PUSH1 0x1 SWAP1 SUB SWAP1 PUSH0 MSTORE PUSH1 0x20 PUSH0 KECCAK256 ADD PUSH0 SWAP1 SWAP2 SWAP1 SWAP2 SWAP1 SWAP2 POP SWAP1 DUP2 PUSH2 0x1F48 SWAP2 SWAP1 PUSH2 0x322C JUMP JUMPDEST POP PUSH32 0x9BE706A9F3913E31E847D7FA4C6F64709E9391228AE7F008D72BEABE0B95750F DUP4 DUP4 PUSH1 0x40 MLOAD PUSH2 0x1F7A SWAP3 SWAP2 SWAP1 PUSH2 0x35D0 JUMP JUMPDEST PUSH1 0x40 MLOAD DUP1 SWAP2 SUB SWAP1 LOG1 POP POP POP JUMP JUMPDEST PUSH0 PUSH20 0xFFFFFFFFFFFFFFFFFFFFFFFFFFFFFFFFFFFFFFFF AND PUSH0 PUSH0 CALLER PUSH20 0xFFFFFFFFFFFFFFFFFFFFFFFFFFFFFFFFFFFFFFFF AND PUSH20 0xFFFFFFFFFFFFFFFFFFFFFFFFFFFFFFFFFFFFFFFF AND DUP2 MSTORE PUSH1 0x20 ADD SWAP1 DUP2 MSTORE PUSH1 0x20 ADD PUSH0 KECCAK256 PUSH0 ADD PUSH0 SWAP1 SLOAD SWAP1 PUSH2 0x100 EXP SWAP1 DIV PUSH20 0xFFFFFFFFFFFFFFFFFFFFFFFFFFFFFFFFFFFFFFFF AND PUSH20 0xFFFFFFFFFFFFFFFFFFFFFFFFFFFFFFFFFFFFFFFF AND SUB PUSH2 0x2052 JUMPI PUSH1 0x40 MLOAD PUSH32 0x8C379A000000000000000000000000000000000000000000000000000000000 DUP2 MSTORE PUSH1 0x4 ADD PUSH2 0x2049 SWAP1 PUSH2 0x364F JUMP JUMPDEST PUSH1 0x40 MLOAD DUP1 SWAP2 SUB SWAP1 REVERT JUMPDEST PUSH0 PUSH1 0x1 DUP2 GT ISZERO PUSH2 0x2065 JUMPI PUSH2 0x2064 PUSH2 0x28B5 JUMP JUMPDEST JUMPDEST PUSH1 0x1 DUP4 PUSH1 0x40 MLOAD PUSH2 0x2075 SWAP2 SWAP1 PUSH2 0x2F3E JUMP JUMPDEST SWAP1 DUP2 MSTORE PUSH1 0x20 ADD PUSH1 0x40 MLOAD DUP1 SWAP2 SUB SWAP1 KECCAK256 PUSH1 0x5 ADD PUSH0 SWAP1 SLOAD SWAP1 PUSH2 0x100 EXP SWAP1 DIV PUSH1 0xFF AND PUSH1 0x1 DUP2 GT ISZERO PUSH2 0x20A5 JUMPI PUSH2 0x20A4 PUSH2 0x28B5 JUMP JUMPDEST JUMPDEST EQ PUSH2 0x20E5 JUMPI PUSH1 0x40 MLOAD PUSH32 0x8C379A000000000000000000000000000000000000000000000000000000000 DUP2 MSTORE PUSH1 0x4 ADD PUSH2 0x20DC SWAP1 PUSH2 0x306E JUMP JUMPDEST PUSH1 0x40 MLOAD DUP1 SWAP2 SUB SWAP1 REVERT JUMPDEST DUP1 PUSH0 PUSH0 CALLER PUSH20 0xFFFFFFFFFFFFFFFFFFFFFFFFFFFFFFFFFFFFFFFF AND PUSH20 0xFFFFFFFFFFFFFFFFFFFFFFFFFFFFFFFFFFFFFFFF AND DUP2 MSTORE PUSH1 0x20 ADD SWAP1 DUP2 MSTORE PUSH1 0x20 ADD PUSH0 KECCAK256 PUSH1 0x4 ADD SLOAD LT ISZERO PUSH2 0x2167 JUMPI PUSH1 0x40 MLOAD PUSH32 0x8C379A000000000000000000000000000000000000000000000000000000000 DUP2 MSTORE PUSH1 0x4 ADD PUSH2 0x215E SWAP1 PUSH2 0x36B7 JUMP JUMPDEST PUSH1 0x40 MLOAD DUP1 SWAP2 SUB SWAP1 REVERT JUMPDEST DUP1 PUSH0 PUSH0 CALLER PUSH20 0xFFFFFFFFFFFFFFFFFFFFFFFFFFFFFFFFFFFFFFFF AND PUSH20 0xFFFFFFFFFFFFFFFFFFFFFFFFFFFFFFFFFFFFFFFF AND DUP2 MSTORE PUSH1 0x20 ADD SWAP1 DUP2 MSTORE PUSH1 0x20 ADD PUSH0 KECCAK256 PUSH1 0x4 ADD PUSH0 DUP3 DUP3 SLOAD PUSH2 0x21B5 SWAP2 SWAP1 PUSH2 0x36D5 JUMP JUMPDEST SWAP3 POP POP DUP2 SWAP1 SSTORE POP DUP1 PUSH1 0x1 DUP4 PUSH1 0x40 MLOAD PUSH2 0x21CD SWAP2 SWAP1 PUSH2 0x2F3E JUMP JUMPDEST SWAP1 DUP2 MSTORE PUSH1 0x20 ADD PUSH1 0x40 MLOAD DUP1 SWAP2 SUB SWAP1 KECCAK256 PUSH1 0x6 ADD PUSH0 DUP3 DUP3 SLOAD PUSH2 0x21EC SWAP2 SWAP1 PUSH2 0x33DA JUMP JUMPDEST SWAP3 POP POP DUP2 SWAP1 SSTORE POP CALLER PUSH20 0xFFFFFFFFFFFFFFFFFFFFFFFFFFFFFFFFFFFFFFFF AND PUSH32 0x3D62E71A4E89667925B7E27CF64706BA04826BD8E1C791A5D540F7265861057D DUP4 DUP4 PUSH1 0x40 MLOAD PUSH2 0x223B SWAP3 SWAP2 SWAP1 PUSH2 0x346A JUMP JUMPDEST PUSH1 0x40 MLOAD DUP1 SWAP2 SUB SWAP1 LOG2 POP POP JUMP JUMPDEST PUSH1 0x60 PUSH0 DUP3 SUB PUSH2 0x228D JUMPI PUSH1 0x40 MLOAD DUP1 PUSH1 0x40 ADD PUSH1 0x40 MSTORE DUP1 PUSH1 0x1 DUP2 MSTORE PUSH1 0x20 ADD PUSH32 0x3000000000000000000000000000000000000000000000000000000000000000 DUP2 MSTORE POP SWAP1 POP PUSH2 0x23A0 JUMP JUMPDEST PUSH0 DUP3 SWAP1 POP PUSH0 JUMPDEST PUSH0 DUP3 EQ PUSH2 0x22BC JUMPI DUP1 DUP1 PUSH2 0x22A5 SWAP1 PUSH2 0x3328 JUMP JUMPDEST SWAP2 POP POP PUSH1 0xA DUP3 PUSH2 0x22B5 SWAP2 SWAP1 PUSH2 0x343A JUMP JUMPDEST SWAP2 POP PUSH2 0x2293 JUMP JUMPDEST PUSH0 DUP2 PUSH8 0xFFFFFFFFFFFFFFFF DUP2 GT ISZERO PUSH2 0x22D7 JUMPI PUSH2 0x22D6 PUSH2 0x25C9 JUMP JUMPDEST JUMPDEST PUSH1 0x40 MLOAD SWAP1 DUP1 DUP3 MSTORE DUP1 PUSH1 0x1F ADD PUSH1 0x1F NOT AND PUSH1 0x20 ADD DUP3 ADD PUSH1 0x40 MSTORE DUP1 ISZERO PUSH2 0x2309 JUMPI DUP2 PUSH1 0x20 ADD PUSH1 0x1 DUP3 MUL DUP1 CALLDATASIZE DUP4 CALLDATACOPY DUP1 DUP3 ADD SWAP2 POP POP SWAP1 POP JUMPDEST POP SWAP1 POP PUSH0 DUP3 SWAP1 POP DUP6 SWAP4 POP JUMPDEST PUSH0 DUP5 EQ PUSH2 0x2398 JUMPI PUSH1 0xA DUP5 PUSH2 0x2328 SWAP2 SWAP1 PUSH2 0x3708 JUMP JUMPDEST PUSH1 0x30 PUSH2 0x2334 SWAP2 SWAP1 PUSH2 0x33DA JUMP JUMPDEST PUSH1 0xF8 SHL DUP3 DUP3 PUSH2 0x2342 SWAP1 PUSH2 0x3738 JUMP JUMPDEST SWAP3 POP DUP3 DUP2 MLOAD DUP2 LT PUSH2 0x2356 JUMPI PUSH2 0x2355 PUSH2 0x375F JUMP JUMPDEST JUMPDEST PUSH1 0x20 ADD ADD SWAP1 PUSH31 0xFFFFFFFFFFFFFFFFFFFFFFFFFFFFFFFFFFFFFFFFFFFFFFFFFFFFFFFFFFFFFF NOT AND SWAP1 DUP2 PUSH0 BYTE SWAP1 MSTORE8 POP PUSH1 0xA DUP5 PUSH2 0x2391 SWAP2 SWAP1 PUSH2 0x343A JUMP JUMPDEST SWAP4 POP PUSH2 0x2314 JUMP JUMPDEST DUP2 SWAP5 POP POP POP POP POP JUMPDEST SWAP2 SWAP1 POP JUMP JUMPDEST PUSH1 0x40 MLOAD DUP1 PUSH1 0xA0 ADD PUSH1 0x40 MSTORE DUP1 PUSH0 PUSH20 0xFFFFFFFFFFFFFFFFFFFFFFFFFFFFFFFFFFFFFFFF AND DUP2 MSTORE PUSH1 0x20 ADD PUSH1 0x60 DUP2 MSTORE PUSH1 0x20 ADD PUSH0 PUSH1 0x1 DUP2 GT ISZERO PUSH2 0x23E6 JUMPI PUSH2 0x23E5 PUSH2 0x28B5 JUMP JUMPDEST JUMPDEST DUP2 MSTORE PUSH1 0x20 ADD PUSH0 DUP2 MSTORE PUSH1 0x20 ADD PUSH0 DUP2 MSTORE POP SWAP1 JUMP JUMPDEST PUSH1 0x40 MLOAD DUP1 PUSH1 0xA0 ADD PUSH1 0x40 MSTORE DUP1 PUSH1 0x60 DUP2 MSTORE PUSH1 0x20 ADD PUSH0 PUSH20 0xFFFFFFFFFFFFFFFFFFFFFFFFFFFFFFFFFFFFFFFF AND DUP2 MSTORE PUSH1 0x20 ADD PUSH1 0x60 DUP2 MSTORE PUSH1 0x20 ADD PUSH0 DUP2 MSTORE PUSH1 0x20 ADD PUSH0 DUP2 MSTORE POP SWAP1 JUMP JUMPDEST PUSH1 0x40 MLOAD DUP1 PUSH1 0xE0 ADD PUSH1 0x40 MSTORE DUP1 PUSH1 0x60 DUP2 MSTORE PUSH1 0x20 ADD PUSH1 0x60 DUP2 MSTORE PUSH1 0x20 ADD PUSH0 PUSH20 0xFFFFFFFFFFFFFFFFFFFFFFFFFFFFFFFFFFFFFFFF AND DUP2 MSTORE PUSH1 0x20 ADD PUSH0 DUP2 MSTORE PUSH1 0x20 ADD PUSH0 DUP2 MSTORE PUSH1 0x20 ADD PUSH0 PUSH1 0x1 DUP2 GT ISZERO PUSH2 0x248E JUMPI PUSH2 0x248D PUSH2 0x28B5 JUMP JUMPDEST JUMPDEST DUP2 MSTORE PUSH1 0x20 ADD PUSH0 DUP2 MSTORE POP SWAP1 JUMP JUMPDEST PUSH0 PUSH1 0x40 MLOAD SWAP1 POP SWAP1 JUMP JUMPDEST PUSH0 PUSH0 REVERT JUMPDEST PUSH0 PUSH0 REVERT JUMPDEST PUSH0 DUP2 SWAP1 POP SWAP2 SWAP1 POP JUMP JUMPDEST PUSH2 0x24BD DUP2 PUSH2 0x24AB JUMP JUMPDEST DUP2 EQ PUSH2 0x24C7 JUMPI PUSH0 PUSH0 REVERT JUMPDEST POP JUMP JUMPDEST PUSH0 DUP2 CALLDATALOAD SWAP1 POP PUSH2 0x24D8 DUP2 PUSH2 0x24B4 JUMP JUMPDEST SWAP3 SWAP2 POP POP JUMP JUMPDEST PUSH0 PUSH1 0x20 DUP3 DUP5 SUB SLT ISZERO PUSH2 0x24F3 JUMPI PUSH2 0x24F2 PUSH2 0x24A3 JUMP JUMPDEST JUMPDEST PUSH0 PUSH2 0x2500 DUP5 DUP3 DUP6 ADD PUSH2 0x24CA JUMP JUMPDEST SWAP2 POP POP SWAP3 SWAP2 POP POP JUMP JUMPDEST PUSH0 DUP2 MLOAD SWAP1 POP SWAP2 SWAP1 POP JUMP JUMPDEST PUSH0 DUP3 DUP3 MSTORE PUSH1 0x20 DUP3 ADD SWAP1 POP SWAP3 SWAP2 POP POP JUMP JUMPDEST DUP3 DUP2 DUP4 MCOPY PUSH0 DUP4 DUP4 ADD MSTORE POP POP POP JUMP JUMPDEST PUSH0 PUSH1 0x1F NOT PUSH1 0x1F DUP4 ADD AND SWAP1 POP SWAP2 SWAP1 POP JUMP JUMPDEST PUSH0 PUSH2 0x254B DUP3 PUSH2 0x2509 JUMP JUMPDEST PUSH2 0x2555 DUP2 DUP6 PUSH2 0x2513 JUMP JUMPDEST SWAP4 POP PUSH2 0x2565 DUP2 DUP6 PUSH1 0x20 DUP7 ADD PUSH2 0x2523 JUMP JUMPDEST PUSH2 0x256E DUP2 PUSH2 0x2531 JUMP JUMPDEST DUP5 ADD SWAP2 POP POP SWAP3 SWAP2 POP POP JUMP JUMPDEST PUSH0 PUSH1 0x20 DUP3 ADD SWAP1 POP DUP2 DUP2 SUB PUSH0 DUP4 ADD MSTORE PUSH2 0x2591 DUP2 DUP5 PUSH2 0x2541 JUMP JUMPDEST SWAP1 POP SWAP3 SWAP2 POP POP JUMP JUMPDEST PUSH2 0x25A2 DUP2 PUSH2 0x24AB JUMP JUMPDEST DUP3 MSTORE POP POP JUMP JUMPDEST PUSH0 PUSH1 0x20 DUP3 ADD SWAP1 POP PUSH2 0x25BB PUSH0 DUP4 ADD DUP5 PUSH2 0x2599 JUMP JUMPDEST SWAP3 SWAP2 POP POP JUMP JUMPDEST PUSH0 PUSH0 REVERT JUMPDEST PUSH0 PUSH0 REVERT JUMPDEST PUSH32 0x4E487B7100000000000000000000000000000000000000000000000000000000 PUSH0 MSTORE PUSH1 0x41 PUSH1 0x4 MSTORE PUSH1 0x24 PUSH0 REVERT JUMPDEST PUSH2 0x25FF DUP3 PUSH2 0x2531 JUMP JUMPDEST DUP2 ADD DUP2 DUP2 LT PUSH8 0xFFFFFFFFFFFFFFFF DUP3 GT OR ISZERO PUSH2 0x261E JUMPI PUSH2 0x261D PUSH2 0x25C9 JUMP JUMPDEST JUMPDEST DUP1 PUSH1 0x40 MSTORE POP POP POP JUMP JUMPDEST PUSH0 PUSH2 0x2630 PUSH2 0x249A JUMP JUMPDEST SWAP1 POP PUSH2 0x263C DUP3 DUP3 PUSH2 0x25F6 JUMP JUMPDEST SWAP2 SWAP1 POP JUMP JUMPDEST PUSH0 PUSH8 0xFFFFFFFFFFFFFFFF DUP3 GT ISZERO PUSH2 0x265B JUMPI PUSH2 0x265A PUSH2 0x25C9 JUMP JUMPDEST JUMPDEST PUSH2 0x2664 DUP3 PUSH2 0x2531 JUMP JUMPDEST SWAP1 POP PUSH1 0x20 DUP2 ADD SWAP1 POP SWAP2 SWAP1 POP JUMP JUMPDEST DUP3 DUP2 DUP4 CALLDATACOPY PUSH0 DUP4 DUP4 ADD MSTORE POP POP POP JUMP JUMPDEST PUSH0 PUSH2 0x2691 PUSH2 0x268C DUP5 PUSH2 0x2641 JUMP JUMPDEST PUSH2 0x2627 JUMP JUMPDEST SWAP1 POP DUP3 DUP2 MSTORE PUSH1 0x20 DUP2 ADD DUP5 DUP5 DUP5 ADD GT ISZERO PUSH2 0x26AD JUMPI PUSH2 0x26AC PUSH2 0x25C5 JUMP JUMPDEST JUMPDEST PUSH2 0x26B8 DUP5 DUP3 DUP6 PUSH2 0x2671 JUMP JUMPDEST POP SWAP4 SWAP3 POP POP POP JUMP JUMPDEST PUSH0 DUP3 PUSH1 0x1F DUP4 ADD SLT PUSH2 0x26D4 JUMPI PUSH2 0x26D3 PUSH2 0x25C1 JUMP JUMPDEST JUMPDEST DUP2 CALLDATALOAD PUSH2 0x26E4 DUP5 DUP3 PUSH1 0x20 DUP7 ADD PUSH2 0x267F JUMP JUMPDEST SWAP2 POP POP SWAP3 SWAP2 POP POP JUMP JUMPDEST PUSH1 0x2 DUP2 LT PUSH2 0x26F9 JUMPI PUSH0 PUSH0 REVERT JUMPDEST POP JUMP JUMPDEST PUSH0 DUP2 CALLDATALOAD SWAP1 POP PUSH2 0x270A DUP2 PUSH2 0x26ED JUMP JUMPDEST SWAP3 SWAP2 POP POP JUMP JUMPDEST PUSH0 PUSH0 PUSH1 0x40 DUP4 DUP6 SUB SLT ISZERO PUSH2 0x2726 JUMPI PUSH2 0x2725 PUSH2 0x24A3 JUMP JUMPDEST JUMPDEST PUSH0 DUP4 ADD CALLDATALOAD PUSH8 0xFFFFFFFFFFFFFFFF DUP2 GT ISZERO PUSH2 0x2743 JUMPI PUSH2 0x2742 PUSH2 0x24A7 JUMP JUMPDEST JUMPDEST PUSH2 0x274F DUP6 DUP3 DUP7 ADD PUSH2 0x26C0 JUMP JUMPDEST SWAP3 POP POP PUSH1 0x20 PUSH2 0x2760 DUP6 DUP3 DUP7 ADD PUSH2 0x26FC JUMP JUMPDEST SWAP2 POP POP SWAP3 POP SWAP3 SWAP1 POP JUMP JUMPDEST PUSH0 PUSH20 0xFFFFFFFFFFFFFFFFFFFFFFFFFFFFFFFFFFFFFFFF DUP3 AND SWAP1 POP SWAP2 SWAP1 POP JUMP JUMPDEST PUSH0 PUSH2 0x2793 DUP3 PUSH2 0x276A JUMP JUMPDEST SWAP1 POP SWAP2 SWAP1 POP JUMP JUMPDEST PUSH2 0x27A3 DUP2 PUSH2 0x2789 JUMP JUMPDEST DUP3 MSTORE POP POP JUMP JUMPDEST PUSH0 PUSH1 0x20 DUP3 ADD SWAP1 POP PUSH2 0x27BC PUSH0 DUP4 ADD DUP5 PUSH2 0x279A JUMP JUMPDEST SWAP3 SWAP2 POP POP JUMP JUMPDEST PUSH0 PUSH1 0x20 DUP3 DUP5 SUB SLT ISZERO PUSH2 0x27D7 JUMPI PUSH2 0x27D6 PUSH2 0x24A3 JUMP JUMPDEST JUMPDEST PUSH0 DUP3 ADD CALLDATALOAD PUSH8 0xFFFFFFFFFFFFFFFF DUP2 GT ISZERO PUSH2 0x27F4 JUMPI PUSH2 0x27F3 PUSH2 0x24A7 JUMP JUMPDEST JUMPDEST PUSH2 0x2800 DUP5 DUP3 DUP6 ADD PUSH2 0x26C0 JUMP JUMPDEST SWAP2 POP POP SWAP3 SWAP2 POP POP JUMP JUMPDEST PUSH2 0x2812 DUP2 PUSH2 0x2789 JUMP JUMPDEST DUP2 EQ PUSH2 0x281C JUMPI PUSH0 PUSH0 REVERT JUMPDEST POP JUMP JUMPDEST PUSH0 DUP2 CALLDATALOAD SWAP1 POP PUSH2 0x282D DUP2 PUSH2 0x2809 JUMP JUMPDEST SWAP3 SWAP2 POP POP JUMP JUMPDEST PUSH0 PUSH1 0x20 DUP3 DUP5 SUB SLT ISZERO PUSH2 0x2848 JUMPI PUSH2 0x2847 PUSH2 0x24A3 JUMP JUMPDEST JUMPDEST PUSH0 PUSH2 0x2855 DUP5 DUP3 DUP6 ADD PUSH2 0x281F JUMP JUMPDEST SWAP2 POP POP SWAP3 SWAP2 POP POP JUMP JUMPDEST PUSH2 0x2867 DUP2 PUSH2 0x2789 JUMP JUMPDEST DUP3 MSTORE POP POP JUMP JUMPDEST PUSH0 DUP3 DUP3 MSTORE PUSH1 0x20 DUP3 ADD SWAP1 POP SWAP3 SWAP2 POP POP JUMP JUMPDEST PUSH0 PUSH2 0x2887 DUP3 PUSH2 0x2509 JUMP JUMPDEST PUSH2 0x2891 DUP2 DUP6 PUSH2 0x286D JUMP JUMPDEST SWAP4 POP PUSH2 0x28A1 DUP2 DUP6 PUSH1 0x20 DUP7 ADD PUSH2 0x2523 JUMP JUMPDEST PUSH2 0x28AA DUP2 PUSH2 0x2531 JUMP JUMPDEST DUP5 ADD SWAP2 POP POP SWAP3 SWAP2 POP POP JUMP JUMPDEST PUSH32 0x4E487B7100000000000000000000000000000000000000000000000000000000 PUSH0 MSTORE PUSH1 0x21 PUSH1 0x4 MSTORE PUSH1 0x24 PUSH0 REVERT JUMPDEST PUSH1 0x2 DUP2 LT PUSH2 0x28F3 JUMPI PUSH2 0x28F2 PUSH2 0x28B5 JUMP JUMPDEST JUMPDEST POP JUMP JUMPDEST PUSH0 DUP2 SWAP1 POP PUSH2 0x2903 DUP3 PUSH2 0x28E2 JUMP JUMPDEST SWAP2 SWAP1 POP JUMP JUMPDEST PUSH0 PUSH2 0x2912 DUP3 PUSH2 0x28F6 JUMP JUMPDEST SWAP1 POP SWAP2 SWAP1 POP JUMP JUMPDEST PUSH2 0x2922 DUP2 PUSH2 0x2908 JUMP JUMPDEST DUP3 MSTORE POP POP JUMP JUMPDEST PUSH2 0x2931 DUP2 PUSH2 0x24AB JUMP JUMPDEST DUP3 MSTORE POP POP JUMP JUMPDEST PUSH0 PUSH1 0xA0 DUP4 ADD PUSH0 DUP4 ADD MLOAD PUSH2 0x294C PUSH0 DUP7 ADD DUP3 PUSH2 0x285E JUMP JUMPDEST POP PUSH1 0x20 DUP4 ADD MLOAD DUP5 DUP3 SUB PUSH1 0x20 DUP7 ADD MSTORE PUSH2 0x2964 DUP3 DUP3 PUSH2 0x287D JUMP JUMPDEST SWAP2 POP POP PUSH1 0x40 DUP4 ADD MLOAD PUSH2 0x2979 PUSH1 0x40 DUP7 ADD DUP3 PUSH2 0x2919 JUMP JUMPDEST POP PUSH1 0x60 DUP4 ADD MLOAD PUSH2 0x298C PUSH1 0x60 DUP7 ADD DUP3 PUSH2 0x2928 JUMP JUMPDEST POP PUSH1 0x80 DUP4 ADD MLOAD PUSH2 0x299F PUSH1 0x80 DUP7 ADD DUP3 PUSH2 0x2928 JUMP JUMPDEST POP DUP1 SWAP2 POP POP SWAP3 SWAP2 POP POP JUMP JUMPDEST PUSH0 PUSH1 0x20 DUP3 ADD SWAP1 POP DUP2 DUP2 SUB PUSH0 DUP4 ADD MSTORE PUSH2 0x29C2 DUP2 DUP5 PUSH2 0x2937 JUMP JUMPDEST SWAP1 POP SWAP3 SWAP2 POP POP JUMP JUMPDEST PUSH1 0x2 DUP2 LT PUSH2 0x29DB JUMPI PUSH2 0x29DA PUSH2 0x28B5 JUMP JUMPDEST JUMPDEST POP JUMP JUMPDEST PUSH0 DUP2 SWAP1 POP PUSH2 0x29EB DUP3 PUSH2 0x29CA JUMP JUMPDEST SWAP2 SWAP1 POP JUMP JUMPDEST PUSH0 PUSH2 0x29FA DUP3 PUSH2 0x29DE JUMP JUMPDEST SWAP1 POP SWAP2 SWAP1 POP JUMP JUMPDEST PUSH2 0x2A0A DUP2 PUSH2 0x29F0 JUMP JUMPDEST DUP3 MSTORE POP POP JUMP JUMPDEST PUSH0 PUSH1 0xE0 DUP3 ADD SWAP1 POP DUP2 DUP2 SUB PUSH0 DUP4 ADD MSTORE PUSH2 0x2A28 DUP2 DUP11 PUSH2 0x2541 JUMP JUMPDEST SWAP1 POP DUP2 DUP2 SUB PUSH1 0x20 DUP4 ADD MSTORE PUSH2 0x2A3C DUP2 DUP10 PUSH2 0x2541 JUMP JUMPDEST SWAP1 POP PUSH2 0x2A4B PUSH1 0x40 DUP4 ADD DUP9 PUSH2 0x279A JUMP JUMPDEST PUSH2 0x2A58 PUSH1 0x60 DUP4 ADD DUP8 PUSH2 0x2599 JUMP JUMPDEST PUSH2 0x2A65 PUSH1 0x80 DUP4 ADD DUP7 PUSH2 0x2599 JUMP JUMPDEST PUSH2 0x2A72 PUSH1 0xA0 DUP4 ADD DUP6 PUSH2 0x2A01 JUMP JUMPDEST PUSH2 0x2A7F PUSH1 0xC0 DUP4 ADD DUP5 PUSH2 0x2599 JUMP JUMPDEST SWAP9 SWAP8 POP POP POP POP POP POP POP POP JUMP JUMPDEST PUSH0 PUSH1 0xA0 DUP4 ADD PUSH0 DUP4 ADD MLOAD DUP5 DUP3 SUB PUSH0 DUP7 ADD MSTORE PUSH2 0x2AA5 DUP3 DUP3 PUSH2 0x287D JUMP JUMPDEST SWAP2 POP POP PUSH1 0x20 DUP4 ADD MLOAD PUSH2 0x2ABA PUSH1 0x20 DUP7 ADD DUP3 PUSH2 0x285E JUMP JUMPDEST POP PUSH1 0x40 DUP4 ADD MLOAD DUP5 DUP3 SUB PUSH1 0x40 DUP7 ADD MSTORE PUSH2 0x2AD2 DUP3 DUP3 PUSH2 0x287D JUMP JUMPDEST SWAP2 POP POP PUSH1 0x60 DUP4 ADD MLOAD PUSH2 0x2AE7 PUSH1 0x60 DUP7 ADD DUP3 PUSH2 0x2928 JUMP JUMPDEST POP PUSH1 0x80 DUP4 ADD MLOAD PUSH2 0x2AFA PUSH1 0x80 DUP7 ADD DUP3 PUSH2 0x2928 JUMP JUMPDEST POP DUP1 SWAP2 POP POP SWAP3 SWAP2 POP POP JUMP JUMPDEST PUSH0 PUSH1 0x20 DUP3 ADD SWAP1 POP DUP2 DUP2 SUB PUSH0 DUP4 ADD MSTORE PUSH2 0x2B1D DUP2 DUP5 PUSH2 0x2A8B JUMP JUMPDEST SWAP1 POP SWAP3 SWAP2 POP POP JUMP JUMPDEST PUSH2 0x2B2E DUP2 PUSH2 0x2908 JUMP JUMPDEST DUP3 MSTORE POP POP JUMP JUMPDEST PUSH0 PUSH1 0xA0 DUP3 ADD SWAP1 POP PUSH2 0x2B47 PUSH0 DUP4 ADD DUP9 PUSH2 0x279A JUMP JUMPDEST DUP2 DUP2 SUB PUSH1 0x20 DUP4 ADD MSTORE PUSH2 0x2B59 DUP2 DUP8 PUSH2 0x2541 JUMP JUMPDEST SWAP1 POP PUSH2 0x2B68 PUSH1 0x40 DUP4 ADD DUP7 PUSH2 0x2B25 JUMP JUMPDEST PUSH2 0x2B75 PUSH1 0x60 DUP4 ADD DUP6 PUSH2 0x2599 JUMP JUMPDEST PUSH2 0x2B82 PUSH1 0x80 DUP4 ADD DUP5 PUSH2 0x2599 JUMP JUMPDEST SWAP7 SWAP6 POP POP POP POP POP POP JUMP JUMPDEST PUSH2 0x2B95 DUP2 PUSH2 0x29F0 JUMP JUMPDEST DUP3 MSTORE POP POP JUMP JUMPDEST PUSH0 PUSH1 0xE0 DUP4 ADD PUSH0 DUP4 ADD MLOAD DUP5 DUP3 SUB PUSH0 DUP7 ADD MSTORE PUSH2 0x2BB5 DUP3 DUP3 PUSH2 0x287D JUMP JUMPDEST SWAP2 POP POP PUSH1 0x20 DUP4 ADD MLOAD DUP5 DUP3 SUB PUSH1 0x20 DUP7 ADD MSTORE PUSH2 0x2BCF DUP3 DUP3 PUSH2 0x287D JUMP JUMPDEST SWAP2 POP POP PUSH1 0x40 DUP4 ADD MLOAD PUSH2 0x2BE4 PUSH1 0x40 DUP7 ADD DUP3 PUSH2 0x285E JUMP JUMPDEST POP PUSH1 0x60 DUP4 ADD MLOAD PUSH2 0x2BF7 PUSH1 0x60 DUP7 ADD DUP3 PUSH2 0x2928 JUMP JUMPDEST POP PUSH1 0x80 DUP4 ADD MLOAD PUSH2 0x2C0A PUSH1 0x80 DUP7 ADD DUP3 PUSH2 0x2928 JUMP JUMPDEST POP PUSH1 0xA0 DUP4 ADD MLOAD PUSH2 0x2C1D PUSH1 0xA0 DUP7 ADD DUP3 PUSH2 0x2B8C JUMP JUMPDEST POP PUSH1 0xC0 DUP4 ADD MLOAD PUSH2 0x2C30 PUSH1 0xC0 DUP7 ADD DUP3 PUSH2 0x2928 JUMP JUMPDEST POP DUP1 SWAP2 POP POP SWAP3 SWAP2 POP POP JUMP JUMPDEST PUSH0 PUSH1 0x20 DUP3 ADD SWAP1 POP DUP2 DUP2 SUB PUSH0 DUP4 ADD MSTORE PUSH2 0x2C53 DUP2 DUP5 PUSH2 0x2B9B JUMP JUMPDEST SWAP1 POP SWAP3 SWAP2 POP POP JUMP JUMPDEST PUSH0 PUSH1 0xA0 DUP3 ADD SWAP1 POP DUP2 DUP2 SUB PUSH0 DUP4 ADD MSTORE PUSH2 0x2C73 DUP2 DUP9 PUSH2 0x2541 JUMP JUMPDEST SWAP1 POP PUSH2 0x2C82 PUSH1 0x20 DUP4 ADD DUP8 PUSH2 0x279A JUMP JUMPDEST DUP2 DUP2 SUB PUSH1 0x40 DUP4 ADD MSTORE PUSH2 0x2C94 DUP2 DUP7 PUSH2 0x2541 JUMP JUMPDEST SWAP1 POP PUSH2 0x2CA3 PUSH1 0x60 DUP4 ADD DUP6 PUSH2 0x2599 JUMP JUMPDEST PUSH2 0x2CB0 PUSH1 0x80 DUP4 ADD DUP5 PUSH2 0x2599 JUMP JUMPDEST SWAP7 SWAP6 POP POP POP POP POP POP JUMP JUMPDEST PUSH0 PUSH0 PUSH1 0x40 DUP4 DUP6 SUB SLT ISZERO PUSH2 0x2CD0 JUMPI PUSH2 0x2CCF PUSH2 0x24A3 JUMP JUMPDEST JUMPDEST PUSH0 DUP4 ADD CALLDATALOAD PUSH8 0xFFFFFFFFFFFFFFFF DUP2 GT ISZERO PUSH2 0x2CED JUMPI PUSH2 0x2CEC PUSH2 0x24A7 JUMP JUMPDEST JUMPDEST PUSH2 0x2CF9 DUP6 DUP3 DUP7 ADD PUSH2 0x26C0 JUMP JUMPDEST SWAP3 POP POP PUSH1 0x20 PUSH2 0x2D0A DUP6 DUP3 DUP7 ADD PUSH2 0x24CA JUMP JUMPDEST SWAP2 POP POP SWAP3 POP SWAP3 SWAP1 POP JUMP JUMPDEST PUSH1 0x2 DUP2 LT PUSH2 0x2D20 JUMPI PUSH0 PUSH0 REVERT JUMPDEST POP JUMP JUMPDEST PUSH0 DUP2 CALLDATALOAD SWAP1 POP PUSH2 0x2D31 DUP2 PUSH2 0x2D14 JUMP JUMPDEST SWAP3 SWAP2 POP POP JUMP JUMPDEST PUSH0 PUSH0 PUSH1 0x40 DUP4 DUP6 SUB SLT ISZERO PUSH2 0x2D4D JUMPI PUSH2 0x2D4C PUSH2 0x24A3 JUMP JUMPDEST JUMPDEST PUSH0 DUP4 ADD CALLDATALOAD PUSH8 0xFFFFFFFFFFFFFFFF DUP2 GT ISZERO PUSH2 0x2D6A JUMPI PUSH2 0x2D69 PUSH2 0x24A7 JUMP JUMPDEST JUMPDEST PUSH2 0x2D76 DUP6 DUP3 DUP7 ADD PUSH2 0x26C0 JUMP JUMPDEST SWAP3 POP POP PUSH1 0x20 PUSH2 0x2D87 DUP6 DUP3 DUP7 ADD PUSH2 0x2D23 JUMP JUMPDEST SWAP2 POP POP SWAP3 POP SWAP3 SWAP1 POP JUMP JUMPDEST PUSH0 PUSH0 PUSH0 PUSH1 0x60 DUP5 DUP7 SUB SLT ISZERO PUSH2 0x2DA8 JUMPI PUSH2 0x2DA7 PUSH2 0x24A3 JUMP JUMPDEST JUMPDEST PUSH0 DUP5 ADD CALLDATALOAD PUSH8 0xFFFFFFFFFFFFFFFF DUP2 GT ISZERO PUSH2 0x2DC5 JUMPI PUSH2 0x2DC4 PUSH2 0x24A7 JUMP JUMPDEST JUMPDEST PUSH2 0x2DD1 DUP7 DUP3 DUP8 ADD PUSH2 0x26C0 JUMP JUMPDEST SWAP4 POP POP PUSH1 0x20 DUP5 ADD CALLDATALOAD PUSH8 0xFFFFFFFFFFFFFFFF DUP2 GT ISZERO PUSH2 0x2DF2 JUMPI PUSH2 0x2DF1 PUSH2 0x24A7 JUMP JUMPDEST JUMPDEST PUSH2 0x2DFE DUP7 DUP3 DUP8 ADD PUSH2 0x26C0 JUMP JUMPDEST SWAP3 POP POP PUSH1 0x40 PUSH2 0x2E0F DUP7 DUP3 DUP8 ADD PUSH2 0x281F JUMP JUMPDEST SWAP2 POP POP SWAP3 POP SWAP3 POP SWAP3 JUMP JUMPDEST PUSH32 0x4E487B7100000000000000000000000000000000000000000000000000000000 PUSH0 MSTORE PUSH1 0x22 PUSH1 0x4 MSTORE PUSH1 0x24 PUSH0 REVERT JUMPDEST PUSH0 PUSH1 0x2 DUP3 DIV SWAP1 POP PUSH1 0x1 DUP3 AND DUP1 PUSH2 0x2E5D JUMPI PUSH1 0x7F DUP3 AND SWAP2 POP JUMPDEST PUSH1 0x20 DUP3 LT DUP2 SUB PUSH2 0x2E70 JUMPI PUSH2 0x2E6F PUSH2 0x2E19 JUMP JUMPDEST JUMPDEST POP SWAP2 SWAP1 POP JUMP JUMPDEST PUSH32 0x536F6C6F20656C206F776E657220707565646520656A65637574617220657374 PUSH0 DUP3 ADD MSTORE PUSH32 0x6F00000000000000000000000000000000000000000000000000000000000000 PUSH1 0x20 DUP3 ADD MSTORE POP JUMP JUMPDEST PUSH0 PUSH2 0x2ED0 PUSH1 0x21 DUP4 PUSH2 0x2513 JUMP JUMPDEST SWAP2 POP PUSH2 0x2EDB DUP3 PUSH2 0x2E76 JUMP JUMPDEST PUSH1 0x40 DUP3 ADD SWAP1 POP SWAP2 SWAP1 POP JUMP JUMPDEST PUSH0 PUSH1 0x20 DUP3 ADD SWAP1 POP DUP2 DUP2 SUB PUSH0 DUP4 ADD MSTORE PUSH2 0x2EFD DUP2 PUSH2 0x2EC4 JUMP JUMPDEST SWAP1 POP SWAP2 SWAP1 POP JUMP JUMPDEST PUSH0 DUP2 SWAP1 POP SWAP3 SWAP2 POP POP JUMP JUMPDEST PUSH0 PUSH2 0x2F18 DUP3 PUSH2 0x2509 JUMP JUMPDEST PUSH2 0x2F22 DUP2 DUP6 PUSH2 0x2F04 JUMP JUMPDEST SWAP4 POP PUSH2 0x2F32 DUP2 DUP6 PUSH1 0x20 DUP7 ADD PUSH2 0x2523 JUMP JUMPDEST DUP1 DUP5 ADD SWAP2 POP POP SWAP3 SWAP2 POP POP JUMP JUMPDEST PUSH0 PUSH2 0x2F49 DUP3 DUP5 PUSH2 0x2F0E JUMP JUMPDEST SWAP2 POP DUP2 SWAP1 POP SWAP3 SWAP2 POP POP JUMP JUMPDEST PUSH32 0x50726F796563746F206E6F206578697374650000000000000000000000000000 PUSH0 DUP3 ADD MSTORE POP JUMP JUMPDEST PUSH0 PUSH2 0x2F88 PUSH1 0x12 DUP4 PUSH2 0x2513 JUMP JUMPDEST SWAP2 POP PUSH2 0x2F93 DUP3 PUSH2 0x2F54 JUMP JUMPDEST PUSH1 0x20 DUP3 ADD SWAP1 POP SWAP2 SWAP1 POP JUMP JUMPDEST PUSH0 PUSH1 0x20 DUP3 ADD SWAP1 POP DUP2 DUP2 SUB PUSH0 DUP4 ADD MSTORE PUSH2 0x2FB5 DUP2 PUSH2 0x2F7C JUMP JUMPDEST SWAP1 POP SWAP2 SWAP1 POP JUMP JUMPDEST PUSH32 0x4C6120646F6E6163696F6E206465626520736572206D61796F72206120300000 PUSH0 DUP3 ADD MSTORE POP JUMP JUMPDEST PUSH0 PUSH2 0x2FF0 PUSH1 0x1E DUP4 PUSH2 0x2513 JUMP JUMPDEST SWAP2 POP PUSH2 0x2FFB DUP3 PUSH2 0x2FBC JUMP JUMPDEST PUSH1 0x20 DUP3 ADD SWAP1 POP SWAP2 SWAP1 POP JUMP JUMPDEST PUSH0 PUSH1 0x20 DUP3 ADD SWAP1 POP DUP2 DUP2 SUB PUSH0 DUP4 ADD MSTORE PUSH2 0x301D DUP2 PUSH2 0x2FE4 JUMP JUMPDEST SWAP1 POP SWAP2 SWAP1 POP JUMP JUMPDEST PUSH32 0x50726F796563746F206E6F2061637469766F0000000000000000000000000000 PUSH0 DUP3 ADD MSTORE POP JUMP JUMPDEST PUSH0 PUSH2 0x3058 PUSH1 0x12 DUP4 PUSH2 0x2513 JUMP JUMPDEST SWAP2 POP PUSH2 0x3063 DUP3 PUSH2 0x3024 JUMP JUMPDEST PUSH1 0x20 DUP3 ADD SWAP1 POP SWAP2 SWAP1 POP JUMP JUMPDEST PUSH0 PUSH1 0x20 DUP3 ADD SWAP1 POP DUP2 DUP2 SUB PUSH0 DUP4 ADD MSTORE PUSH2 0x3085 DUP2 PUSH2 0x304C JUMP JUMPDEST SWAP1 POP SWAP2 SWAP1 POP JUMP JUMPDEST PUSH0 DUP2 SWAP1 POP DUP2 PUSH0 MSTORE PUSH1 0x20 PUSH0 KECCAK256 SWAP1 POP SWAP2 SWAP1 POP JUMP JUMPDEST PUSH0 PUSH1 0x20 PUSH1 0x1F DUP4 ADD DIV SWAP1 POP SWAP2 SWAP1 POP JUMP JUMPDEST PUSH0 DUP3 DUP3 SHL SWAP1 POP SWAP3 SWAP2 POP POP JUMP JUMPDEST PUSH0 PUSH1 0x8 DUP4 MUL PUSH2 0x30E8 PUSH32 0xFFFFFFFFFFFFFFFFFFFFFFFFFFFFFFFFFFFFFFFFFFFFFFFFFFFFFFFFFFFFFFFF DUP3 PUSH2 0x30AD JUMP JUMPDEST PUSH2 0x30F2 DUP7 DUP4 PUSH2 0x30AD JUMP JUMPDEST SWAP6 POP DUP1 NOT DUP5 AND SWAP4 POP DUP1 DUP7 AND DUP5 OR SWAP3 POP POP POP SWAP4 SWAP3 POP POP POP JUMP JUMPDEST PUSH0 DUP2 SWAP1 POP SWAP2 SWAP1 POP JUMP JUMPDEST PUSH0 PUSH2 0x312D PUSH2 0x3128 PUSH2 0x3123 DUP5 PUSH2 0x24AB JUMP JUMPDEST PUSH2 0x310A JUMP JUMPDEST PUSH2 0x24AB JUMP JUMPDEST SWAP1 POP SWAP2 SWAP1 POP JUMP JUMPDEST PUSH0 DUP2 SWAP1 POP SWAP2 SWAP1 POP JUMP JUMPDEST PUSH2 0x3146 DUP4 PUSH2 0x3113 JUMP JUMPDEST PUSH2 0x315A PUSH2 0x3152 DUP3 PUSH2 0x3134 JUMP JUMPDEST DUP5 DUP5 SLOAD PUSH2 0x30B9 JUMP JUMPDEST DUP3 SSTORE POP POP POP POP JUMP JUMPDEST PUSH0 PUSH0 SWAP1 POP SWAP1 JUMP JUMPDEST PUSH2 0x3171 PUSH2 0x3162 JUMP JUMPDEST PUSH2 0x317C DUP2 DUP5 DUP5 PUSH2 0x313D JUMP JUMPDEST POP POP POP JUMP JUMPDEST JUMPDEST DUP2 DUP2 LT ISZERO PUSH2 0x319F JUMPI PUSH2 0x3194 PUSH0 DUP3 PUSH2 0x3169 JUMP JUMPDEST PUSH1 0x1 DUP2 ADD SWAP1 POP PUSH2 0x3182 JUMP JUMPDEST POP POP JUMP JUMPDEST PUSH1 0x1F DUP3 GT ISZERO PUSH2 0x31E4 JUMPI PUSH2 0x31B5 DUP2 PUSH2 0x308C JUMP JUMPDEST PUSH2 0x31BE DUP5 PUSH2 0x309E JUMP JUMPDEST DUP2 ADD PUSH1 0x20 DUP6 LT ISZERO PUSH2 0x31CD JUMPI DUP2 SWAP1 POP JUMPDEST PUSH2 0x31E1 PUSH2 0x31D9 DUP6 PUSH2 0x309E JUMP JUMPDEST DUP4 ADD DUP3 PUSH2 0x3181 JUMP JUMPDEST POP POP JUMPDEST POP POP POP JUMP JUMPDEST PUSH0 DUP3 DUP3 SHR SWAP1 POP SWAP3 SWAP2 POP POP JUMP JUMPDEST PUSH0 PUSH2 0x3204 PUSH0 NOT DUP5 PUSH1 0x8 MUL PUSH2 0x31E9 JUMP JUMPDEST NOT DUP1 DUP4 AND SWAP2 POP POP SWAP3 SWAP2 POP POP JUMP JUMPDEST PUSH0 PUSH2 0x321C DUP4 DUP4 PUSH2 0x31F5 JUMP JUMPDEST SWAP2 POP DUP3 PUSH1 0x2 MUL DUP3 OR SWAP1 POP SWAP3 SWAP2 POP POP JUMP JUMPDEST PUSH2 0x3235 DUP3 PUSH2 0x2509 JUMP JUMPDEST PUSH8 0xFFFFFFFFFFFFFFFF DUP2 GT ISZERO PUSH2 0x324E JUMPI PUSH2 0x324D PUSH2 0x25C9 JUMP JUMPDEST JUMPDEST PUSH2 0x3258 DUP3 SLOAD PUSH2 0x2E46 JUMP JUMPDEST PUSH2 0x3263 DUP3 DUP3 DUP6 PUSH2 0x31A3 JUMP JUMPDEST PUSH0 PUSH1 0x20 SWAP1 POP PUSH1 0x1F DUP4 GT PUSH1 0x1 DUP2 EQ PUSH2 0x3294 JUMPI PUSH0 DUP5 ISZERO PUSH2 0x3282 JUMPI DUP3 DUP8 ADD MLOAD SWAP1 POP JUMPDEST PUSH2 0x328C DUP6 DUP3 PUSH2 0x3211 JUMP JUMPDEST DUP7 SSTORE POP PUSH2 0x32F3 JUMP JUMPDEST PUSH1 0x1F NOT DUP5 AND PUSH2 0x32A2 DUP7 PUSH2 0x308C JUMP JUMPDEST PUSH0 JUMPDEST DUP3 DUP2 LT ISZERO PUSH2 0x32C9 JUMPI DUP5 DUP10 ADD MLOAD DUP3 SSTORE PUSH1 0x1 DUP3 ADD SWAP2 POP PUSH1 0x20 DUP6 ADD SWAP5 POP PUSH1 0x20 DUP2 ADD SWAP1 POP PUSH2 0x32A4 JUMP JUMPDEST DUP7 DUP4 LT ISZERO PUSH2 0x32E6 JUMPI DUP5 DUP10 ADD MLOAD PUSH2 0x32E2 PUSH1 0x1F DUP10 AND DUP3 PUSH2 0x31F5 JUMP JUMPDEST DUP4 SSTORE POP JUMPDEST PUSH1 0x1 PUSH1 0x2 DUP9 MUL ADD DUP9 SSTORE POP POP POP JUMPDEST POP POP POP POP POP POP JUMP JUMPDEST PUSH32 0x4E487B7100000000000000000000000000000000000000000000000000000000 PUSH0 MSTORE PUSH1 0x11 PUSH1 0x4 MSTORE PUSH1 0x24 PUSH0 REVERT JUMPDEST PUSH0 PUSH2 0x3332 DUP3 PUSH2 0x24AB JUMP JUMPDEST SWAP2 POP PUSH32 0xFFFFFFFFFFFFFFFFFFFFFFFFFFFFFFFFFFFFFFFFFFFFFFFFFFFFFFFFFFFFFFFF DUP3 SUB PUSH2 0x3364 JUMPI PUSH2 0x3363 PUSH2 0x32FB JUMP JUMPDEST JUMPDEST PUSH1 0x1 DUP3 ADD SWAP1 POP SWAP2 SWAP1 POP JUMP JUMPDEST PUSH32 0x444F4E0000000000000000000000000000000000000000000000000000000000 PUSH0 DUP3 ADD MSTORE POP JUMP JUMPDEST PUSH0 PUSH2 0x33A3 PUSH1 0x3 DUP4 PUSH2 0x2F04 JUMP JUMPDEST SWAP2 POP PUSH2 0x33AE DUP3 PUSH2 0x336F JUMP JUMPDEST PUSH1 0x3 DUP3 ADD SWAP1 POP SWAP2 SWAP1 POP JUMP JUMPDEST PUSH0 PUSH2 0x33C3 DUP3 PUSH2 0x3397 JUMP JUMPDEST SWAP2 POP PUSH2 0x33CF DUP3 DUP5 PUSH2 0x2F0E JUMP JUMPDEST SWAP2 POP DUP2 SWAP1 POP SWAP3 SWAP2 POP POP JUMP JUMPDEST PUSH0 PUSH2 0x33E4 DUP3 PUSH2 0x24AB JUMP JUMPDEST SWAP2 POP PUSH2 0x33EF DUP4 PUSH2 0x24AB JUMP JUMPDEST SWAP3 POP DUP3 DUP3 ADD SWAP1 POP DUP1 DUP3 GT ISZERO PUSH2 0x3407 JUMPI PUSH2 0x3406 PUSH2 0x32FB JUMP JUMPDEST JUMPDEST SWAP3 SWAP2 POP POP JUMP JUMPDEST PUSH32 0x4E487B7100000000000000000000000000000000000000000000000000000000 PUSH0 MSTORE PUSH1 0x12 PUSH1 0x4 MSTORE PUSH1 0x24 PUSH0 REVERT JUMPDEST PUSH0 PUSH2 0x3444 DUP3 PUSH2 0x24AB JUMP JUMPDEST SWAP2 POP PUSH2 0x344F DUP4 PUSH2 0x24AB JUMP JUMPDEST SWAP3 POP DUP3 PUSH2 0x345F JUMPI PUSH2 0x345E PUSH2 0x340D JUMP JUMPDEST JUMPDEST DUP3 DUP3 DIV SWAP1 POP SWAP3 SWAP2 POP POP JUMP JUMPDEST PUSH0 PUSH1 0x40 DUP3 ADD SWAP1 POP DUP2 DUP2 SUB PUSH0 DUP4 ADD MSTORE PUSH2 0x3482 DUP2 DUP6 PUSH2 0x2541 JUMP JUMPDEST SWAP1 POP PUSH2 0x3491 PUSH1 0x20 DUP4 ADD DUP5 PUSH2 0x2599 JUMP JUMPDEST SWAP4 SWAP3 POP POP POP JUMP JUMPDEST PUSH32 0x43616E7469646164206578636564652072656361756461646F00000000000000 PUSH0 DUP3 ADD MSTORE POP JUMP JUMPDEST PUSH0 PUSH2 0x34CC PUSH1 0x19 DUP4 PUSH2 0x2513 JUMP JUMPDEST SWAP2 POP PUSH2 0x34D7 DUP3 PUSH2 0x3498 JUMP JUMPDEST PUSH1 0x20 DUP3 ADD SWAP1 POP SWAP2 SWAP1 POP JUMP JUMPDEST PUSH0 PUSH1 0x20 DUP3 ADD SWAP1 POP DUP2 DUP2 SUB PUSH0 DUP4 ADD MSTORE PUSH2 0x34F9 DUP2 PUSH2 0x34C0 JUMP JUMPDEST SWAP1 POP SWAP2 SWAP1 POP JUMP JUMPDEST PUSH32 0x446F6E616E7465207961207265676973747261646F0000000000000000000000 PUSH0 DUP3 ADD MSTORE POP JUMP JUMPDEST PUSH0 PUSH2 0x3534 PUSH1 0x15 DUP4 PUSH2 0x2513 JUMP JUMPDEST SWAP2 POP PUSH2 0x353F DUP3 PUSH2 0x3500 JUMP JUMPDEST PUSH1 0x20 DUP3 ADD SWAP1 POP SWAP2 SWAP1 POP JUMP JUMPDEST PUSH0 PUSH1 0x20 DUP3 ADD SWAP1 POP DUP2 DUP2 SUB PUSH0 DUP4 ADD MSTORE PUSH2 0x3561 DUP2 PUSH2 0x3528 JUMP JUMPDEST SWAP1 POP SWAP2 SWAP1 POP JUMP JUMPDEST PUSH32 0x50726F796563746F207961206578697374650000000000000000000000000000 PUSH0 DUP3 ADD MSTORE POP JUMP JUMPDEST PUSH0 PUSH2 0x359C PUSH1 0x12 DUP4 PUSH2 0x2513 JUMP JUMPDEST SWAP2 POP PUSH2 0x35A7 DUP3 PUSH2 0x3568 JUMP JUMPDEST PUSH1 0x20 DUP3 ADD SWAP1 POP SWAP2 SWAP1 POP JUMP JUMPDEST PUSH0 PUSH1 0x20 DUP3 ADD SWAP1 POP DUP2 DUP2 SUB PUSH0 DUP4 ADD MSTORE PUSH2 0x35C9 DUP2 PUSH2 0x3590 JUMP JUMPDEST SWAP1 POP SWAP2 SWAP1 POP JUMP JUMPDEST PUSH0 PUSH1 0x40 DUP3 ADD SWAP1 POP DUP2 DUP2 SUB PUSH0 DUP4 ADD MSTORE PUSH2 0x35E8 DUP2 DUP6 PUSH2 0x2541 JUMP JUMPDEST SWAP1 POP DUP2 DUP2 SUB PUSH1 0x20 DUP4 ADD MSTORE PUSH2 0x35FC DUP2 DUP5 PUSH2 0x2541 JUMP JUMPDEST SWAP1 POP SWAP4 SWAP3 POP POP POP JUMP JUMPDEST PUSH32 0x4E6F207265676973747261646F00000000000000000000000000000000000000 PUSH0 DUP3 ADD MSTORE POP JUMP JUMPDEST PUSH0 PUSH2 0x3639 PUSH1 0xD DUP4 PUSH2 0x2513 JUMP JUMPDEST SWAP2 POP PUSH2 0x3644 DUP3 PUSH2 0x3605 JUMP JUMPDEST PUSH1 0x20 DUP3 ADD SWAP1 POP SWAP2 SWAP1 POP JUMP JUMPDEST PUSH0 PUSH1 0x20 DUP3 ADD SWAP1 POP DUP2 DUP2 SUB PUSH0 DUP4 ADD MSTORE PUSH2 0x3666 DUP2 PUSH2 0x362D JUMP JUMPDEST SWAP1 POP SWAP2 SWAP1 POP JUMP JUMPDEST PUSH32 0x546F6B656E7320696E737566696369656E746573000000000000000000000000 PUSH0 DUP3 ADD MSTORE POP JUMP JUMPDEST PUSH0 PUSH2 0x36A1 PUSH1 0x14 DUP4 PUSH2 0x2513 JUMP JUMPDEST SWAP2 POP PUSH2 0x36AC DUP3 PUSH2 0x366D JUMP JUMPDEST PUSH1 0x20 DUP3 ADD SWAP1 POP SWAP2 SWAP1 POP JUMP JUMPDEST PUSH0 PUSH1 0x20 DUP3 ADD SWAP1 POP DUP2 DUP2 SUB PUSH0 DUP4 ADD MSTORE PUSH2 0x36CE DUP2 PUSH2 0x3695 JUMP JUMPDEST SWAP1 POP SWAP2 SWAP1 POP JUMP JUMPDEST PUSH0 PUSH2 0x36DF DUP3 PUSH2 0x24AB JUMP JUMPDEST SWAP2 POP PUSH2 0x36EA DUP4 PUSH2 0x24AB JUMP JUMPDEST SWAP3 POP DUP3 DUP3 SUB SWAP1 POP DUP2 DUP2 GT ISZERO PUSH2 0x3702 JUMPI PUSH2 0x3701 PUSH2 0x32FB JUMP JUMPDEST JUMPDEST SWAP3 SWAP2 POP POP JUMP JUMPDEST PUSH0 PUSH2 0x3712 DUP3 PUSH2 0x24AB JUMP JUMPDEST SWAP2 POP PUSH2 0x371D DUP4 PUSH2 0x24AB JUMP JUMPDEST SWAP3 POP DUP3 PUSH2 0x372D JUMPI PUSH2 0x372C PUSH2 0x340D JUMP JUMPDEST JUMPDEST DUP3 DUP3 MOD SWAP1 POP SWAP3 SWAP2 POP POP JUMP JUMPDEST PUSH0 PUSH2 0x3742 DUP3 PUSH2 0x24AB JUMP JUMPDEST SWAP2 POP PUSH0 DUP3 SUB PUSH2 0x3754 JUMPI PUSH2 0x3753 PUSH2 0x32FB JUMP JUMPDEST JUMPDEST PUSH1 0x1 DUP3 SUB SWAP1 POP SWAP2 SWAP1 POP JUMP JUMPDEST PUSH32 0x4E487B7100000000000000000000000000000000000000000000000000000000 PUSH0 MSTORE PUSH1 0x32 PUSH1 0x4 MSTORE PUSH1 0x24 PUSH0 REVERT INVALID LOG2 PUSH5 0x6970667358 0x22 SLT KECCAK256 RJUMPI 0xB7FA ADDMOD SWAP2 PREVRANDAO EOFCREATE 0x2 EXTCALL PUSH1 0xE7 MSTORE8 MSIZE PUSH9 0x570F7344345BD0DA72 0xC9 0xA7 0xC9 RETF BLOBBASEFEE SWAP6 SGT PUSH21 0x4264736F6C634300081F0033000000000000000000 "
				},
				"gasEstimates": {
					"creation": {
						"codeDepositCost": "2854800",
						"executionCost": "32391",
						"totalCost": "2887191"
					},
					"external": {
						"cambiarEstadoProyecto(string,uint8)": "infinite",
						"crearProyecto(string,string,address)": "infinite",
						"donaciones(string)": "infinite",
						"donantes(address)": "infinite",
						"donar(string)": "infinite",
						"listaDonaciones(uint256)": "infinite",
						"listaDonantes(uint256)": "5056",
						"listaProyectos(uint256)": "infinite",
						"obtenerBalance()": "424",
						"obtenerDonacion(string)": "infinite",
						"obtenerDonante(address)": "infinite",
						"obtenerProyecto(string)": "infinite",
						"obtenerTotalDonaciones()": "2529",
						"obtenerTotalDonantes()": "2486",
						"obtenerTotalProyectos()": "2551",
						"owner()": "2619",
						"proyectos(string)": "infinite",
						"registrarDonante(string,uint8)": "infinite",
						"retirarFondos()": "infinite",
						"validarFondosProyecto(string,uint256)": "infinite",
						"votarProyecto(string,uint256)": "infinite"
					},
					"internal": {
						"uintToString(uint256)": "infinite"
					}
				},
				"methodIdentifiers": {
					"cambiarEstadoProyecto(string,uint8)": "1feac110",
					"crearProyecto(string,string,address)": "e61ef234",
					"donaciones(string)": "8e5a67ad",
					"donantes(address)": "6db33b4a",
					"donar(string)": "2fe70653",
					"listaDonaciones(uint256)": "020be41f",
					"listaDonantes(uint256)": "29211437",
					"listaProyectos(uint256)": "9fb7aafc",
					"obtenerBalance()": "22d9a1ee",
					"obtenerDonacion(string)": "4c47d69f",
					"obtenerDonante(address)": "3e08ec0b",
					"obtenerProyecto(string)": "81b662c8",
					"obtenerTotalDonaciones()": "8cb813ce",
					"obtenerTotalDonantes()": "1815a0f7",
					"obtenerTotalProyectos()": "687b5810",
					"owner()": "8da5cb5b",
					"proyectos(string)": "460be06b",
					"registrarDonante(string,uint8)": "dcd82bb8",
					"retirarFondos()": "8af01880",
					"validarFondosProyecto(string,uint256)": "b7bf159c",
					"votarProyecto(string,uint256)": "e63cfcd5"
				}
			},
			"storageLayout": {
				"storage": [
					{
						"astId": 51,
						"contract": "backend/contracts/ONGDonaciones.sol:ONGDonaciones",
						"label": "donantes",
						"offset": 0,
						"slot": "0",
						"type": "t_mapping(t_address,t_struct(Donante)19_storage)"
					},
					{
						"astId": 56,
						"contract": "backend/contracts/ONGDonaciones.sol:ONGDonaciones",
						"label": "proyectos",
						"offset": 0,
						"slot": "1",
						"type": "t_mapping(t_string_memory_ptr,t_struct(Proyecto)35_storage)"
					},
					{
						"astId": 61,
						"contract": "backend/contracts/ONGDonaciones.sol:ONGDonaciones",
						"label": "donaciones",
						"offset": 0,
						"slot": "2",
						"type": "t_mapping(t_string_memory_ptr,t_struct(Donacion)46_storage)"
					},
					{
						"astId": 64,
						"contract": "backend/contracts/ONGDonaciones.sol:ONGDonaciones",
						"label": "listaDonantes",
						"offset": 0,
						"slot": "3",
						"type": "t_array(t_address)dyn_storage"
					},
					{
						"astId": 67,
						"contract": "backend/contracts/ONGDonaciones.sol:ONGDonaciones",
						"label": "listaProyectos",
						"offset": 0,
						"slot": "4",
						"type": "t_array(t_string_storage)dyn_storage"
					},
					{
						"astId": 70,
						"contract": "backend/contracts/ONGDonaciones.sol:ONGDonaciones",
						"label": "listaDonaciones",
						"offset": 0,
						"slot": "5",
						"type": "t_array(t_string_storage)dyn_storage"
					},
					{
						"astId": 73,
						"contract": "backend/contracts/ONGDonaciones.sol:ONGDonaciones",
						"label": "contadorDonaciones",
						"offset": 0,
						"slot": "6",
						"type": "t_uint256"
					},
					{
						"astId": 75,
						"contract": "backend/contracts/ONGDonaciones.sol:ONGDonaciones",
						"label": "owner",
						"offset": 0,
						"slot": "7",
						"type": "t_address"
					}
				],
				"types": {
					"t_address": {
						"encoding": "inplace",
						"label": "address",
						"numberOfBytes": "20"
					},
					"t_array(t_address)dyn_storage": {
						"base": "t_address",
						"encoding": "dynamic_array",
						"label": "address[]",
						"numberOfBytes": "32"
					},
					"t_array(t_string_storage)dyn_storage": {
						"base": "t_string_storage",
						"encoding": "dynamic_array",
						"label": "string[]",
						"numberOfBytes": "32"
					},
					"t_enum(EstadoProyecto)7": {
						"encoding": "inplace",
						"label": "enum ONGDonaciones.EstadoProyecto",
						"numberOfBytes": "1"
					},
					"t_enum(TipoDonante)4": {
						"encoding": "inplace",
						"label": "enum ONGDonaciones.TipoDonante",
						"numberOfBytes": "1"
					},
					"t_mapping(t_address,t_struct(Donante)19_storage)": {
						"encoding": "mapping",
						"key": "t_address",
						"label": "mapping(address => struct ONGDonaciones.Donante)",
						"numberOfBytes": "32",
						"value": "t_struct(Donante)19_storage"
					},
					"t_mapping(t_string_memory_ptr,t_struct(Donacion)46_storage)": {
						"encoding": "mapping",
						"key": "t_string_memory_ptr",
						"label": "mapping(string => struct ONGDonaciones.Donacion)",
						"numberOfBytes": "32",
						"value": "t_struct(Donacion)46_storage"
					},
					"t_mapping(t_string_memory_ptr,t_struct(Proyecto)35_storage)": {
						"encoding": "mapping",
						"key": "t_string_memory_ptr",
						"label": "mapping(string => struct ONGDonaciones.Proyecto)",
						"numberOfBytes": "32",
						"value": "t_struct(Proyecto)35_storage"
					},
					"t_string_memory_ptr": {
						"encoding": "bytes",
						"label": "string",
						"numberOfBytes": "32"
					},
					"t_string_storage": {
						"encoding": "bytes",
						"label": "string",
						"numberOfBytes": "32"
					},
					"t_struct(Donacion)46_storage": {
						"encoding": "inplace",
						"label": "struct ONGDonaciones.Donacion",
						"members": [
							{
								"astId": 37,
								"contract": "backend/contracts/ONGDonaciones.sol:ONGDonaciones",
								"label": "id",
								"offset": 0,
								"slot": "0",
								"type": "t_string_storage"
							},
							{
								"astId": 39,
								"contract": "backend/contracts/ONGDonaciones.sol:ONGDonaciones",
								"label": "donante",
								"offset": 0,
								"slot": "1",
								"type": "t_address"
							},
							{
								"astId": 41,
								"contract": "backend/contracts/ONGDonaciones.sol:ONGDonaciones",
								"label": "proyectoId",
								"offset": 0,
								"slot": "2",
								"type": "t_string_storage"
							},
							{
								"astId": 43,
								"contract": "backend/contracts/ONGDonaciones.sol:ONGDonaciones",
								"label": "cantidad",
								"offset": 0,
								"slot": "3",
								"type": "t_uint256"
							},
							{
								"astId": 45,
								"contract": "backend/contracts/ONGDonaciones.sol:ONGDonaciones",
								"label": "fecha",
								"offset": 0,
								"slot": "4",
								"type": "t_uint256"
							}
						],
						"numberOfBytes": "160"
					},
					"t_struct(Donante)19_storage": {
						"encoding": "inplace",
						"label": "struct ONGDonaciones.Donante",
						"members": [
							{
								"astId": 9,
								"contract": "backend/contracts/ONGDonaciones.sol:ONGDonaciones",
								"label": "direccion",
								"offset": 0,
								"slot": "0",
								"type": "t_address"
							},
							{
								"astId": 11,
								"contract": "backend/contracts/ONGDonaciones.sol:ONGDonaciones",
								"label": "nombre",
								"offset": 0,
								"slot": "1",
								"type": "t_string_storage"
							},
							{
								"astId": 14,
								"contract": "backend/contracts/ONGDonaciones.sol:ONGDonaciones",
								"label": "tipoDonante",
								"offset": 0,
								"slot": "2",
								"type": "t_enum(TipoDonante)4"
							},
							{
								"astId": 16,
								"contract": "backend/contracts/ONGDonaciones.sol:ONGDonaciones",
								"label": "totalDonado",
								"offset": 0,
								"slot": "3",
								"type": "t_uint256"
							},
							{
								"astId": 18,
								"contract": "backend/contracts/ONGDonaciones.sol:ONGDonaciones",
								"label": "tokensGobernanza",
								"offset": 0,
								"slot": "4",
								"type": "t_uint256"
							}
						],
						"numberOfBytes": "160"
					},
					"t_struct(Proyecto)35_storage": {
						"encoding": "inplace",
						"label": "struct ONGDonaciones.Proyecto",
						"members": [
							{
								"astId": 21,
								"contract": "backend/contracts/ONGDonaciones.sol:ONGDonaciones",
								"label": "id",
								"offset": 0,
								"slot": "0",
								"type": "t_string_storage"
							},
							{
								"astId": 23,
								"contract": "backend/contracts/ONGDonaciones.sol:ONGDonaciones",
								"label": "descripcion",
								"offset": 0,
								"slot": "1",
								"type": "t_string_storage"
							},
							{
								"astId": 25,
								"contract": "backend/contracts/ONGDonaciones.sol:ONGDonaciones",
								"label": "responsable",
								"offset": 0,
								"slot": "2",
								"type": "t_address"
							},
							{
								"astId": 27,
								"contract": "backend/contracts/ONGDonaciones.sol:ONGDonaciones",
								"label": "cantidadRecaudada",
								"offset": 0,
								"slot": "3",
								"type": "t_uint256"
							},
							{
								"astId": 29,
								"contract": "backend/contracts/ONGDonaciones.sol:ONGDonaciones",
								"label": "cantidadValidada",
								"offset": 0,
								"slot": "4",
								"type": "t_uint256"
							},
							{
								"astId": 32,
								"contract": "backend/contracts/ONGDonaciones.sol:ONGDonaciones",
								"label": "estado",
								"offset": 0,
								"slot": "5",
								"type": "t_enum(EstadoProyecto)7"
							},
							{
								"astId": 34,
								"contract": "backend/contracts/ONGDonaciones.sol:ONGDonaciones",
								"label": "votos",
								"offset": 0,
								"slot": "6",
								"type": "t_uint256"
							}
						],
						"numberOfBytes": "224"
					},
					"t_uint256": {
						"encoding": "inplace",
						"label": "uint256",
						"numberOfBytes": "32"
					}
				}
			},
			"userdoc": {
				"kind": "user",
				"methods": {
					"cambiarEstadoProyecto(string,uint8)": {
						"notice": "Cambiar estado de un proyecto"
					},
					"crearProyecto(string,string,address)": {
						"notice": "Crear un nuevo proyecto (solo owner)"
					},
					"donar(string)": {
						"notice": "Realizar una donación (con ETH real)"
					},
					"registrarDonante(string,uint8)": {
						"notice": "Registrar un nuevo donante"
					},
					"validarFondosProyecto(string,uint256)": {
						"notice": "Validar fondos de un proyecto (owner marca como validado)"
					},
					"votarProyecto(string,uint256)": {
						"notice": "Realizar votación"
					}
				},
				"version": 1
			}
		}
	}
}