{
	"data": {
		"bytecode": {
			"linkReferences": {},
			"object": "60806040526000600855348015601457600080fd5b5033600960006101000a81548173ffffffffffffffffffffffffffffffffffffffff021916908373ffffffffffffffffffffffffffffffffffffffff160217905550614960806100656000396000f3fe6080604052600436106101665760003560e01c806371e60523116100d15780639fb7aafc1161008a578063b7bf159c11610064578063b7bf159c14610596578063dcd82bb8146105bf578063e61ef234146105e8578063e63cfcd51461061157610166565b80639fb7aafc14610514578063a6e2ac4a14610551578063a89dcbc41461056d57610166565b806371e60523146103e657806381b662c8146104295780638af01880146104665780638cb813ce1461047d5780638da5cb5b146104a85780638e5a67ad146104d357610166565b80633e08ec0b116101235780633e08ec0b14610280578063460be06b146102bd5780634c47d69f14610300578063687b58101461033d57806369b7c4b5146103685780636db33b4a146103a557610166565b8063020be41f1461016b5780631815a0f7146101a85780631feac110146101d357806322d9a1ee146101fc57806329211437146102275780632fe7065314610264575b600080fd5b34801561017757600080fd5b50610192600480360381019061018d9190612f58565b61063a565b60405161019f9190613015565b60405180910390f35b3480156101b457600080fd5b506101bd6106e6565b6040516101ca9190613046565b60405180910390f35b3480156101df57600080fd5b506101fa60048036038101906101f591906131bb565b6106f3565b005b34801561020857600080fd5b50610211610840565b60405161021e9190613046565b60405180910390f35b34801561023357600080fd5b5061024e60048036038101906102499190612f58565b610848565b60405161025b9190613258565b60405180910390f35b61027e60048036038101906102799190613273565b610887565b005b34801561028c57600080fd5b506102a760048036038101906102a291906132e8565b610edf565b6040516102b4919061346a565b60405180910390f35b3480156102c957600080fd5b506102e460048036038101906102df9190613273565b61106e565b6040516102f797969594939291906134d4565b60405180910390f35b34801561030c57600080fd5b5061032760048036038101906103229190613273565b611203565b60405161033491906135ce565b60405180910390f35b34801561034957600080fd5b506103526113c9565b60405161035f9190613046565b60405180910390f35b34801561037457600080fd5b5061038f600480360381019061038a9190612f58565b6113d6565b60405161039c9190613015565b60405180910390f35b3480156103b157600080fd5b506103cc60048036038101906103c791906132e8565b611482565b6040516103dd9594939291906135ff565b60405180910390f35b3480156103f257600080fd5b5061040d60048036038101906104089190613273565b61156d565b6040516104209796959493929190613674565b60405180910390f35b34801561043557600080fd5b50610450600480360381019061044b9190613273565b611722565b60405161045d91906137a3565b60405180910390f35b34801561047257600080fd5b5061047b61192d565b005b34801561048957600080fd5b50610492611a28565b60405161049f9190613046565b60405180910390f35b3480156104b457600080fd5b506104bd611a35565b6040516104ca9190613258565b60405180910390f35b3480156104df57600080fd5b506104fa60048036038101906104f59190613273565b611a5b565b60405161050b9594939291906137c5565b60405180910390f35b34801561052057600080fd5b5061053b60048036038101906105369190612f58565b611bd7565b6040516105489190613015565b60405180910390f35b61056b60048036038101906105669190613886565b611c83565b005b34801561057957600080fd5b50610594600480360381019061058f919061391b565b6120af565b005b3480156105a257600080fd5b506105bd60048036038101906105b89190613968565b6122ce565b005b3480156105cb57600080fd5b506105e660048036038101906105e191906139e9565b61246e565b005b3480156105f457600080fd5b5061060f600480360381019061060a9190613a45565b612726565b005b34801561061d57600080fd5b5061063860048036038101906106339190613968565b6129da565b005b6006818154811061064a57600080fd5b90600052602060002001600091509050805461066590613aff565b80601f016020809104026020016040519081016040528092919081815260200182805461069190613aff565b80156106de5780601f106106b3576101008083540402835291602001916106de565b820191906000526020600020905b8154815290600101906020018083116106c157829003601f168201915b505050505081565b6000600480549050905090565b600960009054906101000a900473ffffffffffffffffffffffffffffffffffffffff1673ffffffffffffffffffffffffffffffffffffffff163373ffffffffffffffffffffffffffffffffffffffff1614610783576040517f08c379a000000000000000000000000000000000000000000000000000000000815260040161077a90613ba2565b60405180910390fd5b60006001836040516107959190613bfe565b908152602001604051809103902060000180546107b190613aff565b9050116107f3576040517f08c379a00000000000000000000000000000000000000000000000000000000081526004016107ea90613c61565b60405180910390fd5b806001836040516108049190613bfe565b908152602001604051809103902060050160006101000a81548160ff021916908360018111156108375761083661336e565b5b02179055505050565b600047905090565b6004818154811061085857600080fd5b906000526020600020016000915054906101000a900473ffffffffffffffffffffffffffffffffffffffff1681565b600034116108ca576040517f08c379a00000000000000000000000000000000000000000000000000000000081526004016108c190613ccd565b60405180910390fd5b60006001826040516108dc9190613bfe565b908152602001604051809103902060000180546108f890613aff565b90501161093a576040517f08c379a000000000000000000000000000000000000000000000000000000000815260040161093190613c61565b60405180910390fd5b6000600181111561094e5761094d61336e565b5b60018260405161095e9190613bfe565b908152602001604051809103902060050160009054906101000a900460ff16600181111561098f5761098e61336e565b5b146109cf576040517f08c379a00000000000000000000000000000000000000000000000000000000081526004016109c690613d39565b60405180910390fd5b600073ffffffffffffffffffffffffffffffffffffffff166000803373ffffffffffffffffffffffffffffffffffffffff1673ffffffffffffffffffffffffffffffffffffffff16815260200190815260200160002060000160009054906101000a900473ffffffffffffffffffffffffffffffffffffffff1673ffffffffffffffffffffffffffffffffffffffff1603610c31576040518060a001604052803373ffffffffffffffffffffffffffffffffffffffff1681526020016040518060400160405280600981526020017f496e6469766964756f0000000000000000000000000000000000000000000000815250815260200160006001811115610ada57610ad961336e565b5b81526020016000815260200160008152506000803373ffffffffffffffffffffffffffffffffffffffff1673ffffffffffffffffffffffffffffffffffffffff16815260200190815260200160002060008201518160000160006101000a81548173ffffffffffffffffffffffffffffffffffffffff021916908373ffffffffffffffffffffffffffffffffffffffff1602179055506020820151816001019081610b859190613f05565b5060408201518160020160006101000a81548160ff02191690836001811115610bb157610bb061336e565b5b021790555060608201518160030155608082015181600401559050506004339080600181540180825580915050600190039060005260206000200160009091909190916101000a81548173ffffffffffffffffffffffffffffffffffffffff021916908373ffffffffffffffffffffffffffffffffffffffff1602179055505b60086000815480929190610c4490614006565b91905055506000610c56600854612ca7565b604051602001610c66919061409a565b60405160208183030381529060405290506040518060a001604052808281526020013373ffffffffffffffffffffffffffffffffffffffff16815260200183815260200134815260200142815250600282604051610cc49190613bfe565b90815260200160405180910390206000820151816000019081610ce79190613f05565b5060208201518160010160006101000a81548173ffffffffffffffffffffffffffffffffffffffff021916908373ffffffffffffffffffffffffffffffffffffffff1602179055506040820151816002019081610d449190613f05565b506060820151816003015560808201518160040155905050600681908060018154018082558091505060019003906000526020600020016000909190919091509081610d909190613f05565b50346000803373ffffffffffffffffffffffffffffffffffffffff1673ffffffffffffffffffffffffffffffffffffffff1681526020019081526020016000206003016000828254610de291906140bc565b9250508190555066038d7ea4c6800034610dfc919061411f565b6000803373ffffffffffffffffffffffffffffffffffffffff1673ffffffffffffffffffffffffffffffffffffffff1681526020019081526020016000206004016000828254610e4c91906140bc565b9250508190555034600183604051610e649190613bfe565b90815260200160405180910390206003016000828254610e8491906140bc565b925050819055503373ffffffffffffffffffffffffffffffffffffffff167fcfb07aeb1a68df533b5f56594c910129b452a7002d5741ca117913f1887c7ced8334604051610ed3929190614150565b60405180910390a25050565b610ee7612e0d565b6000808373ffffffffffffffffffffffffffffffffffffffff1673ffffffffffffffffffffffffffffffffffffffff1681526020019081526020016000206040518060a00160405290816000820160009054906101000a900473ffffffffffffffffffffffffffffffffffffffff1673ffffffffffffffffffffffffffffffffffffffff1673ffffffffffffffffffffffffffffffffffffffff168152602001600182018054610f9690613aff565b80601f0160208091040260200160405190810160405280929190818152602001828054610fc290613aff565b801561100f5780601f10610fe45761010080835404028352916020019161100f565b820191906000526020600020905b815481529060010190602001808311610ff257829003601f168201915b505050505081526020016002820160009054906101000a900460ff16600181111561103d5761103c61336e565b5b600181111561104f5761104e61336e565b5b8152602001600382015481526020016004820154815250509050919050565b6001818051602081018201805184825260208301602085012081835280955050505050506000915090508060000180546110a790613aff565b80601f01602080910402602001604051908101604052809291908181526020018280546110d390613aff565b80156111205780601f106110f557610100808354040283529160200191611120565b820191906000526020600020905b81548152906001019060200180831161110357829003601f168201915b50505050509080600101805461113590613aff565b80601f016020809104026020016040519081016040528092919081815260200182805461116190613aff565b80156111ae5780601f10611183576101008083540402835291602001916111ae565b820191906000526020600020905b81548152906001019060200180831161119157829003601f168201915b5050505050908060020160009054906101000a900473ffffffffffffffffffffffffffffffffffffffff16908060030154908060040154908060050160009054906101000a900460ff16908060060154905087565b61120b612e64565b60028260405161121b9190613bfe565b90815260200160405180910390206040518060a001604052908160008201805461124490613aff565b80601f016020809104026020016040519081016040528092919081815260200182805461127090613aff565b80156112bd5780601f10611292576101008083540402835291602001916112bd565b820191906000526020600020905b8154815290600101906020018083116112a057829003601f168201915b505050505081526020016001820160009054906101000a900473ffffffffffffffffffffffffffffffffffffffff1673ffffffffffffffffffffffffffffffffffffffff1673ffffffffffffffffffffffffffffffffffffffff16815260200160028201805461132c90613aff565b80601f016020809104026020016040519081016040528092919081815260200182805461135890613aff565b80156113a55780601f1061137a576101008083540402835291602001916113a5565b820191906000526020600020905b81548152906001019060200180831161138857829003601f168201915b50505050508152602001600382015481526020016004820154815250509050919050565b6000600580549050905090565b600781815481106113e657600080fd5b90600052602060002001600091509050805461140190613aff565b80601f016020809104026020016040519081016040528092919081815260200182805461142d90613aff565b801561147a5780601f1061144f5761010080835404028352916020019161147a565b820191906000526020600020905b81548152906001019060200180831161145d57829003601f168201915b505050505081565b60006020528060005260406000206000915090508060000160009054906101000a900473ffffffffffffffffffffffffffffffffffffffff16908060010180546114cb90613aff565b80601f01602080910402602001604051908101604052809291908181526020018280546114f790613aff565b80156115445780601f1061151957610100808354040283529160200191611544565b820191906000526020600020905b81548152906001019060200180831161152757829003601f168201915b5050505050908060020160009054906101000a900460ff16908060030154908060040154905085565b6003818051602081018201805184825260208301602085012081835280955050505050506000915090508060000180546115a690613aff565b80601f01602080910402602001604051908101604052809291908181526020018280546115d290613aff565b801561161f5780601f106115f45761010080835404028352916020019161161f565b820191906000526020600020905b81548152906001019060200180831161160257829003601f168201915b5050505050908060010160009054906101000a900473ffffffffffffffffffffffffffffffffffffffff16908060020160009054906101000a900473ffffffffffffffffffffffffffffffffffffffff169080600301805461168090613aff565b80601f01602080910402602001604051908101604052809291908181526020018280546116ac90613aff565b80156116f95780601f106116ce576101008083540402835291602001916116f9565b820191906000526020600020905b8154815290600101906020018083116116dc57829003601f168201915b5050505050908060040154908060050154908060060160009054906101000a900460ff16905087565b61172a612ea9565b60018260405161173a9190613bfe565b90815260200160405180910390206040518060e001604052908160008201805461176390613aff565b80601f016020809104026020016040519081016040528092919081815260200182805461178f90613aff565b80156117dc5780601f106117b1576101008083540402835291602001916117dc565b820191906000526020600020905b8154815290600101906020018083116117bf57829003601f168201915b505050505081526020016001820180546117f590613aff565b80601f016020809104026020016040519081016040528092919081815260200182805461182190613aff565b801561186e5780601f106118435761010080835404028352916020019161186e565b820191906000526020600020905b81548152906001019060200180831161185157829003601f168201915b505050505081526020016002820160009054906101000a900473ffffffffffffffffffffffffffffffffffffffff1673ffffffffffffffffffffffffffffffffffffffff1673ffffffffffffffffffffffffffffffffffffffff16815260200160038201548152602001600482015481526020016005820160009054906101000a900460ff1660018111156119065761190561336e565b5b60018111156119185761191761336e565b5b81526020016006820154815250509050919050565b600960009054906101000a900473ffffffffffffffffffffffffffffffffffffffff1673ffffffffffffffffffffffffffffffffffffffff163373ffffffffffffffffffffffffffffffffffffffff16146119bd576040517f08c379a00000000000000000000000000000000000000000000000000000000081526004016119b490613ba2565b60405180910390fd5b600960009054906101000a900473ffffffffffffffffffffffffffffffffffffffff1673ffffffffffffffffffffffffffffffffffffffff166108fc479081150290604051600060405180830381858888f19350505050158015611a25573d6000803e3d6000fd5b50565b6000600680549050905090565b600960009054906101000a900473ffffffffffffffffffffffffffffffffffffffff1681565b600281805160208101820180518482526020830160208501208183528095505050505050600091509050806000018054611a9490613aff565b80601f0160208091040260200160405190810160405280929190818152602001828054611ac090613aff565b8015611b0d5780601f10611ae257610100808354040283529160200191611b0d565b820191906000526020600020905b815481529060010190602001808311611af057829003601f168201915b5050505050908060010160009054906101000a900473ffffffffffffffffffffffffffffffffffffffff1690806002018054611b4890613aff565b80601f0160208091040260200160405190810160405280929190818152602001828054611b7490613aff565b8015611bc15780601f10611b9657610100808354040283529160200191611bc1565b820191906000526020600020905b815481529060010190602001808311611ba457829003601f168201915b5050505050908060030154908060040154905085565b60058181548110611be757600080fd5b906000526020600020016000915090508054611c0290613aff565b80601f0160208091040260200160405190810160405280929190818152602001828054611c2e90613aff565b8015611c7b5780601f10611c5057610100808354040283529160200191611c7b565b820191906000526020600020905b815481529060010190602001808311611c5e57829003601f168201915b505050505081565b3373ffffffffffffffffffffffffffffffffffffffff1660018484604051611cac9291906141a5565b908152602001604051809103902060020160009054906101000a900473ffffffffffffffffffffffffffffffffffffffff1673ffffffffffffffffffffffffffffffffffffffff1614611d34576040517f08c379a0000000000000000000000000000000000000000000000000000000008152600401611d2b9061420a565b60405180910390fd5b600060038686604051611d489291906141a5565b90815260200160405180910390206005015414611d9a576040517f08c379a0000000000000000000000000000000000000000000000000000000008152600401611d9190614276565b60405180910390fd5b600034905060008111611de2576040517f08c379a0000000000000000000000000000000000000000000000000000000008152600401611dd9906142e2565b60405180910390fd5b6040518060e0016040528087878080601f016020809104026020016040519081016040528093929190818152602001838380828437600081840152601f19601f8201169050808301925050505050505081526020013373ffffffffffffffffffffffffffffffffffffffff1681526020018373ffffffffffffffffffffffffffffffffffffffff16815260200185858080601f016020809104026020016040519081016040528093929190818152602001838380828437600081840152601f19601f8201169050808301925050505050505081526020018281526020014281526020016000151581525060038787604051611ede9291906141a5565b90815260200160405180910390206000820151816000019081611f019190613f05565b5060208201518160010160006101000a81548173ffffffffffffffffffffffffffffffffffffffff021916908373ffffffffffffffffffffffffffffffffffffffff16021790555060408201518160020160006101000a81548173ffffffffffffffffffffffffffffffffffffffff021916908373ffffffffffffffffffffffffffffffffffffffff1602179055506060820151816003019081611fa59190613f05565b506080820151816004015560a0820151816005015560c08201518160060160006101000a81548160ff0219169083151502179055509050508060018585604051611ff09291906141a5565b908152602001604051809103902060030160008282546120109190614302565b925050819055506007868690918060018154018082558091505060019003906000526020600020016000909192909192909192909192509182612054929190614341565b503373ffffffffffffffffffffffffffffffffffffffff167f3c601a6eaf37c9c0e93ce40c5b0032eb73c13baed64713686fa877f7dd12818687878460405161209f9392919061443e565b60405180910390a2505050505050565b6000600383836040516120c39291906141a5565b90815260200160405180910390209050600081600501540361211a576040517f08c379a0000000000000000000000000000000000000000000000000000000008152600401612111906144bc565b60405180910390fd5b8060060160009054906101000a900460ff161561216c576040517f08c379a000000000000000000000000000000000000000000000000000000000815260040161216390614528565b60405180910390fd5b3373ffffffffffffffffffffffffffffffffffffffff168160020160009054906101000a900473ffffffffffffffffffffffffffffffffffffffff1673ffffffffffffffffffffffffffffffffffffffff16146121fe576040517f08c379a00000000000000000000000000000000000000000000000000000000081526004016121f590614594565b60405180910390fd5b60018160060160006101000a81548160ff02191690831515021790555080600401546001826003016040516122339190614637565b9081526020016040518091039020600401600082825461225391906140bc565b925050819055508060020160009054906101000a900473ffffffffffffffffffffffffffffffffffffffff1673ffffffffffffffffffffffffffffffffffffffff166108fc82600401549081150290604051600060405180830381858888f193505050501580156122c8573d6000803e3d6000fd5b50505050565b600960009054906101000a900473ffffffffffffffffffffffffffffffffffffffff1673ffffffffffffffffffffffffffffffffffffffff163373ffffffffffffffffffffffffffffffffffffffff161461235e576040517f08c379a000000000000000000000000000000000000000000000000000000000815260040161235590613ba2565b60405180910390fd5b60006001836040516123709190613bfe565b9081526020016040518091039020600001805461238c90613aff565b9050116123ce576040517f08c379a00000000000000000000000000000000000000000000000000000000081526004016123c590613c61565b60405180910390fd5b6001826040516123de9190613bfe565b908152602001604051809103902060030154811115612432576040517f08c379a00000000000000000000000000000000000000000000000000000000081526004016124299061469a565b60405180910390fd5b806001836040516124439190613bfe565b9081526020016040518091039020600401600082825461246391906140bc565b925050819055505050565b600073ffffffffffffffffffffffffffffffffffffffff166000803373ffffffffffffffffffffffffffffffffffffffff1673ffffffffffffffffffffffffffffffffffffffff16815260200190815260200160002060000160009054906101000a900473ffffffffffffffffffffffffffffffffffffffff1673ffffffffffffffffffffffffffffffffffffffff161461253e576040517f08c379a000000000000000000000000000000000000000000000000000000000815260040161253590614706565b60405180910390fd5b6040518060a001604052803373ffffffffffffffffffffffffffffffffffffffff16815260200183815260200182600181111561257e5761257d61336e565b5b81526020016000815260200160008152506000803373ffffffffffffffffffffffffffffffffffffffff1673ffffffffffffffffffffffffffffffffffffffff16815260200190815260200160002060008201518160000160006101000a81548173ffffffffffffffffffffffffffffffffffffffff021916908373ffffffffffffffffffffffffffffffffffffffff16021790555060208201518160010190816126299190613f05565b5060408201518160020160006101000a81548160ff021916908360018111156126555761265461336e565b5b021790555060608201518160030155608082015181600401559050506004339080600181540180825580915050600190039060005260206000200160009091909190916101000a81548173ffffffffffffffffffffffffffffffffffffffff021916908373ffffffffffffffffffffffffffffffffffffffff1602179055503373ffffffffffffffffffffffffffffffffffffffff167fbd0aa66e3f9bb3059d63a43b52e561b9d290792bb97b3ca81fafc608a3a026e88360405161271a9190613015565b60405180910390a25050565b600960009054906101000a900473ffffffffffffffffffffffffffffffffffffffff1673ffffffffffffffffffffffffffffffffffffffff163373ffffffffffffffffffffffffffffffffffffffff16146127b6576040517f08c379a00000000000000000000000000000000000000000000000000000000081526004016127ad90613ba2565b60405180910390fd5b60006001846040516127c89190613bfe565b908152602001604051809103902060000180546127e490613aff565b905014612826576040517f08c379a000000000000000000000000000000000000000000000000000000000815260040161281d90614772565b60405180910390fd5b6040518060e001604052808481526020018381526020018273ffffffffffffffffffffffffffffffffffffffff16815260200160008152602001600081526020016000600181111561287b5761287a61336e565b5b815260200160008152506001846040516128959190613bfe565b908152602001604051809103902060008201518160000190816128b89190613f05565b5060208201518160010190816128ce9190613f05565b5060408201518160020160006101000a81548173ffffffffffffffffffffffffffffffffffffffff021916908373ffffffffffffffffffffffffffffffffffffffff160217905550606082015181600301556080820151816004015560a08201518160050160006101000a81548160ff021916908360018111156129555761295461336e565b5b021790555060c0820151816006015590505060058390806001815401808255809150506001900390600052602060002001600090919091909150908161299b9190613f05565b507f9be706a9f3913e31e847d7fa4c6f64709e9391228ae7f008d72beabe0b95750f83836040516129cd929190614792565b60405180910390a1505050565b600073ffffffffffffffffffffffffffffffffffffffff166000803373ffffffffffffffffffffffffffffffffffffffff1673ffffffffffffffffffffffffffffffffffffffff16815260200190815260200160002060000160009054906101000a900473ffffffffffffffffffffffffffffffffffffffff1673ffffffffffffffffffffffffffffffffffffffff1603612aaa576040517f08c379a0000000000000000000000000000000000000000000000000000000008152600401612aa190614815565b60405180910390fd5b60006001811115612abe57612abd61336e565b5b600183604051612ace9190613bfe565b908152602001604051809103902060050160009054906101000a900460ff166001811115612aff57612afe61336e565b5b14612b3f576040517f08c379a0000000000000000000000000000000000000000000000000000000008152600401612b3690613d39565b60405180910390fd5b806000803373ffffffffffffffffffffffffffffffffffffffff1673ffffffffffffffffffffffffffffffffffffffff168152602001908152602001600020600401541015612bc3576040517f08c379a0000000000000000000000000000000000000000000000000000000008152600401612bba90614881565b60405180910390fd5b806000803373ffffffffffffffffffffffffffffffffffffffff1673ffffffffffffffffffffffffffffffffffffffff1681526020019081526020016000206004016000828254612c149190614302565b9250508190555080600183604051612c2c9190613bfe565b90815260200160405180910390206006016000828254612c4c91906140bc565b925050819055503373ffffffffffffffffffffffffffffffffffffffff167f3d62e71a4e89667925b7e27cf64706ba04826bd8e1c791a5d540f7265861057d8383604051612c9b929190614150565b60405180910390a25050565b606060008203612cee576040518060400160405280600181526020017f30000000000000000000000000000000000000000000000000000000000000008152509050612e08565b600082905060005b60008214612d20578080612d0990614006565b915050600a82612d19919061411f565b9150612cf6565b60008167ffffffffffffffff811115612d3c57612d3b61306b565b5b6040519080825280601f01601f191660200182016040528015612d6e5781602001600182028036833780820191505090505b50905060008290508593505b60008414612e0057600a84612d8f91906148a1565b6030612d9b91906140bc565b60f81b8282612da9906148d2565b92508281518110612dbd57612dbc6148fb565b5b60200101907effffffffffffffffffffffffffffffffffffffffffffffffffffffffffffff1916908160001a905350600a84612df9919061411f565b9350612d7a565b819450505050505b919050565b6040518060a00160405280600073ffffffffffffffffffffffffffffffffffffffff1681526020016060815260200160006001811115612e5057612e4f61336e565b5b815260200160008152602001600081525090565b6040518060a0016040528060608152602001600073ffffffffffffffffffffffffffffffffffffffff1681526020016060815260200160008152602001600081525090565b6040518060e001604052806060815260200160608152602001600073ffffffffffffffffffffffffffffffffffffffff168152602001600081526020016000815260200160006001811115612f0157612f0061336e565b5b8152602001600081525090565b6000604051905090565b600080fd5b600080fd5b6000819050919050565b612f3581612f22565b8114612f4057600080fd5b50565b600081359050612f5281612f2c565b92915050565b600060208284031215612f6e57612f6d612f18565b5b6000612f7c84828501612f43565b91505092915050565b600081519050919050565b600082825260208201905092915050565b60005b83811015612fbf578082015181840152602081019050612fa4565b60008484015250505050565b6000601f19601f8301169050919050565b6000612fe782612f85565b612ff18185612f90565b9350613001818560208601612fa1565b61300a81612fcb565b840191505092915050565b6000602082019050818103600083015261302f8184612fdc565b905092915050565b61304081612f22565b82525050565b600060208201905061305b6000830184613037565b92915050565b600080fd5b600080fd5b7f4e487b7100000000000000000000000000000000000000000000000000000000600052604160045260246000fd5b6130a382612fcb565b810181811067ffffffffffffffff821117156130c2576130c161306b565b5b80604052505050565b60006130d5612f0e565b90506130e1828261309a565b919050565b600067ffffffffffffffff8211156131015761310061306b565b5b61310a82612fcb565b9050602081019050919050565b82818337600083830152505050565b6000613139613134846130e6565b6130cb565b90508281526020810184848401111561315557613154613066565b5b613160848285613117565b509392505050565b600082601f83011261317d5761317c613061565b5b813561318d848260208601613126565b91505092915050565b600281106131a357600080fd5b50565b6000813590506131b581613196565b92915050565b600080604083850312156131d2576131d1612f18565b5b600083013567ffffffffffffffff8111156131f0576131ef612f1d565b5b6131fc85828601613168565b925050602061320d858286016131a6565b9150509250929050565b600073ffffffffffffffffffffffffffffffffffffffff82169050919050565b600061324282613217565b9050919050565b61325281613237565b82525050565b600060208201905061326d6000830184613249565b92915050565b60006020828403121561328957613288612f18565b5b600082013567ffffffffffffffff8111156132a7576132a6612f1d565b5b6132b384828501613168565b91505092915050565b6132c581613237565b81146132d057600080fd5b50565b6000813590506132e2816132bc565b92915050565b6000602082840312156132fe576132fd612f18565b5b600061330c848285016132d3565b91505092915050565b61331e81613237565b82525050565b600082825260208201905092915050565b600061334082612f85565b61334a8185613324565b935061335a818560208601612fa1565b61336381612fcb565b840191505092915050565b7f4e487b7100000000000000000000000000000000000000000000000000000000600052602160045260246000fd5b600281106133ae576133ad61336e565b5b50565b60008190506133bf8261339d565b919050565b60006133cf826133b1565b9050919050565b6133df816133c4565b82525050565b6133ee81612f22565b82525050565b600060a08301600083015161340c6000860182613315565b50602083015184820360208601526134248282613335565b915050604083015161343960408601826133d6565b50606083015161344c60608601826133e5565b50608083015161345f60808601826133e5565b508091505092915050565b6000602082019050818103600083015261348481846133f4565b905092915050565b6002811061349d5761349c61336e565b5b50565b60008190506134ae8261348c565b919050565b60006134be826134a0565b9050919050565b6134ce816134b3565b82525050565b600060e08201905081810360008301526134ee818a612fdc565b905081810360208301526135028189612fdc565b90506135116040830188613249565b61351e6060830187613037565b61352b6080830186613037565b61353860a08301856134c5565b61354560c0830184613037565b98975050505050505050565b600060a083016000830151848203600086015261356e8282613335565b91505060208301516135836020860182613315565b506040830151848203604086015261359b8282613335565b91505060608301516135b060608601826133e5565b5060808301516135c360808601826133e5565b508091505092915050565b600060208201905081810360008301526135e88184613551565b905092915050565b6135f9816133c4565b82525050565b600060a0820190506136146000830188613249565b81810360208301526136268187612fdc565b905061363560408301866135f0565b6136426060830185613037565b61364f6080830184613037565b9695505050505050565b60008115159050919050565b61366e81613659565b82525050565b600060e082019050818103600083015261368e818a612fdc565b905061369d6020830189613249565b6136aa6040830188613249565b81810360608301526136bc8187612fdc565b90506136cb6080830186613037565b6136d860a0830185613037565b6136e560c0830184613665565b98975050505050505050565b6136fa816134b3565b82525050565b600060e083016000830151848203600086015261371d8282613335565b915050602083015184820360208601526137378282613335565b915050604083015161374c6040860182613315565b50606083015161375f60608601826133e5565b50608083015161377260808601826133e5565b5060a083015161378560a08601826136f1565b5060c083015161379860c08601826133e5565b508091505092915050565b600060208201905081810360008301526137bd8184613700565b905092915050565b600060a08201905081810360008301526137df8188612fdc565b90506137ee6020830187613249565b81810360408301526138008186612fdc565b905061380f6060830185613037565b61381c6080830184613037565b9695505050505050565b600080fd5b600080fd5b60008083601f84011261384657613845613061565b5b8235905067ffffffffffffffff81111561386357613862613826565b5b60208301915083600182028301111561387f5761387e61382b565b5b9250929050565b6000806000806000606086880312156138a2576138a1612f18565b5b600086013567ffffffffffffffff8111156138c0576138bf612f1d565b5b6138cc88828901613830565b9550955050602086013567ffffffffffffffff8111156138ef576138ee612f1d565b5b6138fb88828901613830565b9350935050604061390e888289016132d3565b9150509295509295909350565b6000806020838503121561393257613931612f18565b5b600083013567ffffffffffffffff8111156139505761394f612f1d565b5b61395c85828601613830565b92509250509250929050565b6000806040838503121561397f5761397e612f18565b5b600083013567ffffffffffffffff81111561399d5761399c612f1d565b5b6139a985828601613168565b92505060206139ba85828601612f43565b9150509250929050565b600281106139d157600080fd5b50565b6000813590506139e3816139c4565b92915050565b60008060408385031215613a00576139ff612f18565b5b600083013567ffffffffffffffff811115613a1e57613a1d612f1d565b5b613a2a85828601613168565b9250506020613a3b858286016139d4565b9150509250929050565b600080600060608486031215613a5e57613a5d612f18565b5b600084013567ffffffffffffffff811115613a7c57613a7b612f1d565b5b613a8886828701613168565b935050602084013567ffffffffffffffff811115613aa957613aa8612f1d565b5b613ab586828701613168565b9250506040613ac6868287016132d3565b9150509250925092565b7f4e487b7100000000000000000000000000000000000000000000000000000000600052602260045260246000fd5b60006002820490506001821680613b1757607f821691505b602082108103613b2a57613b29613ad0565b5b50919050565b7f536f6c6f20656c206f776e657220707565646520656a6563757461722065737460008201527f6f00000000000000000000000000000000000000000000000000000000000000602082015250565b6000613b8c602183612f90565b9150613b9782613b30565b604082019050919050565b60006020820190508181036000830152613bbb81613b7f565b9050919050565b600081905092915050565b6000613bd882612f85565b613be28185613bc2565b9350613bf2818560208601612fa1565b80840191505092915050565b6000613c0a8284613bcd565b915081905092915050565b7f50726f796563746f206e6f206578697374650000000000000000000000000000600082015250565b6000613c4b601283612f90565b9150613c5682613c15565b602082019050919050565b60006020820190508181036000830152613c7a81613c3e565b9050919050565b7f4c6120646f6e6163696f6e206465626520736572206d61796f72206120300000600082015250565b6000613cb7601e83612f90565b9150613cc282613c81565b602082019050919050565b60006020820190508181036000830152613ce681613caa565b9050919050565b7f50726f796563746f206e6f2061637469766f0000000000000000000000000000600082015250565b6000613d23601283612f90565b9150613d2e82613ced565b602082019050919050565b60006020820190508181036000830152613d5281613d16565b9050919050565b60008190508160005260206000209050919050565b60006020601f8301049050919050565b600082821b905092915050565b600060088302613dbb7fffffffffffffffffffffffffffffffffffffffffffffffffffffffffffffffff82613d7e565b613dc58683613d7e565b95508019841693508086168417925050509392505050565b6000819050919050565b6000613e02613dfd613df884612f22565b613ddd565b612f22565b9050919050565b6000819050919050565b613e1c83613de7565b613e30613e2882613e09565b848454613d8b565b825550505050565b600090565b613e45613e38565b613e50818484613e13565b505050565b5b81811015613e7457613e69600082613e3d565b600181019050613e56565b5050565b601f821115613eb957613e8a81613d59565b613e9384613d6e565b81016020851015613ea2578190505b613eb6613eae85613d6e565b830182613e55565b50505b505050565b600082821c905092915050565b6000613edc60001984600802613ebe565b1980831691505092915050565b6000613ef58383613ecb565b9150826002028217905092915050565b613f0e82612f85565b67ffffffffffffffff811115613f2757613f2661306b565b5b613f318254613aff565b613f3c828285613e78565b600060209050601f831160018114613f6f5760008415613f5d578287015190505b613f678582613ee9565b865550613fcf565b601f198416613f7d86613d59565b60005b82811015613fa557848901518255600182019150602085019450602081019050613f80565b86831015613fc25784890151613fbe601f891682613ecb565b8355505b6001600288020188555050505b505050505050565b7f4e487b7100000000000000000000000000000000000000000000000000000000600052601160045260246000fd5b600061401182612f22565b91507fffffffffffffffffffffffffffffffffffffffffffffffffffffffffffffffff820361404357614042613fd7565b5b600182019050919050565b7f444f4e0000000000000000000000000000000000000000000000000000000000600082015250565b6000614084600383613bc2565b915061408f8261404e565b600382019050919050565b60006140a582614077565b91506140b18284613bcd565b915081905092915050565b60006140c782612f22565b91506140d283612f22565b92508282019050808211156140ea576140e9613fd7565b5b92915050565b7f4e487b7100000000000000000000000000000000000000000000000000000000600052601260045260246000fd5b600061412a82612f22565b915061413583612f22565b925082614145576141446140f0565b5b828204905092915050565b6000604082019050818103600083015261416a8185612fdc565b90506141796020830184613037565b9392505050565b600061418c8385613bc2565b9350614199838584613117565b82840190509392505050565b60006141b2828486614180565b91508190509392505050565b7f4e6f206175746f72697a61646f00000000000000000000000000000000000000600082015250565b60006141f4600d83612f90565b91506141ff826141be565b602082019050919050565b60006020820190508181036000830152614223816141e7565b9050919050565b7f436f6d7072612079612065786973746500000000000000000000000000000000600082015250565b6000614260601083612f90565b915061426b8261422a565b602082019050919050565b6000602082019050818103600083015261428f81614253565b9050919050565b7f56616c6f7220696e76616c69646f000000000000000000000000000000000000600082015250565b60006142cc600e83612f90565b91506142d782614296565b602082019050919050565b600060208201905081810360008301526142fb816142bf565b9050919050565b600061430d82612f22565b915061431883612f22565b92508282039050818111156143305761432f613fd7565b5b92915050565b600082905092915050565b61434b8383614336565b67ffffffffffffffff8111156143645761436361306b565b5b61436e8254613aff565b614379828285613e78565b6000601f8311600181146143a85760008415614396578287013590505b6143a08582613ee9565b865550614408565b601f1984166143b686613d59565b60005b828110156143de578489013582556001820191506020850194506020810190506143b9565b868310156143fb57848901356143f7601f891682613ecb565b8355505b6001600288020188555050505b50505050505050565b600061441d8385612f90565b935061442a838584613117565b61443383612fcb565b840190509392505050565b60006040820190508181036000830152614459818587614411565b90506144686020830184613037565b949350505050565b7f436f6d707261206e6f2065786973746500000000000000000000000000000000600082015250565b60006144a6601083612f90565b91506144b182614470565b602082019050919050565b600060208201905081810360008301526144d581614499565b9050919050565b7f436f6d7072612079612076616c69646164610000000000000000000000000000600082015250565b6000614512601283612f90565b915061451d826144dc565b602082019050919050565b6000602082019050818103600083015261454181614505565b9050919050565b7f536f6c6f2070726f766565646f72000000000000000000000000000000000000600082015250565b600061457e600e83612f90565b915061458982614548565b602082019050919050565b600060208201905081810360008301526145ad81614571565b9050919050565b600081546145c181613aff565b6145cb8186613bc2565b945060018216600081146145e657600181146145fb5761462e565b60ff198316865281151582028601935061462e565b61460485613d59565b60005b8381101561462657815481890152600182019150602081019050614607565b838801955050505b50505092915050565b600061464382846145b4565b915081905092915050565b7f43616e7469646164206578636564652072656361756461646f00000000000000600082015250565b6000614684601983612f90565b915061468f8261464e565b602082019050919050565b600060208201905081810360008301526146b381614677565b9050919050565b7f446f6e616e7465207961207265676973747261646f0000000000000000000000600082015250565b60006146f0601583612f90565b91506146fb826146ba565b602082019050919050565b6000602082019050818103600083015261471f816146e3565b9050919050565b7f50726f796563746f207961206578697374650000000000000000000000000000600082015250565b600061475c601283612f90565b915061476782614726565b602082019050919050565b6000602082019050818103600083015261478b8161474f565b9050919050565b600060408201905081810360008301526147ac8185612fdc565b905081810360208301526147c08184612fdc565b90509392505050565b7f4e6f207265676973747261646f00000000000000000000000000000000000000600082015250565b60006147ff600d83612f90565b915061480a826147c9565b602082019050919050565b6000602082019050818103600083015261482e816147f2565b9050919050565b7f546f6b656e7320696e737566696369656e746573000000000000000000000000600082015250565b600061486b601483612f90565b915061487682614835565b602082019050919050565b6000602082019050818103600083015261489a8161485e565b9050919050565b60006148ac82612f22565b91506148b783612f22565b9250826148c7576148c66140f0565b5b828206905092915050565b60006148dd82612f22565b9150600082036148f0576148ef613fd7565b5b600182039050919050565b7f4e487b7100000000000000000000000000000000000000000000000000000000600052603260045260246000fdfea2646970667358221220f75e69d62ad42da2c51590da56a81cb5cd47d7773146b16f2c49f52fe1c2f53a64736f6c634300081f0033",
			"opcodes": "PUSH1 0x80 PUSH1 0x40 MSTORE PUSH1 0x0 PUSH1 0x8 SSTORE CALLVALUE DUP1 ISZERO PUSH1 0x14 JUMPI PUSH1 0x0 DUP1 REVERT JUMPDEST POP CALLER PUSH1 0x9 PUSH1 0x0 PUSH2 0x100 EXP DUP2 SLOAD DUP2 PUSH20 0xFFFFFFFFFFFFFFFFFFFFFFFFFFFFFFFFFFFFFFFF MUL NOT AND SWAP1 DUP4 PUSH20 0xFFFFFFFFFFFFFFFFFFFFFFFFFFFFFFFFFFFFFFFF AND MUL OR SWAP1 SSTORE POP PUSH2 0x4960 DUP1 PUSH2 0x65 PUSH1 0x0 CODECOPY PUSH1 0x0 RETURN INVALID PUSH1 0x80 PUSH1 0x40 MSTORE PUSH1 0x4 CALLDATASIZE LT PUSH2 0x166 JUMPI PUSH1 0x0 CALLDATALOAD PUSH1 0xE0 SHR DUP1 PUSH4 0x71E60523 GT PUSH2 0xD1 JUMPI DUP1 PUSH4 0x9FB7AAFC GT PUSH2 0x8A JUMPI DUP1 PUSH4 0xB7BF159C GT PUSH2 0x64 JUMPI DUP1 PUSH4 0xB7BF159C EQ PUSH2 0x596 JUMPI DUP1 PUSH4 0xDCD82BB8 EQ PUSH2 0x5BF JUMPI DUP1 PUSH4 0xE61EF234 EQ PUSH2 0x5E8 JUMPI DUP1 PUSH4 0xE63CFCD5 EQ PUSH2 0x611 JUMPI PUSH2 0x166 JUMP JUMPDEST DUP1 PUSH4 0x9FB7AAFC EQ PUSH2 0x514 JUMPI DUP1 PUSH4 0xA6E2AC4A EQ PUSH2 0x551 JUMPI DUP1 PUSH4 0xA89DCBC4 EQ PUSH2 0x56D JUMPI PUSH2 0x166 JUMP JUMPDEST DUP1 PUSH4 0x71E60523 EQ PUSH2 0x3E6 JUMPI DUP1 PUSH4 0x81B662C8 EQ PUSH2 0x429 JUMPI DUP1 PUSH4 0x8AF01880 EQ PUSH2 0x466 JUMPI DUP1 PUSH4 0x8CB813CE EQ PUSH2 0x47D JUMPI DUP1 PUSH4 0x8DA5CB5B EQ PUSH2 0x4A8 JUMPI DUP1 PUSH4 0x8E5A67AD EQ PUSH2 0x4D3 JUMPI PUSH2 0x166 JUMP JUMPDEST DUP1 PUSH4 0x3E08EC0B GT PUSH2 0x123 JUMPI DUP1 PUSH4 0x3E08EC0B EQ PUSH2 0x280 JUMPI DUP1 PUSH4 0x460BE06B EQ PUSH2 0x2BD JUMPI DUP1 PUSH4 0x4C47D69F EQ PUSH2 0x300 JUMPI DUP1 PUSH4 0x687B5810 EQ PUSH2 0x33D JUMPI DUP1 PUSH4 0x69B7C4B5 EQ PUSH2 0x368 JUMPI DUP1 PUSH4 0x6DB33B4A EQ PUSH2 0x3A5 JUMPI PUSH2 0x166 JUMP JUMPDEST DUP1 PUSH4 0x20BE41F EQ PUSH2 0x16B JUMPI DUP1 PUSH4 0x1815A0F7 EQ PUSH2 0x1A8 JUMPI DUP1 PUSH4 0x1FEAC110 EQ PUSH2 0x1D3 JUMPI DUP1 PUSH4 0x22D9A1EE EQ PUSH2 0x1FC JUMPI DUP1 PUSH4 0x29211437 EQ PUSH2 0x227 JUMPI DUP1 PUSH4 0x2FE70653 EQ PUSH2 0x264 JUMPI JUMPDEST PUSH1 0x0 DUP1 REVERT JUMPDEST CALLVALUE DUP1 ISZERO PUSH2 0x177 JUMPI PUSH1 0x0 DUP1 REVERT JUMPDEST POP PUSH2 0x192 PUSH1 0x4 DUP1 CALLDATASIZE SUB DUP2 ADD SWAP1 PUSH2 0x18D SWAP2 SWAP1 PUSH2 0x2F58 JUMP JUMPDEST PUSH2 0x63A JUMP JUMPDEST PUSH1 0x40 MLOAD PUSH2 0x19F SWAP2 SWAP1 PUSH2 0x3015 JUMP JUMPDEST PUSH1 0x40 MLOAD DUP1 SWAP2 SUB SWAP1 RETURN JUMPDEST CALLVALUE DUP1 ISZERO PUSH2 0x1B4 JUMPI PUSH1 0x0 DUP1 REVERT JUMPDEST POP PUSH2 0x1BD PUSH2 0x6E6 JUMP JUMPDEST PUSH1 0x40 MLOAD PUSH2 0x1CA SWAP2 SWAP1 PUSH2 0x3046 JUMP JUMPDEST PUSH1 0x40 MLOAD DUP1 SWAP2 SUB SWAP1 RETURN JUMPDEST CALLVALUE DUP1 ISZERO PUSH2 0x1DF JUMPI PUSH1 0x0 DUP1 REVERT JUMPDEST POP PUSH2 0x1FA PUSH1 0x4 DUP1 CALLDATASIZE SUB DUP2 ADD SWAP1 PUSH2 0x1F5 SWAP2 SWAP1 PUSH2 0x31BB JUMP JUMPDEST PUSH2 0x6F3 JUMP JUMPDEST STOP JUMPDEST CALLVALUE DUP1 ISZERO PUSH2 0x208 JUMPI PUSH1 0x0 DUP1 REVERT JUMPDEST POP PUSH2 0x211 PUSH2 0x840 JUMP JUMPDEST PUSH1 0x40 MLOAD PUSH2 0x21E SWAP2 SWAP1 PUSH2 0x3046 JUMP JUMPDEST PUSH1 0x40 MLOAD DUP1 SWAP2 SUB SWAP1 RETURN JUMPDEST CALLVALUE DUP1 ISZERO PUSH2 0x233 JUMPI PUSH1 0x0 DUP1 REVERT JUMPDEST POP PUSH2 0x24E PUSH1 0x4 DUP1 CALLDATASIZE SUB DUP2 ADD SWAP1 PUSH2 0x249 SWAP2 SWAP1 PUSH2 0x2F58 JUMP JUMPDEST PUSH2 0x848 JUMP JUMPDEST PUSH1 0x40 MLOAD PUSH2 0x25B SWAP2 SWAP1 PUSH2 0x3258 JUMP JUMPDEST PUSH1 0x40 MLOAD DUP1 SWAP2 SUB SWAP1 RETURN JUMPDEST PUSH2 0x27E PUSH1 0x4 DUP1 CALLDATASIZE SUB DUP2 ADD SWAP1 PUSH2 0x279 SWAP2 SWAP1 PUSH2 0x3273 JUMP JUMPDEST PUSH2 0x887 JUMP JUMPDEST STOP JUMPDEST CALLVALUE DUP1 ISZERO PUSH2 0x28C JUMPI PUSH1 0x0 DUP1 REVERT JUMPDEST POP PUSH2 0x2A7 PUSH1 0x4 DUP1 CALLDATASIZE SUB DUP2 ADD SWAP1 PUSH2 0x2A2 SWAP2 SWAP1 PUSH2 0x32E8 JUMP JUMPDEST PUSH2 0xEDF JUMP JUMPDEST PUSH1 0x40 MLOAD PUSH2 0x2B4 SWAP2 SWAP1 PUSH2 0x346A JUMP JUMPDEST PUSH1 0x40 MLOAD DUP1 SWAP2 SUB SWAP1 RETURN JUMPDEST CALLVALUE DUP1 ISZERO PUSH2 0x2C9 JUMPI PUSH1 0x0 DUP1 REVERT JUMPDEST POP PUSH2 0x2E4 PUSH1 0x4 DUP1 CALLDATASIZE SUB DUP2 ADD SWAP1 PUSH2 0x2DF SWAP2 SWAP1 PUSH2 0x3273 JUMP JUMPDEST PUSH2 0x106E JUMP JUMPDEST PUSH1 0x40 MLOAD PUSH2 0x2F7 SWAP8 SWAP7 SWAP6 SWAP5 SWAP4 SWAP3 SWAP2 SWAP1 PUSH2 0x34D4 JUMP JUMPDEST PUSH1 0x40 MLOAD DUP1 SWAP2 SUB SWAP1 RETURN JUMPDEST CALLVALUE DUP1 ISZERO PUSH2 0x30C JUMPI PUSH1 0x0 DUP1 REVERT JUMPDEST POP PUSH2 0x327 PUSH1 0x4 DUP1 CALLDATASIZE SUB DUP2 ADD SWAP1 PUSH2 0x322 SWAP2 SWAP1 PUSH2 0x3273 JUMP JUMPDEST PUSH2 0x1203 JUMP JUMPDEST PUSH1 0x40 MLOAD PUSH2 0x334 SWAP2 SWAP1 PUSH2 0x35CE JUMP JUMPDEST PUSH1 0x40 MLOAD DUP1 SWAP2 SUB SWAP1 RETURN JUMPDEST CALLVALUE DUP1 ISZERO PUSH2 0x349 JUMPI PUSH1 0x0 DUP1 REVERT JUMPDEST POP PUSH2 0x352 PUSH2 0x13C9 JUMP JUMPDEST PUSH1 0x40 MLOAD PUSH2 0x35F SWAP2 SWAP1 PUSH2 0x3046 JUMP JUMPDEST PUSH1 0x40 MLOAD DUP1 SWAP2 SUB SWAP1 RETURN JUMPDEST CALLVALUE DUP1 ISZERO PUSH2 0x374 JUMPI PUSH1 0x0 DUP1 REVERT JUMPDEST POP PUSH2 0x38F PUSH1 0x4 DUP1 CALLDATASIZE SUB DUP2 ADD SWAP1 PUSH2 0x38A SWAP2 SWAP1 PUSH2 0x2F58 JUMP JUMPDEST PUSH2 0x13D6 JUMP JUMPDEST PUSH1 0x40 MLOAD PUSH2 0x39C SWAP2 SWAP1 PUSH2 0x3015 JUMP JUMPDEST PUSH1 0x40 MLOAD DUP1 SWAP2 SUB SWAP1 RETURN JUMPDEST CALLVALUE DUP1 ISZERO PUSH2 0x3B1 JUMPI PUSH1 0x0 DUP1 REVERT JUMPDEST POP PUSH2 0x3CC PUSH1 0x4 DUP1 CALLDATASIZE SUB DUP2 ADD SWAP1 PUSH2 0x3C7 SWAP2 SWAP1 PUSH2 0x32E8 JUMP JUMPDEST PUSH2 0x1482 JUMP JUMPDEST PUSH1 0x40 MLOAD PUSH2 0x3DD SWAP6 SWAP5 SWAP4 SWAP3 SWAP2 SWAP1 PUSH2 0x35FF JUMP JUMPDEST PUSH1 0x40 MLOAD DUP1 SWAP2 SUB SWAP1 RETURN JUMPDEST CALLVALUE DUP1 ISZERO PUSH2 0x3F2 JUMPI PUSH1 0x0 DUP1 REVERT JUMPDEST POP PUSH2 0x40D PUSH1 0x4 DUP1 CALLDATASIZE SUB DUP2 ADD SWAP1 PUSH2 0x408 SWAP2 SWAP1 PUSH2 0x3273 JUMP JUMPDEST PUSH2 0x156D JUMP JUMPDEST PUSH1 0x40 MLOAD PUSH2 0x420 SWAP8 SWAP7 SWAP6 SWAP5 SWAP4 SWAP3 SWAP2 SWAP1 PUSH2 0x3674 JUMP JUMPDEST PUSH1 0x40 MLOAD DUP1 SWAP2 SUB SWAP1 RETURN JUMPDEST CALLVALUE DUP1 ISZERO PUSH2 0x435 JUMPI PUSH1 0x0 DUP1 REVERT JUMPDEST POP PUSH2 0x450 PUSH1 0x4 DUP1 CALLDATASIZE SUB DUP2 ADD SWAP1 PUSH2 0x44B SWAP2 SWAP1 PUSH2 0x3273 JUMP JUMPDEST PUSH2 0x1722 JUMP JUMPDEST PUSH1 0x40 MLOAD PUSH2 0x45D SWAP2 SWAP1 PUSH2 0x37A3 JUMP JUMPDEST PUSH1 0x40 MLOAD DUP1 SWAP2 SUB SWAP1 RETURN JUMPDEST CALLVALUE DUP1 ISZERO PUSH2 0x472 JUMPI PUSH1 0x0 DUP1 REVERT JUMPDEST POP PUSH2 0x47B PUSH2 0x192D JUMP JUMPDEST STOP JUMPDEST CALLVALUE DUP1 ISZERO PUSH2 0x489 JUMPI PUSH1 0x0 DUP1 REVERT JUMPDEST POP PUSH2 0x492 PUSH2 0x1A28 JUMP JUMPDEST PUSH1 0x40 MLOAD PUSH2 0x49F SWAP2 SWAP1 PUSH2 0x3046 JUMP JUMPDEST PUSH1 0x40 MLOAD DUP1 SWAP2 SUB SWAP1 RETURN JUMPDEST CALLVALUE DUP1 ISZERO PUSH2 0x4B4 JUMPI PUSH1 0x0 DUP1 REVERT JUMPDEST POP PUSH2 0x4BD PUSH2 0x1A35 JUMP JUMPDEST PUSH1 0x40 MLOAD PUSH2 0x4CA SWAP2 SWAP1 PUSH2 0x3258 JUMP JUMPDEST PUSH1 0x40 MLOAD DUP1 SWAP2 SUB SWAP1 RETURN JUMPDEST CALLVALUE DUP1 ISZERO PUSH2 0x4DF JUMPI PUSH1 0x0 DUP1 REVERT JUMPDEST POP PUSH2 0x4FA PUSH1 0x4 DUP1 CALLDATASIZE SUB DUP2 ADD SWAP1 PUSH2 0x4F5 SWAP2 SWAP1 PUSH2 0x3273 JUMP JUMPDEST PUSH2 0x1A5B JUMP JUMPDEST PUSH1 0x40 MLOAD PUSH2 0x50B SWAP6 SWAP5 SWAP4 SWAP3 SWAP2 SWAP1 PUSH2 0x37C5 JUMP JUMPDEST PUSH1 0x40 MLOAD DUP1 SWAP2 SUB SWAP1 RETURN JUMPDEST CALLVALUE DUP1 ISZERO PUSH2 0x520 JUMPI PUSH1 0x0 DUP1 REVERT JUMPDEST POP PUSH2 0x53B PUSH1 0x4 DUP1 CALLDATASIZE SUB DUP2 ADD SWAP1 PUSH2 0x536 SWAP2 SWAP1 PUSH2 0x2F58 JUMP JUMPDEST PUSH2 0x1BD7 JUMP JUMPDEST PUSH1 0x40 MLOAD PUSH2 0x548 SWAP2 SWAP1 PUSH2 0x3015 JUMP JUMPDEST PUSH1 0x40 MLOAD DUP1 SWAP2 SUB SWAP1 RETURN JUMPDEST PUSH2 0x56B PUSH1 0x4 DUP1 CALLDATASIZE SUB DUP2 ADD SWAP1 PUSH2 0x566 SWAP2 SWAP1 PUSH2 0x3886 JUMP JUMPDEST PUSH2 0x1C83 JUMP JUMPDEST STOP JUMPDEST CALLVALUE DUP1 ISZERO PUSH2 0x579 JUMPI PUSH1 0x0 DUP1 REVERT JUMPDEST POP PUSH2 0x594 PUSH1 0x4 DUP1 CALLDATASIZE SUB DUP2 ADD SWAP1 PUSH2 0x58F SWAP2 SWAP1 PUSH2 0x391B JUMP JUMPDEST PUSH2 0x20AF JUMP JUMPDEST STOP JUMPDEST CALLVALUE DUP1 ISZERO PUSH2 0x5A2 JUMPI PUSH1 0x0 DUP1 REVERT JUMPDEST POP PUSH2 0x5BD PUSH1 0x4 DUP1 CALLDATASIZE SUB DUP2 ADD SWAP1 PUSH2 0x5B8 SWAP2 SWAP1 PUSH2 0x3968 JUMP JUMPDEST PUSH2 0x22CE JUMP JUMPDEST STOP JUMPDEST CALLVALUE DUP1 ISZERO PUSH2 0x5CB JUMPI PUSH1 0x0 DUP1 REVERT JUMPDEST POP PUSH2 0x5E6 PUSH1 0x4 DUP1 CALLDATASIZE SUB DUP2 ADD SWAP1 PUSH2 0x5E1 SWAP2 SWAP1 PUSH2 0x39E9 JUMP JUMPDEST PUSH2 0x246E JUMP JUMPDEST STOP JUMPDEST CALLVALUE DUP1 ISZERO PUSH2 0x5F4 JUMPI PUSH1 0x0 DUP1 REVERT JUMPDEST POP PUSH2 0x60F PUSH1 0x4 DUP1 CALLDATASIZE SUB DUP2 ADD SWAP1 PUSH2 0x60A SWAP2 SWAP1 PUSH2 0x3A45 JUMP JUMPDEST PUSH2 0x2726 JUMP JUMPDEST STOP JUMPDEST CALLVALUE DUP1 ISZERO PUSH2 0x61D JUMPI PUSH1 0x0 DUP1 REVERT JUMPDEST POP PUSH2 0x638 PUSH1 0x4 DUP1 CALLDATASIZE SUB DUP2 ADD SWAP1 PUSH2 0x633 SWAP2 SWAP1 PUSH2 0x3968 JUMP JUMPDEST PUSH2 0x29DA JUMP JUMPDEST STOP JUMPDEST PUSH1 0x6 DUP2 DUP2 SLOAD DUP2 LT PUSH2 0x64A JUMPI PUSH1 0x0 DUP1 REVERT JUMPDEST SWAP1 PUSH1 0x0 MSTORE PUSH1 0x20 PUSH1 0x0 KECCAK256 ADD PUSH1 0x0 SWAP2 POP SWAP1 POP DUP1 SLOAD PUSH2 0x665 SWAP1 PUSH2 0x3AFF JUMP JUMPDEST DUP1 PUSH1 0x1F ADD PUSH1 0x20 DUP1 SWAP2 DIV MUL PUSH1 0x20 ADD PUSH1 0x40 MLOAD SWAP1 DUP2 ADD PUSH1 0x40 MSTORE DUP1 SWAP3 SWAP2 SWAP1 DUP2 DUP2 MSTORE PUSH1 0x20 ADD DUP3 DUP1 SLOAD PUSH2 0x691 SWAP1 PUSH2 0x3AFF JUMP JUMPDEST DUP1 ISZERO PUSH2 0x6DE JUMPI DUP1 PUSH1 0x1F LT PUSH2 0x6B3 JUMPI PUSH2 0x100 DUP1 DUP4 SLOAD DIV MUL DUP4 MSTORE SWAP2 PUSH1 0x20 ADD SWAP2 PUSH2 0x6DE JUMP JUMPDEST DUP3 ADD SWAP2 SWAP1 PUSH1 0x0 MSTORE PUSH1 0x20 PUSH1 0x0 KECCAK256 SWAP1 JUMPDEST DUP2 SLOAD DUP2 MSTORE SWAP1 PUSH1 0x1 ADD SWAP1 PUSH1 0x20 ADD DUP1 DUP4 GT PUSH2 0x6C1 JUMPI DUP3 SWAP1 SUB PUSH1 0x1F AND DUP3 ADD SWAP2 JUMPDEST POP POP POP POP POP DUP2 JUMP JUMPDEST PUSH1 0x0 PUSH1 0x4 DUP1 SLOAD SWAP1 POP SWAP1 POP SWAP1 JUMP JUMPDEST PUSH1 0x9 PUSH1 0x0 SWAP1 SLOAD SWAP1 PUSH2 0x100 EXP SWAP1 DIV PUSH20 0xFFFFFFFFFFFFFFFFFFFFFFFFFFFFFFFFFFFFFFFF AND PUSH20 0xFFFFFFFFFFFFFFFFFFFFFFFFFFFFFFFFFFFFFFFF AND CALLER PUSH20 0xFFFFFFFFFFFFFFFFFFFFFFFFFFFFFFFFFFFFFFFF AND EQ PUSH2 0x783 JUMPI PUSH1 0x40 MLOAD PUSH32 0x8C379A000000000000000000000000000000000000000000000000000000000 DUP2 MSTORE PUSH1 0x4 ADD PUSH2 0x77A SWAP1 PUSH2 0x3BA2 JUMP JUMPDEST PUSH1 0x40 MLOAD DUP1 SWAP2 SUB SWAP1 REVERT JUMPDEST PUSH1 0x0 PUSH1 0x1 DUP4 PUSH1 0x40 MLOAD PUSH2 0x795 SWAP2 SWAP1 PUSH2 0x3BFE JUMP JUMPDEST SWAP1 DUP2 MSTORE PUSH1 0x20 ADD PUSH1 0x40 MLOAD DUP1 SWAP2 SUB SWAP1 KECCAK256 PUSH1 0x0 ADD DUP1 SLOAD PUSH2 0x7B1 SWAP1 PUSH2 0x3AFF JUMP JUMPDEST SWAP1 POP GT PUSH2 0x7F3 JUMPI PUSH1 0x40 MLOAD PUSH32 0x8C379A000000000000000000000000000000000000000000000000000000000 DUP2 MSTORE PUSH1 0x4 ADD PUSH2 0x7EA SWAP1 PUSH2 0x3C61 JUMP JUMPDEST PUSH1 0x40 MLOAD DUP1 SWAP2 SUB SWAP1 REVERT JUMPDEST DUP1 PUSH1 0x1 DUP4 PUSH1 0x40 MLOAD PUSH2 0x804 SWAP2 SWAP1 PUSH2 0x3BFE JUMP JUMPDEST SWAP1 DUP2 MSTORE PUSH1 0x20 ADD PUSH1 0x40 MLOAD DUP1 SWAP2 SUB SWAP1 KECCAK256 PUSH1 0x5 ADD PUSH1 0x0 PUSH2 0x100 EXP DUP2 SLOAD DUP2 PUSH1 0xFF MUL NOT AND SWAP1 DUP4 PUSH1 0x1 DUP2 GT ISZERO PUSH2 0x837 JUMPI PUSH2 0x836 PUSH2 0x336E JUMP JUMPDEST JUMPDEST MUL OR SWAP1 SSTORE POP POP POP JUMP JUMPDEST PUSH1 0x0 SELFBALANCE SWAP1 POP SWAP1 JUMP JUMPDEST PUSH1 0x4 DUP2 DUP2 SLOAD DUP2 LT PUSH2 0x858 JUMPI PUSH1 0x0 DUP1 REVERT JUMPDEST SWAP1 PUSH1 0x0 MSTORE PUSH1 0x20 PUSH1 0x0 KECCAK256 ADD PUSH1 0x0 SWAP2 POP SLOAD SWAP1 PUSH2 0x100 EXP SWAP1 DIV PUSH20 0xFFFFFFFFFFFFFFFFFFFFFFFFFFFFFFFFFFFFFFFF AND DUP2 JUMP JUMPDEST PUSH1 0x0 CALLVALUE GT PUSH2 0x8CA JUMPI PUSH1 0x40 MLOAD PUSH32 0x8C379A000000000000000000000000000000000000000000000000000000000 DUP2 MSTORE PUSH1 0x4 ADD PUSH2 0x8C1 SWAP1 PUSH2 0x3CCD JUMP JUMPDEST PUSH1 0x40 MLOAD DUP1 SWAP2 SUB SWAP1 REVERT JUMPDEST PUSH1 0x0 PUSH1 0x1 DUP3 PUSH1 0x40 MLOAD PUSH2 0x8DC SWAP2 SWAP1 PUSH2 0x3BFE JUMP JUMPDEST SWAP1 DUP2 MSTORE PUSH1 0x20 ADD PUSH1 0x40 MLOAD DUP1 SWAP2 SUB SWAP1 KECCAK256 PUSH1 0x0 ADD DUP1 SLOAD PUSH2 0x8F8 SWAP1 PUSH2 0x3AFF JUMP JUMPDEST SWAP1 POP GT PUSH2 0x93A JUMPI PUSH1 0x40 MLOAD PUSH32 0x8C379A000000000000000000000000000000000000000000000000000000000 DUP2 MSTORE PUSH1 0x4 ADD PUSH2 0x931 SWAP1 PUSH2 0x3C61 JUMP JUMPDEST PUSH1 0x40 MLOAD DUP1 SWAP2 SUB SWAP1 REVERT JUMPDEST PUSH1 0x0 PUSH1 0x1 DUP2 GT ISZERO PUSH2 0x94E JUMPI PUSH2 0x94D PUSH2 0x336E JUMP JUMPDEST JUMPDEST PUSH1 0x1 DUP3 PUSH1 0x40 MLOAD PUSH2 0x95E SWAP2 SWAP1 PUSH2 0x3BFE JUMP JUMPDEST SWAP1 DUP2 MSTORE PUSH1 0x20 ADD PUSH1 0x40 MLOAD DUP1 SWAP2 SUB SWAP1 KECCAK256 PUSH1 0x5 ADD PUSH1 0x0 SWAP1 SLOAD SWAP1 PUSH2 0x100 EXP SWAP1 DIV PUSH1 0xFF AND PUSH1 0x1 DUP2 GT ISZERO PUSH2 0x98F JUMPI PUSH2 0x98E PUSH2 0x336E JUMP JUMPDEST JUMPDEST EQ PUSH2 0x9CF JUMPI PUSH1 0x40 MLOAD PUSH32 0x8C379A000000000000000000000000000000000000000000000000000000000 DUP2 MSTORE PUSH1 0x4 ADD PUSH2 0x9C6 SWAP1 PUSH2 0x3D39 JUMP JUMPDEST PUSH1 0x40 MLOAD DUP1 SWAP2 SUB SWAP1 REVERT JUMPDEST PUSH1 0x0 PUSH20 0xFFFFFFFFFFFFFFFFFFFFFFFFFFFFFFFFFFFFFFFF AND PUSH1 0x0 DUP1 CALLER PUSH20 0xFFFFFFFFFFFFFFFFFFFFFFFFFFFFFFFFFFFFFFFF AND PUSH20 0xFFFFFFFFFFFFFFFFFFFFFFFFFFFFFFFFFFFFFFFF AND DUP2 MSTORE PUSH1 0x20 ADD SWAP1 DUP2 MSTORE PUSH1 0x20 ADD PUSH1 0x0 KECCAK256 PUSH1 0x0 ADD PUSH1 0x0 SWAP1 SLOAD SWAP1 PUSH2 0x100 EXP SWAP1 DIV PUSH20 0xFFFFFFFFFFFFFFFFFFFFFFFFFFFFFFFFFFFFFFFF AND PUSH20 0xFFFFFFFFFFFFFFFFFFFFFFFFFFFFFFFFFFFFFFFF AND SUB PUSH2 0xC31 JUMPI PUSH1 0x40 MLOAD DUP1 PUSH1 0xA0 ADD PUSH1 0x40 MSTORE DUP1 CALLER PUSH20 0xFFFFFFFFFFFFFFFFFFFFFFFFFFFFFFFFFFFFFFFF AND DUP2 MSTORE PUSH1 0x20 ADD PUSH1 0x40 MLOAD DUP1 PUSH1 0x40 ADD PUSH1 0x40 MSTORE DUP1 PUSH1 0x9 DUP2 MSTORE PUSH1 0x20 ADD PUSH32 0x496E6469766964756F0000000000000000000000000000000000000000000000 DUP2 MSTORE POP DUP2 MSTORE PUSH1 0x20 ADD PUSH1 0x0 PUSH1 0x1 DUP2 GT ISZERO PUSH2 0xADA JUMPI PUSH2 0xAD9 PUSH2 0x336E JUMP JUMPDEST JUMPDEST DUP2 MSTORE PUSH1 0x20 ADD PUSH1 0x0 DUP2 MSTORE PUSH1 0x20 ADD PUSH1 0x0 DUP2 MSTORE POP PUSH1 0x0 DUP1 CALLER PUSH20 0xFFFFFFFFFFFFFFFFFFFFFFFFFFFFFFFFFFFFFFFF AND PUSH20 0xFFFFFFFFFFFFFFFFFFFFFFFFFFFFFFFFFFFFFFFF AND DUP2 MSTORE PUSH1 0x20 ADD SWAP1 DUP2 MSTORE PUSH1 0x20 ADD PUSH1 0x0 KECCAK256 PUSH1 0x0 DUP3 ADD MLOAD DUP2 PUSH1 0x0 ADD PUSH1 0x0 PUSH2 0x100 EXP DUP2 SLOAD DUP2 PUSH20 0xFFFFFFFFFFFFFFFFFFFFFFFFFFFFFFFFFFFFFFFF MUL NOT AND SWAP1 DUP4 PUSH20 0xFFFFFFFFFFFFFFFFFFFFFFFFFFFFFFFFFFFFFFFF AND MUL OR SWAP1 SSTORE POP PUSH1 0x20 DUP3 ADD MLOAD DUP2 PUSH1 0x1 ADD SWAP1 DUP2 PUSH2 0xB85 SWAP2 SWAP1 PUSH2 0x3F05 JUMP JUMPDEST POP PUSH1 0x40 DUP3 ADD MLOAD DUP2 PUSH1 0x2 ADD PUSH1 0x0 PUSH2 0x100 EXP DUP2 SLOAD DUP2 PUSH1 0xFF MUL NOT AND SWAP1 DUP4 PUSH1 0x1 DUP2 GT ISZERO PUSH2 0xBB1 JUMPI PUSH2 0xBB0 PUSH2 0x336E JUMP JUMPDEST JUMPDEST MUL OR SWAP1 SSTORE POP PUSH1 0x60 DUP3 ADD MLOAD DUP2 PUSH1 0x3 ADD SSTORE PUSH1 0x80 DUP3 ADD MLOAD DUP2 PUSH1 0x4 ADD SSTORE SWAP1 POP POP PUSH1 0x4 CALLER SWAP1 DUP1 PUSH1 0x1 DUP2 SLOAD ADD DUP1 DUP3 SSTORE DUP1 SWAP2 POP POP PUSH1 0x1 SWAP1 SUB SWAP1 PUSH1 0x0 MSTORE PUSH1 0x20 PUSH1 0x0 KECCAK256 ADD PUSH1 0x0 SWAP1 SWAP2 SWAP1 SWAP2 SWAP1 SWAP2 PUSH2 0x100 EXP DUP2 SLOAD DUP2 PUSH20 0xFFFFFFFFFFFFFFFFFFFFFFFFFFFFFFFFFFFFFFFF MUL NOT AND SWAP1 DUP4 PUSH20 0xFFFFFFFFFFFFFFFFFFFFFFFFFFFFFFFFFFFFFFFF AND MUL OR SWAP1 SSTORE POP JUMPDEST PUSH1 0x8 PUSH1 0x0 DUP2 SLOAD DUP1 SWAP3 SWAP2 SWAP1 PUSH2 0xC44 SWAP1 PUSH2 0x4006 JUMP JUMPDEST SWAP2 SWAP1 POP SSTORE POP PUSH1 0x0 PUSH2 0xC56 PUSH1 0x8 SLOAD PUSH2 0x2CA7 JUMP JUMPDEST PUSH1 0x40 MLOAD PUSH1 0x20 ADD PUSH2 0xC66 SWAP2 SWAP1 PUSH2 0x409A JUMP JUMPDEST PUSH1 0x40 MLOAD PUSH1 0x20 DUP2 DUP4 SUB SUB DUP2 MSTORE SWAP1 PUSH1 0x40 MSTORE SWAP1 POP PUSH1 0x40 MLOAD DUP1 PUSH1 0xA0 ADD PUSH1 0x40 MSTORE DUP1 DUP3 DUP2 MSTORE PUSH1 0x20 ADD CALLER PUSH20 0xFFFFFFFFFFFFFFFFFFFFFFFFFFFFFFFFFFFFFFFF AND DUP2 MSTORE PUSH1 0x20 ADD DUP4 DUP2 MSTORE PUSH1 0x20 ADD CALLVALUE DUP2 MSTORE PUSH1 0x20 ADD TIMESTAMP DUP2 MSTORE POP PUSH1 0x2 DUP3 PUSH1 0x40 MLOAD PUSH2 0xCC4 SWAP2 SWAP1 PUSH2 0x3BFE JUMP JUMPDEST SWAP1 DUP2 MSTORE PUSH1 0x20 ADD PUSH1 0x40 MLOAD DUP1 SWAP2 SUB SWAP1 KECCAK256 PUSH1 0x0 DUP3 ADD MLOAD DUP2 PUSH1 0x0 ADD SWAP1 DUP2 PUSH2 0xCE7 SWAP2 SWAP1 PUSH2 0x3F05 JUMP JUMPDEST POP PUSH1 0x20 DUP3 ADD MLOAD DUP2 PUSH1 0x1 ADD PUSH1 0x0 PUSH2 0x100 EXP DUP2 SLOAD DUP2 PUSH20 0xFFFFFFFFFFFFFFFFFFFFFFFFFFFFFFFFFFFFFFFF MUL NOT AND SWAP1 DUP4 PUSH20 0xFFFFFFFFFFFFFFFFFFFFFFFFFFFFFFFFFFFFFFFF AND MUL OR SWAP1 SSTORE POP PUSH1 0x40 DUP3 ADD MLOAD DUP2 PUSH1 0x2 ADD SWAP1 DUP2 PUSH2 0xD44 SWAP2 SWAP1 PUSH2 0x3F05 JUMP JUMPDEST POP PUSH1 0x60 DUP3 ADD MLOAD DUP2 PUSH1 0x3 ADD SSTORE PUSH1 0x80 DUP3 ADD MLOAD DUP2 PUSH1 0x4 ADD SSTORE SWAP1 POP POP PUSH1 0x6 DUP2 SWAP1 DUP1 PUSH1 0x1 DUP2 SLOAD ADD DUP1 DUP3 SSTORE DUP1 SWAP2 POP POP PUSH1 0x1 SWAP1 SUB SWAP1 PUSH1 0x0 MSTORE PUSH1 0x20 PUSH1 0x0 KECCAK256 ADD PUSH1 0x0 SWAP1 SWAP2 SWAP1 SWAP2 SWAP1 SWAP2 POP SWAP1 DUP2 PUSH2 0xD90 SWAP2 SWAP1 PUSH2 0x3F05 JUMP JUMPDEST POP CALLVALUE PUSH1 0x0 DUP1 CALLER PUSH20 0xFFFFFFFFFFFFFFFFFFFFFFFFFFFFFFFFFFFFFFFF AND PUSH20 0xFFFFFFFFFFFFFFFFFFFFFFFFFFFFFFFFFFFFFFFF AND DUP2 MSTORE PUSH1 0x20 ADD SWAP1 DUP2 MSTORE PUSH1 0x20 ADD PUSH1 0x0 KECCAK256 PUSH1 0x3 ADD PUSH1 0x0 DUP3 DUP3 SLOAD PUSH2 0xDE2 SWAP2 SWAP1 PUSH2 0x40BC JUMP JUMPDEST SWAP3 POP POP DUP2 SWAP1 SSTORE POP PUSH7 0x38D7EA4C68000 CALLVALUE PUSH2 0xDFC SWAP2 SWAP1 PUSH2 0x411F JUMP JUMPDEST PUSH1 0x0 DUP1 CALLER PUSH20 0xFFFFFFFFFFFFFFFFFFFFFFFFFFFFFFFFFFFFFFFF AND PUSH20 0xFFFFFFFFFFFFFFFFFFFFFFFFFFFFFFFFFFFFFFFF AND DUP2 MSTORE PUSH1 0x20 ADD SWAP1 DUP2 MSTORE PUSH1 0x20 ADD PUSH1 0x0 KECCAK256 PUSH1 0x4 ADD PUSH1 0x0 DUP3 DUP3 SLOAD PUSH2 0xE4C SWAP2 SWAP1 PUSH2 0x40BC JUMP JUMPDEST SWAP3 POP POP DUP2 SWAP1 SSTORE POP CALLVALUE PUSH1 0x1 DUP4 PUSH1 0x40 MLOAD PUSH2 0xE64 SWAP2 SWAP1 PUSH2 0x3BFE JUMP JUMPDEST SWAP1 DUP2 MSTORE PUSH1 0x20 ADD PUSH1 0x40 MLOAD DUP1 SWAP2 SUB SWAP1 KECCAK256 PUSH1 0x3 ADD PUSH1 0x0 DUP3 DUP3 SLOAD PUSH2 0xE84 SWAP2 SWAP1 PUSH2 0x40BC JUMP JUMPDEST SWAP3 POP POP DUP2 SWAP1 SSTORE POP CALLER PUSH20 0xFFFFFFFFFFFFFFFFFFFFFFFFFFFFFFFFFFFFFFFF AND PUSH32 0xCFB07AEB1A68DF533B5F56594C910129B452A7002D5741CA117913F1887C7CED DUP4 CALLVALUE PUSH1 0x40 MLOAD PUSH2 0xED3 SWAP3 SWAP2 SWAP1 PUSH2 0x4150 JUMP JUMPDEST PUSH1 0x40 MLOAD DUP1 SWAP2 SUB SWAP1 LOG2 POP POP JUMP JUMPDEST PUSH2 0xEE7 PUSH2 0x2E0D JUMP JUMPDEST PUSH1 0x0 DUP1 DUP4 PUSH20 0xFFFFFFFFFFFFFFFFFFFFFFFFFFFFFFFFFFFFFFFF AND PUSH20 0xFFFFFFFFFFFFFFFFFFFFFFFFFFFFFFFFFFFFFFFF AND DUP2 MSTORE PUSH1 0x20 ADD SWAP1 DUP2 MSTORE PUSH1 0x20 ADD PUSH1 0x0 KECCAK256 PUSH1 0x40 MLOAD DUP1 PUSH1 0xA0 ADD PUSH1 0x40 MSTORE SWAP1 DUP2 PUSH1 0x0 DUP3 ADD PUSH1 0x0 SWAP1 SLOAD SWAP1 PUSH2 0x100 EXP SWAP1 DIV PUSH20 0xFFFFFFFFFFFFFFFFFFFFFFFFFFFFFFFFFFFFFFFF AND PUSH20 0xFFFFFFFFFFFFFFFFFFFFFFFFFFFFFFFFFFFFFFFF AND PUSH20 0xFFFFFFFFFFFFFFFFFFFFFFFFFFFFFFFFFFFFFFFF AND DUP2 MSTORE PUSH1 0x20 ADD PUSH1 0x1 DUP3 ADD DUP1 SLOAD PUSH2 0xF96 SWAP1 PUSH2 0x3AFF JUMP JUMPDEST DUP1 PUSH1 0x1F ADD PUSH1 0x20 DUP1 SWAP2 DIV MUL PUSH1 0x20 ADD PUSH1 0x40 MLOAD SWAP1 DUP2 ADD PUSH1 0x40 MSTORE DUP1 SWAP3 SWAP2 SWAP1 DUP2 DUP2 MSTORE PUSH1 0x20 ADD DUP3 DUP1 SLOAD PUSH2 0xFC2 SWAP1 PUSH2 0x3AFF JUMP JUMPDEST DUP1 ISZERO PUSH2 0x100F JUMPI DUP1 PUSH1 0x1F LT PUSH2 0xFE4 JUMPI PUSH2 0x100 DUP1 DUP4 SLOAD DIV MUL DUP4 MSTORE SWAP2 PUSH1 0x20 ADD SWAP2 PUSH2 0x100F JUMP JUMPDEST DUP3 ADD SWAP2 SWAP1 PUSH1 0x0 MSTORE PUSH1 0x20 PUSH1 0x0 KECCAK256 SWAP1 JUMPDEST DUP2 SLOAD DUP2 MSTORE SWAP1 PUSH1 0x1 ADD SWAP1 PUSH1 0x20 ADD DUP1 DUP4 GT PUSH2 0xFF2 JUMPI DUP3 SWAP1 SUB PUSH1 0x1F AND DUP3 ADD SWAP2 JUMPDEST POP POP POP POP POP DUP2 MSTORE PUSH1 0x20 ADD PUSH1 0x2 DUP3 ADD PUSH1 0x0 SWAP1 SLOAD SWAP1 PUSH2 0x100 EXP SWAP1 DIV PUSH1 0xFF AND PUSH1 0x1 DUP2 GT ISZERO PUSH2 0x103D JUMPI PUSH2 0x103C PUSH2 0x336E JUMP JUMPDEST JUMPDEST PUSH1 0x1 DUP2 GT ISZERO PUSH2 0x104F JUMPI PUSH2 0x104E PUSH2 0x336E JUMP JUMPDEST JUMPDEST DUP2 MSTORE PUSH1 0x20 ADD PUSH1 0x3 DUP3 ADD SLOAD DUP2 MSTORE PUSH1 0x20 ADD PUSH1 0x4 DUP3 ADD SLOAD DUP2 MSTORE POP POP SWAP1 POP SWAP2 SWAP1 POP JUMP JUMPDEST PUSH1 0x1 DUP2 DUP1 MLOAD PUSH1 0x20 DUP2 ADD DUP3 ADD DUP1 MLOAD DUP5 DUP3 MSTORE PUSH1 0x20 DUP4 ADD PUSH1 0x20 DUP6 ADD KECCAK256 DUP2 DUP4 MSTORE DUP1 SWAP6 POP POP POP POP POP POP PUSH1 0x0 SWAP2 POP SWAP1 POP DUP1 PUSH1 0x0 ADD DUP1 SLOAD PUSH2 0x10A7 SWAP1 PUSH2 0x3AFF JUMP JUMPDEST DUP1 PUSH1 0x1F ADD PUSH1 0x20 DUP1 SWAP2 DIV MUL PUSH1 0x20 ADD PUSH1 0x40 MLOAD SWAP1 DUP2 ADD PUSH1 0x40 MSTORE DUP1 SWAP3 SWAP2 SWAP1 DUP2 DUP2 MSTORE PUSH1 0x20 ADD DUP3 DUP1 SLOAD PUSH2 0x10D3 SWAP1 PUSH2 0x3AFF JUMP JUMPDEST DUP1 ISZERO PUSH2 0x1120 JUMPI DUP1 PUSH1 0x1F LT PUSH2 0x10F5 JUMPI PUSH2 0x100 DUP1 DUP4 SLOAD DIV MUL DUP4 MSTORE SWAP2 PUSH1 0x20 ADD SWAP2 PUSH2 0x1120 JUMP JUMPDEST DUP3 ADD SWAP2 SWAP1 PUSH1 0x0 MSTORE PUSH1 0x20 PUSH1 0x0 KECCAK256 SWAP1 JUMPDEST DUP2 SLOAD DUP2 MSTORE SWAP1 PUSH1 0x1 ADD SWAP1 PUSH1 0x20 ADD DUP1 DUP4 GT PUSH2 0x1103 JUMPI DUP3 SWAP1 SUB PUSH1 0x1F AND DUP3 ADD SWAP2 JUMPDEST POP POP POP POP POP SWAP1 DUP1 PUSH1 0x1 ADD DUP1 SLOAD PUSH2 0x1135 SWAP1 PUSH2 0x3AFF JUMP JUMPDEST DUP1 PUSH1 0x1F ADD PUSH1 0x20 DUP1 SWAP2 DIV MUL PUSH1 0x20 ADD PUSH1 0x40 MLOAD SWAP1 DUP2 ADD PUSH1 0x40 MSTORE DUP1 SWAP3 SWAP2 SWAP1 DUP2 DUP2 MSTORE PUSH1 0x20 ADD DUP3 DUP1 SLOAD PUSH2 0x1161 SWAP1 PUSH2 0x3AFF JUMP JUMPDEST DUP1 ISZERO PUSH2 0x11AE JUMPI DUP1 PUSH1 0x1F LT PUSH2 0x1183 JUMPI PUSH2 0x100 DUP1 DUP4 SLOAD DIV MUL DUP4 MSTORE SWAP2 PUSH1 0x20 ADD SWAP2 PUSH2 0x11AE JUMP JUMPDEST DUP3 ADD SWAP2 SWAP1 PUSH1 0x0 MSTORE PUSH1 0x20 PUSH1 0x0 KECCAK256 SWAP1 JUMPDEST DUP2 SLOAD DUP2 MSTORE SWAP1 PUSH1 0x1 ADD SWAP1 PUSH1 0x20 ADD DUP1 DUP4 GT PUSH2 0x1191 JUMPI DUP3 SWAP1 SUB PUSH1 0x1F AND DUP3 ADD SWAP2 JUMPDEST POP POP POP POP POP SWAP1 DUP1 PUSH1 0x2 ADD PUSH1 0x0 SWAP1 SLOAD SWAP1 PUSH2 0x100 EXP SWAP1 DIV PUSH20 0xFFFFFFFFFFFFFFFFFFFFFFFFFFFFFFFFFFFFFFFF AND SWAP1 DUP1 PUSH1 0x3 ADD SLOAD SWAP1 DUP1 PUSH1 0x4 ADD SLOAD SWAP1 DUP1 PUSH1 0x5 ADD PUSH1 0x0 SWAP1 SLOAD SWAP1 PUSH2 0x100 EXP SWAP1 DIV PUSH1 0xFF AND SWAP1 DUP1 PUSH1 0x6 ADD SLOAD SWAP1 POP DUP8 JUMP JUMPDEST PUSH2 0x120B PUSH2 0x2E64 JUMP JUMPDEST PUSH1 0x2 DUP3 PUSH1 0x40 MLOAD PUSH2 0x121B SWAP2 SWAP1 PUSH2 0x3BFE JUMP JUMPDEST SWAP1 DUP2 MSTORE PUSH1 0x20 ADD PUSH1 0x40 MLOAD DUP1 SWAP2 SUB SWAP1 KECCAK256 PUSH1 0x40 MLOAD DUP1 PUSH1 0xA0 ADD PUSH1 0x40 MSTORE SWAP1 DUP2 PUSH1 0x0 DUP3 ADD DUP1 SLOAD PUSH2 0x1244 SWAP1 PUSH2 0x3AFF JUMP JUMPDEST DUP1 PUSH1 0x1F ADD PUSH1 0x20 DUP1 SWAP2 DIV MUL PUSH1 0x20 ADD PUSH1 0x40 MLOAD SWAP1 DUP2 ADD PUSH1 0x40 MSTORE DUP1 SWAP3 SWAP2 SWAP1 DUP2 DUP2 MSTORE PUSH1 0x20 ADD DUP3 DUP1 SLOAD PUSH2 0x1270 SWAP1 PUSH2 0x3AFF JUMP JUMPDEST DUP1 ISZERO PUSH2 0x12BD JUMPI DUP1 PUSH1 0x1F LT PUSH2 0x1292 JUMPI PUSH2 0x100 DUP1 DUP4 SLOAD DIV MUL DUP4 MSTORE SWAP2 PUSH1 0x20 ADD SWAP2 PUSH2 0x12BD JUMP JUMPDEST DUP3 ADD SWAP2 SWAP1 PUSH1 0x0 MSTORE PUSH1 0x20 PUSH1 0x0 KECCAK256 SWAP1 JUMPDEST DUP2 SLOAD DUP2 MSTORE SWAP1 PUSH1 0x1 ADD SWAP1 PUSH1 0x20 ADD DUP1 DUP4 GT PUSH2 0x12A0 JUMPI DUP3 SWAP1 SUB PUSH1 0x1F AND DUP3 ADD SWAP2 JUMPDEST POP POP POP POP POP DUP2 MSTORE PUSH1 0x20 ADD PUSH1 0x1 DUP3 ADD PUSH1 0x0 SWAP1 SLOAD SWAP1 PUSH2 0x100 EXP SWAP1 DIV PUSH20 0xFFFFFFFFFFFFFFFFFFFFFFFFFFFFFFFFFFFFFFFF AND PUSH20 0xFFFFFFFFFFFFFFFFFFFFFFFFFFFFFFFFFFFFFFFF AND PUSH20 0xFFFFFFFFFFFFFFFFFFFFFFFFFFFFFFFFFFFFFFFF AND DUP2 MSTORE PUSH1 0x20 ADD PUSH1 0x2 DUP3 ADD DUP1 SLOAD PUSH2 0x132C SWAP1 PUSH2 0x3AFF JUMP JUMPDEST DUP1 PUSH1 0x1F ADD PUSH1 0x20 DUP1 SWAP2 DIV MUL PUSH1 0x20 ADD PUSH1 0x40 MLOAD SWAP1 DUP2 ADD PUSH1 0x40 MSTORE DUP1 SWAP3 SWAP2 SWAP1 DUP2 DUP2 MSTORE PUSH1 0x20 ADD DUP3 DUP1 SLOAD PUSH2 0x1358 SWAP1 PUSH2 0x3AFF JUMP JUMPDEST DUP1 ISZERO PUSH2 0x13A5 JUMPI DUP1 PUSH1 0x1F LT PUSH2 0x137A JUMPI PUSH2 0x100 DUP1 DUP4 SLOAD DIV MUL DUP4 MSTORE SWAP2 PUSH1 0x20 ADD SWAP2 PUSH2 0x13A5 JUMP JUMPDEST DUP3 ADD SWAP2 SWAP1 PUSH1 0x0 MSTORE PUSH1 0x20 PUSH1 0x0 KECCAK256 SWAP1 JUMPDEST DUP2 SLOAD DUP2 MSTORE SWAP1 PUSH1 0x1 ADD SWAP1 PUSH1 0x20 ADD DUP1 DUP4 GT PUSH2 0x1388 JUMPI DUP3 SWAP1 SUB PUSH1 0x1F AND DUP3 ADD SWAP2 JUMPDEST POP POP POP POP POP DUP2 MSTORE PUSH1 0x20 ADD PUSH1 0x3 DUP3 ADD SLOAD DUP2 MSTORE PUSH1 0x20 ADD PUSH1 0x4 DUP3 ADD SLOAD DUP2 MSTORE POP POP SWAP1 POP SWAP2 SWAP1 POP JUMP JUMPDEST PUSH1 0x0 PUSH1 0x5 DUP1 SLOAD SWAP1 POP SWAP1 POP SWAP1 JUMP JUMPDEST PUSH1 0x7 DUP2 DUP2 SLOAD DUP2 LT PUSH2 0x13E6 JUMPI PUSH1 0x0 DUP1 REVERT JUMPDEST SWAP1 PUSH1 0x0 MSTORE PUSH1 0x20 PUSH1 0x0 KECCAK256 ADD PUSH1 0x0 SWAP2 POP SWAP1 POP DUP1 SLOAD PUSH2 0x1401 SWAP1 PUSH2 0x3AFF JUMP JUMPDEST DUP1 PUSH1 0x1F ADD PUSH1 0x20 DUP1 SWAP2 DIV MUL PUSH1 0x20 ADD PUSH1 0x40 MLOAD SWAP1 DUP2 ADD PUSH1 0x40 MSTORE DUP1 SWAP3 SWAP2 SWAP1 DUP2 DUP2 MSTORE PUSH1 0x20 ADD DUP3 DUP1 SLOAD PUSH2 0x142D SWAP1 PUSH2 0x3AFF JUMP JUMPDEST DUP1 ISZERO PUSH2 0x147A JUMPI DUP1 PUSH1 0x1F LT PUSH2 0x144F JUMPI PUSH2 0x100 DUP1 DUP4 SLOAD DIV MUL DUP4 MSTORE SWAP2 PUSH1 0x20 ADD SWAP2 PUSH2 0x147A JUMP JUMPDEST DUP3 ADD SWAP2 SWAP1 PUSH1 0x0 MSTORE PUSH1 0x20 PUSH1 0x0 KECCAK256 SWAP1 JUMPDEST DUP2 SLOAD DUP2 MSTORE SWAP1 PUSH1 0x1 ADD SWAP1 PUSH1 0x20 ADD DUP1 DUP4 GT PUSH2 0x145D JUMPI DUP3 SWAP1 SUB PUSH1 0x1F AND DUP3 ADD SWAP2 JUMPDEST POP POP POP POP POP DUP2 JUMP JUMPDEST PUSH1 0x0 PUSH1 0x20 MSTORE DUP1 PUSH1 0x0 MSTORE PUSH1 0x40 PUSH1 0x0 KECCAK256 PUSH1 0x0 SWAP2 POP SWAP1 POP DUP1 PUSH1 0x0 ADD PUSH1 0x0 SWAP1 SLOAD SWAP1 PUSH2 0x100 EXP SWAP1 DIV PUSH20 0xFFFFFFFFFFFFFFFFFFFFFFFFFFFFFFFFFFFFFFFF AND SWAP1 DUP1 PUSH1 0x1 ADD DUP1 SLOAD PUSH2 0x14CB SWAP1 PUSH2 0x3AFF JUMP JUMPDEST DUP1 PUSH1 0x1F ADD PUSH1 0x20 DUP1 SWAP2 DIV MUL PUSH1 0x20 ADD PUSH1 0x40 MLOAD SWAP1 DUP2 ADD PUSH1 0x40 MSTORE DUP1 SWAP3 SWAP2 SWAP1 DUP2 DUP2 MSTORE PUSH1 0x20 ADD DUP3 DUP1 SLOAD PUSH2 0x14F7 SWAP1 PUSH2 0x3AFF JUMP JUMPDEST DUP1 ISZERO PUSH2 0x1544 JUMPI DUP1 PUSH1 0x1F LT PUSH2 0x1519 JUMPI PUSH2 0x100 DUP1 DUP4 SLOAD DIV MUL DUP4 MSTORE SWAP2 PUSH1 0x20 ADD SWAP2 PUSH2 0x1544 JUMP JUMPDEST DUP3 ADD SWAP2 SWAP1 PUSH1 0x0 MSTORE PUSH1 0x20 PUSH1 0x0 KECCAK256 SWAP1 JUMPDEST DUP2 SLOAD DUP2 MSTORE SWAP1 PUSH1 0x1 ADD SWAP1 PUSH1 0x20 ADD DUP1 DUP4 GT PUSH2 0x1527 JUMPI DUP3 SWAP1 SUB PUSH1 0x1F AND DUP3 ADD SWAP2 JUMPDEST POP POP POP POP POP SWAP1 DUP1 PUSH1 0x2 ADD PUSH1 0x0 SWAP1 SLOAD SWAP1 PUSH2 0x100 EXP SWAP1 DIV PUSH1 0xFF AND SWAP1 DUP1 PUSH1 0x3 ADD SLOAD SWAP1 DUP1 PUSH1 0x4 ADD SLOAD SWAP1 POP DUP6 JUMP JUMPDEST PUSH1 0x3 DUP2 DUP1 MLOAD PUSH1 0x20 DUP2 ADD DUP3 ADD DUP1 MLOAD DUP5 DUP3 MSTORE PUSH1 0x20 DUP4 ADD PUSH1 0x20 DUP6 ADD KECCAK256 DUP2 DUP4 MSTORE DUP1 SWAP6 POP POP POP POP POP POP PUSH1 0x0 SWAP2 POP SWAP1 POP DUP1 PUSH1 0x0 ADD DUP1 SLOAD PUSH2 0x15A6 SWAP1 PUSH2 0x3AFF JUMP JUMPDEST DUP1 PUSH1 0x1F ADD PUSH1 0x20 DUP1 SWAP2 DIV MUL PUSH1 0x20 ADD PUSH1 0x40 MLOAD SWAP1 DUP2 ADD PUSH1 0x40 MSTORE DUP1 SWAP3 SWAP2 SWAP1 DUP2 DUP2 MSTORE PUSH1 0x20 ADD DUP3 DUP1 SLOAD PUSH2 0x15D2 SWAP1 PUSH2 0x3AFF JUMP JUMPDEST DUP1 ISZERO PUSH2 0x161F JUMPI DUP1 PUSH1 0x1F LT PUSH2 0x15F4 JUMPI PUSH2 0x100 DUP1 DUP4 SLOAD DIV MUL DUP4 MSTORE SWAP2 PUSH1 0x20 ADD SWAP2 PUSH2 0x161F JUMP JUMPDEST DUP3 ADD SWAP2 SWAP1 PUSH1 0x0 MSTORE PUSH1 0x20 PUSH1 0x0 KECCAK256 SWAP1 JUMPDEST DUP2 SLOAD DUP2 MSTORE SWAP1 PUSH1 0x1 ADD SWAP1 PUSH1 0x20 ADD DUP1 DUP4 GT PUSH2 0x1602 JUMPI DUP3 SWAP1 SUB PUSH1 0x1F AND DUP3 ADD SWAP2 JUMPDEST POP POP POP POP POP SWAP1 DUP1 PUSH1 0x1 ADD PUSH1 0x0 SWAP1 SLOAD SWAP1 PUSH2 0x100 EXP SWAP1 DIV PUSH20 0xFFFFFFFFFFFFFFFFFFFFFFFFFFFFFFFFFFFFFFFF AND SWAP1 DUP1 PUSH1 0x2 ADD PUSH1 0x0 SWAP1 SLOAD SWAP1 PUSH2 0x100 EXP SWAP1 DIV PUSH20 0xFFFFFFFFFFFFFFFFFFFFFFFFFFFFFFFFFFFFFFFF AND SWAP1 DUP1 PUSH1 0x3 ADD DUP1 SLOAD PUSH2 0x1680 SWAP1 PUSH2 0x3AFF JUMP JUMPDEST DUP1 PUSH1 0x1F ADD PUSH1 0x20 DUP1 SWAP2 DIV MUL PUSH1 0x20 ADD PUSH1 0x40 MLOAD SWAP1 DUP2 ADD PUSH1 0x40 MSTORE DUP1 SWAP3 SWAP2 SWAP1 DUP2 DUP2 MSTORE PUSH1 0x20 ADD DUP3 DUP1 SLOAD PUSH2 0x16AC SWAP1 PUSH2 0x3AFF JUMP JUMPDEST DUP1 ISZERO PUSH2 0x16F9 JUMPI DUP1 PUSH1 0x1F LT PUSH2 0x16CE JUMPI PUSH2 0x100 DUP1 DUP4 SLOAD DIV MUL DUP4 MSTORE SWAP2 PUSH1 0x20 ADD SWAP2 PUSH2 0x16F9 JUMP JUMPDEST DUP3 ADD SWAP2 SWAP1 PUSH1 0x0 MSTORE PUSH1 0x20 PUSH1 0x0 KECCAK256 SWAP1 JUMPDEST DUP2 SLOAD DUP2 MSTORE SWAP1 PUSH1 0x1 ADD SWAP1 PUSH1 0x20 ADD DUP1 DUP4 GT PUSH2 0x16DC JUMPI DUP3 SWAP1 SUB PUSH1 0x1F AND DUP3 ADD SWAP2 JUMPDEST POP POP POP POP POP SWAP1 DUP1 PUSH1 0x4 ADD SLOAD SWAP1 DUP1 PUSH1 0x5 ADD SLOAD SWAP1 DUP1 PUSH1 0x6 ADD PUSH1 0x0 SWAP1 SLOAD SWAP1 PUSH2 0x100 EXP SWAP1 DIV PUSH1 0xFF AND SWAP1 POP DUP8 JUMP JUMPDEST PUSH2 0x172A PUSH2 0x2EA9 JUMP JUMPDEST PUSH1 0x1 DUP3 PUSH1 0x40 MLOAD PUSH2 0x173A SWAP2 SWAP1 PUSH2 0x3BFE JUMP JUMPDEST SWAP1 DUP2 MSTORE PUSH1 0x20 ADD PUSH1 0x40 MLOAD DUP1 SWAP2 SUB SWAP1 KECCAK256 PUSH1 0x40 MLOAD DUP1 PUSH1 0xE0 ADD PUSH1 0x40 MSTORE SWAP1 DUP2 PUSH1 0x0 DUP3 ADD DUP1 SLOAD PUSH2 0x1763 SWAP1 PUSH2 0x3AFF JUMP JUMPDEST DUP1 PUSH1 0x1F ADD PUSH1 0x20 DUP1 SWAP2 DIV MUL PUSH1 0x20 ADD PUSH1 0x40 MLOAD SWAP1 DUP2 ADD PUSH1 0x40 MSTORE DUP1 SWAP3 SWAP2 SWAP1 DUP2 DUP2 MSTORE PUSH1 0x20 ADD DUP3 DUP1 SLOAD PUSH2 0x178F SWAP1 PUSH2 0x3AFF JUMP JUMPDEST DUP1 ISZERO PUSH2 0x17DC JUMPI DUP1 PUSH1 0x1F LT PUSH2 0x17B1 JUMPI PUSH2 0x100 DUP1 DUP4 SLOAD DIV MUL DUP4 MSTORE SWAP2 PUSH1 0x20 ADD SWAP2 PUSH2 0x17DC JUMP JUMPDEST DUP3 ADD SWAP2 SWAP1 PUSH1 0x0 MSTORE PUSH1 0x20 PUSH1 0x0 KECCAK256 SWAP1 JUMPDEST DUP2 SLOAD DUP2 MSTORE SWAP1 PUSH1 0x1 ADD SWAP1 PUSH1 0x20 ADD DUP1 DUP4 GT PUSH2 0x17BF JUMPI DUP3 SWAP1 SUB PUSH1 0x1F AND DUP3 ADD SWAP2 JUMPDEST POP POP POP POP POP DUP2 MSTORE PUSH1 0x20 ADD PUSH1 0x1 DUP3 ADD DUP1 SLOAD PUSH2 0x17F5 SWAP1 PUSH2 0x3AFF JUMP JUMPDEST DUP1 PUSH1 0x1F ADD PUSH1 0x20 DUP1 SWAP2 DIV MUL PUSH1 0x20 ADD PUSH1 0x40 MLOAD SWAP1 DUP2 ADD PUSH1 0x40 MSTORE DUP1 SWAP3 SWAP2 SWAP1 DUP2 DUP2 MSTORE PUSH1 0x20 ADD DUP3 DUP1 SLOAD PUSH2 0x1821 SWAP1 PUSH2 0x3AFF JUMP JUMPDEST DUP1 ISZERO PUSH2 0x186E JUMPI DUP1 PUSH1 0x1F LT PUSH2 0x1843 JUMPI PUSH2 0x100 DUP1 DUP4 SLOAD DIV MUL DUP4 MSTORE SWAP2 PUSH1 0x20 ADD SWAP2 PUSH2 0x186E JUMP JUMPDEST DUP3 ADD SWAP2 SWAP1 PUSH1 0x0 MSTORE PUSH1 0x20 PUSH1 0x0 KECCAK256 SWAP1 JUMPDEST DUP2 SLOAD DUP2 MSTORE SWAP1 PUSH1 0x1 ADD SWAP1 PUSH1 0x20 ADD DUP1 DUP4 GT PUSH2 0x1851 JUMPI DUP3 SWAP1 SUB PUSH1 0x1F AND DUP3 ADD SWAP2 JUMPDEST POP POP POP POP POP DUP2 MSTORE PUSH1 0x20 ADD PUSH1 0x2 DUP3 ADD PUSH1 0x0 SWAP1 SLOAD SWAP1 PUSH2 0x100 EXP SWAP1 DIV PUSH20 0xFFFFFFFFFFFFFFFFFFFFFFFFFFFFFFFFFFFFFFFF AND PUSH20 0xFFFFFFFFFFFFFFFFFFFFFFFFFFFFFFFFFFFFFFFF AND PUSH20 0xFFFFFFFFFFFFFFFFFFFFFFFFFFFFFFFFFFFFFFFF AND DUP2 MSTORE PUSH1 0x20 ADD PUSH1 0x3 DUP3 ADD SLOAD DUP2 MSTORE PUSH1 0x20 ADD PUSH1 0x4 DUP3 ADD SLOAD DUP2 MSTORE PUSH1 0x20 ADD PUSH1 0x5 DUP3 ADD PUSH1 0x0 SWAP1 SLOAD SWAP1 PUSH2 0x100 EXP SWAP1 DIV PUSH1 0xFF AND PUSH1 0x1 DUP2 GT ISZERO PUSH2 0x1906 JUMPI PUSH2 0x1905 PUSH2 0x336E JUMP JUMPDEST JUMPDEST PUSH1 0x1 DUP2 GT ISZERO PUSH2 0x1918 JUMPI PUSH2 0x1917 PUSH2 0x336E JUMP JUMPDEST JUMPDEST DUP2 MSTORE PUSH1 0x20 ADD PUSH1 0x6 DUP3 ADD SLOAD DUP2 MSTORE POP POP SWAP1 POP SWAP2 SWAP1 POP JUMP JUMPDEST PUSH1 0x9 PUSH1 0x0 SWAP1 SLOAD SWAP1 PUSH2 0x100 EXP SWAP1 DIV PUSH20 0xFFFFFFFFFFFFFFFFFFFFFFFFFFFFFFFFFFFFFFFF AND PUSH20 0xFFFFFFFFFFFFFFFFFFFFFFFFFFFFFFFFFFFFFFFF AND CALLER PUSH20 0xFFFFFFFFFFFFFFFFFFFFFFFFFFFFFFFFFFFFFFFF AND EQ PUSH2 0x19BD JUMPI PUSH1 0x40 MLOAD PUSH32 0x8C379A000000000000000000000000000000000000000000000000000000000 DUP2 MSTORE PUSH1 0x4 ADD PUSH2 0x19B4 SWAP1 PUSH2 0x3BA2 JUMP JUMPDEST PUSH1 0x40 MLOAD DUP1 SWAP2 SUB SWAP1 REVERT JUMPDEST PUSH1 0x9 PUSH1 0x0 SWAP1 SLOAD SWAP1 PUSH2 0x100 EXP SWAP1 DIV PUSH20 0xFFFFFFFFFFFFFFFFFFFFFFFFFFFFFFFFFFFFFFFF AND PUSH20 0xFFFFFFFFFFFFFFFFFFFFFFFFFFFFFFFFFFFFFFFF AND PUSH2 0x8FC SELFBALANCE SWAP1 DUP2 ISZERO MUL SWAP1 PUSH1 0x40 MLOAD PUSH1 0x0 PUSH1 0x40 MLOAD DUP1 DUP4 SUB DUP2 DUP6 DUP9 DUP9 CALL SWAP4 POP POP POP POP ISZERO DUP1 ISZERO PUSH2 0x1A25 JUMPI RETURNDATASIZE PUSH1 0x0 DUP1 RETURNDATACOPY RETURNDATASIZE PUSH1 0x0 REVERT JUMPDEST POP JUMP JUMPDEST PUSH1 0x0 PUSH1 0x6 DUP1 SLOAD SWAP1 POP SWAP1 POP SWAP1 JUMP JUMPDEST PUSH1 0x9 PUSH1 0x0 SWAP1 SLOAD SWAP1 PUSH2 0x100 EXP SWAP1 DIV PUSH20 0xFFFFFFFFFFFFFFFFFFFFFFFFFFFFFFFFFFFFFFFF AND DUP2 JUMP JUMPDEST PUSH1 0x2 DUP2 DUP1 MLOAD PUSH1 0x20 DUP2 ADD DUP3 ADD DUP1 MLOAD DUP5 DUP3 MSTORE PUSH1 0x20 DUP4 ADD PUSH1 0x20 DUP6 ADD KECCAK256 DUP2 DUP4 MSTORE DUP1 SWAP6 POP POP POP POP POP POP PUSH1 0x0 SWAP2 POP SWAP1 POP DUP1 PUSH1 0x0 ADD DUP1 SLOAD PUSH2 0x1A94 SWAP1 PUSH2 0x3AFF JUMP JUMPDEST DUP1 PUSH1 0x1F ADD PUSH1 0x20 DUP1 SWAP2 DIV MUL PUSH1 0x20 ADD PUSH1 0x40 MLOAD SWAP1 DUP2 ADD PUSH1 0x40 MSTORE DUP1 SWAP3 SWAP2 SWAP1 DUP2 DUP2 MSTORE PUSH1 0x20 ADD DUP3 DUP1 SLOAD PUSH2 0x1AC0 SWAP1 PUSH2 0x3AFF JUMP JUMPDEST DUP1 ISZERO PUSH2 0x1B0D JUMPI DUP1 PUSH1 0x1F LT PUSH2 0x1AE2 JUMPI PUSH2 0x100 DUP1 DUP4 SLOAD DIV MUL DUP4 MSTORE SWAP2 PUSH1 0x20 ADD SWAP2 PUSH2 0x1B0D JUMP JUMPDEST DUP3 ADD SWAP2 SWAP1 PUSH1 0x0 MSTORE PUSH1 0x20 PUSH1 0x0 KECCAK256 SWAP1 JUMPDEST DUP2 SLOAD DUP2 MSTORE SWAP1 PUSH1 0x1 ADD SWAP1 PUSH1 0x20 ADD DUP1 DUP4 GT PUSH2 0x1AF0 JUMPI DUP3 SWAP1 SUB PUSH1 0x1F AND DUP3 ADD SWAP2 JUMPDEST POP POP POP POP POP SWAP1 DUP1 PUSH1 0x1 ADD PUSH1 0x0 SWAP1 SLOAD SWAP1 PUSH2 0x100 EXP SWAP1 DIV PUSH20 0xFFFFFFFFFFFFFFFFFFFFFFFFFFFFFFFFFFFFFFFF AND SWAP1 DUP1 PUSH1 0x2 ADD DUP1 SLOAD PUSH2 0x1B48 SWAP1 PUSH2 0x3AFF JUMP JUMPDEST DUP1 PUSH1 0x1F ADD PUSH1 0x20 DUP1 SWAP2 DIV MUL PUSH1 0x20 ADD PUSH1 0x40 MLOAD SWAP1 DUP2 ADD PUSH1 0x40 MSTORE DUP1 SWAP3 SWAP2 SWAP1 DUP2 DUP2 MSTORE PUSH1 0x20 ADD DUP3 DUP1 SLOAD PUSH2 0x1B74 SWAP1 PUSH2 0x3AFF JUMP JUMPDEST DUP1 ISZERO PUSH2 0x1BC1 JUMPI DUP1 PUSH1 0x1F LT PUSH2 0x1B96 JUMPI PUSH2 0x100 DUP1 DUP4 SLOAD DIV MUL DUP4 MSTORE SWAP2 PUSH1 0x20 ADD SWAP2 PUSH2 0x1BC1 JUMP JUMPDEST DUP3 ADD SWAP2 SWAP1 PUSH1 0x0 MSTORE PUSH1 0x20 PUSH1 0x0 KECCAK256 SWAP1 JUMPDEST DUP2 SLOAD DUP2 MSTORE SWAP1 PUSH1 0x1 ADD SWAP1 PUSH1 0x20 ADD DUP1 DUP4 GT PUSH2 0x1BA4 JUMPI DUP3 SWAP1 SUB PUSH1 0x1F AND DUP3 ADD SWAP2 JUMPDEST POP POP POP POP POP SWAP1 DUP1 PUSH1 0x3 ADD SLOAD SWAP1 DUP1 PUSH1 0x4 ADD SLOAD SWAP1 POP DUP6 JUMP JUMPDEST PUSH1 0x5 DUP2 DUP2 SLOAD DUP2 LT PUSH2 0x1BE7 JUMPI PUSH1 0x0 DUP1 REVERT JUMPDEST SWAP1 PUSH1 0x0 MSTORE PUSH1 0x20 PUSH1 0x0 KECCAK256 ADD PUSH1 0x0 SWAP2 POP SWAP1 POP DUP1 SLOAD PUSH2 0x1C02 SWAP1 PUSH2 0x3AFF JUMP JUMPDEST DUP1 PUSH1 0x1F ADD PUSH1 0x20 DUP1 SWAP2 DIV MUL PUSH1 0x20 ADD PUSH1 0x40 MLOAD SWAP1 DUP2 ADD PUSH1 0x40 MSTORE DUP1 SWAP3 SWAP2 SWAP1 DUP2 DUP2 MSTORE PUSH1 0x20 ADD DUP3 DUP1 SLOAD PUSH2 0x1C2E SWAP1 PUSH2 0x3AFF JUMP JUMPDEST DUP1 ISZERO PUSH2 0x1C7B JUMPI DUP1 PUSH1 0x1F LT PUSH2 0x1C50 JUMPI PUSH2 0x100 DUP1 DUP4 SLOAD DIV MUL DUP4 MSTORE SWAP2 PUSH1 0x20 ADD SWAP2 PUSH2 0x1C7B JUMP JUMPDEST DUP3 ADD SWAP2 SWAP1 PUSH1 0x0 MSTORE PUSH1 0x20 PUSH1 0x0 KECCAK256 SWAP1 JUMPDEST DUP2 SLOAD DUP2 MSTORE SWAP1 PUSH1 0x1 ADD SWAP1 PUSH1 0x20 ADD DUP1 DUP4 GT PUSH2 0x1C5E JUMPI DUP3 SWAP1 SUB PUSH1 0x1F AND DUP3 ADD SWAP2 JUMPDEST POP POP POP POP POP DUP2 JUMP JUMPDEST CALLER PUSH20 0xFFFFFFFFFFFFFFFFFFFFFFFFFFFFFFFFFFFFFFFF AND PUSH1 0x1 DUP5 DUP5 PUSH1 0x40 MLOAD PUSH2 0x1CAC SWAP3 SWAP2 SWAP1 PUSH2 0x41A5 JUMP JUMPDEST SWAP1 DUP2 MSTORE PUSH1 0x20 ADD PUSH1 0x40 MLOAD DUP1 SWAP2 SUB SWAP1 KECCAK256 PUSH1 0x2 ADD PUSH1 0x0 SWAP1 SLOAD SWAP1 PUSH2 0x100 EXP SWAP1 DIV PUSH20 0xFFFFFFFFFFFFFFFFFFFFFFFFFFFFFFFFFFFFFFFF AND PUSH20 0xFFFFFFFFFFFFFFFFFFFFFFFFFFFFFFFFFFFFFFFF AND EQ PUSH2 0x1D34 JUMPI PUSH1 0x40 MLOAD PUSH32 0x8C379A000000000000000000000000000000000000000000000000000000000 DUP2 MSTORE PUSH1 0x4 ADD PUSH2 0x1D2B SWAP1 PUSH2 0x420A JUMP JUMPDEST PUSH1 0x40 MLOAD DUP1 SWAP2 SUB SWAP1 REVERT JUMPDEST PUSH1 0x0 PUSH1 0x3 DUP7 DUP7 PUSH1 0x40 MLOAD PUSH2 0x1D48 SWAP3 SWAP2 SWAP1 PUSH2 0x41A5 JUMP JUMPDEST SWAP1 DUP2 MSTORE PUSH1 0x20 ADD PUSH1 0x40 MLOAD DUP1 SWAP2 SUB SWAP1 KECCAK256 PUSH1 0x5 ADD SLOAD EQ PUSH2 0x1D9A JUMPI PUSH1 0x40 MLOAD PUSH32 0x8C379A000000000000000000000000000000000000000000000000000000000 DUP2 MSTORE PUSH1 0x4 ADD PUSH2 0x1D91 SWAP1 PUSH2 0x4276 JUMP JUMPDEST PUSH1 0x40 MLOAD DUP1 SWAP2 SUB SWAP1 REVERT JUMPDEST PUSH1 0x0 CALLVALUE SWAP1 POP PUSH1 0x0 DUP2 GT PUSH2 0x1DE2 JUMPI PUSH1 0x40 MLOAD PUSH32 0x8C379A000000000000000000000000000000000000000000000000000000000 DUP2 MSTORE PUSH1 0x4 ADD PUSH2 0x1DD9 SWAP1 PUSH2 0x42E2 JUMP JUMPDEST PUSH1 0x40 MLOAD DUP1 SWAP2 SUB SWAP1 REVERT JUMPDEST PUSH1 0x40 MLOAD DUP1 PUSH1 0xE0 ADD PUSH1 0x40 MSTORE DUP1 DUP8 DUP8 DUP1 DUP1 PUSH1 0x1F ADD PUSH1 0x20 DUP1 SWAP2 DIV MUL PUSH1 0x20 ADD PUSH1 0x40 MLOAD SWAP1 DUP2 ADD PUSH1 0x40 MSTORE DUP1 SWAP4 SWAP3 SWAP2 SWAP1 DUP2 DUP2 MSTORE PUSH1 0x20 ADD DUP4 DUP4 DUP1 DUP3 DUP5 CALLDATACOPY PUSH1 0x0 DUP2 DUP5 ADD MSTORE PUSH1 0x1F NOT PUSH1 0x1F DUP3 ADD AND SWAP1 POP DUP1 DUP4 ADD SWAP3 POP POP POP POP POP POP POP DUP2 MSTORE PUSH1 0x20 ADD CALLER PUSH20 0xFFFFFFFFFFFFFFFFFFFFFFFFFFFFFFFFFFFFFFFF AND DUP2 MSTORE PUSH1 0x20 ADD DUP4 PUSH20 0xFFFFFFFFFFFFFFFFFFFFFFFFFFFFFFFFFFFFFFFF AND DUP2 MSTORE PUSH1 0x20 ADD DUP6 DUP6 DUP1 DUP1 PUSH1 0x1F ADD PUSH1 0x20 DUP1 SWAP2 DIV MUL PUSH1 0x20 ADD PUSH1 0x40 MLOAD SWAP1 DUP2 ADD PUSH1 0x40 MSTORE DUP1 SWAP4 SWAP3 SWAP2 SWAP1 DUP2 DUP2 MSTORE PUSH1 0x20 ADD DUP4 DUP4 DUP1 DUP3 DUP5 CALLDATACOPY PUSH1 0x0 DUP2 DUP5 ADD MSTORE PUSH1 0x1F NOT PUSH1 0x1F DUP3 ADD AND SWAP1 POP DUP1 DUP4 ADD SWAP3 POP POP POP POP POP POP POP DUP2 MSTORE PUSH1 0x20 ADD DUP3 DUP2 MSTORE PUSH1 0x20 ADD TIMESTAMP DUP2 MSTORE PUSH1 0x20 ADD PUSH1 0x0 ISZERO ISZERO DUP2 MSTORE POP PUSH1 0x3 DUP8 DUP8 PUSH1 0x40 MLOAD PUSH2 0x1EDE SWAP3 SWAP2 SWAP1 PUSH2 0x41A5 JUMP JUMPDEST SWAP1 DUP2 MSTORE PUSH1 0x20 ADD PUSH1 0x40 MLOAD DUP1 SWAP2 SUB SWAP1 KECCAK256 PUSH1 0x0 DUP3 ADD MLOAD DUP2 PUSH1 0x0 ADD SWAP1 DUP2 PUSH2 0x1F01 SWAP2 SWAP1 PUSH2 0x3F05 JUMP JUMPDEST POP PUSH1 0x20 DUP3 ADD MLOAD DUP2 PUSH1 0x1 ADD PUSH1 0x0 PUSH2 0x100 EXP DUP2 SLOAD DUP2 PUSH20 0xFFFFFFFFFFFFFFFFFFFFFFFFFFFFFFFFFFFFFFFF MUL NOT AND SWAP1 DUP4 PUSH20 0xFFFFFFFFFFFFFFFFFFFFFFFFFFFFFFFFFFFFFFFF AND MUL OR SWAP1 SSTORE POP PUSH1 0x40 DUP3 ADD MLOAD DUP2 PUSH1 0x2 ADD PUSH1 0x0 PUSH2 0x100 EXP DUP2 SLOAD DUP2 PUSH20 0xFFFFFFFFFFFFFFFFFFFFFFFFFFFFFFFFFFFFFFFF MUL NOT AND SWAP1 DUP4 PUSH20 0xFFFFFFFFFFFFFFFFFFFFFFFFFFFFFFFFFFFFFFFF AND MUL OR SWAP1 SSTORE POP PUSH1 0x60 DUP3 ADD MLOAD DUP2 PUSH1 0x3 ADD SWAP1 DUP2 PUSH2 0x1FA5 SWAP2 SWAP1 PUSH2 0x3F05 JUMP JUMPDEST POP PUSH1 0x80 DUP3 ADD MLOAD DUP2 PUSH1 0x4 ADD SSTORE PUSH1 0xA0 DUP3 ADD MLOAD DUP2 PUSH1 0x5 ADD SSTORE PUSH1 0xC0 DUP3 ADD MLOAD DUP2 PUSH1 0x6 ADD PUSH1 0x0 PUSH2 0x100 EXP DUP2 SLOAD DUP2 PUSH1 0xFF MUL NOT AND SWAP1 DUP4 ISZERO ISZERO MUL OR SWAP1 SSTORE POP SWAP1 POP POP DUP1 PUSH1 0x1 DUP6 DUP6 PUSH1 0x40 MLOAD PUSH2 0x1FF0 SWAP3 SWAP2 SWAP1 PUSH2 0x41A5 JUMP JUMPDEST SWAP1 DUP2 MSTORE PUSH1 0x20 ADD PUSH1 0x40 MLOAD DUP1 SWAP2 SUB SWAP1 KECCAK256 PUSH1 0x3 ADD PUSH1 0x0 DUP3 DUP3 SLOAD PUSH2 0x2010 SWAP2 SWAP1 PUSH2 0x4302 JUMP JUMPDEST SWAP3 POP POP DUP2 SWAP1 SSTORE POP PUSH1 0x7 DUP7 DUP7 SWAP1 SWAP2 DUP1 PUSH1 0x1 DUP2 SLOAD ADD DUP1 DUP3 SSTORE DUP1 SWAP2 POP POP PUSH1 0x1 SWAP1 SUB SWAP1 PUSH1 0x0 MSTORE PUSH1 0x20 PUSH1 0x0 KECCAK256 ADD PUSH1 0x0 SWAP1 SWAP2 SWAP3 SWAP1 SWAP2 SWAP3 SWAP1 SWAP2 SWAP3 SWAP1 SWAP2 SWAP3 POP SWAP2 DUP3 PUSH2 0x2054 SWAP3 SWAP2 SWAP1 PUSH2 0x4341 JUMP JUMPDEST POP CALLER PUSH20 0xFFFFFFFFFFFFFFFFFFFFFFFFFFFFFFFFFFFFFFFF AND PUSH32 0x3C601A6EAF37C9C0E93CE40C5B0032EB73C13BAED64713686FA877F7DD128186 DUP8 DUP8 DUP5 PUSH1 0x40 MLOAD PUSH2 0x209F SWAP4 SWAP3 SWAP2 SWAP1 PUSH2 0x443E JUMP JUMPDEST PUSH1 0x40 MLOAD DUP1 SWAP2 SUB SWAP1 LOG2 POP POP POP POP POP POP JUMP JUMPDEST PUSH1 0x0 PUSH1 0x3 DUP4 DUP4 PUSH1 0x40 MLOAD PUSH2 0x20C3 SWAP3 SWAP2 SWAP1 PUSH2 0x41A5 JUMP JUMPDEST SWAP1 DUP2 MSTORE PUSH1 0x20 ADD PUSH1 0x40 MLOAD DUP1 SWAP2 SUB SWAP1 KECCAK256 SWAP1 POP PUSH1 0x0 DUP2 PUSH1 0x5 ADD SLOAD SUB PUSH2 0x211A JUMPI PUSH1 0x40 MLOAD PUSH32 0x8C379A000000000000000000000000000000000000000000000000000000000 DUP2 MSTORE PUSH1 0x4 ADD PUSH2 0x2111 SWAP1 PUSH2 0x44BC JUMP JUMPDEST PUSH1 0x40 MLOAD DUP1 SWAP2 SUB SWAP1 REVERT JUMPDEST DUP1 PUSH1 0x6 ADD PUSH1 0x0 SWAP1 SLOAD SWAP1 PUSH2 0x100 EXP SWAP1 DIV PUSH1 0xFF AND ISZERO PUSH2 0x216C JUMPI PUSH1 0x40 MLOAD PUSH32 0x8C379A000000000000000000000000000000000000000000000000000000000 DUP2 MSTORE PUSH1 0x4 ADD PUSH2 0x2163 SWAP1 PUSH2 0x4528 JUMP JUMPDEST PUSH1 0x40 MLOAD DUP1 SWAP2 SUB SWAP1 REVERT JUMPDEST CALLER PUSH20 0xFFFFFFFFFFFFFFFFFFFFFFFFFFFFFFFFFFFFFFFF AND DUP2 PUSH1 0x2 ADD PUSH1 0x0 SWAP1 SLOAD SWAP1 PUSH2 0x100 EXP SWAP1 DIV PUSH20 0xFFFFFFFFFFFFFFFFFFFFFFFFFFFFFFFFFFFFFFFF AND PUSH20 0xFFFFFFFFFFFFFFFFFFFFFFFFFFFFFFFFFFFFFFFF AND EQ PUSH2 0x21FE JUMPI PUSH1 0x40 MLOAD PUSH32 0x8C379A000000000000000000000000000000000000000000000000000000000 DUP2 MSTORE PUSH1 0x4 ADD PUSH2 0x21F5 SWAP1 PUSH2 0x4594 JUMP JUMPDEST PUSH1 0x40 MLOAD DUP1 SWAP2 SUB SWAP1 REVERT JUMPDEST PUSH1 0x1 DUP2 PUSH1 0x6 ADD PUSH1 0x0 PUSH2 0x100 EXP DUP2 SLOAD DUP2 PUSH1 0xFF MUL NOT AND SWAP1 DUP4 ISZERO ISZERO MUL OR SWAP1 SSTORE POP DUP1 PUSH1 0x4 ADD SLOAD PUSH1 0x1 DUP3 PUSH1 0x3 ADD PUSH1 0x40 MLOAD PUSH2 0x2233 SWAP2 SWAP1 PUSH2 0x4637 JUMP JUMPDEST SWAP1 DUP2 MSTORE PUSH1 0x20 ADD PUSH1 0x40 MLOAD DUP1 SWAP2 SUB SWAP1 KECCAK256 PUSH1 0x4 ADD PUSH1 0x0 DUP3 DUP3 SLOAD PUSH2 0x2253 SWAP2 SWAP1 PUSH2 0x40BC JUMP JUMPDEST SWAP3 POP POP DUP2 SWAP1 SSTORE POP DUP1 PUSH1 0x2 ADD PUSH1 0x0 SWAP1 SLOAD SWAP1 PUSH2 0x100 EXP SWAP1 DIV PUSH20 0xFFFFFFFFFFFFFFFFFFFFFFFFFFFFFFFFFFFFFFFF AND PUSH20 0xFFFFFFFFFFFFFFFFFFFFFFFFFFFFFFFFFFFFFFFF AND PUSH2 0x8FC DUP3 PUSH1 0x4 ADD SLOAD SWAP1 DUP2 ISZERO MUL SWAP1 PUSH1 0x40 MLOAD PUSH1 0x0 PUSH1 0x40 MLOAD DUP1 DUP4 SUB DUP2 DUP6 DUP9 DUP9 CALL SWAP4 POP POP POP POP ISZERO DUP1 ISZERO PUSH2 0x22C8 JUMPI RETURNDATASIZE PUSH1 0x0 DUP1 RETURNDATACOPY RETURNDATASIZE PUSH1 0x0 REVERT JUMPDEST POP POP POP POP JUMP JUMPDEST PUSH1 0x9 PUSH1 0x0 SWAP1 SLOAD SWAP1 PUSH2 0x100 EXP SWAP1 DIV PUSH20 0xFFFFFFFFFFFFFFFFFFFFFFFFFFFFFFFFFFFFFFFF AND PUSH20 0xFFFFFFFFFFFFFFFFFFFFFFFFFFFFFFFFFFFFFFFF AND CALLER PUSH20 0xFFFFFFFFFFFFFFFFFFFFFFFFFFFFFFFFFFFFFFFF AND EQ PUSH2 0x235E JUMPI PUSH1 0x40 MLOAD PUSH32 0x8C379A000000000000000000000000000000000000000000000000000000000 DUP2 MSTORE PUSH1 0x4 ADD PUSH2 0x2355 SWAP1 PUSH2 0x3BA2 JUMP JUMPDEST PUSH1 0x40 MLOAD DUP1 SWAP2 SUB SWAP1 REVERT JUMPDEST PUSH1 0x0 PUSH1 0x1 DUP4 PUSH1 0x40 MLOAD PUSH2 0x2370 SWAP2 SWAP1 PUSH2 0x3BFE JUMP JUMPDEST SWAP1 DUP2 MSTORE PUSH1 0x20 ADD PUSH1 0x40 MLOAD DUP1 SWAP2 SUB SWAP1 KECCAK256 PUSH1 0x0 ADD DUP1 SLOAD PUSH2 0x238C SWAP1 PUSH2 0x3AFF JUMP JUMPDEST SWAP1 POP GT PUSH2 0x23CE JUMPI PUSH1 0x40 MLOAD PUSH32 0x8C379A000000000000000000000000000000000000000000000000000000000 DUP2 MSTORE PUSH1 0x4 ADD PUSH2 0x23C5 SWAP1 PUSH2 0x3C61 JUMP JUMPDEST PUSH1 0x40 MLOAD DUP1 SWAP2 SUB SWAP1 REVERT JUMPDEST PUSH1 0x1 DUP3 PUSH1 0x40 MLOAD PUSH2 0x23DE SWAP2 SWAP1 PUSH2 0x3BFE JUMP JUMPDEST SWAP1 DUP2 MSTORE PUSH1 0x20 ADD PUSH1 0x40 MLOAD DUP1 SWAP2 SUB SWAP1 KECCAK256 PUSH1 0x3 ADD SLOAD DUP2 GT ISZERO PUSH2 0x2432 JUMPI PUSH1 0x40 MLOAD PUSH32 0x8C379A000000000000000000000000000000000000000000000000000000000 DUP2 MSTORE PUSH1 0x4 ADD PUSH2 0x2429 SWAP1 PUSH2 0x469A JUMP JUMPDEST PUSH1 0x40 MLOAD DUP1 SWAP2 SUB SWAP1 REVERT JUMPDEST DUP1 PUSH1 0x1 DUP4 PUSH1 0x40 MLOAD PUSH2 0x2443 SWAP2 SWAP1 PUSH2 0x3BFE JUMP JUMPDEST SWAP1 DUP2 MSTORE PUSH1 0x20 ADD PUSH1 0x40 MLOAD DUP1 SWAP2 SUB SWAP1 KECCAK256 PUSH1 0x4 ADD PUSH1 0x0 DUP3 DUP3 SLOAD PUSH2 0x2463 SWAP2 SWAP1 PUSH2 0x40BC JUMP JUMPDEST SWAP3 POP POP DUP2 SWAP1 SSTORE POP POP POP JUMP JUMPDEST PUSH1 0x0 PUSH20 0xFFFFFFFFFFFFFFFFFFFFFFFFFFFFFFFFFFFFFFFF AND PUSH1 0x0 DUP1 CALLER PUSH20 0xFFFFFFFFFFFFFFFFFFFFFFFFFFFFFFFFFFFFFFFF AND PUSH20 0xFFFFFFFFFFFFFFFFFFFFFFFFFFFFFFFFFFFFFFFF AND DUP2 MSTORE PUSH1 0x20 ADD SWAP1 DUP2 MSTORE PUSH1 0x20 ADD PUSH1 0x0 KECCAK256 PUSH1 0x0 ADD PUSH1 0x0 SWAP1 SLOAD SWAP1 PUSH2 0x100 EXP SWAP1 DIV PUSH20 0xFFFFFFFFFFFFFFFFFFFFFFFFFFFFFFFFFFFFFFFF AND PUSH20 0xFFFFFFFFFFFFFFFFFFFFFFFFFFFFFFFFFFFFFFFF AND EQ PUSH2 0x253E JUMPI PUSH1 0x40 MLOAD PUSH32 0x8C379A000000000000000000000000000000000000000000000000000000000 DUP2 MSTORE PUSH1 0x4 ADD PUSH2 0x2535 SWAP1 PUSH2 0x4706 JUMP JUMPDEST PUSH1 0x40 MLOAD DUP1 SWAP2 SUB SWAP1 REVERT JUMPDEST PUSH1 0x40 MLOAD DUP1 PUSH1 0xA0 ADD PUSH1 0x40 MSTORE DUP1 CALLER PUSH20 0xFFFFFFFFFFFFFFFFFFFFFFFFFFFFFFFFFFFFFFFF AND DUP2 MSTORE PUSH1 0x20 ADD DUP4 DUP2 MSTORE PUSH1 0x20 ADD DUP3 PUSH1 0x1 DUP2 GT ISZERO PUSH2 0x257E JUMPI PUSH2 0x257D PUSH2 0x336E JUMP JUMPDEST JUMPDEST DUP2 MSTORE PUSH1 0x20 ADD PUSH1 0x0 DUP2 MSTORE PUSH1 0x20 ADD PUSH1 0x0 DUP2 MSTORE POP PUSH1 0x0 DUP1 CALLER PUSH20 0xFFFFFFFFFFFFFFFFFFFFFFFFFFFFFFFFFFFFFFFF AND PUSH20 0xFFFFFFFFFFFFFFFFFFFFFFFFFFFFFFFFFFFFFFFF AND DUP2 MSTORE PUSH1 0x20 ADD SWAP1 DUP2 MSTORE PUSH1 0x20 ADD PUSH1 0x0 KECCAK256 PUSH1 0x0 DUP3 ADD MLOAD DUP2 PUSH1 0x0 ADD PUSH1 0x0 PUSH2 0x100 EXP DUP2 SLOAD DUP2 PUSH20 0xFFFFFFFFFFFFFFFFFFFFFFFFFFFFFFFFFFFFFFFF MUL NOT AND SWAP1 DUP4 PUSH20 0xFFFFFFFFFFFFFFFFFFFFFFFFFFFFFFFFFFFFFFFF AND MUL OR SWAP1 SSTORE POP PUSH1 0x20 DUP3 ADD MLOAD DUP2 PUSH1 0x1 ADD SWAP1 DUP2 PUSH2 0x2629 SWAP2 SWAP1 PUSH2 0x3F05 JUMP JUMPDEST POP PUSH1 0x40 DUP3 ADD MLOAD DUP2 PUSH1 0x2 ADD PUSH1 0x0 PUSH2 0x100 EXP DUP2 SLOAD DUP2 PUSH1 0xFF MUL NOT AND SWAP1 DUP4 PUSH1 0x1 DUP2 GT ISZERO PUSH2 0x2655 JUMPI PUSH2 0x2654 PUSH2 0x336E JUMP JUMPDEST JUMPDEST MUL OR SWAP1 SSTORE POP PUSH1 0x60 DUP3 ADD MLOAD DUP2 PUSH1 0x3 ADD SSTORE PUSH1 0x80 DUP3 ADD MLOAD DUP2 PUSH1 0x4 ADD SSTORE SWAP1 POP POP PUSH1 0x4 CALLER SWAP1 DUP1 PUSH1 0x1 DUP2 SLOAD ADD DUP1 DUP3 SSTORE DUP1 SWAP2 POP POP PUSH1 0x1 SWAP1 SUB SWAP1 PUSH1 0x0 MSTORE PUSH1 0x20 PUSH1 0x0 KECCAK256 ADD PUSH1 0x0 SWAP1 SWAP2 SWAP1 SWAP2 SWAP1 SWAP2 PUSH2 0x100 EXP DUP2 SLOAD DUP2 PUSH20 0xFFFFFFFFFFFFFFFFFFFFFFFFFFFFFFFFFFFFFFFF MUL NOT AND SWAP1 DUP4 PUSH20 0xFFFFFFFFFFFFFFFFFFFFFFFFFFFFFFFFFFFFFFFF AND MUL OR SWAP1 SSTORE POP CALLER PUSH20 0xFFFFFFFFFFFFFFFFFFFFFFFFFFFFFFFFFFFFFFFF AND PUSH32 0xBD0AA66E3F9BB3059D63A43B52E561B9D290792BB97B3CA81FAFC608A3A026E8 DUP4 PUSH1 0x40 MLOAD PUSH2 0x271A SWAP2 SWAP1 PUSH2 0x3015 JUMP JUMPDEST PUSH1 0x40 MLOAD DUP1 SWAP2 SUB SWAP1 LOG2 POP POP JUMP JUMPDEST PUSH1 0x9 PUSH1 0x0 SWAP1 SLOAD SWAP1 PUSH2 0x100 EXP SWAP1 DIV PUSH20 0xFFFFFFFFFFFFFFFFFFFFFFFFFFFFFFFFFFFFFFFF AND PUSH20 0xFFFFFFFFFFFFFFFFFFFFFFFFFFFFFFFFFFFFFFFF AND CALLER PUSH20 0xFFFFFFFFFFFFFFFFFFFFFFFFFFFFFFFFFFFFFFFF AND EQ PUSH2 0x27B6 JUMPI PUSH1 0x40 MLOAD PUSH32 0x8C379A000000000000000000000000000000000000000000000000000000000 DUP2 MSTORE PUSH1 0x4 ADD PUSH2 0x27AD SWAP1 PUSH2 0x3BA2 JUMP JUMPDEST PUSH1 0x40 MLOAD DUP1 SWAP2 SUB SWAP1 REVERT JUMPDEST PUSH1 0x0 PUSH1 0x1 DUP5 PUSH1 0x40 MLOAD PUSH2 0x27C8 SWAP2 SWAP1 PUSH2 0x3BFE JUMP JUMPDEST SWAP1 DUP2 MSTORE PUSH1 0x20 ADD PUSH1 0x40 MLOAD DUP1 SWAP2 SUB SWAP1 KECCAK256 PUSH1 0x0 ADD DUP1 SLOAD PUSH2 0x27E4 SWAP1 PUSH2 0x3AFF JUMP JUMPDEST SWAP1 POP EQ PUSH2 0x2826 JUMPI PUSH1 0x40 MLOAD PUSH32 0x8C379A000000000000000000000000000000000000000000000000000000000 DUP2 MSTORE PUSH1 0x4 ADD PUSH2 0x281D SWAP1 PUSH2 0x4772 JUMP JUMPDEST PUSH1 0x40 MLOAD DUP1 SWAP2 SUB SWAP1 REVERT JUMPDEST PUSH1 0x40 MLOAD DUP1 PUSH1 0xE0 ADD PUSH1 0x40 MSTORE DUP1 DUP5 DUP2 MSTORE PUSH1 0x20 ADD DUP4 DUP2 MSTORE PUSH1 0x20 ADD DUP3 PUSH20 0xFFFFFFFFFFFFFFFFFFFFFFFFFFFFFFFFFFFFFFFF AND DUP2 MSTORE PUSH1 0x20 ADD PUSH1 0x0 DUP2 MSTORE PUSH1 0x20 ADD PUSH1 0x0 DUP2 MSTORE PUSH1 0x20 ADD PUSH1 0x0 PUSH1 0x1 DUP2 GT ISZERO PUSH2 0x287B JUMPI PUSH2 0x287A PUSH2 0x336E JUMP JUMPDEST JUMPDEST DUP2 MSTORE PUSH1 0x20 ADD PUSH1 0x0 DUP2 MSTORE POP PUSH1 0x1 DUP5 PUSH1 0x40 MLOAD PUSH2 0x2895 SWAP2 SWAP1 PUSH2 0x3BFE JUMP JUMPDEST SWAP1 DUP2 MSTORE PUSH1 0x20 ADD PUSH1 0x40 MLOAD DUP1 SWAP2 SUB SWAP1 KECCAK256 PUSH1 0x0 DUP3 ADD MLOAD DUP2 PUSH1 0x0 ADD SWAP1 DUP2 PUSH2 0x28B8 SWAP2 SWAP1 PUSH2 0x3F05 JUMP JUMPDEST POP PUSH1 0x20 DUP3 ADD MLOAD DUP2 PUSH1 0x1 ADD SWAP1 DUP2 PUSH2 0x28CE SWAP2 SWAP1 PUSH2 0x3F05 JUMP JUMPDEST POP PUSH1 0x40 DUP3 ADD MLOAD DUP2 PUSH1 0x2 ADD PUSH1 0x0 PUSH2 0x100 EXP DUP2 SLOAD DUP2 PUSH20 0xFFFFFFFFFFFFFFFFFFFFFFFFFFFFFFFFFFFFFFFF MUL NOT AND SWAP1 DUP4 PUSH20 0xFFFFFFFFFFFFFFFFFFFFFFFFFFFFFFFFFFFFFFFF AND MUL OR SWAP1 SSTORE POP PUSH1 0x60 DUP3 ADD MLOAD DUP2 PUSH1 0x3 ADD SSTORE PUSH1 0x80 DUP3 ADD MLOAD DUP2 PUSH1 0x4 ADD SSTORE PUSH1 0xA0 DUP3 ADD MLOAD DUP2 PUSH1 0x5 ADD PUSH1 0x0 PUSH2 0x100 EXP DUP2 SLOAD DUP2 PUSH1 0xFF MUL NOT AND SWAP1 DUP4 PUSH1 0x1 DUP2 GT ISZERO PUSH2 0x2955 JUMPI PUSH2 0x2954 PUSH2 0x336E JUMP JUMPDEST JUMPDEST MUL OR SWAP1 SSTORE POP PUSH1 0xC0 DUP3 ADD MLOAD DUP2 PUSH1 0x6 ADD SSTORE SWAP1 POP POP PUSH1 0x5 DUP4 SWAP1 DUP1 PUSH1 0x1 DUP2 SLOAD ADD DUP1 DUP3 SSTORE DUP1 SWAP2 POP POP PUSH1 0x1 SWAP1 SUB SWAP1 PUSH1 0x0 MSTORE PUSH1 0x20 PUSH1 0x0 KECCAK256 ADD PUSH1 0x0 SWAP1 SWAP2 SWAP1 SWAP2 SWAP1 SWAP2 POP SWAP1 DUP2 PUSH2 0x299B SWAP2 SWAP1 PUSH2 0x3F05 JUMP JUMPDEST POP PUSH32 0x9BE706A9F3913E31E847D7FA4C6F64709E9391228AE7F008D72BEABE0B95750F DUP4 DUP4 PUSH1 0x40 MLOAD PUSH2 0x29CD SWAP3 SWAP2 SWAP1 PUSH2 0x4792 JUMP JUMPDEST PUSH1 0x40 MLOAD DUP1 SWAP2 SUB SWAP1 LOG1 POP POP POP JUMP JUMPDEST PUSH1 0x0 PUSH20 0xFFFFFFFFFFFFFFFFFFFFFFFFFFFFFFFFFFFFFFFF AND PUSH1 0x0 DUP1 CALLER PUSH20 0xFFFFFFFFFFFFFFFFFFFFFFFFFFFFFFFFFFFFFFFF AND PUSH20 0xFFFFFFFFFFFFFFFFFFFFFFFFFFFFFFFFFFFFFFFF AND DUP2 MSTORE PUSH1 0x20 ADD SWAP1 DUP2 MSTORE PUSH1 0x20 ADD PUSH1 0x0 KECCAK256 PUSH1 0x0 ADD PUSH1 0x0 SWAP1 SLOAD SWAP1 PUSH2 0x100 EXP SWAP1 DIV PUSH20 0xFFFFFFFFFFFFFFFFFFFFFFFFFFFFFFFFFFFFFFFF AND PUSH20 0xFFFFFFFFFFFFFFFFFFFFFFFFFFFFFFFFFFFFFFFF AND SUB PUSH2 0x2AAA JUMPI PUSH1 0x40 MLOAD PUSH32 0x8C379A000000000000000000000000000000000000000000000000000000000 DUP2 MSTORE PUSH1 0x4 ADD PUSH2 0x2AA1 SWAP1 PUSH2 0x4815 JUMP JUMPDEST PUSH1 0x40 MLOAD DUP1 SWAP2 SUB SWAP1 REVERT JUMPDEST PUSH1 0x0 PUSH1 0x1 DUP2 GT ISZERO PUSH2 0x2ABE JUMPI PUSH2 0x2ABD PUSH2 0x336E JUMP JUMPDEST JUMPDEST PUSH1 0x1 DUP4 PUSH1 0x40 MLOAD PUSH2 0x2ACE SWAP2 SWAP1 PUSH2 0x3BFE JUMP JUMPDEST SWAP1 DUP2 MSTORE PUSH1 0x20 ADD PUSH1 0x40 MLOAD DUP1 SWAP2 SUB SWAP1 KECCAK256 PUSH1 0x5 ADD PUSH1 0x0 SWAP1 SLOAD SWAP1 PUSH2 0x100 EXP SWAP1 DIV PUSH1 0xFF AND PUSH1 0x1 DUP2 GT ISZERO PUSH2 0x2AFF JUMPI PUSH2 0x2AFE PUSH2 0x336E JUMP JUMPDEST JUMPDEST EQ PUSH2 0x2B3F JUMPI PUSH1 0x40 MLOAD PUSH32 0x8C379A000000000000000000000000000000000000000000000000000000000 DUP2 MSTORE PUSH1 0x4 ADD PUSH2 0x2B36 SWAP1 PUSH2 0x3D39 JUMP JUMPDEST PUSH1 0x40 MLOAD DUP1 SWAP2 SUB SWAP1 REVERT JUMPDEST DUP1 PUSH1 0x0 DUP1 CALLER PUSH20 0xFFFFFFFFFFFFFFFFFFFFFFFFFFFFFFFFFFFFFFFF AND PUSH20 0xFFFFFFFFFFFFFFFFFFFFFFFFFFFFFFFFFFFFFFFF AND DUP2 MSTORE PUSH1 0x20 ADD SWAP1 DUP2 MSTORE PUSH1 0x20 ADD PUSH1 0x0 KECCAK256 PUSH1 0x4 ADD SLOAD LT ISZERO PUSH2 0x2BC3 JUMPI PUSH1 0x40 MLOAD PUSH32 0x8C379A000000000000000000000000000000000000000000000000000000000 DUP2 MSTORE PUSH1 0x4 ADD PUSH2 0x2BBA SWAP1 PUSH2 0x4881 JUMP JUMPDEST PUSH1 0x40 MLOAD DUP1 SWAP2 SUB SWAP1 REVERT JUMPDEST DUP1 PUSH1 0x0 DUP1 CALLER PUSH20 0xFFFFFFFFFFFFFFFFFFFFFFFFFFFFFFFFFFFFFFFF AND PUSH20 0xFFFFFFFFFFFFFFFFFFFFFFFFFFFFFFFFFFFFFFFF AND DUP2 MSTORE PUSH1 0x20 ADD SWAP1 DUP2 MSTORE PUSH1 0x20 ADD PUSH1 0x0 KECCAK256 PUSH1 0x4 ADD PUSH1 0x0 DUP3 DUP3 SLOAD PUSH2 0x2C14 SWAP2 SWAP1 PUSH2 0x4302 JUMP JUMPDEST SWAP3 POP POP DUP2 SWAP1 SSTORE POP DUP1 PUSH1 0x1 DUP4 PUSH1 0x40 MLOAD PUSH2 0x2C2C SWAP2 SWAP1 PUSH2 0x3BFE JUMP JUMPDEST SWAP1 DUP2 MSTORE PUSH1 0x20 ADD PUSH1 0x40 MLOAD DUP1 SWAP2 SUB SWAP1 KECCAK256 PUSH1 0x6 ADD PUSH1 0x0 DUP3 DUP3 SLOAD PUSH2 0x2C4C SWAP2 SWAP1 PUSH2 0x40BC JUMP JUMPDEST SWAP3 POP POP DUP2 SWAP1 SSTORE POP CALLER PUSH20 0xFFFFFFFFFFFFFFFFFFFFFFFFFFFFFFFFFFFFFFFF AND PUSH32 0x3D62E71A4E89667925B7E27CF64706BA04826BD8E1C791A5D540F7265861057D DUP4 DUP4 PUSH1 0x40 MLOAD PUSH2 0x2C9B SWAP3 SWAP2 SWAP1 PUSH2 0x4150 JUMP JUMPDEST PUSH1 0x40 MLOAD DUP1 SWAP2 SUB SWAP1 LOG2 POP POP JUMP JUMPDEST PUSH1 0x60 PUSH1 0x0 DUP3 SUB PUSH2 0x2CEE JUMPI PUSH1 0x40 MLOAD DUP1 PUSH1 0x40 ADD PUSH1 0x40 MSTORE DUP1 PUSH1 0x1 DUP2 MSTORE PUSH1 0x20 ADD PUSH32 0x3000000000000000000000000000000000000000000000000000000000000000 DUP2 MSTORE POP SWAP1 POP PUSH2 0x2E08 JUMP JUMPDEST PUSH1 0x0 DUP3 SWAP1 POP PUSH1 0x0 JUMPDEST PUSH1 0x0 DUP3 EQ PUSH2 0x2D20 JUMPI DUP1 DUP1 PUSH2 0x2D09 SWAP1 PUSH2 0x4006 JUMP JUMPDEST SWAP2 POP POP PUSH1 0xA DUP3 PUSH2 0x2D19 SWAP2 SWAP1 PUSH2 0x411F JUMP JUMPDEST SWAP2 POP PUSH2 0x2CF6 JUMP JUMPDEST PUSH1 0x0 DUP2 PUSH8 0xFFFFFFFFFFFFFFFF DUP2 GT ISZERO PUSH2 0x2D3C JUMPI PUSH2 0x2D3B PUSH2 0x306B JUMP JUMPDEST JUMPDEST PUSH1 0x40 MLOAD SWAP1 DUP1 DUP3 MSTORE DUP1 PUSH1 0x1F ADD PUSH1 0x1F NOT AND PUSH1 0x20 ADD DUP3 ADD PUSH1 0x40 MSTORE DUP1 ISZERO PUSH2 0x2D6E JUMPI DUP2 PUSH1 0x20 ADD PUSH1 0x1 DUP3 MUL DUP1 CALLDATASIZE DUP4 CALLDATACOPY DUP1 DUP3 ADD SWAP2 POP POP SWAP1 POP JUMPDEST POP SWAP1 POP PUSH1 0x0 DUP3 SWAP1 POP DUP6 SWAP4 POP JUMPDEST PUSH1 0x0 DUP5 EQ PUSH2 0x2E00 JUMPI PUSH1 0xA DUP5 PUSH2 0x2D8F SWAP2 SWAP1 PUSH2 0x48A1 JUMP JUMPDEST PUSH1 0x30 PUSH2 0x2D9B SWAP2 SWAP1 PUSH2 0x40BC JUMP JUMPDEST PUSH1 0xF8 SHL DUP3 DUP3 PUSH2 0x2DA9 SWAP1 PUSH2 0x48D2 JUMP JUMPDEST SWAP3 POP DUP3 DUP2 MLOAD DUP2 LT PUSH2 0x2DBD JUMPI PUSH2 0x2DBC PUSH2 0x48FB JUMP JUMPDEST JUMPDEST PUSH1 0x20 ADD ADD SWAP1 PUSH31 0xFFFFFFFFFFFFFFFFFFFFFFFFFFFFFFFFFFFFFFFFFFFFFFFFFFFFFFFFFFFFFF NOT AND SWAP1 DUP2 PUSH1 0x0 BYTE SWAP1 MSTORE8 POP PUSH1 0xA DUP5 PUSH2 0x2DF9 SWAP2 SWAP1 PUSH2 0x411F JUMP JUMPDEST SWAP4 POP PUSH2 0x2D7A JUMP JUMPDEST DUP2 SWAP5 POP POP POP POP POP JUMPDEST SWAP2 SWAP1 POP JUMP JUMPDEST PUSH1 0x40 MLOAD DUP1 PUSH1 0xA0 ADD PUSH1 0x40 MSTORE DUP1 PUSH1 0x0 PUSH20 0xFFFFFFFFFFFFFFFFFFFFFFFFFFFFFFFFFFFFFFFF AND DUP2 MSTORE PUSH1 0x20 ADD PUSH1 0x60 DUP2 MSTORE PUSH1 0x20 ADD PUSH1 0x0 PUSH1 0x1 DUP2 GT ISZERO PUSH2 0x2E50 JUMPI PUSH2 0x2E4F PUSH2 0x336E JUMP JUMPDEST JUMPDEST DUP2 MSTORE PUSH1 0x20 ADD PUSH1 0x0 DUP2 MSTORE PUSH1 0x20 ADD PUSH1 0x0 DUP2 MSTORE POP SWAP1 JUMP JUMPDEST PUSH1 0x40 MLOAD DUP1 PUSH1 0xA0 ADD PUSH1 0x40 MSTORE DUP1 PUSH1 0x60 DUP2 MSTORE PUSH1 0x20 ADD PUSH1 0x0 PUSH20 0xFFFFFFFFFFFFFFFFFFFFFFFFFFFFFFFFFFFFFFFF AND DUP2 MSTORE PUSH1 0x20 ADD PUSH1 0x60 DUP2 MSTORE PUSH1 0x20 ADD PUSH1 0x0 DUP2 MSTORE PUSH1 0x20 ADD PUSH1 0x0 DUP2 MSTORE POP SWAP1 JUMP JUMPDEST PUSH1 0x40 MLOAD DUP1 PUSH1 0xE0 ADD PUSH1 0x40 MSTORE DUP1 PUSH1 0x60 DUP2 MSTORE PUSH1 0x20 ADD PUSH1 0x60 DUP2 MSTORE PUSH1 0x20 ADD PUSH1 0x0 PUSH20 0xFFFFFFFFFFFFFFFFFFFFFFFFFFFFFFFFFFFFFFFF AND DUP2 MSTORE PUSH1 0x20 ADD PUSH1 0x0 DUP2 MSTORE PUSH1 0x20 ADD PUSH1 0x0 DUP2 MSTORE PUSH1 0x20 ADD PUSH1 0x0 PUSH1 0x1 DUP2 GT ISZERO PUSH2 0x2F01 JUMPI PUSH2 0x2F00 PUSH2 0x336E JUMP JUMPDEST JUMPDEST DUP2 MSTORE PUSH1 0x20 ADD PUSH1 0x0 DUP2 MSTORE POP SWAP1 JUMP JUMPDEST PUSH1 0x0 PUSH1 0x40 MLOAD SWAP1 POP SWAP1 JUMP JUMPDEST PUSH1 0x0 DUP1 REVERT JUMPDEST PUSH1 0x0 DUP1 REVERT JUMPDEST PUSH1 0x0 DUP2 SWAP1 POP SWAP2 SWAP1 POP JUMP JUMPDEST PUSH2 0x2F35 DUP2 PUSH2 0x2F22 JUMP JUMPDEST DUP2 EQ PUSH2 0x2F40 JUMPI PUSH1 0x0 DUP1 REVERT JUMPDEST POP JUMP JUMPDEST PUSH1 0x0 DUP2 CALLDATALOAD SWAP1 POP PUSH2 0x2F52 DUP2 PUSH2 0x2F2C JUMP JUMPDEST SWAP3 SWAP2 POP POP JUMP JUMPDEST PUSH1 0x0 PUSH1 0x20 DUP3 DUP5 SUB SLT ISZERO PUSH2 0x2F6E JUMPI PUSH2 0x2F6D PUSH2 0x2F18 JUMP JUMPDEST JUMPDEST PUSH1 0x0 PUSH2 0x2F7C DUP5 DUP3 DUP6 ADD PUSH2 0x2F43 JUMP JUMPDEST SWAP2 POP POP SWAP3 SWAP2 POP POP JUMP JUMPDEST PUSH1 0x0 DUP2 MLOAD SWAP1 POP SWAP2 SWAP1 POP JUMP JUMPDEST PUSH1 0x0 DUP3 DUP3 MSTORE PUSH1 0x20 DUP3 ADD SWAP1 POP SWAP3 SWAP2 POP POP JUMP JUMPDEST PUSH1 0x0 JUMPDEST DUP4 DUP2 LT ISZERO PUSH2 0x2FBF JUMPI DUP1 DUP3 ADD MLOAD DUP2 DUP5 ADD MSTORE PUSH1 0x20 DUP2 ADD SWAP1 POP PUSH2 0x2FA4 JUMP JUMPDEST PUSH1 0x0 DUP5 DUP5 ADD MSTORE POP POP POP POP JUMP JUMPDEST PUSH1 0x0 PUSH1 0x1F NOT PUSH1 0x1F DUP4 ADD AND SWAP1 POP SWAP2 SWAP1 POP JUMP JUMPDEST PUSH1 0x0 PUSH2 0x2FE7 DUP3 PUSH2 0x2F85 JUMP JUMPDEST PUSH2 0x2FF1 DUP2 DUP6 PUSH2 0x2F90 JUMP JUMPDEST SWAP4 POP PUSH2 0x3001 DUP2 DUP6 PUSH1 0x20 DUP7 ADD PUSH2 0x2FA1 JUMP JUMPDEST PUSH2 0x300A DUP2 PUSH2 0x2FCB JUMP JUMPDEST DUP5 ADD SWAP2 POP POP SWAP3 SWAP2 POP POP JUMP JUMPDEST PUSH1 0x0 PUSH1 0x20 DUP3 ADD SWAP1 POP DUP2 DUP2 SUB PUSH1 0x0 DUP4 ADD MSTORE PUSH2 0x302F DUP2 DUP5 PUSH2 0x2FDC JUMP JUMPDEST SWAP1 POP SWAP3 SWAP2 POP POP JUMP JUMPDEST PUSH2 0x3040 DUP2 PUSH2 0x2F22 JUMP JUMPDEST DUP3 MSTORE POP POP JUMP JUMPDEST PUSH1 0x0 PUSH1 0x20 DUP3 ADD SWAP1 POP PUSH2 0x305B PUSH1 0x0 DUP4 ADD DUP5 PUSH2 0x3037 JUMP JUMPDEST SWAP3 SWAP2 POP POP JUMP JUMPDEST PUSH1 0x0 DUP1 REVERT JUMPDEST PUSH1 0x0 DUP1 REVERT JUMPDEST PUSH32 0x4E487B7100000000000000000000000000000000000000000000000000000000 PUSH1 0x0 MSTORE PUSH1 0x41 PUSH1 0x4 MSTORE PUSH1 0x24 PUSH1 0x0 REVERT JUMPDEST PUSH2 0x30A3 DUP3 PUSH2 0x2FCB JUMP JUMPDEST DUP2 ADD DUP2 DUP2 LT PUSH8 0xFFFFFFFFFFFFFFFF DUP3 GT OR ISZERO PUSH2 0x30C2 JUMPI PUSH2 0x30C1 PUSH2 0x306B JUMP JUMPDEST JUMPDEST DUP1 PUSH1 0x40 MSTORE POP POP POP JUMP JUMPDEST PUSH1 0x0 PUSH2 0x30D5 PUSH2 0x2F0E JUMP JUMPDEST SWAP1 POP PUSH2 0x30E1 DUP3 DUP3 PUSH2 0x309A JUMP JUMPDEST SWAP2 SWAP1 POP JUMP JUMPDEST PUSH1 0x0 PUSH8 0xFFFFFFFFFFFFFFFF DUP3 GT ISZERO PUSH2 0x3101 JUMPI PUSH2 0x3100 PUSH2 0x306B JUMP JUMPDEST JUMPDEST PUSH2 0x310A DUP3 PUSH2 0x2FCB JUMP JUMPDEST SWAP1 POP PUSH1 0x20 DUP2 ADD SWAP1 POP SWAP2 SWAP1 POP JUMP JUMPDEST DUP3 DUP2 DUP4 CALLDATACOPY PUSH1 0x0 DUP4 DUP4 ADD MSTORE POP POP POP JUMP JUMPDEST PUSH1 0x0 PUSH2 0x3139 PUSH2 0x3134 DUP5 PUSH2 0x30E6 JUMP JUMPDEST PUSH2 0x30CB JUMP JUMPDEST SWAP1 POP DUP3 DUP2 MSTORE PUSH1 0x20 DUP2 ADD DUP5 DUP5 DUP5 ADD GT ISZERO PUSH2 0x3155 JUMPI PUSH2 0x3154 PUSH2 0x3066 JUMP JUMPDEST JUMPDEST PUSH2 0x3160 DUP5 DUP3 DUP6 PUSH2 0x3117 JUMP JUMPDEST POP SWAP4 SWAP3 POP POP POP JUMP JUMPDEST PUSH1 0x0 DUP3 PUSH1 0x1F DUP4 ADD SLT PUSH2 0x317D JUMPI PUSH2 0x317C PUSH2 0x3061 JUMP JUMPDEST JUMPDEST DUP2 CALLDATALOAD PUSH2 0x318D DUP5 DUP3 PUSH1 0x20 DUP7 ADD PUSH2 0x3126 JUMP JUMPDEST SWAP2 POP POP SWAP3 SWAP2 POP POP JUMP JUMPDEST PUSH1 0x2 DUP2 LT PUSH2 0x31A3 JUMPI PUSH1 0x0 DUP1 REVERT JUMPDEST POP JUMP JUMPDEST PUSH1 0x0 DUP2 CALLDATALOAD SWAP1 POP PUSH2 0x31B5 DUP2 PUSH2 0x3196 JUMP JUMPDEST SWAP3 SWAP2 POP POP JUMP JUMPDEST PUSH1 0x0 DUP1 PUSH1 0x40 DUP4 DUP6 SUB SLT ISZERO PUSH2 0x31D2 JUMPI PUSH2 0x31D1 PUSH2 0x2F18 JUMP JUMPDEST JUMPDEST PUSH1 0x0 DUP4 ADD CALLDATALOAD PUSH8 0xFFFFFFFFFFFFFFFF DUP2 GT ISZERO PUSH2 0x31F0 JUMPI PUSH2 0x31EF PUSH2 0x2F1D JUMP JUMPDEST JUMPDEST PUSH2 0x31FC DUP6 DUP3 DUP7 ADD PUSH2 0x3168 JUMP JUMPDEST SWAP3 POP POP PUSH1 0x20 PUSH2 0x320D DUP6 DUP3 DUP7 ADD PUSH2 0x31A6 JUMP JUMPDEST SWAP2 POP POP SWAP3 POP SWAP3 SWAP1 POP JUMP JUMPDEST PUSH1 0x0 PUSH20 0xFFFFFFFFFFFFFFFFFFFFFFFFFFFFFFFFFFFFFFFF DUP3 AND SWAP1 POP SWAP2 SWAP1 POP JUMP JUMPDEST PUSH1 0x0 PUSH2 0x3242 DUP3 PUSH2 0x3217 JUMP JUMPDEST SWAP1 POP SWAP2 SWAP1 POP JUMP JUMPDEST PUSH2 0x3252 DUP2 PUSH2 0x3237 JUMP JUMPDEST DUP3 MSTORE POP POP JUMP JUMPDEST PUSH1 0x0 PUSH1 0x20 DUP3 ADD SWAP1 POP PUSH2 0x326D PUSH1 0x0 DUP4 ADD DUP5 PUSH2 0x3249 JUMP JUMPDEST SWAP3 SWAP2 POP POP JUMP JUMPDEST PUSH1 0x0 PUSH1 0x20 DUP3 DUP5 SUB SLT ISZERO PUSH2 0x3289 JUMPI PUSH2 0x3288 PUSH2 0x2F18 JUMP JUMPDEST JUMPDEST PUSH1 0x0 DUP3 ADD CALLDATALOAD PUSH8 0xFFFFFFFFFFFFFFFF DUP2 GT ISZERO PUSH2 0x32A7 JUMPI PUSH2 0x32A6 PUSH2 0x2F1D JUMP JUMPDEST JUMPDEST PUSH2 0x32B3 DUP5 DUP3 DUP6 ADD PUSH2 0x3168 JUMP JUMPDEST SWAP2 POP POP SWAP3 SWAP2 POP POP JUMP JUMPDEST PUSH2 0x32C5 DUP2 PUSH2 0x3237 JUMP JUMPDEST DUP2 EQ PUSH2 0x32D0 JUMPI PUSH1 0x0 DUP1 REVERT JUMPDEST POP JUMP JUMPDEST PUSH1 0x0 DUP2 CALLDATALOAD SWAP1 POP PUSH2 0x32E2 DUP2 PUSH2 0x32BC JUMP JUMPDEST SWAP3 SWAP2 POP POP JUMP JUMPDEST PUSH1 0x0 PUSH1 0x20 DUP3 DUP5 SUB SLT ISZERO PUSH2 0x32FE JUMPI PUSH2 0x32FD PUSH2 0x2F18 JUMP JUMPDEST JUMPDEST PUSH1 0x0 PUSH2 0x330C DUP5 DUP3 DUP6 ADD PUSH2 0x32D3 JUMP JUMPDEST SWAP2 POP POP SWAP3 SWAP2 POP POP JUMP JUMPDEST PUSH2 0x331E DUP2 PUSH2 0x3237 JUMP JUMPDEST DUP3 MSTORE POP POP JUMP JUMPDEST PUSH1 0x0 DUP3 DUP3 MSTORE PUSH1 0x20 DUP3 ADD SWAP1 POP SWAP3 SWAP2 POP POP JUMP JUMPDEST PUSH1 0x0 PUSH2 0x3340 DUP3 PUSH2 0x2F85 JUMP JUMPDEST PUSH2 0x334A DUP2 DUP6 PUSH2 0x3324 JUMP JUMPDEST SWAP4 POP PUSH2 0x335A DUP2 DUP6 PUSH1 0x20 DUP7 ADD PUSH2 0x2FA1 JUMP JUMPDEST PUSH2 0x3363 DUP2 PUSH2 0x2FCB JUMP JUMPDEST DUP5 ADD SWAP2 POP POP SWAP3 SWAP2 POP POP JUMP JUMPDEST PUSH32 0x4E487B7100000000000000000000000000000000000000000000000000000000 PUSH1 0x0 MSTORE PUSH1 0x21 PUSH1 0x4 MSTORE PUSH1 0x24 PUSH1 0x0 REVERT JUMPDEST PUSH1 0x2 DUP2 LT PUSH2 0x33AE JUMPI PUSH2 0x33AD PUSH2 0x336E JUMP JUMPDEST JUMPDEST POP JUMP JUMPDEST PUSH1 0x0 DUP2 SWAP1 POP PUSH2 0x33BF DUP3 PUSH2 0x339D JUMP JUMPDEST SWAP2 SWAP1 POP JUMP JUMPDEST PUSH1 0x0 PUSH2 0x33CF DUP3 PUSH2 0x33B1 JUMP JUMPDEST SWAP1 POP SWAP2 SWAP1 POP JUMP JUMPDEST PUSH2 0x33DF DUP2 PUSH2 0x33C4 JUMP JUMPDEST DUP3 MSTORE POP POP JUMP JUMPDEST PUSH2 0x33EE DUP2 PUSH2 0x2F22 JUMP JUMPDEST DUP3 MSTORE POP POP JUMP JUMPDEST PUSH1 0x0 PUSH1 0xA0 DUP4 ADD PUSH1 0x0 DUP4 ADD MLOAD PUSH2 0x340C PUSH1 0x0 DUP7 ADD DUP3 PUSH2 0x3315 JUMP JUMPDEST POP PUSH1 0x20 DUP4 ADD MLOAD DUP5 DUP3 SUB PUSH1 0x20 DUP7 ADD MSTORE PUSH2 0x3424 DUP3 DUP3 PUSH2 0x3335 JUMP JUMPDEST SWAP2 POP POP PUSH1 0x40 DUP4 ADD MLOAD PUSH2 0x3439 PUSH1 0x40 DUP7 ADD DUP3 PUSH2 0x33D6 JUMP JUMPDEST POP PUSH1 0x60 DUP4 ADD MLOAD PUSH2 0x344C PUSH1 0x60 DUP7 ADD DUP3 PUSH2 0x33E5 JUMP JUMPDEST POP PUSH1 0x80 DUP4 ADD MLOAD PUSH2 0x345F PUSH1 0x80 DUP7 ADD DUP3 PUSH2 0x33E5 JUMP JUMPDEST POP DUP1 SWAP2 POP POP SWAP3 SWAP2 POP POP JUMP JUMPDEST PUSH1 0x0 PUSH1 0x20 DUP3 ADD SWAP1 POP DUP2 DUP2 SUB PUSH1 0x0 DUP4 ADD MSTORE PUSH2 0x3484 DUP2 DUP5 PUSH2 0x33F4 JUMP JUMPDEST SWAP1 POP SWAP3 SWAP2 POP POP JUMP JUMPDEST PUSH1 0x2 DUP2 LT PUSH2 0x349D JUMPI PUSH2 0x349C PUSH2 0x336E JUMP JUMPDEST JUMPDEST POP JUMP JUMPDEST PUSH1 0x0 DUP2 SWAP1 POP PUSH2 0x34AE DUP3 PUSH2 0x348C JUMP JUMPDEST SWAP2 SWAP1 POP JUMP JUMPDEST PUSH1 0x0 PUSH2 0x34BE DUP3 PUSH2 0x34A0 JUMP JUMPDEST SWAP1 POP SWAP2 SWAP1 POP JUMP JUMPDEST PUSH2 0x34CE DUP2 PUSH2 0x34B3 JUMP JUMPDEST DUP3 MSTORE POP POP JUMP JUMPDEST PUSH1 0x0 PUSH1 0xE0 DUP3 ADD SWAP1 POP DUP2 DUP2 SUB PUSH1 0x0 DUP4 ADD MSTORE PUSH2 0x34EE DUP2 DUP11 PUSH2 0x2FDC JUMP JUMPDEST SWAP1 POP DUP2 DUP2 SUB PUSH1 0x20 DUP4 ADD MSTORE PUSH2 0x3502 DUP2 DUP10 PUSH2 0x2FDC JUMP JUMPDEST SWAP1 POP PUSH2 0x3511 PUSH1 0x40 DUP4 ADD DUP9 PUSH2 0x3249 JUMP JUMPDEST PUSH2 0x351E PUSH1 0x60 DUP4 ADD DUP8 PUSH2 0x3037 JUMP JUMPDEST PUSH2 0x352B PUSH1 0x80 DUP4 ADD DUP7 PUSH2 0x3037 JUMP JUMPDEST PUSH2 0x3538 PUSH1 0xA0 DUP4 ADD DUP6 PUSH2 0x34C5 JUMP JUMPDEST PUSH2 0x3545 PUSH1 0xC0 DUP4 ADD DUP5 PUSH2 0x3037 JUMP JUMPDEST SWAP9 SWAP8 POP POP POP POP POP POP POP POP JUMP JUMPDEST PUSH1 0x0 PUSH1 0xA0 DUP4 ADD PUSH1 0x0 DUP4 ADD MLOAD DUP5 DUP3 SUB PUSH1 0x0 DUP7 ADD MSTORE PUSH2 0x356E DUP3 DUP3 PUSH2 0x3335 JUMP JUMPDEST SWAP2 POP POP PUSH1 0x20 DUP4 ADD MLOAD PUSH2 0x3583 PUSH1 0x20 DUP7 ADD DUP3 PUSH2 0x3315 JUMP JUMPDEST POP PUSH1 0x40 DUP4 ADD MLOAD DUP5 DUP3 SUB PUSH1 0x40 DUP7 ADD MSTORE PUSH2 0x359B DUP3 DUP3 PUSH2 0x3335 JUMP JUMPDEST SWAP2 POP POP PUSH1 0x60 DUP4 ADD MLOAD PUSH2 0x35B0 PUSH1 0x60 DUP7 ADD DUP3 PUSH2 0x33E5 JUMP JUMPDEST POP PUSH1 0x80 DUP4 ADD MLOAD PUSH2 0x35C3 PUSH1 0x80 DUP7 ADD DUP3 PUSH2 0x33E5 JUMP JUMPDEST POP DUP1 SWAP2 POP POP SWAP3 SWAP2 POP POP JUMP JUMPDEST PUSH1 0x0 PUSH1 0x20 DUP3 ADD SWAP1 POP DUP2 DUP2 SUB PUSH1 0x0 DUP4 ADD MSTORE PUSH2 0x35E8 DUP2 DUP5 PUSH2 0x3551 JUMP JUMPDEST SWAP1 POP SWAP3 SWAP2 POP POP JUMP JUMPDEST PUSH2 0x35F9 DUP2 PUSH2 0x33C4 JUMP JUMPDEST DUP3 MSTORE POP POP JUMP JUMPDEST PUSH1 0x0 PUSH1 0xA0 DUP3 ADD SWAP1 POP PUSH2 0x3614 PUSH1 0x0 DUP4 ADD DUP9 PUSH2 0x3249 JUMP JUMPDEST DUP2 DUP2 SUB PUSH1 0x20 DUP4 ADD MSTORE PUSH2 0x3626 DUP2 DUP8 PUSH2 0x2FDC JUMP JUMPDEST SWAP1 POP PUSH2 0x3635 PUSH1 0x40 DUP4 ADD DUP7 PUSH2 0x35F0 JUMP JUMPDEST PUSH2 0x3642 PUSH1 0x60 DUP4 ADD DUP6 PUSH2 0x3037 JUMP JUMPDEST PUSH2 0x364F PUSH1 0x80 DUP4 ADD DUP5 PUSH2 0x3037 JUMP JUMPDEST SWAP7 SWAP6 POP POP POP POP POP POP JUMP JUMPDEST PUSH1 0x0 DUP2 ISZERO ISZERO SWAP1 POP SWAP2 SWAP1 POP JUMP JUMPDEST PUSH2 0x366E DUP2 PUSH2 0x3659 JUMP JUMPDEST DUP3 MSTORE POP POP JUMP JUMPDEST PUSH1 0x0 PUSH1 0xE0 DUP3 ADD SWAP1 POP DUP2 DUP2 SUB PUSH1 0x0 DUP4 ADD MSTORE PUSH2 0x368E DUP2 DUP11 PUSH2 0x2FDC JUMP JUMPDEST SWAP1 POP PUSH2 0x369D PUSH1 0x20 DUP4 ADD DUP10 PUSH2 0x3249 JUMP JUMPDEST PUSH2 0x36AA PUSH1 0x40 DUP4 ADD DUP9 PUSH2 0x3249 JUMP JUMPDEST DUP2 DUP2 SUB PUSH1 0x60 DUP4 ADD MSTORE PUSH2 0x36BC DUP2 DUP8 PUSH2 0x2FDC JUMP JUMPDEST SWAP1 POP PUSH2 0x36CB PUSH1 0x80 DUP4 ADD DUP7 PUSH2 0x3037 JUMP JUMPDEST PUSH2 0x36D8 PUSH1 0xA0 DUP4 ADD DUP6 PUSH2 0x3037 JUMP JUMPDEST PUSH2 0x36E5 PUSH1 0xC0 DUP4 ADD DUP5 PUSH2 0x3665 JUMP JUMPDEST SWAP9 SWAP8 POP POP POP POP POP POP POP POP JUMP JUMPDEST PUSH2 0x36FA DUP2 PUSH2 0x34B3 JUMP JUMPDEST DUP3 MSTORE POP POP JUMP JUMPDEST PUSH1 0x0 PUSH1 0xE0 DUP4 ADD PUSH1 0x0 DUP4 ADD MLOAD DUP5 DUP3 SUB PUSH1 0x0 DUP7 ADD MSTORE PUSH2 0x371D DUP3 DUP3 PUSH2 0x3335 JUMP JUMPDEST SWAP2 POP POP PUSH1 0x20 DUP4 ADD MLOAD DUP5 DUP3 SUB PUSH1 0x20 DUP7 ADD MSTORE PUSH2 0x3737 DUP3 DUP3 PUSH2 0x3335 JUMP JUMPDEST SWAP2 POP POP PUSH1 0x40 DUP4 ADD MLOAD PUSH2 0x374C PUSH1 0x40 DUP7 ADD DUP3 PUSH2 0x3315 JUMP JUMPDEST POP PUSH1 0x60 DUP4 ADD MLOAD PUSH2 0x375F PUSH1 0x60 DUP7 ADD DUP3 PUSH2 0x33E5 JUMP JUMPDEST POP PUSH1 0x80 DUP4 ADD MLOAD PUSH2 0x3772 PUSH1 0x80 DUP7 ADD DUP3 PUSH2 0x33E5 JUMP JUMPDEST POP PUSH1 0xA0 DUP4 ADD MLOAD PUSH2 0x3785 PUSH1 0xA0 DUP7 ADD DUP3 PUSH2 0x36F1 JUMP JUMPDEST POP PUSH1 0xC0 DUP4 ADD MLOAD PUSH2 0x3798 PUSH1 0xC0 DUP7 ADD DUP3 PUSH2 0x33E5 JUMP JUMPDEST POP DUP1 SWAP2 POP POP SWAP3 SWAP2 POP POP JUMP JUMPDEST PUSH1 0x0 PUSH1 0x20 DUP3 ADD SWAP1 POP DUP2 DUP2 SUB PUSH1 0x0 DUP4 ADD MSTORE PUSH2 0x37BD DUP2 DUP5 PUSH2 0x3700 JUMP JUMPDEST SWAP1 POP SWAP3 SWAP2 POP POP JUMP JUMPDEST PUSH1 0x0 PUSH1 0xA0 DUP3 ADD SWAP1 POP DUP2 DUP2 SUB PUSH1 0x0 DUP4 ADD MSTORE PUSH2 0x37DF DUP2 DUP9 PUSH2 0x2FDC JUMP JUMPDEST SWAP1 POP PUSH2 0x37EE PUSH1 0x20 DUP4 ADD DUP8 PUSH2 0x3249 JUMP JUMPDEST DUP2 DUP2 SUB PUSH1 0x40 DUP4 ADD MSTORE PUSH2 0x3800 DUP2 DUP7 PUSH2 0x2FDC JUMP JUMPDEST SWAP1 POP PUSH2 0x380F PUSH1 0x60 DUP4 ADD DUP6 PUSH2 0x3037 JUMP JUMPDEST PUSH2 0x381C PUSH1 0x80 DUP4 ADD DUP5 PUSH2 0x3037 JUMP JUMPDEST SWAP7 SWAP6 POP POP POP POP POP POP JUMP JUMPDEST PUSH1 0x0 DUP1 REVERT JUMPDEST PUSH1 0x0 DUP1 REVERT JUMPDEST PUSH1 0x0 DUP1 DUP4 PUSH1 0x1F DUP5 ADD SLT PUSH2 0x3846 JUMPI PUSH2 0x3845 PUSH2 0x3061 JUMP JUMPDEST JUMPDEST DUP3 CALLDATALOAD SWAP1 POP PUSH8 0xFFFFFFFFFFFFFFFF DUP2 GT ISZERO PUSH2 0x3863 JUMPI PUSH2 0x3862 PUSH2 0x3826 JUMP JUMPDEST JUMPDEST PUSH1 0x20 DUP4 ADD SWAP2 POP DUP4 PUSH1 0x1 DUP3 MUL DUP4 ADD GT ISZERO PUSH2 0x387F JUMPI PUSH2 0x387E PUSH2 0x382B JUMP JUMPDEST JUMPDEST SWAP3 POP SWAP3 SWAP1 POP JUMP JUMPDEST PUSH1 0x0 DUP1 PUSH1 0x0 DUP1 PUSH1 0x0 PUSH1 0x60 DUP7 DUP9 SUB SLT ISZERO PUSH2 0x38A2 JUMPI PUSH2 0x38A1 PUSH2 0x2F18 JUMP JUMPDEST JUMPDEST PUSH1 0x0 DUP7 ADD CALLDATALOAD PUSH8 0xFFFFFFFFFFFFFFFF DUP2 GT ISZERO PUSH2 0x38C0 JUMPI PUSH2 0x38BF PUSH2 0x2F1D JUMP JUMPDEST JUMPDEST PUSH2 0x38CC DUP9 DUP3 DUP10 ADD PUSH2 0x3830 JUMP JUMPDEST SWAP6 POP SWAP6 POP POP PUSH1 0x20 DUP7 ADD CALLDATALOAD PUSH8 0xFFFFFFFFFFFFFFFF DUP2 GT ISZERO PUSH2 0x38EF JUMPI PUSH2 0x38EE PUSH2 0x2F1D JUMP JUMPDEST JUMPDEST PUSH2 0x38FB DUP9 DUP3 DUP10 ADD PUSH2 0x3830 JUMP JUMPDEST SWAP4 POP SWAP4 POP POP PUSH1 0x40 PUSH2 0x390E DUP9 DUP3 DUP10 ADD PUSH2 0x32D3 JUMP JUMPDEST SWAP2 POP POP SWAP3 SWAP6 POP SWAP3 SWAP6 SWAP1 SWAP4 POP JUMP JUMPDEST PUSH1 0x0 DUP1 PUSH1 0x20 DUP4 DUP6 SUB SLT ISZERO PUSH2 0x3932 JUMPI PUSH2 0x3931 PUSH2 0x2F18 JUMP JUMPDEST JUMPDEST PUSH1 0x0 DUP4 ADD CALLDATALOAD PUSH8 0xFFFFFFFFFFFFFFFF DUP2 GT ISZERO PUSH2 0x3950 JUMPI PUSH2 0x394F PUSH2 0x2F1D JUMP JUMPDEST JUMPDEST PUSH2 0x395C DUP6 DUP3 DUP7 ADD PUSH2 0x3830 JUMP JUMPDEST SWAP3 POP SWAP3 POP POP SWAP3 POP SWAP3 SWAP1 POP JUMP JUMPDEST PUSH1 0x0 DUP1 PUSH1 0x40 DUP4 DUP6 SUB SLT ISZERO PUSH2 0x397F JUMPI PUSH2 0x397E PUSH2 0x2F18 JUMP JUMPDEST JUMPDEST PUSH1 0x0 DUP4 ADD CALLDATALOAD PUSH8 0xFFFFFFFFFFFFFFFF DUP2 GT ISZERO PUSH2 0x399D JUMPI PUSH2 0x399C PUSH2 0x2F1D JUMP JUMPDEST JUMPDEST PUSH2 0x39A9 DUP6 DUP3 DUP7 ADD PUSH2 0x3168 JUMP JUMPDEST SWAP3 POP POP PUSH1 0x20 PUSH2 0x39BA DUP6 DUP3 DUP7 ADD PUSH2 0x2F43 JUMP JUMPDEST SWAP2 POP POP SWAP3 POP SWAP3 SWAP1 POP JUMP JUMPDEST PUSH1 0x2 DUP2 LT PUSH2 0x39D1 JUMPI PUSH1 0x0 DUP1 REVERT JUMPDEST POP JUMP JUMPDEST PUSH1 0x0 DUP2 CALLDATALOAD SWAP1 POP PUSH2 0x39E3 DUP2 PUSH2 0x39C4 JUMP JUMPDEST SWAP3 SWAP2 POP POP JUMP JUMPDEST PUSH1 0x0 DUP1 PUSH1 0x40 DUP4 DUP6 SUB SLT ISZERO PUSH2 0x3A00 JUMPI PUSH2 0x39FF PUSH2 0x2F18 JUMP JUMPDEST JUMPDEST PUSH1 0x0 DUP4 ADD CALLDATALOAD PUSH8 0xFFFFFFFFFFFFFFFF DUP2 GT ISZERO PUSH2 0x3A1E JUMPI PUSH2 0x3A1D PUSH2 0x2F1D JUMP JUMPDEST JUMPDEST PUSH2 0x3A2A DUP6 DUP3 DUP7 ADD PUSH2 0x3168 JUMP JUMPDEST SWAP3 POP POP PUSH1 0x20 PUSH2 0x3A3B DUP6 DUP3 DUP7 ADD PUSH2 0x39D4 JUMP JUMPDEST SWAP2 POP POP SWAP3 POP SWAP3 SWAP1 POP JUMP JUMPDEST PUSH1 0x0 DUP1 PUSH1 0x0 PUSH1 0x60 DUP5 DUP7 SUB SLT ISZERO PUSH2 0x3A5E JUMPI PUSH2 0x3A5D PUSH2 0x2F18 JUMP JUMPDEST JUMPDEST PUSH1 0x0 DUP5 ADD CALLDATALOAD PUSH8 0xFFFFFFFFFFFFFFFF DUP2 GT ISZERO PUSH2 0x3A7C JUMPI PUSH2 0x3A7B PUSH2 0x2F1D JUMP JUMPDEST JUMPDEST PUSH2 0x3A88 DUP7 DUP3 DUP8 ADD PUSH2 0x3168 JUMP JUMPDEST SWAP4 POP POP PUSH1 0x20 DUP5 ADD CALLDATALOAD PUSH8 0xFFFFFFFFFFFFFFFF DUP2 GT ISZERO PUSH2 0x3AA9 JUMPI PUSH2 0x3AA8 PUSH2 0x2F1D JUMP JUMPDEST JUMPDEST PUSH2 0x3AB5 DUP7 DUP3 DUP8 ADD PUSH2 0x3168 JUMP JUMPDEST SWAP3 POP POP PUSH1 0x40 PUSH2 0x3AC6 DUP7 DUP3 DUP8 ADD PUSH2 0x32D3 JUMP JUMPDEST SWAP2 POP POP SWAP3 POP SWAP3 POP SWAP3 JUMP JUMPDEST PUSH32 0x4E487B7100000000000000000000000000000000000000000000000000000000 PUSH1 0x0 MSTORE PUSH1 0x22 PUSH1 0x4 MSTORE PUSH1 0x24 PUSH1 0x0 REVERT JUMPDEST PUSH1 0x0 PUSH1 0x2 DUP3 DIV SWAP1 POP PUSH1 0x1 DUP3 AND DUP1 PUSH2 0x3B17 JUMPI PUSH1 0x7F DUP3 AND SWAP2 POP JUMPDEST PUSH1 0x20 DUP3 LT DUP2 SUB PUSH2 0x3B2A JUMPI PUSH2 0x3B29 PUSH2 0x3AD0 JUMP JUMPDEST JUMPDEST POP SWAP2 SWAP1 POP JUMP JUMPDEST PUSH32 0x536F6C6F20656C206F776E657220707565646520656A65637574617220657374 PUSH1 0x0 DUP3 ADD MSTORE PUSH32 0x6F00000000000000000000000000000000000000000000000000000000000000 PUSH1 0x20 DUP3 ADD MSTORE POP JUMP JUMPDEST PUSH1 0x0 PUSH2 0x3B8C PUSH1 0x21 DUP4 PUSH2 0x2F90 JUMP JUMPDEST SWAP2 POP PUSH2 0x3B97 DUP3 PUSH2 0x3B30 JUMP JUMPDEST PUSH1 0x40 DUP3 ADD SWAP1 POP SWAP2 SWAP1 POP JUMP JUMPDEST PUSH1 0x0 PUSH1 0x20 DUP3 ADD SWAP1 POP DUP2 DUP2 SUB PUSH1 0x0 DUP4 ADD MSTORE PUSH2 0x3BBB DUP2 PUSH2 0x3B7F JUMP JUMPDEST SWAP1 POP SWAP2 SWAP1 POP JUMP JUMPDEST PUSH1 0x0 DUP2 SWAP1 POP SWAP3 SWAP2 POP POP JUMP JUMPDEST PUSH1 0x0 PUSH2 0x3BD8 DUP3 PUSH2 0x2F85 JUMP JUMPDEST PUSH2 0x3BE2 DUP2 DUP6 PUSH2 0x3BC2 JUMP JUMPDEST SWAP4 POP PUSH2 0x3BF2 DUP2 DUP6 PUSH1 0x20 DUP7 ADD PUSH2 0x2FA1 JUMP JUMPDEST DUP1 DUP5 ADD SWAP2 POP POP SWAP3 SWAP2 POP POP JUMP JUMPDEST PUSH1 0x0 PUSH2 0x3C0A DUP3 DUP5 PUSH2 0x3BCD JUMP JUMPDEST SWAP2 POP DUP2 SWAP1 POP SWAP3 SWAP2 POP POP JUMP JUMPDEST PUSH32 0x50726F796563746F206E6F206578697374650000000000000000000000000000 PUSH1 0x0 DUP3 ADD MSTORE POP JUMP JUMPDEST PUSH1 0x0 PUSH2 0x3C4B PUSH1 0x12 DUP4 PUSH2 0x2F90 JUMP JUMPDEST SWAP2 POP PUSH2 0x3C56 DUP3 PUSH2 0x3C15 JUMP JUMPDEST PUSH1 0x20 DUP3 ADD SWAP1 POP SWAP2 SWAP1 POP JUMP JUMPDEST PUSH1 0x0 PUSH1 0x20 DUP3 ADD SWAP1 POP DUP2 DUP2 SUB PUSH1 0x0 DUP4 ADD MSTORE PUSH2 0x3C7A DUP2 PUSH2 0x3C3E JUMP JUMPDEST SWAP1 POP SWAP2 SWAP1 POP JUMP JUMPDEST PUSH32 0x4C6120646F6E6163696F6E206465626520736572206D61796F72206120300000 PUSH1 0x0 DUP3 ADD MSTORE POP JUMP JUMPDEST PUSH1 0x0 PUSH2 0x3CB7 PUSH1 0x1E DUP4 PUSH2 0x2F90 JUMP JUMPDEST SWAP2 POP PUSH2 0x3CC2 DUP3 PUSH2 0x3C81 JUMP JUMPDEST PUSH1 0x20 DUP3 ADD SWAP1 POP SWAP2 SWAP1 POP JUMP JUMPDEST PUSH1 0x0 PUSH1 0x20 DUP3 ADD SWAP1 POP DUP2 DUP2 SUB PUSH1 0x0 DUP4 ADD MSTORE PUSH2 0x3CE6 DUP2 PUSH2 0x3CAA JUMP JUMPDEST SWAP1 POP SWAP2 SWAP1 POP JUMP JUMPDEST PUSH32 0x50726F796563746F206E6F2061637469766F0000000000000000000000000000 PUSH1 0x0 DUP3 ADD MSTORE POP JUMP JUMPDEST PUSH1 0x0 PUSH2 0x3D23 PUSH1 0x12 DUP4 PUSH2 0x2F90 JUMP JUMPDEST SWAP2 POP PUSH2 0x3D2E DUP3 PUSH2 0x3CED JUMP JUMPDEST PUSH1 0x20 DUP3 ADD SWAP1 POP SWAP2 SWAP1 POP JUMP JUMPDEST PUSH1 0x0 PUSH1 0x20 DUP3 ADD SWAP1 POP DUP2 DUP2 SUB PUSH1 0x0 DUP4 ADD MSTORE PUSH2 0x3D52 DUP2 PUSH2 0x3D16 JUMP JUMPDEST SWAP1 POP SWAP2 SWAP1 POP JUMP JUMPDEST PUSH1 0x0 DUP2 SWAP1 POP DUP2 PUSH1 0x0 MSTORE PUSH1 0x20 PUSH1 0x0 KECCAK256 SWAP1 POP SWAP2 SWAP1 POP JUMP JUMPDEST PUSH1 0x0 PUSH1 0x20 PUSH1 0x1F DUP4 ADD DIV SWAP1 POP SWAP2 SWAP1 POP JUMP JUMPDEST PUSH1 0x0 DUP3 DUP3 SHL SWAP1 POP SWAP3 SWAP2 POP POP JUMP JUMPDEST PUSH1 0x0 PUSH1 0x8 DUP4 MUL PUSH2 0x3DBB PUSH32 0xFFFFFFFFFFFFFFFFFFFFFFFFFFFFFFFFFFFFFFFFFFFFFFFFFFFFFFFFFFFFFFFF DUP3 PUSH2 0x3D7E JUMP JUMPDEST PUSH2 0x3DC5 DUP7 DUP4 PUSH2 0x3D7E JUMP JUMPDEST SWAP6 POP DUP1 NOT DUP5 AND SWAP4 POP DUP1 DUP7 AND DUP5 OR SWAP3 POP POP POP SWAP4 SWAP3 POP POP POP JUMP JUMPDEST PUSH1 0x0 DUP2 SWAP1 POP SWAP2 SWAP1 POP JUMP JUMPDEST PUSH1 0x0 PUSH2 0x3E02 PUSH2 0x3DFD PUSH2 0x3DF8 DUP5 PUSH2 0x2F22 JUMP JUMPDEST PUSH2 0x3DDD JUMP JUMPDEST PUSH2 0x2F22 JUMP JUMPDEST SWAP1 POP SWAP2 SWAP1 POP JUMP JUMPDEST PUSH1 0x0 DUP2 SWAP1 POP SWAP2 SWAP1 POP JUMP JUMPDEST PUSH2 0x3E1C DUP4 PUSH2 0x3DE7 JUMP JUMPDEST PUSH2 0x3E30 PUSH2 0x3E28 DUP3 PUSH2 0x3E09 JUMP JUMPDEST DUP5 DUP5 SLOAD PUSH2 0x3D8B JUMP JUMPDEST DUP3 SSTORE POP POP POP POP JUMP JUMPDEST PUSH1 0x0 SWAP1 JUMP JUMPDEST PUSH2 0x3E45 PUSH2 0x3E38 JUMP JUMPDEST PUSH2 0x3E50 DUP2 DUP5 DUP5 PUSH2 0x3E13 JUMP JUMPDEST POP POP POP JUMP JUMPDEST JUMPDEST DUP2 DUP2 LT ISZERO PUSH2 0x3E74 JUMPI PUSH2 0x3E69 PUSH1 0x0 DUP3 PUSH2 0x3E3D JUMP JUMPDEST PUSH1 0x1 DUP2 ADD SWAP1 POP PUSH2 0x3E56 JUMP JUMPDEST POP POP JUMP JUMPDEST PUSH1 0x1F DUP3 GT ISZERO PUSH2 0x3EB9 JUMPI PUSH2 0x3E8A DUP2 PUSH2 0x3D59 JUMP JUMPDEST PUSH2 0x3E93 DUP5 PUSH2 0x3D6E JUMP JUMPDEST DUP2 ADD PUSH1 0x20 DUP6 LT ISZERO PUSH2 0x3EA2 JUMPI DUP2 SWAP1 POP JUMPDEST PUSH2 0x3EB6 PUSH2 0x3EAE DUP6 PUSH2 0x3D6E JUMP JUMPDEST DUP4 ADD DUP3 PUSH2 0x3E55 JUMP JUMPDEST POP POP JUMPDEST POP POP POP JUMP JUMPDEST PUSH1 0x0 DUP3 DUP3 SHR SWAP1 POP SWAP3 SWAP2 POP POP JUMP JUMPDEST PUSH1 0x0 PUSH2 0x3EDC PUSH1 0x0 NOT DUP5 PUSH1 0x8 MUL PUSH2 0x3EBE JUMP JUMPDEST NOT DUP1 DUP4 AND SWAP2 POP POP SWAP3 SWAP2 POP POP JUMP JUMPDEST PUSH1 0x0 PUSH2 0x3EF5 DUP4 DUP4 PUSH2 0x3ECB JUMP JUMPDEST SWAP2 POP DUP3 PUSH1 0x2 MUL DUP3 OR SWAP1 POP SWAP3 SWAP2 POP POP JUMP JUMPDEST PUSH2 0x3F0E DUP3 PUSH2 0x2F85 JUMP JUMPDEST PUSH8 0xFFFFFFFFFFFFFFFF DUP2 GT ISZERO PUSH2 0x3F27 JUMPI PUSH2 0x3F26 PUSH2 0x306B JUMP JUMPDEST JUMPDEST PUSH2 0x3F31 DUP3 SLOAD PUSH2 0x3AFF JUMP JUMPDEST PUSH2 0x3F3C DUP3 DUP3 DUP6 PUSH2 0x3E78 JUMP JUMPDEST PUSH1 0x0 PUSH1 0x20 SWAP1 POP PUSH1 0x1F DUP4 GT PUSH1 0x1 DUP2 EQ PUSH2 0x3F6F JUMPI PUSH1 0x0 DUP5 ISZERO PUSH2 0x3F5D JUMPI DUP3 DUP8 ADD MLOAD SWAP1 POP JUMPDEST PUSH2 0x3F67 DUP6 DUP3 PUSH2 0x3EE9 JUMP JUMPDEST DUP7 SSTORE POP PUSH2 0x3FCF JUMP JUMPDEST PUSH1 0x1F NOT DUP5 AND PUSH2 0x3F7D DUP7 PUSH2 0x3D59 JUMP JUMPDEST PUSH1 0x0 JUMPDEST DUP3 DUP2 LT ISZERO PUSH2 0x3FA5 JUMPI DUP5 DUP10 ADD MLOAD DUP3 SSTORE PUSH1 0x1 DUP3 ADD SWAP2 POP PUSH1 0x20 DUP6 ADD SWAP5 POP PUSH1 0x20 DUP2 ADD SWAP1 POP PUSH2 0x3F80 JUMP JUMPDEST DUP7 DUP4 LT ISZERO PUSH2 0x3FC2 JUMPI DUP5 DUP10 ADD MLOAD PUSH2 0x3FBE PUSH1 0x1F DUP10 AND DUP3 PUSH2 0x3ECB JUMP JUMPDEST DUP4 SSTORE POP JUMPDEST PUSH1 0x1 PUSH1 0x2 DUP9 MUL ADD DUP9 SSTORE POP POP POP JUMPDEST POP POP POP POP POP POP JUMP JUMPDEST PUSH32 0x4E487B7100000000000000000000000000000000000000000000000000000000 PUSH1 0x0 MSTORE PUSH1 0x11 PUSH1 0x4 MSTORE PUSH1 0x24 PUSH1 0x0 REVERT JUMPDEST PUSH1 0x0 PUSH2 0x4011 DUP3 PUSH2 0x2F22 JUMP JUMPDEST SWAP2 POP PUSH32 0xFFFFFFFFFFFFFFFFFFFFFFFFFFFFFFFFFFFFFFFFFFFFFFFFFFFFFFFFFFFFFFFF DUP3 SUB PUSH2 0x4043 JUMPI PUSH2 0x4042 PUSH2 0x3FD7 JUMP JUMPDEST JUMPDEST PUSH1 0x1 DUP3 ADD SWAP1 POP SWAP2 SWAP1 POP JUMP JUMPDEST PUSH32 0x444F4E0000000000000000000000000000000000000000000000000000000000 PUSH1 0x0 DUP3 ADD MSTORE POP JUMP JUMPDEST PUSH1 0x0 PUSH2 0x4084 PUSH1 0x3 DUP4 PUSH2 0x3BC2 JUMP JUMPDEST SWAP2 POP PUSH2 0x408F DUP3 PUSH2 0x404E JUMP JUMPDEST PUSH1 0x3 DUP3 ADD SWAP1 POP SWAP2 SWAP1 POP JUMP JUMPDEST PUSH1 0x0 PUSH2 0x40A5 DUP3 PUSH2 0x4077 JUMP JUMPDEST SWAP2 POP PUSH2 0x40B1 DUP3 DUP5 PUSH2 0x3BCD JUMP JUMPDEST SWAP2 POP DUP2 SWAP1 POP SWAP3 SWAP2 POP POP JUMP JUMPDEST PUSH1 0x0 PUSH2 0x40C7 DUP3 PUSH2 0x2F22 JUMP JUMPDEST SWAP2 POP PUSH2 0x40D2 DUP4 PUSH2 0x2F22 JUMP JUMPDEST SWAP3 POP DUP3 DUP3 ADD SWAP1 POP DUP1 DUP3 GT ISZERO PUSH2 0x40EA JUMPI PUSH2 0x40E9 PUSH2 0x3FD7 JUMP JUMPDEST JUMPDEST SWAP3 SWAP2 POP POP JUMP JUMPDEST PUSH32 0x4E487B7100000000000000000000000000000000000000000000000000000000 PUSH1 0x0 MSTORE PUSH1 0x12 PUSH1 0x4 MSTORE PUSH1 0x24 PUSH1 0x0 REVERT JUMPDEST PUSH1 0x0 PUSH2 0x412A DUP3 PUSH2 0x2F22 JUMP JUMPDEST SWAP2 POP PUSH2 0x4135 DUP4 PUSH2 0x2F22 JUMP JUMPDEST SWAP3 POP DUP3 PUSH2 0x4145 JUMPI PUSH2 0x4144 PUSH2 0x40F0 JUMP JUMPDEST JUMPDEST DUP3 DUP3 DIV SWAP1 POP SWAP3 SWAP2 POP POP JUMP JUMPDEST PUSH1 0x0 PUSH1 0x40 DUP3 ADD SWAP1 POP DUP2 DUP2 SUB PUSH1 0x0 DUP4 ADD MSTORE PUSH2 0x416A DUP2 DUP6 PUSH2 0x2FDC JUMP JUMPDEST SWAP1 POP PUSH2 0x4179 PUSH1 0x20 DUP4 ADD DUP5 PUSH2 0x3037 JUMP JUMPDEST SWAP4 SWAP3 POP POP POP JUMP JUMPDEST PUSH1 0x0 PUSH2 0x418C DUP4 DUP6 PUSH2 0x3BC2 JUMP JUMPDEST SWAP4 POP PUSH2 0x4199 DUP4 DUP6 DUP5 PUSH2 0x3117 JUMP JUMPDEST DUP3 DUP5 ADD SWAP1 POP SWAP4 SWAP3 POP POP POP JUMP JUMPDEST PUSH1 0x0 PUSH2 0x41B2 DUP3 DUP5 DUP7 PUSH2 0x4180 JUMP JUMPDEST SWAP2 POP DUP2 SWAP1 POP SWAP4 SWAP3 POP POP POP JUMP JUMPDEST PUSH32 0x4E6F206175746F72697A61646F00000000000000000000000000000000000000 PUSH1 0x0 DUP3 ADD MSTORE POP JUMP JUMPDEST PUSH1 0x0 PUSH2 0x41F4 PUSH1 0xD DUP4 PUSH2 0x2F90 JUMP JUMPDEST SWAP2 POP PUSH2 0x41FF DUP3 PUSH2 0x41BE JUMP JUMPDEST PUSH1 0x20 DUP3 ADD SWAP1 POP SWAP2 SWAP1 POP JUMP JUMPDEST PUSH1 0x0 PUSH1 0x20 DUP3 ADD SWAP1 POP DUP2 DUP2 SUB PUSH1 0x0 DUP4 ADD MSTORE PUSH2 0x4223 DUP2 PUSH2 0x41E7 JUMP JUMPDEST SWAP1 POP SWAP2 SWAP1 POP JUMP JUMPDEST PUSH32 0x436F6D7072612079612065786973746500000000000000000000000000000000 PUSH1 0x0 DUP3 ADD MSTORE POP JUMP JUMPDEST PUSH1 0x0 PUSH2 0x4260 PUSH1 0x10 DUP4 PUSH2 0x2F90 JUMP JUMPDEST SWAP2 POP PUSH2 0x426B DUP3 PUSH2 0x422A JUMP JUMPDEST PUSH1 0x20 DUP3 ADD SWAP1 POP SWAP2 SWAP1 POP JUMP JUMPDEST PUSH1 0x0 PUSH1 0x20 DUP3 ADD SWAP1 POP DUP2 DUP2 SUB PUSH1 0x0 DUP4 ADD MSTORE PUSH2 0x428F DUP2 PUSH2 0x4253 JUMP JUMPDEST SWAP1 POP SWAP2 SWAP1 POP JUMP JUMPDEST PUSH32 0x56616C6F7220696E76616C69646F000000000000000000000000000000000000 PUSH1 0x0 DUP3 ADD MSTORE POP JUMP JUMPDEST PUSH1 0x0 PUSH2 0x42CC PUSH1 0xE DUP4 PUSH2 0x2F90 JUMP JUMPDEST SWAP2 POP PUSH2 0x42D7 DUP3 PUSH2 0x4296 JUMP JUMPDEST PUSH1 0x20 DUP3 ADD SWAP1 POP SWAP2 SWAP1 POP JUMP JUMPDEST PUSH1 0x0 PUSH1 0x20 DUP3 ADD SWAP1 POP DUP2 DUP2 SUB PUSH1 0x0 DUP4 ADD MSTORE PUSH2 0x42FB DUP2 PUSH2 0x42BF JUMP JUMPDEST SWAP1 POP SWAP2 SWAP1 POP JUMP JUMPDEST PUSH1 0x0 PUSH2 0x430D DUP3 PUSH2 0x2F22 JUMP JUMPDEST SWAP2 POP PUSH2 0x4318 DUP4 PUSH2 0x2F22 JUMP JUMPDEST SWAP3 POP DUP3 DUP3 SUB SWAP1 POP DUP2 DUP2 GT ISZERO PUSH2 0x4330 JUMPI PUSH2 0x432F PUSH2 0x3FD7 JUMP JUMPDEST JUMPDEST SWAP3 SWAP2 POP POP JUMP JUMPDEST PUSH1 0x0 DUP3 SWAP1 POP SWAP3 SWAP2 POP POP JUMP JUMPDEST PUSH2 0x434B DUP4 DUP4 PUSH2 0x4336 JUMP JUMPDEST PUSH8 0xFFFFFFFFFFFFFFFF DUP2 GT ISZERO PUSH2 0x4364 JUMPI PUSH2 0x4363 PUSH2 0x306B JUMP JUMPDEST JUMPDEST PUSH2 0x436E DUP3 SLOAD PUSH2 0x3AFF JUMP JUMPDEST PUSH2 0x4379 DUP3 DUP3 DUP6 PUSH2 0x3E78 JUMP JUMPDEST PUSH1 0x0 PUSH1 0x1F DUP4 GT PUSH1 0x1 DUP2 EQ PUSH2 0x43A8 JUMPI PUSH1 0x0 DUP5 ISZERO PUSH2 0x4396 JUMPI DUP3 DUP8 ADD CALLDATALOAD SWAP1 POP JUMPDEST PUSH2 0x43A0 DUP6 DUP3 PUSH2 0x3EE9 JUMP JUMPDEST DUP7 SSTORE POP PUSH2 0x4408 JUMP JUMPDEST PUSH1 0x1F NOT DUP5 AND PUSH2 0x43B6 DUP7 PUSH2 0x3D59 JUMP JUMPDEST PUSH1 0x0 JUMPDEST DUP3 DUP2 LT ISZERO PUSH2 0x43DE JUMPI DUP5 DUP10 ADD CALLDATALOAD DUP3 SSTORE PUSH1 0x1 DUP3 ADD SWAP2 POP PUSH1 0x20 DUP6 ADD SWAP5 POP PUSH1 0x20 DUP2 ADD SWAP1 POP PUSH2 0x43B9 JUMP JUMPDEST DUP7 DUP4 LT ISZERO PUSH2 0x43FB JUMPI DUP5 DUP10 ADD CALLDATALOAD PUSH2 0x43F7 PUSH1 0x1F DUP10 AND DUP3 PUSH2 0x3ECB JUMP JUMPDEST DUP4 SSTORE POP JUMPDEST PUSH1 0x1 PUSH1 0x2 DUP9 MUL ADD DUP9 SSTORE POP POP POP JUMPDEST POP POP POP POP POP POP POP JUMP JUMPDEST PUSH1 0x0 PUSH2 0x441D DUP4 DUP6 PUSH2 0x2F90 JUMP JUMPDEST SWAP4 POP PUSH2 0x442A DUP4 DUP6 DUP5 PUSH2 0x3117 JUMP JUMPDEST PUSH2 0x4433 DUP4 PUSH2 0x2FCB JUMP JUMPDEST DUP5 ADD SWAP1 POP SWAP4 SWAP3 POP POP POP JUMP JUMPDEST PUSH1 0x0 PUSH1 0x40 DUP3 ADD SWAP1 POP DUP2 DUP2 SUB PUSH1 0x0 DUP4 ADD MSTORE PUSH2 0x4459 DUP2 DUP6 DUP8 PUSH2 0x4411 JUMP JUMPDEST SWAP1 POP PUSH2 0x4468 PUSH1 0x20 DUP4 ADD DUP5 PUSH2 0x3037 JUMP JUMPDEST SWAP5 SWAP4 POP POP POP POP JUMP JUMPDEST PUSH32 0x436F6D707261206E6F2065786973746500000000000000000000000000000000 PUSH1 0x0 DUP3 ADD MSTORE POP JUMP JUMPDEST PUSH1 0x0 PUSH2 0x44A6 PUSH1 0x10 DUP4 PUSH2 0x2F90 JUMP JUMPDEST SWAP2 POP PUSH2 0x44B1 DUP3 PUSH2 0x4470 JUMP JUMPDEST PUSH1 0x20 DUP3 ADD SWAP1 POP SWAP2 SWAP1 POP JUMP JUMPDEST PUSH1 0x0 PUSH1 0x20 DUP3 ADD SWAP1 POP DUP2 DUP2 SUB PUSH1 0x0 DUP4 ADD MSTORE PUSH2 0x44D5 DUP2 PUSH2 0x4499 JUMP JUMPDEST SWAP1 POP SWAP2 SWAP1 POP JUMP JUMPDEST PUSH32 0x436F6D7072612079612076616C69646164610000000000000000000000000000 PUSH1 0x0 DUP3 ADD MSTORE POP JUMP JUMPDEST PUSH1 0x0 PUSH2 0x4512 PUSH1 0x12 DUP4 PUSH2 0x2F90 JUMP JUMPDEST SWAP2 POP PUSH2 0x451D DUP3 PUSH2 0x44DC JUMP JUMPDEST PUSH1 0x20 DUP3 ADD SWAP1 POP SWAP2 SWAP1 POP JUMP JUMPDEST PUSH1 0x0 PUSH1 0x20 DUP3 ADD SWAP1 POP DUP2 DUP2 SUB PUSH1 0x0 DUP4 ADD MSTORE PUSH2 0x4541 DUP2 PUSH2 0x4505 JUMP JUMPDEST SWAP1 POP SWAP2 SWAP1 POP JUMP JUMPDEST PUSH32 0x536F6C6F2070726F766565646F72000000000000000000000000000000000000 PUSH1 0x0 DUP3 ADD MSTORE POP JUMP JUMPDEST PUSH1 0x0 PUSH2 0x457E PUSH1 0xE DUP4 PUSH2 0x2F90 JUMP JUMPDEST SWAP2 POP PUSH2 0x4589 DUP3 PUSH2 0x4548 JUMP JUMPDEST PUSH1 0x20 DUP3 ADD SWAP1 POP SWAP2 SWAP1 POP JUMP JUMPDEST PUSH1 0x0 PUSH1 0x20 DUP3 ADD SWAP1 POP DUP2 DUP2 SUB PUSH1 0x0 DUP4 ADD MSTORE PUSH2 0x45AD DUP2 PUSH2 0x4571 JUMP JUMPDEST SWAP1 POP SWAP2 SWAP1 POP JUMP JUMPDEST PUSH1 0x0 DUP2 SLOAD PUSH2 0x45C1 DUP2 PUSH2 0x3AFF JUMP JUMPDEST PUSH2 0x45CB DUP2 DUP7 PUSH2 0x3BC2 JUMP JUMPDEST SWAP5 POP PUSH1 0x1 DUP3 AND PUSH1 0x0 DUP2 EQ PUSH2 0x45E6 JUMPI PUSH1 0x1 DUP2 EQ PUSH2 0x45FB JUMPI PUSH2 0x462E JUMP JUMPDEST PUSH1 0xFF NOT DUP4 AND DUP7 MSTORE DUP2 ISZERO ISZERO DUP3 MUL DUP7 ADD SWAP4 POP PUSH2 0x462E JUMP JUMPDEST PUSH2 0x4604 DUP6 PUSH2 0x3D59 JUMP JUMPDEST PUSH1 0x0 JUMPDEST DUP4 DUP2 LT ISZERO PUSH2 0x4626 JUMPI DUP2 SLOAD DUP2 DUP10 ADD MSTORE PUSH1 0x1 DUP3 ADD SWAP2 POP PUSH1 0x20 DUP2 ADD SWAP1 POP PUSH2 0x4607 JUMP JUMPDEST DUP4 DUP9 ADD SWAP6 POP POP POP JUMPDEST POP POP POP SWAP3 SWAP2 POP POP JUMP JUMPDEST PUSH1 0x0 PUSH2 0x4643 DUP3 DUP5 PUSH2 0x45B4 JUMP JUMPDEST SWAP2 POP DUP2 SWAP1 POP SWAP3 SWAP2 POP POP JUMP JUMPDEST PUSH32 0x43616E7469646164206578636564652072656361756461646F00000000000000 PUSH1 0x0 DUP3 ADD MSTORE POP JUMP JUMPDEST PUSH1 0x0 PUSH2 0x4684 PUSH1 0x19 DUP4 PUSH2 0x2F90 JUMP JUMPDEST SWAP2 POP PUSH2 0x468F DUP3 PUSH2 0x464E JUMP JUMPDEST PUSH1 0x20 DUP3 ADD SWAP1 POP SWAP2 SWAP1 POP JUMP JUMPDEST PUSH1 0x0 PUSH1 0x20 DUP3 ADD SWAP1 POP DUP2 DUP2 SUB PUSH1 0x0 DUP4 ADD MSTORE PUSH2 0x46B3 DUP2 PUSH2 0x4677 JUMP JUMPDEST SWAP1 POP SWAP2 SWAP1 POP JUMP JUMPDEST PUSH32 0x446F6E616E7465207961207265676973747261646F0000000000000000000000 PUSH1 0x0 DUP3 ADD MSTORE POP JUMP JUMPDEST PUSH1 0x0 PUSH2 0x46F0 PUSH1 0x15 DUP4 PUSH2 0x2F90 JUMP JUMPDEST SWAP2 POP PUSH2 0x46FB DUP3 PUSH2 0x46BA JUMP JUMPDEST PUSH1 0x20 DUP3 ADD SWAP1 POP SWAP2 SWAP1 POP JUMP JUMPDEST PUSH1 0x0 PUSH1 0x20 DUP3 ADD SWAP1 POP DUP2 DUP2 SUB PUSH1 0x0 DUP4 ADD MSTORE PUSH2 0x471F DUP2 PUSH2 0x46E3 JUMP JUMPDEST SWAP1 POP SWAP2 SWAP1 POP JUMP JUMPDEST PUSH32 0x50726F796563746F207961206578697374650000000000000000000000000000 PUSH1 0x0 DUP3 ADD MSTORE POP JUMP JUMPDEST PUSH1 0x0 PUSH2 0x475C PUSH1 0x12 DUP4 PUSH2 0x2F90 JUMP JUMPDEST SWAP2 POP PUSH2 0x4767 DUP3 PUSH2 0x4726 JUMP JUMPDEST PUSH1 0x20 DUP3 ADD SWAP1 POP SWAP2 SWAP1 POP JUMP JUMPDEST PUSH1 0x0 PUSH1 0x20 DUP3 ADD SWAP1 POP DUP2 DUP2 SUB PUSH1 0x0 DUP4 ADD MSTORE PUSH2 0x478B DUP2 PUSH2 0x474F JUMP JUMPDEST SWAP1 POP SWAP2 SWAP1 POP JUMP JUMPDEST PUSH1 0x0 PUSH1 0x40 DUP3 ADD SWAP1 POP DUP2 DUP2 SUB PUSH1 0x0 DUP4 ADD MSTORE PUSH2 0x47AC DUP2 DUP6 PUSH2 0x2FDC JUMP JUMPDEST SWAP1 POP DUP2 DUP2 SUB PUSH1 0x20 DUP4 ADD MSTORE PUSH2 0x47C0 DUP2 DUP5 PUSH2 0x2FDC JUMP JUMPDEST SWAP1 POP SWAP4 SWAP3 POP POP POP JUMP JUMPDEST PUSH32 0x4E6F207265676973747261646F00000000000000000000000000000000000000 PUSH1 0x0 DUP3 ADD MSTORE POP JUMP JUMPDEST PUSH1 0x0 PUSH2 0x47FF PUSH1 0xD DUP4 PUSH2 0x2F90 JUMP JUMPDEST SWAP2 POP PUSH2 0x480A DUP3 PUSH2 0x47C9 JUMP JUMPDEST PUSH1 0x20 DUP3 ADD SWAP1 POP SWAP2 SWAP1 POP JUMP JUMPDEST PUSH1 0x0 PUSH1 0x20 DUP3 ADD SWAP1 POP DUP2 DUP2 SUB PUSH1 0x0 DUP4 ADD MSTORE PUSH2 0x482E DUP2 PUSH2 0x47F2 JUMP JUMPDEST SWAP1 POP SWAP2 SWAP1 POP JUMP JUMPDEST PUSH32 0x546F6B656E7320696E737566696369656E746573000000000000000000000000 PUSH1 0x0 DUP3 ADD MSTORE POP JUMP JUMPDEST PUSH1 0x0 PUSH2 0x486B PUSH1 0x14 DUP4 PUSH2 0x2F90 JUMP JUMPDEST SWAP2 POP PUSH2 0x4876 DUP3 PUSH2 0x4835 JUMP JUMPDEST PUSH1 0x20 DUP3 ADD SWAP1 POP SWAP2 SWAP1 POP JUMP JUMPDEST PUSH1 0x0 PUSH1 0x20 DUP3 ADD SWAP1 POP DUP2 DUP2 SUB PUSH1 0x0 DUP4 ADD MSTORE PUSH2 0x489A DUP2 PUSH2 0x485E JUMP JUMPDEST SWAP1 POP SWAP2 SWAP1 POP JUMP JUMPDEST PUSH1 0x0 PUSH2 0x48AC DUP3 PUSH2 0x2F22 JUMP JUMPDEST SWAP2 POP PUSH2 0x48B7 DUP4 PUSH2 0x2F22 JUMP JUMPDEST SWAP3 POP DUP3 PUSH2 0x48C7 JUMPI PUSH2 0x48C6 PUSH2 0x40F0 JUMP JUMPDEST JUMPDEST DUP3 DUP3 MOD SWAP1 POP SWAP3 SWAP2 POP POP JUMP JUMPDEST PUSH1 0x0 PUSH2 0x48DD DUP3 PUSH2 0x2F22 JUMP JUMPDEST SWAP2 POP PUSH1 0x0 DUP3 SUB PUSH2 0x48F0 JUMPI PUSH2 0x48EF PUSH2 0x3FD7 JUMP JUMPDEST JUMPDEST PUSH1 0x1 DUP3 SUB SWAP1 POP SWAP2 SWAP1 POP JUMP JUMPDEST PUSH32 0x4E487B7100000000000000000000000000000000000000000000000000000000 PUSH1 0x0 MSTORE PUSH1 0x32 PUSH1 0x4 MSTORE PUSH1 0x24 PUSH1 0x0 REVERT INVALID LOG2 PUSH5 0x6970667358 0x22 SLT KECCAK256 0xF7 MCOPY PUSH10 0xD62AD42DA2C51590DA56 0xA8 SHR 0xB5 0xCD SELFBALANCE 0xD7 PUSH24 0x3146B16F2C49F52FE1C2F53A64736F6C634300081F003300 "
		},
		"gasEstimates": {
			"creation": {
				"codeDepositCost": "3756800",
				"executionCost": "33517",
				"totalCost": "3790317"
			},
			"external": {
				"cambiarEstadoProyecto(string,uint8)": "infinite",
				"compras(string)": "infinite",
				"crearProyecto(string,string,address)": "infinite",
				"donaciones(string)": "infinite",
				"donantes(address)": "infinite",
				"donar(string)": "infinite",
				"listaCompras(uint256)": "infinite",
				"listaDonaciones(uint256)": "infinite",
				"listaDonantes(uint256)": "5068",
				"listaProyectos(uint256)": "infinite",
				"obtenerBalance()": "429",
				"obtenerDonacion(string)": "infinite",
				"obtenerDonante(address)": "infinite",
				"obtenerProyecto(string)": "infinite",
				"obtenerTotalDonaciones()": "2534",
				"obtenerTotalDonantes()": "2491",
				"obtenerTotalProyectos()": "2534",
				"owner()": "2625",
				"proyectos(string)": "infinite",
				"realizarCompra(string,string,address)": "infinite",
				"registrarDonante(string,uint8)": "infinite",
				"retirarFondos()": "infinite",
				"validarCompra(string)": "infinite",
				"validarFondosProyecto(string,uint256)": "infinite",
				"votarProyecto(string,uint256)": "infinite"
			},
			"internal": {
				"uintToString(uint256)": "infinite"
			}
		},
		"methodIdentifiers": {
			"cambiarEstadoProyecto(string,uint8)": "1feac110",
			"compras(string)": "71e60523",
			"crearProyecto(string,string,address)": "e61ef234",
			"donaciones(string)": "8e5a67ad",
			"donantes(address)": "6db33b4a",
			"donar(string)": "2fe70653",
			"listaCompras(uint256)": "69b7c4b5",
			"listaDonaciones(uint256)": "020be41f",
			"listaDonantes(uint256)": "29211437",
			"listaProyectos(uint256)": "9fb7aafc",
			"obtenerBalance()": "22d9a1ee",
			"obtenerDonacion(string)": "4c47d69f",
			"obtenerDonante(address)": "3e08ec0b",
			"obtenerProyecto(string)": "81b662c8",
			"obtenerTotalDonaciones()": "8cb813ce",
			"obtenerTotalDonantes()": "1815a0f7",
			"obtenerTotalProyectos()": "687b5810",
			"owner()": "8da5cb5b",
			"proyectos(string)": "460be06b",
			"realizarCompra(string,string,address)": "a6e2ac4a",
			"registrarDonante(string,uint8)": "dcd82bb8",
			"retirarFondos()": "8af01880",
			"validarCompra(string)": "a89dcbc4",
			"validarFondosProyecto(string,uint256)": "b7bf159c",
			"votarProyecto(string,uint256)": "e63cfcd5"
		}
	},
	"abi": [
		{
			"inputs": [],
			"stateMutability": "nonpayable",
			"type": "constructor"
		},
		{
			"anonymous": false,
			"inputs": [
				{
					"indexed": true,
					"internalType": "address",
					"name": "donante",
					"type": "address"
				},
				{
					"indexed": false,
					"internalType": "string",
					"name": "compradorId",
					"type": "string"
				},
				{
					"indexed": false,
					"internalType": "uint256",
					"name": "valor_compra",
					"type": "uint256"
				}
			],
			"name": "CompraRealizada",
			"type": "event"
		},
		{
			"anonymous": false,
			"inputs": [
				{
					"indexed": false,
					"internalType": "string",
					"name": "compraId",
					"type": "string"
				},
				{
					"indexed": false,
					"internalType": "address",
					"name": "proveedor",
					"type": "address"
				},
				{
					"indexed": false,
					"internalType": "uint256",
					"name": "valor",
					"type": "uint256"
				}
			],
			"name": "CompraValidada",
			"type": "event"
		},
		{
			"anonymous": false,
			"inputs": [
				{
					"indexed": true,
					"internalType": "address",
					"name": "donante",
					"type": "address"
				},
				{
					"indexed": false,
					"internalType": "string",
					"name": "proyectoId",
					"type": "string"
				},
				{
					"indexed": false,
					"internalType": "uint256",
					"name": "cantidad",
					"type": "uint256"
				}
			],
			"name": "DonacionRealizada",
			"type": "event"
		},
		{
			"anonymous": false,
			"inputs": [
				{
					"indexed": true,
					"internalType": "address",
					"name": "direccion",
					"type": "address"
				},
				{
					"indexed": false,
					"internalType": "string",
					"name": "nombre",
					"type": "string"
				}
			],
			"name": "DonanteRegistrado",
			"type": "event"
		},
		{
			"anonymous": false,
			"inputs": [
				{
					"indexed": false,
					"internalType": "string",
					"name": "id",
					"type": "string"
				},
				{
					"indexed": false,
					"internalType": "string",
					"name": "descripcion",
					"type": "string"
				}
			],
			"name": "ProyectoCreado",
			"type": "event"
		},
		{
			"anonymous": false,
			"inputs": [
				{
					"indexed": true,
					"internalType": "address",
					"name": "donante",
					"type": "address"
				},
				{
					"indexed": false,
					"internalType": "string",
					"name": "proyectoId",
					"type": "string"
				},
				{
					"indexed": false,
					"internalType": "uint256",
					"name": "cantidad_votos",
					"type": "uint256"
				}
			],
			"name": "VotacionRealizada",
			"type": "event"
		},
		{
			"inputs": [
				{
					"internalType": "string",
					"name": "_proyectoId",
					"type": "string"
				},
				{
					"internalType": "enum ONGDonaciones.EstadoProyecto",
					"name": "_nuevoEstado",
					"type": "uint8"
				}
			],
			"name": "cambiarEstadoProyecto",
			"outputs": [],
			"stateMutability": "nonpayable",
			"type": "function"
		},
		{
			"inputs": [
				{
					"internalType": "string",
					"name": "",
					"type": "string"
				}
			],
			"name": "compras",
			"outputs": [
				{
					"internalType": "string",
					"name": "id",
					"type": "string"
				},
				{
					"internalType": "address",
					"name": "comprador",
					"type": "address"
				},
				{
					"internalType": "address",
					"name": "proveedor",
					"type": "address"
				},
				{
					"internalType": "string",
					"name": "proyectoId",
					"type": "string"
				},
				{
					"internalType": "uint256",
					"name": "valor",
					"type": "uint256"
				},
				{
					"internalType": "uint256",
					"name": "fecha",
					"type": "uint256"
				},
				{
					"internalType": "bool",
					"name": "validada",
					"type": "bool"
				}
			],
			"stateMutability": "view",
			"type": "function"
		},
		{
			"inputs": [
				{
					"internalType": "string",
					"name": "_id",
					"type": "string"
				},
				{
					"internalType": "string",
					"name": "_descripcion",
					"type": "string"
				},
				{
					"internalType": "address",
					"name": "_responsable",
					"type": "address"
				}
			],
			"name": "crearProyecto",
			"outputs": [],
			"stateMutability": "nonpayable",
			"type": "function"
		},
		{
			"inputs": [
				{
					"internalType": "string",
					"name": "",
					"type": "string"
				}
			],
			"name": "donaciones",
			"outputs": [
				{
					"internalType": "string",
					"name": "id",
					"type": "string"
				},
				{
					"internalType": "address",
					"name": "donante",
					"type": "address"
				},
				{
					"internalType": "string",
					"name": "proyectoId",
					"type": "string"
				},
				{
					"internalType": "uint256",
					"name": "cantidad",
					"type": "uint256"
				},
				{
					"internalType": "uint256",
					"name": "fecha",
					"type": "uint256"
				}
			],
			"stateMutability": "view",
			"type": "function"
		},
		{
			"inputs": [
				{
					"internalType": "address",
					"name": "",
					"type": "address"
				}
			],
			"name": "donantes",
			"outputs": [
				{
					"internalType": "address",
					"name": "direccion",
					"type": "address"
				},
				{
					"internalType": "string",
					"name": "nombre",
					"type": "string"
				},
				{
					"internalType": "enum ONGDonaciones.TipoDonante",
					"name": "tipoDonante",
					"type": "uint8"
				},
				{
					"internalType": "uint256",
					"name": "totalDonado",
					"type": "uint256"
				},
				{
					"internalType": "uint256",
					"name": "tokensGobernanza",
					"type": "uint256"
				}
			],
			"stateMutability": "view",
			"type": "function"
		},
		{
			"inputs": [
				{
					"internalType": "string",
					"name": "_proyectoId",
					"type": "string"
				}
			],
			"name": "donar",
			"outputs": [],
			"stateMutability": "payable",
			"type": "function"
		},
		{
			"inputs": [
				{
					"internalType": "uint256",
					"name": "",
					"type": "uint256"
				}
			],
			"name": "listaCompras",
			"outputs": [
				{
					"internalType": "string",
					"name": "",
					"type": "string"
				}
			],
			"stateMutability": "view",
			"type": "function"
		},
		{
			"inputs": [
				{
					"internalType": "uint256",
					"name": "",
					"type": "uint256"
				}
			],
			"name": "listaDonaciones",
			"outputs": [
				{
					"internalType": "string",
					"name": "",
					"type": "string"
				}
			],
			"stateMutability": "view",
			"type": "function"
		},
		{
			"inputs": [
				{
					"internalType": "uint256",
					"name": "",
					"type": "uint256"
				}
			],
			"name": "listaDonantes",
			"outputs": [
				{
					"internalType": "address",
					"name": "",
					"type": "address"
				}
			],
			"stateMutability": "view",
			"type": "function"
		},
		{
			"inputs": [
				{
					"internalType": "uint256",
					"name": "",
					"type": "uint256"
				}
			],
			"name": "listaProyectos",
			"outputs": [
				{
					"internalType": "string",
					"name": "",
					"type": "string"
				}
			],
			"stateMutability": "view",
			"type": "function"
		},
		{
			"inputs": [],
			"name": "obtenerBalance",
			"outputs": [
				{
					"internalType": "uint256",
					"name": "",
					"type": "uint256"
				}
			],
			"stateMutability": "view",
			"type": "function"
		},
		{
			"inputs": [
				{
					"internalType": "string",
					"name": "_id",
					"type": "string"
				}
			],
			"name": "obtenerDonacion",
			"outputs": [
				{
					"components": [
						{
							"internalType": "string",
							"name": "id",
							"type": "string"
						},
						{
							"internalType": "address",
							"name": "donante",
							"type": "address"
						},
						{
							"internalType": "string",
							"name": "proyectoId",
							"type": "string"
						},
						{
							"internalType": "uint256",
							"name": "cantidad",
							"type": "uint256"
						},
						{
							"internalType": "uint256",
							"name": "fecha",
							"type": "uint256"
						}
					],
					"internalType": "struct ONGDonaciones.Donacion",
					"name": "",
					"type": "tuple"
				}
			],
			"stateMutability": "view",
			"type": "function"
		},
		{
			"inputs": [
				{
					"internalType": "address",
					"name": "_direccion",
					"type": "address"
				}
			],
			"name": "obtenerDonante",
			"outputs": [
				{
					"components": [
						{
							"internalType": "address",
							"name": "direccion",
							"type": "address"
						},
						{
							"internalType": "string",
							"name": "nombre",
							"type": "string"
						},
						{
							"internalType": "enum ONGDonaciones.TipoDonante",
							"name": "tipoDonante",
							"type": "uint8"
						},
						{
							"internalType": "uint256",
							"name": "totalDonado",
							"type": "uint256"
						},
						{
							"internalType": "uint256",
							"name": "tokensGobernanza",
							"type": "uint256"
						}
					],
					"internalType": "struct ONGDonaciones.Donante",
					"name": "",
					"type": "tuple"
				}
			],
			"stateMutability": "view",
			"type": "function"
		},
		{
			"inputs": [
				{
					"internalType": "string",
					"name": "_id",
					"type": "string"
				}
			],
			"name": "obtenerProyecto",
			"outputs": [
				{
					"components": [
						{
							"internalType": "string",
							"name": "id",
							"type": "string"
						},
						{
							"internalType": "string",
							"name": "descripcion",
							"type": "string"
						},
						{
							"internalType": "address",
							"name": "responsable",
							"type": "address"
						},
						{
							"internalType": "uint256",
							"name": "cantidadRecaudada",
							"type": "uint256"
						},
						{
							"internalType": "uint256",
							"name": "cantidadValidada",
							"type": "uint256"
						},
						{
							"internalType": "enum ONGDonaciones.EstadoProyecto",
							"name": "estado",
							"type": "uint8"
						},
						{
							"internalType": "uint256",
							"name": "votos",
							"type": "uint256"
						}
					],
					"internalType": "struct ONGDonaciones.Proyecto",
					"name": "",
					"type": "tuple"
				}
			],
			"stateMutability": "view",
			"type": "function"
		},
		{
			"inputs": [],
			"name": "obtenerTotalDonaciones",
			"outputs": [
				{
					"internalType": "uint256",
					"name": "",
					"type": "uint256"
				}
			],
			"stateMutability": "view",
			"type": "function"
		},
		{
			"inputs": [],
			"name": "obtenerTotalDonantes",
			"outputs": [
				{
					"internalType": "uint256",
					"name": "",
					"type": "uint256"
				}
			],
			"stateMutability": "view",
			"type": "function"
		},
		{
			"inputs": [],
			"name": "obtenerTotalProyectos",
			"outputs": [
				{
					"internalType": "uint256",
					"name": "",
					"type": "uint256"
				}
			],
			"stateMutability": "view",
			"type": "function"
		},
		{
			"inputs": [],
			"name": "owner",
			"outputs": [
				{
					"internalType": "address",
					"name": "",
					"type": "address"
				}
			],
			"stateMutability": "view",
			"type": "function"
		},
		{
			"inputs": [
				{
					"internalType": "string",
					"name": "",
					"type": "string"
				}
			],
			"name": "proyectos",
			"outputs": [
				{
					"internalType": "string",
					"name": "id",
					"type": "string"
				},
				{
					"internalType": "string",
					"name": "descripcion",
					"type": "string"
				},
				{
					"internalType": "address",
					"name": "responsable",
					"type": "address"
				},
				{
					"internalType": "uint256",
					"name": "cantidadRecaudada",
					"type": "uint256"
				},
				{
					"internalType": "uint256",
					"name": "cantidadValidada",
					"type": "uint256"
				},
				{
					"internalType": "enum ONGDonaciones.EstadoProyecto",
					"name": "estado",
					"type": "uint8"
				},
				{
					"internalType": "uint256",
					"name": "votos",
					"type": "uint256"
				}
			],
			"stateMutability": "view",
			"type": "function"
		},
		{
			"inputs": [
				{
					"internalType": "string",
					"name": "_compraId",
					"type": "string"
				},
				{
					"internalType": "string",
					"name": "_proyectoId",
					"type": "string"
				},
				{
					"internalType": "address",
					"name": "_proveedor",
					"type": "address"
				}
			],
			"name": "realizarCompra",
			"outputs": [],
			"stateMutability": "payable",
			"type": "function"
		},
		{
			"inputs": [
				{
					"internalType": "string",
					"name": "_nombre",
					"type": "string"
				},
				{
					"internalType": "enum ONGDonaciones.TipoDonante",
					"name": "_tipo",
					"type": "uint8"
				}
			],
			"name": "registrarDonante",
			"outputs": [],
			"stateMutability": "nonpayable",
			"type": "function"
		},
		{
			"inputs": [],
			"name": "retirarFondos",
			"outputs": [],
			"stateMutability": "nonpayable",
			"type": "function"
		},
		{
			"inputs": [
				{
					"internalType": "string",
					"name": "_compraId",
					"type": "string"
				}
			],
			"name": "validarCompra",
			"outputs": [],
			"stateMutability": "nonpayable",
			"type": "function"
		},
		{
			"inputs": [
				{
					"internalType": "string",
					"name": "_proyectoId",
					"type": "string"
				},
				{
					"internalType": "uint256",
					"name": "_cantidad",
					"type": "uint256"
				}
			],
			"name": "validarFondosProyecto",
			"outputs": [],
			"stateMutability": "nonpayable",
			"type": "function"
		},
		{
			"inputs": [
				{
					"internalType": "string",
					"name": "_proyectoId",
					"type": "string"
				},
				{
					"internalType": "uint256",
					"name": "_cantidadVotos",
					"type": "uint256"
				}
			],
			"name": "votarProyecto",
			"outputs": [],
			"stateMutability": "nonpayable",
			"type": "function"
		}
	]
}